:020000040800F2
:1000000000000220B5590008015A0008015A0008F2
:10001000015A0008015A0008015A000800000000B7
:10002000000000000000000000000000015A00086D
:10003000015A000800000000015A0008015A000897
:10004000015A0008015A0008015A0008015A000824
:10005000015A0008015A0008015A0008015A000814
:10006000015A0008015A0008015A0008015A000804
:10007000015A0008015A0008015A0008015A0008F4
:10008000015A0008015A0008015A000815420008E8
:1000900019420008015A000809420008015A0008E4
:1000A000015A0008015A0008015A0008015A0008C4
:1000B000015A0008015A0008015A0008015A0008B4
:1000C000015A0008015A0008015A0008015A0008A4
:1000D000015A0008015A0008015A0008015A000894
:1000E000015A0008015A0008015A0008015A000884
:1000F000015A0008015A0008015A0008015A000874
:10010000015A0008015A0008015A0008015A000863
:10011000015A0008015A0008015A0008015A000853
:10012000015A0008015A0008015A0008015A000843
:10013000015A0008000000000000000029420008E9
:100140002D420008015A00081D420008015A00080B
:10015000015A0008015A0008015A0008015A000813
:10016000015A0008015A0008015A0008015A000803
:10017000015A0008015A0008015A00080000000056
:1001800000000000015A000800000000000000000C
:10019000015A00080000000000000000015A000899
:1001A000000000000000000000000000015A0008EC
:1001B000015A0008015A0008015A0008015A0008B3
:1001C000015A000810B5054C237833B9044B13B11C
:1001D0000448AFF300800123237010BD48100020B5
:1001E0000000000068A6010808B5034B1BB10349D5
:1001F0000348AFF3008008BD000000004C10002051
:1002000068A60108A3F5803A704700BF174B002B82
:1002100008BF134B9D46FFF7F5FF00218B460F46A5
:100220001348144A121A0AF031F80E4B002B00D072
:1002300098470D4B002B00D0984700200021040068
:100240000D000D48002802D00C4804F0FCFB09F01A
:10025000D5FD2000290004F085FE04F0F1FB00BF6D
:100260000000080000000000554F000800000220B8
:100270004810002020310020474A000800000000FC
:1002800010B5094B036003F1200280330446C0F827
:10029000BC20C0F8C030BC3008F052FE204608F048
:1002A0002DF9204610BD00BF389A0108A0F1BC000E
:1002B000E6E7A0F1C000E3E708B52848274C4FF473
:1002C000165108F037F804F1BC05204608F046F84E
:1002D00018B1284608F05AFEF7E7214C214D64205A
:1002E00008F00AFC2049214808F062FE236898685B
:1002F00009F018F81E491D4808F05AFE23681D4CE5
:10030000986809F00FF81C491848224608F06DFE5D
:10031000164808F03BFE19492278144808F048FEB8
:1003200022781248531E022B94BF1549154908F034
:100330003FFE15490D48FF232B7008F039FE207849
:1003400000F0EEF8207802F019F81049074808F09C
:100350002FFE00F037F901F025F8FAE768100020C9
:100360007406002064100020686901082411002030
:10037000B7690108CC0100205B6E0108CE69010855
:10038000E2690108006A01081A6A01083A6A01086C
:1003900010B50446FFF774FF204604F0BCFC20466D
:1003A00010BDA0F1BC00F3E7A0F1C000F0E7000031
:1003B00013B5094C4FF41653009303220023022176
:1003C000204607F00BFC054A0549204602B0BDE86F
:1003D000104004F033BB00BF68100020C8010020AB
:1003E000810200080FB407B5064B04AA1B6852F837
:1003F000041BD86801920DF075FF03B05DF804EBA3
:1004000004B070477406002008B5074B1A78074BF4
:100410001B789A4205D106481146FFF7E3FF0120F9
:1004200008BD0020FCE700BFCD010020D61200204F
:10043000516A0108024B1870062000F07BB900BF1A
:100440004211002038B50546FFF7DEFF01280446BB
:1004500005D105482946FFF7C5FF204638BD034BA7
:1004600000241D70F9E700BF906A0108D612002031
:1004700070B50D4E0D4D3378834228BF03461A46A2
:100480000B4829461C4609F0EBFD3278094B121B3C
:10049000D2B21C7032702AB12919284609F0E0FD49
:1004A000012070BD1046FCE744110020D716002043
:1004B00045110020D512002038B5054610460C46DF
:1004C000FFF7C0FF012808D1072000F04FF920B145
:1004D000BDE83840072000F049B9192C22462946CA
:1004E00009D80B4809F0BCFD0A4B1C70BDE8384028
:1004F000042000F01FB9084809F0B2FD074B1A208C
:100500001C70FFF7B5FF072000F014F9EEE700BFFD
:1005100045110020D5120020D716002044110020DC
:1005200010B50A4B0A4C00221A70207000F018F91E
:10053000FFF76AFF207800F085F9064802F034F9E9
:10054000BDE81040044802F035B900BFD6120020C3
:10055000CD010020B9040008350400082DE9FF4151
:10056000164D1F4695F80080154B144698440E46CC
:1005700000F0DDF822460146404609F071FD2A7878
:10058000023A1444E4B2012F2C7003D09DF82830B5
:10059000012B10D100F096F9039000F08DF9039B28
:1005A000009022460648314602F0C0F8002028702C
:1005B00004B0BDE8F0810120FAE700BF431100203C
:1005C000D712002070B53D4B3D4D1A782C78A242D1
:1005D00086B018BF1C701CB1012C63D006B070BD72
:1005E000062000F0C3F878B1364B187800F046F9D1
:1005F000B0FA80F0400902F0BEF82C70062006B078
:10060000BDE8704000F0A0B8032000F0AFF8E0B102
:1006100000F042F9059000F045F9064600F046F971
:10062000049000F055F90390304600F066F8C0B22F
:10063000DDE90332059900903046FFF78FFF032074
:1006400000F082F82C700320D9E7042000F08EF827
:10065000C8B11D4B07201B78039300F087F8B0FA50
:1006600080F04009039B194900902246184800F089
:100670004EF8184B01461A78154800F0F5F801239A
:100680002B700420BBE7072000F070F80028A5D0ED
:10069000042000F04FF81A20FFF7EAFE00289DD151
:1006A0000720ACE7002000F061F8002896D0002673
:1006B00020462E7002F05CF83046A0E74111002081
:1006C0004011002042110020D512002045110020C9
:1006D0000D120020D6120020024B1A78024B1A701D
:1006E000704700BF40110020411100200078013800
:1006F00001288CBF0020012070470078431E58421B
:10070000584170470078B0FA80F04009704710B542
:100710001C469DF808304270012B18BF022303705D
:100720002246023009F09CFCA01CC0B210BD023071
:1007300070470000034A012303FA00F013681843CE
:1007400010607047D81A0020044901220B6802FA91
:1007500000F023EA00030B60704700BFD81A0020A6
:10076000014B00221A607047D81A0020012303FAB7
:1007700000F0024B1B681840704700BFD81A0020D9
:10078000054B1B785A1E012A02D80020FFF7D2BF62
:100790000BB90120FAE77047DD1A0020F8B50746CB
:1007A0000C4615461E4609F01BFE07EE900AFAEEAF
:1007B000E07AF5EEC07AF1EE10FA21DD2A46214604
:1007C000104809F04DFC104B1F70104B1D7003F0CA
:1007D0003BFC0F4B187003F031FC0E4B18800E4B96
:1007E00020461E70FFF782FF20B10320BDE8F840CD
:1007F000FFF7A0BF2046FFF785FF08B10220F5E70D
:10080000F8BD00BFE01A0020DF1A0020141B0020F2
:10081000DE1A0020121B0020DC1A00200FB407B5DE
:10082000064B07491B6805AAD86801920DF05AFDCE
:1008300003B05DF804EB04B0704700BF74060020FD
:10084000B56A010810B50446002008F061FA09F005
:10085000BFFD2046024A0349BDE8104003F090BBAB
:100860009D0700088107000810B5044603F0AAFBA5
:10087000014B22781A7010BDDD1A002010B503F06C
:10088000E9FB044618B101460248FFF7C7FF2046BE
:1008900010BD00BFB56A0108014B1878704700BF52
:1008A000DF1A002000487047E01A0020014B18783A
:1008B000704700BF141B0020014BB3F900007047C4
:1008C000121B0020014B93F900007047DE1A002034
:1008D000014B1878704700BFDC1A002003681847E6
:1008E0000B68036070477047C36810B504460BB1CE
:1008F0009B689847204610BD38B50546064B45F81D
:10090000283B044607F0B7F82846FFF7EDFF2046DE
:1009100007F07CF8204638BD8C99010810B50446D4
:10092000FFF7EAFF204604F0F6F9204610BD00006C
:1009300010B5034B03600446FFF7DEFF204610BDF1
:10094000009A010838B5CB6804460D460BB15B68C8
:100950009847EB68E360204638BD10B50446FFF7C2
:10096000E7FF204604F0D7F9204610BD10B50C4C27
:10097000204607F023F820460A4B40F8283B102277
:10098000002109F083FC012384F83830064B2360F2
:100990002046064A0649BDE8104004F04FB800BFA3
:1009A000181B00208C990108009A0108C80100203A
:1009B000310900080021084B0A464FF681700131C9
:1009C00003291A7058801A715A719A719A601A73B1
:1009D00003F11003F3D17047C41B0020F0B5184990
:1009E000CC78064600220F46D3B29C4226D991F815
:1009F0005401B04202F1010201F10C01F4D1013CB9
:100A00004FF00C0CA34211DA0CFB037503F1010E3D
:100A100003FB0CC33B4403F5AA7393E8070005F5F9
:100A2000AA7585E807005FFA8EF3EBE7FC703246A3
:100A300004490548BDE8F04008F0BABAF0BD00BF6F
:100A4000F41C0020F46A0108D41C00202DE9F043B6
:100A5000154DDFF85C90DFF85C8085B00022EB7804
:100A600093421DD90C24571C04FB02541321FEB2DF
:100A700094F854218DF80C108DF80E300321D9F81C
:100A800000308DF80D6003A89847EB78009394F838
:100A9000542106483B46414608F08AFA3246DEE7D2
:100AA00005B0BDE8F08300BFF41C0020D41C00207A
:100AB000BC230020206B01082DE9F04FB048B14F56
:100AC0009FB008F063FA3B78C1B2002B5DD0AE4E08
:100AD0000D29337801D00A293CD1AC4D0024EC54C7
:100AE0006BB3AB49A648DFF8BC922A4608F060FA1F
:100AF000294602A801F0ADFD99F80230804623B3E3
:100B0000DFF8E8B2DFF8ECA299F80220E5B2AA42D9
:100B100011D90C2303FB05954146DBF8003095F80D
:100B20003C2102A8984795F83C219548514608F089
:100B30003FFA0134E8E79749914808F039FA002371
:100B40003B7033701FB0BDE8F08F93498C4808F0BC
:100B50002FFAF4E7082901D07F290AD1002BF1D020
:100B6000013B8E49337086481FB0BDE8F04F08F056
:100B70001FBA632BE6D85A1C32708148834AD1547D
:100B80001FB0BDE8F04F08F0EDB9612900F0DF803B
:100B90002ADC412900F0DB8048390F29D2D80F29FF
:100BA000D0D801A353F821F0B10E0008450B00087E
:100BB000450B0008450B0008450B0008ED0B00082D
:100BC000450B0008450B0008450B0008090E0008FE
:100BD000450B0008010C0008C70C0008450B000875
:100BE000450B00082B0E00086839D6E76C496448AD
:100BF00008F0DEF901233B70634B00221A70A1E775
:100C0000684C69495E48694D08F0D2F92278684914
:100C10005B4808F0CDF96378A2786649584808F037
:100C2000C7F9E2786449564808F0C2F92A7863495E
:100C3000534808F0BDF962495148642208F0B8F9F8
:100C4000A3783BB35F494E48DFF8ACA1DFF83081B1
:100C500008F0AEF906F076FE00264FF00C094FF4CE
:100C60007A73B0FBF3F7A378F2B2934212D909FB7F
:100C700002424FF47A71D2F8443192F83C21FB1AC7
:100C80004046B3FBF1F35146C3F1640308F090F919
:100C90000136E8E72B78A3B14B493948DFF85C818E
:100CA000374F08F085F900262A78F3B29A4208D91E
:100CB0002344414693F82821384608F079F9013653
:100CC000F2E742494FE7374F41492D4808F070F9A4
:100CD000BB78B3B306F036FEDFF82481DFF8A0A0BE
:100CE000DFF8209100254FF47A73B0FBF3F6BA7861
:100CF000EBB29A4229D90C2202FB03734146D3F886
:100D000044414FF47A72341B5046B4FBF2F493F82A
:100D10003C21C4F1640408F04BF984B12D4922460A
:100D2000504608F045F9092C03D82B49504608F0E5
:100D30003FF92A49504608F03BF90135D7E74946C3
:100D4000F4E727490E4808F033F926490BE726490E
:100D50000B4808F02DF91349CB7800934B788A782B
:100D6000097802A801F06AFC204B01461B6802A822
:100D7000FF2298471E49024808F01AF9E2E600BF30
:100D8000D41C002050230020512300205223002097
:100D9000856B0108C36B0108F36B01080F6C010838
:100DA000136C0108F41C00203E6C0108FB1B0020A2
:100DB000556C0108636C0108796C0108926C01089C
:100DC000AE6C0108CC6C0108026D0108936D01083E
:100DD0002E6D0108516D0108666D0108DB6D01087B
:100DE0007F6D0108916D0108A86D0108BC230020EA
:100DF000C86D0108AA6B0108DC6C0108216D0108AF
:100E0000476D0108766D0108384B39491A78394821
:100E1000002A0CBF012200221A70374B374A18BF34
:100E20001A4608F0C5F836499DE6364E364931482F
:100E300008F0BEF8F278AAB334492E48344F2D4D4D
:100E4000DFF8048108F0B4F80024F3785FFA84F93D
:100E50004B452BD90C2303FB096309F1010293F8DD
:100E600054313946284608F0A3F8B9F1000F13D1E0
:100E700098F8003083B106F065FD264A26491268CD
:100E80004FF47A73B0FBF3F0821A2846B2FBF3F208
:100E9000C2F10A0208F08CF82049284608F088F8C8
:100EA0000134D2E71E49134808F082F81D495AE67A
:100EB0001D49104808F07CF81C490E4808F078F8E5
:100EC0001B490C4808F074F81A490A4808F070F8F1
:100ED0001949084808F06CF81849064808F068F8FD
:100EE0001749044808F064F816492BE73923002015
:100EF000DD6D0108D41C0020676B0108496B0108F7
:100F0000EE6D0108F41C0020256E01083D6E0108FD
:100F1000506E01080C1C00205E6E0108DB6D01089C
:100F20007D6E0108926D0108906E0108A96E01089E
:100F3000D06E0108EB6E0108066F0108216F0108F1
:100F40003E6F01085A6F0108151C0020F7B51F4DB0
:100F5000EB78002B33D01E4E3778002F2FD195F829
:100F600054411C491C48224608F022F8EA781B49E3
:100F7000194808F01DF811222346194916488DF822
:100F800004208DF8057008F013F8164B2246022154
:100F900001A81B689847144B1C7006F0D3FC4FF453
:100FA0007A73B0FBF3F0114B1149186001233370D1
:100FB00022460A23084807F0FBFF03B0F0BD0D49A5
:100FC000054803B0BDE8F04007F0F2BFF41C002074
:100FD000151C0020726F0108D41C0020B36F01089B
:100FE000DB6F0108BC230020C11B00200C1C00206B
:100FF0000C70010850700108F7B5294C0646A0781E
:10100000224600232546D9B288421BD992F83C11CA
:10101000B1421F4602F10C0203F10103F3D106F0C5
:1010200091FC0C2202FB07574FF47A73D7F8442146
:10103000B0FBF3F01B49801A3246B0FBF3F31A48B9
:1010400007F0B6FFA8780022D3B298421DD994F8D1
:101050003C118E4202F1010204F10C04F4D10C2780
:10106000AA78013A93420FDA03F1010C03FB0773EC
:101070002B4403F5987403F59E7393E807005FFA19
:101080008CF384E80700EBE7AA706B780093AB78E9
:1010900006490548324607F08BFF03B0F0BD00BF9C
:1010A000F41C00207C700108D41C0020B1700108E1
:1010B00073B50A4D012602460C4628700B46009671
:1010C0000749084807F074FF074B1B682246314662
:1010D000284602B0BDE87040184700BF381F002006
:1010E000E3700108D41C0020BC2300202DE9F0414E
:1010F0007F48804E9CB007F049FF3578C4B2002D80
:1011000048D00D2C7C4D01D00A2C1ED12B787B4C65
:101110007B4977480022E2545BB307F049FF214640
:10112000684601F0ADFA774B774A1B6812780146A2
:101130006846984775496E48224607F039FF0023F4
:1011400033702B701CB0BDE8F081082C01D07F2CCF
:101150000BD12B78002BF5D06D496548013B2B70E6
:101160001CB0BDE8F04107F023BF1B2C04D1694936
:101170005F4807F01DFFE2E72B78632BE2D85A1C8B
:101180002A705B485D4A2146D4541CB0BDE8F0414A
:1011900007F0E8BE072001F0BFFA04F0DF030028E3
:1011A00046D0DFF88C8198F80070012F40D1592B80
:1011B00020D159494E48544C07F0FAFE394668464A
:1011C00001F016FA4F4B22781B68684602219847B7
:1011D0005249474807F0ECFE21780620FFF768FFE8
:1011E0004F4B1D704F4B1F7006F0ACFB072001F0FA
:1011F00081FAA7E74E2BA5D14B493D48424C07F059
:10120000D7FE2946684601F0F3F93E4B22781B6869
:101210006846022198474549354807F0C9FE07202E
:1012200088F80050257001F065FAFFF7C3FB89E7E5
:10123000432B0ED13E4B1B78032B0CD1357855B97F
:101240003C492B4807F0B4FE012333702A4B1D7034
:1012500078E7652C02D0452C7FF474AF364B347898
:101260001B781C437FF46EAF314D2B78032B28D1B4
:10127000324F3B7883B1324E06F064FB336831491C
:101280004FF47A72B0FBF2F0C01AB0FBF2F21848D9
:1012900007F08EFE3C7034601B4C0A202178FFF76B
:1012A00007FF2949124807F083FE2849104807F034
:1012B0007FFE00232B7023701CB0BDE8F041FFF7C8
:1012C00079BB022B7FF43EAF0F4E2149084807F04F
:1012D0006FFE31781420FFF7EBFE1E49044807F03B
:1012E00067FE1D4B2C701C701C4B34701C70E3E7A8
:1012F000D41C0020C01B002038230020581B0020D5
:10130000DB6D0108BC230020F81B00201C710108C4
:101310000F6C01082C710108257A01083F71010842
:10132000081C0020161C0020EB8B010860710108CE
:10133000BE1B002089710108F11C0020F91B002050
:10134000001C0020BE710108EE7101080172010845
:101350002B72010846720108FA1B0020071C0020AE
:101360000B78F0B50024A0F10C060C27E5B2AB42D7
:1013700006D9013407FB04F5755D9542F6D1F0BD41
:10138000132BFCD803EB430300F823200B7803EB6B
:10139000430300EB8300012383700B7801330B7050
:1013A000EDE700002DE9F04F8A4B8B4E197832782B
:1013B0008A4D914218BF1A702B78A5B063B1884A44
:1013C0008849136801338B4200F234811360864BE5
:1013D0001978002900F0A181082001F09DF900286A
:1013E00000F09B80814B1A78002A00F0938095F8DA
:1013F0000080B8F1000F40F08D807D497D4883F872
:1014000000807D4CDFF8ECB107F0D2FD7B497948D4
:1014100007F0CEFD7A492746C146C2463B7B83B1E1
:10142000BB7902937B7901933B790093B7F9023042
:101430003A78584607F0BCFD09F1010970495FFA96
:1014400089F90AF1010ABAF1030F07F11007E5D192
:10145000B9F1000F03D16B49664807F0A9FD6A494D
:101460006448DFF8CCA1DFF88CB107F0A1FD674933
:10147000604807F09DFD66494FF00009237B23B3C8
:1014800094F805C02279A079B4F90230ACEB0202DD
:1014900012F0FF0218BF03F11407C0EB403E14BF67
:1014A0003FB21F46C0EB8E0E07EB4E073FB2CDE9B1
:1014B00002C0CDE900725846227807F079FD574501
:1014C0005349C4BF94F80080BA4609F10109B9F143
:1014D000030F04F11004D1D1B8F1000F00F03D81E9
:1014E0004C4C4D49434884F80080424607F060FD6B
:1014F0004A4922783F4807F05BFD494B00221A70A9
:10150000484B01271F7006F01DFA21780220FFF7D3
:10151000CFFD3770082001F0EDF8022001F0FCF853
:10152000002800F0C98201F029F9804601F02AF96B
:10153000824601F02DF90446404601F055F88146F7
:1015400001F02CF92B780746002B00F00D81B9F142
:101550000F0F40F04D812B78002B00F04B81297844
:10156000337851EA030B40F0A482204B1B78002B08
:1015700000F09F82404601F039F890F800A090F802
:10158000028090F80390447827491A4800943B461B
:101590005246CDE9018907F00BFD174B59461A4613
:1015A0001878504503D0187B002840F0E8820B01E2
:1015B00002EB011102F803A001234F800C7181F8A6
:1015C000058081F806900B73184A13780133137065
:1015D0006FE200BFBF1B0020BE1B0020F11C0020DB
:1015E000101C002040420F0039230020BD1B0020AA
:1015F0001F730108D41C0020C41B0020597301086C
:101600007F730108AF730108C4730108E97301080F
:101610000D740108F81B0020487401086E7401085D
:10162000041C0020141C002038790108061C00202E
:1016300018FCFFFF0024146006F084F94FF47A735D
:10164000B0FBF3F0AF4BDFF810C393F802E0224693
:101650001C46D1B28E4528D9D3F84471C71B6745C3
:10166000114603F10C0302F10102F2D90C2303FB32
:101670000143A54893F83C71A4493A4607F098FC09
:101680000B238DF8203000238DF82130A04B3A46F3
:101690001B68022108A898473846FFF7ADFC4FF4B5
:1016A000FA7007F029FAFFF751FC9A4F3B787BB3A9
:1016B00006F048F94FF47A73B0FBF3F0964B1B68D1
:1016C000C01A42F20F73984222D9DFF890929349E0
:1016D00099F800808C48424607F06AFC00233B7072
:1016E00089F800308DF821308DF82230884B132294
:1016F0001B688DF820200321424608A898474046E1
:10170000FFF76CF9E3780BB1FFF7A0F9FFF71EFCC8
:101710002B78002B7FF45BAE5EE6814A814813682C
:101720000133834201D8136056E6764C1160E378AA
:1017300000936378A278217808A800F07FFF63788F
:10174000A27879490746704807F032FC704BFF22B7
:101750001B68394608A898473EE674496A4807F06E
:1017600027FCFFF727F9D5E6714A724966480094CD
:10177000CDE901A74B4607F01BFCB9F10F0F3FF471
:10178000EAAE4A46CDE9007A6B495F482346A9F1A3
:10179000020907F00DFCB9F1120F00F28A8101A3D2
:1017A00053F829F08D1B0008B31A0008711C0008BB
:1017B000EF190008E71C0008671E0008B31A0008AC
:1017C000B11F0008231B00086D190008551A0008F6
:1017D00007180008A91900085F150008751B000804
:1017E000851A0008B31A0008D91A0008651A0008FB
:1017F000524ABAE73378002BC3D0022025B0BDE8A7
:10180000F04F00F077BF2B78002B3BD13378032BC0
:1018100040F04F81404600F0E9FE0178484F0A1F32
:10182000D2B23B78FA2A80469CBF0C4600F10108F0
:101830001BB14449344807F0BBFB434B1B78A34220
:1018400005D0424930484346224607F0B1FB3B7879
:10185000002B00F02E813E492B48DFF80491DFF881
:101860000481294F07F0A4FB002499F80020E3B27B
:101870009A4240F21E8118F80310384607F072FBB6
:101880000134F2E7404600F0B1FE324903462246F9
:1018900080461D4807F08CFB1A498A780027894644
:1018A000FBB29A4240F2588591F83C319C4207F1D4
:1018B000010701F10C01F3D14246214608A800F0CE
:1018C000F6FEDFF84CB0DFF8A0A08046002799F8BC
:1018D0000220FBB29A4240F2EC800C2202FB0393FE
:1018E00093F83C2194420AD0414608A8DBF8003026
:1018F00005929847059A0448514607F059FB01376D
:10190000E5E700BFF41C0020D41C0020877201080A
:10191000BC230020151C00200C1C0020AE72010806
:10192000F41B0020404B4C00EB7201088974010845
:1019300075720108AF740108E07401087A72010839
:10194000C01B0020DB6D0108F01C00203D75010864
:101950002A7501083C7501089F860100C11B002003
:1019600038230020581B0020517501082C78002CCA
:1019700040F09F809749984807F01AFB974996488E
:1019800007F016FB9649944807F012FB954B34700C
:101990001C70954B1C70954B1C60FFF70BF894491D
:1019A0008D4807F005FB84E02B78002B00F0818048
:1019B0003B4622468F49884807F0FAFA8E49864806
:1019C00007F0F6FA8D49CB7800934B788A7809783E
:1019D00008A800F033FE8A4B014622461B6808A87F
:1019E0009847884922467C4807F0E2FA61E02B7864
:1019F000002B5ED0404600F0F9FD834A0778834B08
:101A000083497548012F08BF1346224607F0D0FAD4
:101A1000012F02D17F492246E5E77F4F3B78A34261
:101A200015D1DFF8488298F8003083B17B496A48C5
:101A3000224607F0BDFA0023204688F800303B70AC
:101A4000FEF7CCFF6D4BDB780BB1FEF7FFFF74495F
:101A50002246C8E72B7863BB404600F0C7FD7149BA
:101A60000246C0E72B7823B36F495B48224607F054
:101A70009FFA2046FEF7B2FFFEF7E8FF5F4B6B4987
:101A8000DA78B0E72B78A3B93278022A22D16849F4
:101A9000514807F08DFA67494F480A2207F088FA43
:101AA00065494D4807F084FA4E4B06201978FFF738
:101AB000FFFA022000F01EFE2B78002B40F034834A
:101AC0003378032B00F23083DFE813F0A702CD0256
:101AD00044035703594986E72B78002BE9D1337823
:101AE000022BE6D1404600F081FD554B0278554966
:101AF0001A7043780B7002B173B95349364807F036
:101B000057FA5249344807F053FA364A00233370E3
:101B10001370FEF74FFFCCE74D492F4807F048FA06
:101B2000C7E72B78002BC4D022464A492A4807F041
:101B30003FFA324B98780022D1B2884240F20884B2
:101B400093F83C118C4202F1010203F10C03F3D132
:101B50002046FFF751FA10238DF8203001238DF82D
:101B60002130274B22461B68022108A89847FFF71F
:101B7000EDF99EE72B78002B9BD1374910E7013117
:101B8000032903F110037FF40BAD1DE52B78002B27
:101B90008FD022463149104807F00AFA30490E48E2
:101BA00007F006FA15490B1D0093CB784A7889781F
:101BB00008A800F022FD2B4907462246064807F0F8
:101BC000F7F90F4B224639461B6808A89847264963
:101BD000224608E774750108D41C00209D75010891
:101BE000D1750108F81B0020F91B0020001C002003
:101BF000F17501081776010853760108F41C0020DE
:101C0000BC2300207A7601088072010884720108E2
:101C1000A2760108D4760108C11B002003770108D1
:101C200037770108637701087A770108A2770108FE
:101C3000D6770108F7770108207801083E78010877
:101C4000FA1B0020071C00208A7801086A7101082D
:101C5000C3780108E9780108167901087679010846
:101C6000A6790108D0790108F7790108151C002030
:101C70002F78002F7FF41DAF3378012B7FF419AF3D
:101C80002246A149A14807F093F9A14B1F70A14B2F
:101C900040461F7000F0AAFC9F49437890F80080EE
:101CA000877805930446994807F082F9E21C9B491E
:101CB000964807F07DF9059B99499448424607F0FC
:101CC00077F93A469749914807F072F964229649A4
:101CD0008E4807F06DF995498C4807F069F907209F
:101CE00000F0FEFCE5E62B78002B3FF4E2AE224646
:101CF0008F498648DFF8AC8207F05AF98D4983484E
:101D000007F056F998F800108B480022D3B2994298
:101D10001DD910F8017BBC42134602F10102F5D136
:101D200086497A48224607F043F90122002107A894
:101D300000F078FC824907462246744807F038F9DB
:101D4000804B1B682246394607A89847B1E67E4F6C
:101D50006E480B4622467D4907F02AF9BA787B780F
:101D60009A4211D3F8783B460022D1B2884240F221
:101D7000B98293F854118C4202F1010203F10C0371
:101D8000F3D1734922462EE6DFF81CA29AF8003000
:101D9000A34215D1DFF8149299F8003083B16D4950
:101DA0005A48224607F004F90023204689F80030FB
:101DB0008AF80030FEF712FEFB780BB1FEF746FE04
:101DC00098F80030FA18012182F828410C2202FB11
:101DD00003720B4482F839105F4982F8384001F5EC
:101DE0009D70224688F80030FFF7BAFAB8780239B9
:101DF0000023DAB2824218D291F83C2194429946EB
:101E000001F10C0103F10103F3D105F09BFD0C235B
:101E100003FB09734FF47A725049B0FBF2F022468B
:101E2000C3F84401394807F0C3F80022012107A88C
:101E300000F0F8FB4A4981462246344807F0B8F8DA
:101E400048493248642207F0B3F898F8003000930C
:101E50007B78BA7844492D4807F0AAF8394B2246D6
:101E60001B68494670E72C78002C7FF422AE3F496E
:101E7000264807F09DF83E4B1C703E4B40461C70B8
:101E800000F0B4FB077817B33B49204807F090F8FF
:101E90003A491E4807F08CF8642223491B4807F092
:101EA00087F83749194807F083F83649174807F08B
:101EB0007FF803233370344B01221A7005F042FD82
:101EC0004FF47A73B0FBF3F0304B1860F1E54478CF
:101ED000012C0FD12E490D4807F06AF82D490B4807
:101EE00007F066F82C49094807F062F82B4B377069
:101EF0001F700EE6022C7FF4DCAD2949034807F081
:101F000057F83470D5E500BF287A0108D41C0020AA
:101F1000141C0020041C0020537A01086982010867
:101F2000CD7001083D6E0108D07101086F7A01087B
:101F3000A17A0108D67A01081C1E0020FF7A010848
:101F4000357B0108BC230020F41C0020767B0108AF
:101F50007281010803770108F61C0020B07B01089C
:101F6000DB7B01080E7C0108327C01086C7C0108D7
:101F7000161C0020081C0020907C0108C17C010870
:101F8000E77C01080B7D0108F91B0020001C0020E4
:101F90003D7D01087D7D01086A710108F81B002064
:101FA000AA7D0108FB1B0020C11B0020151C00207E
:101FB0002B78002B7FF47DAD404600F017FB0278B4
:101FC00043789B48017891429A4903D10C789C420E
:101FD0003FF46FAD984C994F02700B709848994937
:101FE00022703B7006F0E4FF3B78227896499448D3
:101FF00006F0DEFF9549924806F0DAFF94499048D2
:1020000006F0D6FF3378012B7FF453AD91498C480D
:1020100006F0CEFF022333704BE58F4A8F491368D9
:1020200001338B4213607FD98D4D2C78002C7BD1EE
:102030008C498348146006F0BBFFFEF7BBFC8A4B5B
:1020400001210E201C702970FFF732F802210E20AA
:10205000FFF72EF803210E20FFF72AF825B0BDE880
:10206000F04F00F0FFBBDFF8748298F8003033B116
:102070007E4A7F49136801338B420ED81360DFF824
:10208000608298F80030002B4ED07A4A7849136865
:1020900001338B4226D8136046E0774D774F0024FA
:1020A00014602A78022A0CD80132D2B274496448EA
:1020B0002A70032306F07CFF39780220FEF7F8FF30
:1020C000DDE703226F495E4806F072FF6E495C4807
:1020D00006F06EFF34703C702C7088F80040FEF7FC
:1020E00069FCCCE7694D654F002414602A78022A08
:1020F0001DD80132D2B20323654951482A7006F037
:1021000057FF012108A800F073FA624B3A781B6868
:10211000022108A89847642006F0EEFC39780620D2
:10212000FEF7C6FF05F00EFC25B0BDE8F08F0322D8
:102130005949434806F03CFF5349414806F038FFEF
:1021400034703C702C7088F8004025B0BDE8F04F2A
:10215000FEF730BC514A5249136801338B429AD979
:1021600000231360354B344A1B7812784D493448AC
:1021700025B0BDE8F04F06F01BBF4B4A4B49136832
:102180004B4C01338B4213601DD9237823B30025B8
:10219000156005F0D7FB474B47491B684FF47A722F
:1021A000B0FBF2F0C71A8F4211D803F5C333A03346
:1021B0001B1A42492248B3FBF2F206F0F9FE4049ED
:1021C0001F4806F0F5FE2378002BADD104E03D4911
:1021D0001B4806F0EDFE257005F0B4FB354D4FF4BD
:1021E0007A73B0FBF3F02B68C01A374B98429BD937
:1021F000224F3649124806F0DBFE3549104806F0FA
:10220000D7FE39780A20FEF753FF002333703B7066
:1022100023702B60FEF7CEFB2E49094806F0C8FE5E
:102220002D49074825B0BDE8F04F06F0C1BE00BFFC
:10223000051C0020FC1B0020FA1B0020071C0020AE
:10224000D41C0020E57D0108D3780108057E010833
:10225000427E0108617E01083C23002000350C000D
:10226000BD1B00209B7E0108061C0020442300208B
:10227000C0C62D004C230020041C0020F81B0020A9
:10228000CA7E0108FF7E01086A710108081C00204F
:10229000367F0108BC2300206D7F01084023002009
:1022A00040420F009C7F010848230020404B4C0017
:1022B000F91B0020001C00209F860100BC7F010844
:1022C000E07F010800800108289A01003880010899
:1022D0006D8001089A800108CD800108141C00203F
:1022E000161C00201E49DFF89080224601F2511092
:1022F000FFF736F8FA780C21531E01FB037307A889
:1023000083F857210021022200F08CF9D8F8003020
:102310000146224607A8984722461249124806F06D
:1023200047FE642006F0E8FBFA7808A8114600F0A2
:102330007FF9D8F800300146224608A89847FB7874
:102340000A4900932246084806F032FEFFF7B1BB67
:1023500007492246FFF747BB06492246FFF743BB22
:10236000F71C00200C810108D41C002040810108CA
:10237000B8810108E5810108BC23002070B5674BD6
:10238000441EE4B2022C1870654B8CBF002201225F
:1023900086B005461A70FEF70DFB022C7BD8614C07
:1023A00061492570002602232A466680201D63703D
:1023B00008F0C2F904F594713346324604EB830009
:1023C00003333C2B01F8012BC0F84421F6D15749C7
:1023D00057482A4606F0ECFD564A5749544806F03D
:1023E000E7FD62785549524806F0E2FD64225449FF
:1023F0004F4806F0DDFD53494D4806F0D9FD5249DE
:102400004B4806F0D5FD5149494806F0D1FD5049E9
:10241000474806F0CDFD4F49454806F0C9FD4E49F5
:10242000434806F0C5FD4D49414806F0C1FD4C4901
:102430003F4806F0BDFD4B4B03221A7000211022CD
:1024400002A807F023FF484B484802930022484B5C
:10245000059302A906F018F802A8FEF745FAE378FA
:1024600000936378A278217802A800F0E7F8414948
:1024700004462F4806F09CFD3F492D4806F098FD84
:102480003E4BFF221B68214602A8984706B0BDE8D4
:10249000704000F03BB92A463949254806F088FDCE
:1024A0003849234806F084FD3749214806F080FD6D
:1024B00036491F4806F07CFD35491D48642206F068
:1024C00077FD0025274B2946102202A81D7007F032
:1024D000DDFE304B254802932A46254B059302A981
:1024E00005F0D2FF02A8FEF7FFF92B49104806F0CD
:1024F0005FFD2A4B01241C70294B1D701F4D0E26B9
:10250000224601342B688DF80860012102A8E4B24C
:102510009847042CF4D100F0A5F9B7E7F01C00208F
:10252000F11C0020F41C00202182010844820108D3
:10253000D41C0020F81C0020638201087A82010864
:10254000AE6C01088C820108A96E0108D06E0108EA
:10255000EB6E01089E820108216F01083E6F0108A1
:10256000D2820108BE1B0020B90A0008181C0020F6
:10257000E86A0108E68201080F830108BC230020F5
:102580002D830108488301086F83010894830108A3
:10259000B9830108ED100008DE830108BD1B00208F
:1025A000061C002013B50B4B0B4C1A780B4B1A7002
:1025B0004FF416530093032200230221204605F016
:1025C0000DFB074A0749204602B0BDE8104002F063
:1025D00035BA00BFBE1B0020181C0020BF1B002006
:1025E000C801002081020008007870470130704760
:1025F0000523037041700220704770B5049E0446A5
:10260000042020706170A270E370304608F078FA00
:10261000C2B2054601323146201D07F021FD681D7A
:10262000C0B270BD072303704170827003207047F1
:1026300009230370417082700320704710B5C37086
:102640000F249DF8083004704170827003710520DA
:1026500010BD37B505460C2305F8013B084601912E
:1026600008F04EFAC4B2642C28BF6424621C01999D
:10267000D2B2284607F0F4FCA01CC0B203B030BDB3
:1026800037B505460D2305F8013B0846019108F0D2
:1026900037FAC4B2642C28BF6424621C0199D2B2F8
:1026A000284607F0DDFCA01CC0B203B030BD37B532
:1026B0000B4611460D2243700546027008460191F3
:1026C00008F01EFAC4B2632C28BF6324621C01996F
:1026D000D2B2A81C07F0C4FCE01CC0B203B030BDED
:1026E000034A012303FA00F013681843106070478F
:1026F000B8230020044901220B6802FA00F023EA03
:1027000000030B60704700BFB8230020014B00227C
:102710001A607047B8230020012303FA00F0024B2F
:102720001B681840704700BFB8230020F8B50C465E
:1027300001460A48BDF918701D46164607F090FC80
:10274000074B1E70074B1D70074B1F80074B1C70FB
:10275000BDE8F8400220FFF7C3BF00BFC42300203C
:10276000C8270020C4270020C6270020C927002032
:102770000520FFF7B5BF0620FFF7B2BF004870473E
:10278000C4230020014B1878704700BFC8270020E1
:10279000014B1878704700BFC9270020014BB3F9DF
:1027A00000007047C6270020014B1860704700BF2B
:1027B000BC230020014B1860704700BFC0230020DD
:1027C0000820FFF78DBF000010B5044605F0F6F8AD
:1027D0002046074B40F8283B1022002107F056FD09
:1027E000012384F83830034B2360204610BD00BF1E
:1027F0008C990108009A0108F0B52DED028B85B087
:102800000446684608EE102AFEF79CF8DFED147ABD
:1028100068EE277A17EE900A13F09AF806460D46EE
:1028200005F0BAFE636B23B994F838300BB105F0AC
:1028300037FC04F128073846FEF756F86946384653
:10284000FEF780F832462B46204605F0FCF805F0EE
:10285000B9FE6846FEF748F805B0BDEC028BF0BD46
:10286000002474491FB510220021684607F00EFDB0
:10287000074B00934FF08042064B0748039369468D
:10288000FFF7BAFF6846FEF72FF805B05DF804FBC6
:10289000C1270008E86A0108D027002010B50A4CBB
:1028A0002046FFF791FF2046084C094A094902F0EB
:1028B000C5F82046FFF788FF2046054A0549BDE8D0
:1028C000104002F0BBB800BF10280020D027002025
:1028D000C8010020310900080FB407B5064B04AA4F
:1028E0001B6852F8041BD86801920BF0FBFC03B084
:1028F0005DF804EB04B0704774060020002000F07F
:102900005BBF00002DE9F041BDF81C50B5F5806FAC
:1029100006460C4690461F4606D322482946FFF736
:10292000DBFF0620BDE8F081022000F0A1FC08B129
:102930000720F7E73146022000F0F6FC4FFA88F155
:10294000022000F02DFD3946022000F047FD0699D7
:10295000022000F061FD2146022000F0C7FC8EB984
:102960000B3C012C12D80121022000F0A1FC7DB902
:102970000121022000F06EFD00F0D6FD0130D7D01D
:102980000020CFE7012E01D10C2CECD00021EBE789
:102990000021022000F05EFD2946022000F078FDB3
:1029A000EAE700BFFD8301087047000084B038B536
:1029B00004AC84E80F000220DDE9085400F058FC64
:1029C00020B10720BDE8384004B070470C2C15D961
:1029D00021461148FFF780FF0C21022000F086FC01
:1029E000A5B90B3C012C15D80121022000F060FC98
:1029F00000F09AFD0130E4D00020E3E7052CEFD889
:102A000021460548FFF768FF0621E6E7012D01D1C1
:102A10000C2CE9D00021E8E78D8401080FB407B53C
:102A2000064B07491B6805AAD86801920BF05AFCAF
:102A300003B05DF804EB04B0704700BF74060020DB
:102A4000B684010884B010B502AC84E80F009DF88C
:102A50000D10012905D0BDE81040254804B0FFF74E
:102A6000DDBF9DF8293033205BB301F009F840F059
:102A70004101C9B2332000F0F8FF19213B2000F0DA
:102A8000F4FF9DF827309DF82A402BB31D2111201B
:102A900000F0EBFF402000F0F3FF00F03301402096
:102AA00000F0E3FF00210F2000F0DFFF00210D20E8
:102AB00000F0DBFFD4B10520BDE8104004B001F008
:102AC00017B800F0DDFF00F0BE0141F00101332036
:102AD00000F0CBFF1D21D1E71F21112000F0C5FF21
:102AE000402000F0CDFF00F03F01D8E70620E3E7EB
:102AF000B684010884B02DE9F04106AC84E80F00EB
:102B00000898BDF832609DF83450BDF842700B9CB7
:102B1000DDF8288000F0CCFF1D2000F0B1FF9DF80B
:102B200031309DF8301041EAC3019DF8363041EA5A
:102B3000881141EA430141EA8501C9B21D2000F034
:102B400094FF1E2000F09CFFC7F3012100F00C0051
:102B500041EA04110143C9B21E2000F086FFF9B218
:102B60001F2000F082FF310A202000F07EFFF1B22A
:102B7000212000F07AFF25B19DF83510222000F0C9
:102B800074FF9DF837306BB14B2000F079FF60F097
:102B90007F01C9B24B2000F068FF9DF83810242057
:102BA00000F063FF062C4FF031000FD100F068FFFA
:102BB00000F0F80141F00501312000F056FF0C2132
:102BC000BDE8F041372004B000F04FBF00F058FFDF
:102BD00000F0F80141F00301312000F046FF0A2126
:102BE000EEE78021122000F040BF4021122000F0CB
:102BF0003CBF07B5122000F043FF8DF807009DF899
:102C00000700C0F3401003B05DF804FB2021122040
:102C100000F02BBF08B5192000F032FF030643BFB8
:102C20004042C0F38500404240F3870008BD84B0B5
:102C300010B502AC84E80F009DF938401A2000F06E
:102C40001FFF002CB8BF8B3C4FEA2013B8BF001900
:102C5000BDE81040A8BF8B38184400B204B07047DC
:102C600038B50546132000F00BFF04460146284600
:102C700000F016FF204638BD0FB407B5064B04AA76
:102C80001B6852F8041BD86801920BF02BFB03B0B1
:102C90005DF804EB04B070477406002008B528B94D
:102CA0000848FFF7E9FF4FF0FF3008BD402905D97C
:102CB0000548FFF7E1FF6FF00100F6E7BDE80840C7
:102CC00000F0CEBDF584010821850108F8B507465E
:102CD00001200D4614461E4600F0CAFA08B107202E
:102CE000F8BD3946012000F03DFB2946012000F0E7
:102CF0001BFB71B2012000F053FBBDF8181001203E
:102D000000F06CFB0799012000F086FB21460120B2
:102D100000F0ECFA65B90B3C012C0DD80121012023
:102D200000F0C6FA00F0D2FB0130D8D00020D7E77F
:102D3000012D01D10C2CF1D00021F0E784B038B581
:102D400004AC84E80F000120DDE9085400F090FA9B
:102D500020B10720BDE8384004B070479DF91C0041
:102D600000F010FC50BB012000F082FA0028F0D1E6
:102D70000C2C15D921461248FFF77EFF0C210120AB
:102D800000F0B4FAA5B90B3C012C15D801210120A3
:102D900000F08EFA00F09AFB0130DAD00020D9E77B
:102DA000052CEFD821460648FFF766FF0621E6E727
:102DB000012D01D10C2CE9D00021E8E70120C9E761
:102DC0008D8401080FB407B5064B07491B6805AA97
:102DD000D86801920BF086FA03B05DF804EB04B0FA
:102DE000704700BF740600205B85010884B070B591
:102DF00004AC84E80F0009209DF9404000F040FE3B
:102E000006465A2000F03CFE9DF8103003F0FD030A
:102E1000012B14BF00238023054606F07F001843D2
:102E2000030600F0F00127D5112CCBBF45F00705B4
:102E300005F0F805EDB245F0040505F00703072B92
:102E400012D1142CA8BF1424052CB8BF0524631F6D
:102E50001943C9B2092000F008FE2946BDE87040B8
:102E60005A2004B000F001BE112CA8BF1124022C7E
:102E7000B8BF0224A31EEBE70E2CA8BF0E2444EA21
:102E8000E47401342143E4E784B008B50DF1080C83
:102E90008CE80F009DF80D10012905D0BDE8084011
:102EA000124804B0FFF78EBF9DF827309BB1F52183
:102EB000112000F0DAFD402000F0E2FD00F03301C7
:102EC000402041F0400100F0D0FDBDE80840032063
:102ED00004B000F00DBEF721112000F0C6FD402027
:102EE00000F0CEFD00F03F01EAE700BF5B8501087E
:102EF00084B02DE9F0418AB010AC84E80F009DF950
:102F00004C30089314AD0FCD6C46159EBDF85A7029
:102F1000DDF850800FC495E80F0084E80F0010AB77
:102F20000FCBFFF763FF129800F0C2FD9DF85F30F2
:102F30006BB14B2000F0A4FD60F07F01C9B24B20C3
:102F400000F093FD9DF86010242000F08EFD1D2000
:102F500000F096FD9DF859309DF8581041EAC301E4
:102F60009DF85C3041EA881141EA83019DF85E30AA
:102F700041EA4301C9B21D2000F077FD1E2000F098
:102F80007FFD00F00F0141EA0611C9B21E2000F0DA
:102F90006CFD390A202000F068FD2120F9B200F014
:102FA00064FD062E4FF0310010D100F069FD00F0F5
:102FB000F80141F00501312000F057FD0C213720C8
:102FC0000AB0BDE8F04104B000F04FBD00F058FD7C
:102FD00000F0F80141F00301312000F046FD0A2124
:102FE000EDE70821122000F040BD08B568B133209C
:102FF00000F046FD00F0BE01332000F036FD19213F
:103000003B20BDE8084000F030BD332000F038FD23
:1030100000F0BE0141F00101332000F026FD1D212A
:10302000EEE738B5044622200D4600F01EFD0021D3
:103030000E2000F01AFD00210D2000F016FD0120E9
:1030400000F01EFD30F0F80304D100F07FFD0120F8
:1030500005F052FD29462046BDE8384000F01BBD72
:103060000FB407B5064B04AA1B6852F8041BD868B6
:1030700001920BF037F903B05DF804EB04B0704730
:103080007406002010B50A4C21788142024605D012
:103090000848FFF7E5FF4FF0FF3004E0022001F0A1
:1030A00003F808B9207010BD0348FFF7D9FFF2E715
:1030B000C82800208F8D0108E58D010808B5044857
:1030C00004F0D9FC00F045FD024B01221A7108BD45
:1030D000582800209828002013B5174C2379022B7C
:1030E00003D0032B19D002B010BDFFF75DFCFFF732
:1030F000E5FF032000F0D8FF012808D000230F4A85
:103100000093146819461A460120A047EBE70C48C3
:1031100002B0BDE81040FFF7A3BF204600F05CFD01
:1031200094F8280000F049FD0123237102B0BDE8A6
:10313000104000F0E9BF00BF98280020CC280020F4
:10314000658D01082DE9F041354C267988B046B1EE
:1031500034483146FFF784FF4FF0FF3008B0BDE838
:10316000F081314B1860314B31481960FFF778FF1F
:103170004FF4807006F00EFF2E4B186028B92E48D1
:10318000FFF76EFF6FF00100E8E74FF4FA6262624A
:103190000E2222730B22294B626108224FF0010894
:1031A000A360628304230522204684F820306285D0
:1031B000237084F805802677E67784F81E8084F8EB
:1031C0002160266184F81980667784F8228084F86B
:1031D000288000F001FD2546014605F8100B18482F
:1031E000FFF73EFF0FCD6F460FC795E80F0087E84A
:1031F0000F0094E80F00FFF7A1FDA5F1100CBCE84B
:103200000F006F460FC795E80F0087E80F0094E89E
:103210000F00FFF7CBFB84F8048030469EE700BF29
:10322000982800205C860108D0280020CC280020A7
:10323000AD86010850280020DA8601082021F636E4
:103240001487010808B5042000F02EFF012805D1DD
:103250000648FFF705FF4FF0FF3008BDFFF72EFFD0
:10326000022000F021FF0020F7E700BF2A870108B5
:1032700038B5054618B90A48FFF7F2FE05E0094CD3
:10328000217829B10848FFF7EBFE4FF0FF3004E04A
:10329000084600F009FF08B9257038BD0348EBE780
:1032A0003A8B0108C8280020778B0108BA8B0108E7
:1032B00038B504460D4600F021FF0128084B06D121
:1032C0001A78A24203D1074B00201D7638BD06486C
:1032D0001A782146FFF7C4FE4FF0FF30F6E700BF33
:1032E000C828002098280020DB8A010838B5044649
:1032F0000D4600F003FF0128084B06D11A78A242C0
:1033000003D1074B00205D6138BD06481A7821467D
:10331000FFF7A6FE4FF0FF30F6E700BFC8280020F9
:10332000982800207C8A010838B504460D4600F034
:10333000E5FE0128084B06D11A78A24203D1074BBB
:1033400000201D6138BD06481A782146FFF788FE27
:103350004FF0FF30F6E700BFC82800209828002073
:10336000EE8B010838B504460D4600F0C7FE012873
:10337000084B06D11A78A24203D1074B00201D73D7
:1033800038BD06481A782146FFF76AFE4FF0FF3035
:10339000F6E700BFC828002098280020008901080F
:1033A00038B504460D4600F0A9FE0128084B06D1A9
:1033B0001A78A24203D1074B00205D7638BD06483B
:1033C0001A782146FFF74CFE4FF0FF30F6E700BFBA
:1033D000C8280020982800201D8A010838B5044616
:1033E0000D4600F08BFE0128084B06D11A78A24248
:1033F00003D1074B00205D8338BD06481A7821466B
:10340000FFF72EFE4FF0FF30F6E700BFC828002080
:1034100098280020478C010838B504460D4600F076
:103420006DFE0128084B06D11A78A24203D1074B42
:1034300000209D6038BD06481A782146FFF710FE2F
:103440004FF0FF30F6E700BFC82800209828002082
:10345000078D010838B504460D4600F04FFE0128DF
:10346000084B07D11A78A24204D1074B002083F8F9
:10347000225038BD05481A782146FFF7F1FD4FF07C
:10348000FF30F6E7C828002098280020A98C010802
:1034900038B504460D4600F031FE0128084B06D130
:1034A0001A78A24203D1074B00205D8538BD06483B
:1034B0001A782146FFF7D4FD4FF0FF30F6E700BF42
:1034C000C828002098280020C0890108F0B589B0DC
:1034D00000F014FE0128114B18D11F78012F15D1CF
:1034E0000F4E06F1100500F037FB0FCD6C460FC4F0
:1034F00095E80F0084E80F0096E80F00FFF7F8FC4E
:103500003846FFF7BFFD002009B0F0BD0548197827
:10351000FFF7A6FD4FF0FF30F6E700BFC8280020F8
:10352000982800209C880108F0B589B000F0E6FDDD
:103530000128114B18D11F78022F15D10F4E06F11B
:10354000100500F009FB0FCD6C460FC495E80F0085
:1035500084E80F0096E80F00FFF7CCFA3846FFF733
:1035600091FD002009B0F0BD05481978FFF778FDFE
:103570004FF0FF30F6E700BFC82800209828002051
:1035800038880108F0B58BB0044600F0B7FD01287B
:10359000104B17D11F78012F14D10F4E089406F14C
:1035A00010050FCD6C460FC495E80F0084E80F009E
:1035B00096E80F00FFF71AFC3846FFF763FD00207E
:1035C0000BB0F0BD05481978FFF74AFD4FF0FF300A
:1035D000F6E700BFC8280020982800205C89010871
:1035E0000E4B1B79022B13B510D1FFF7FAFAFFF738
:1035F00065FD032000F058FD012809D00023084A8A
:103600000093146819461A460120A04702B010BD65
:10361000044802B0BDE81040FFF722BD9828002002
:10362000CC280020528701082DE9F041454E34791D
:10363000022C8AB067D1FFF7D8FAFFF7DAFA01282F
:1036400029D1FFF7E3FA96F82250ADB9FFF736FD1E
:10365000032000F029FD012808D03B4B00951E688F
:103660002A462B4629462046B04711E037480AB083
:10367000BDE8F041FFF7F4BC00F040FD0328F5D1B0
:103680000023314A0093156819461A462046A84778
:103690000AB0BDE8F081FFF7BDFA06F11005089009
:1036A00007460FCD6C460FC495E80F0084E80F0065
:1036B00096E80F00FFF7BBFA254C80462068FFF71D
:1036C000CFFA96F8226005468EB9FFF7F7FC032083
:1036D00000F0EAFC012808D01B4B00971F68216806
:1036E00043462A463046B847D2E71A48BFE700F0BB
:1036F00005FD0328F9D1144B00971E682168434645
:103700002A460020B0E7032C14D1134804F0B3F983
:10371000FFF767FCFFF7D2FC204600F0C5FC01284C
:1037200006D00E4B1B6800200AB0BDE8F0411847D8
:103730000B489CE70B4821460AB0BDE8F041FFF773
:103740008FBC00BF98280020CC2800209585010858
:1037500050280020D185010858280020D0280020BA
:103760000C860108408601082DE9704304469946FD
:103770000D46904604F010FF636B23B994F838307F
:103780000BB104F08DFC04F12806AE420BD030469C
:10379000FDF7AAF83EB1EB681BB15B6829463046DD
:1037A0009847EB68636342464B46204604F04BF96A
:1037B000BDE8704304F006BFF0B506468DB00120A9
:1037C00000F072FC012806D11E48FFF749FC4FF0BB
:1037D000FF300DB0F0BD1C4B1C4F18684FF48072C9
:1037E000002107F1100506F051FD0FCD6C460FC406
:1037F00095E80F0084E80F0097E80F00FFF722F923
:1038000002233B71E6B11022002108A806F03EFD1C
:103810000F4B089330460F4B0B9311F0A7FC00227F
:103820000D4B11F01DFD12F0B3F802460B460B488C
:1038300008A9FFF799FF08A8FDF756F80020C8E788
:103840003046C6E7818701085028002098280020CC
:10385000D9300008E86A010800408F40582800204D
:10386000F0B5304C2379032B8FB006460D4606D1B8
:103870002D48FFF7F5FB4FF0FF300FB0F0BD0420EF
:1038800000F012FC0128F3D0FFF718FC0A2005F025
:1038900033F9022000F008FC012000F005FC0128AB
:1038A00001D12248E5E763791BB1012B03D0002742
:1038B0000CE01F48DDE794F82100FFF796FB29464E
:1038C000304684F82E50FFF7ACFB676A194E089714
:1038D0000FCE6D460FC596E80F0085E80F0094E8FF
:1038E0000F00FFF7D1FA0323102200210AA8237149
:1038F00006F0CCFC104B0A933846104B0D9311F098
:1039000035FC00220E4B11F0ABFC12F041F80246E0
:103910000B460C480AA9FFF727FF0AA8FCF7E4FFAB
:103920000020AAE798280020A8870108D887010866
:10393000FF870108A8280020D9300008E86A01089C
:1039400000408F405828002010B50C4C204604F051
:1039500035F820460A4B40F8283B1022002106F09B
:1039600095FC012384F83830064B23602046064A34
:103970000649BDE8104001F061B800BF582800209A
:103980008C990108009A0108C8010020310900083B
:1039900010B50446044B40F8B83BD4F8C4300BB122
:1039A0009B689847204610BD1C9B01080FB407B5C3
:1039B000064B07491B6805AAD86801920AF092FCD9
:1039C00003B05DF804EB04B0704700BF740600203C
:1039D000488E0108F8B50D4C0D4F23681646E26875
:1039E0001B040D46136040F08001094804F086FA7C
:1039F000013D2E44B54205D015F8011F384604F0AC
:103A00007DFAF7E7A36822681A60F8BD90290020C4
:103A1000C8290020F8B50E4C0E4F23681646E26800
:103A20001B040D46136000F07F010A4804F066FA9B
:103A3000013D2E44B54206D00021384604F05EFA1E
:103A400005F8010FF6E7A36822681A60F8BD00BF09
:103A500090290020C829002010B50446FFF798FFE0
:103A6000204601F058F9204610BD07B502AB0122EF
:103A700003F8011D1946FFF7ADFF03B05DF804FB25
:103A800007B501220DF10701FFF7C4FF9DF80700FC
:103A900003B05DF804FB0A4601460020FFF79ABF19
:103AA0000A4601460020FFF7B5BF000000000000F5
:103AB00010B511F05BFB0CA3D3E9002311F0FAFC65
:103AC00011F0A6FE0446C0F307410620FFF7CDFF24
:103AD000C4F307210720FFF7C8FFE1B20820BDE8C3
:103AE0001040FFF7C2BF00BF0000000080844E40BE
:103AF000144910B50A78044690B932B901230B7005
:103B0000114BDA681B681B0413600120FFF7B8FF34
:103B100000F0F80121430120BDE81040FFF7A5BFE8
:103B2000094B2AB11A6800200870D96812040A608B
:103B3000032C1A6803D0DB6812041A60E5E79B685F
:103B4000FBE700BFA42A0020742900200120FFF712
:103B5000CFBF0020FFF7CCBF10B504460120FFF710
:103B60008FFFC0F3C010844226D0012C13D0FFF782
:103B7000F0FF0120FFF784FF00F07F010120FFF735
:103B800074FF00214020FFF770FF30214120BDE885
:103B90001040FFF76ABFFFF7DCFF2046FFF770FF1A
:103BA00060F07F01C9B22046FFF75FFF002140208F
:103BB000FFF75BFF0021E9E710BD10B504460120C7
:103BC000FFF7CAFF2CB134213920BDE81040FFF7C0
:103BD0004CBF1221F8E700002DE9FF47594C05467C
:103BE00004F0DAFC0121204600F000FC04F0EAFCBD
:103BF0002368E2681B041360012004F07DFF04F0D9
:103C0000CBFC2046002100F0F1FB04F0DBFC062099
:103C100004F072FF2E784C4C042E1CD104F0BCFC36
:103C20000021204600F0E2FB04F0CCFC012004F06F
:103C300063FF63681A6823681A4214BF01260026CE
:103C400004F0AAFC2046012100F0D0FB04F0BAFCED
:103C5000012004F051FF2368E2683C483C4C1B04FF
:103C600013603C4B9A681B6813600821002204F023
:103C700023F9394804F032FF0020FFF739FF102202
:103C8000ACBB2146684606F001FB69463348344C1C
:103C900004F021F86846FCF727FE10227CBB214681
:103CA000684606F0F3FA69462E48DFF8C8802E4CC5
:103CB00004F011F86846FCF717FE4FF003090023E3
:103CC0005F1CDBB2D8F80020B2FBF9F29A421ED991
:103CD00003EB430304EB030AE05CFFF73DFF9AF8B4
:103CE00002109AF80100FFF7C0FE3B46E8E700210A
:103CF000684606F0CBFA1D4B00940393C5E70021FC
:103D0000684606F0C3FA194B00940393CBE7687931
:103D1000174CFFF721FF95F82800FFF74EFF4220D0
:103D2000FFF7AEFE38B92046FFF740FE4FF07E5059
:103D300004F0D4FEF3E7A868FFF7BAFE304604B0FB
:103D4000BDE8F087AC29002074290020C829002094
:103D50002936000890290020CDCCCC3DD428002065
:103D6000E135000824290020158E0108E86A0108C1
:103D7000488E0108D001002073B5224D224C234EFD
:103D80000A21284603F04CFF2846214D22463146A1
:103D900000F054FE1321284603F042FF224631462C
:103DA00028461C4D00F04AFE4FF0FF3300930622D8
:103DB00005230721284604F0D3F822461649284651
:103DC00000F03CFE154B1C2422461846002106F04C
:103DD0005DFA162103F0DAFE114B22461846002147
:103DE00006F054FA002103F0BEFE0E4B22460021DD
:103DF000184606F04BFA212102B0BDE8704003F0EE
:103E0000B2BE00BFD4280020C8010020797C000881
:103E100024290020C8290020913900089029002079
:103E2000AC290020742900200FB407B5064B04AA62
:103E30001B6852F8041BD86801920AF053FA03B0C9
:103E40005DF804EB04B070477406002013B5084B0E
:103E50000024CDE900340122082307212046FEF783
:103E600051FDFEF74BFD034B1C7002B010BD00BFAF
:103E70002021F636A52A002010B5044648B9FFF7E0
:103E8000E1F9FFF7E3FF084B1B682046BDE810404F
:103E90001847012807D1FFF7D5F9FFF7D7FF024BE5
:103EA00002201B68F2E710BDE82A00202DE9F0414E
:103EB000884615461F469DF9186000283BD1202AE8
:103EC00003D92648FFF7B0FF2025254C2A46414656
:103ED000204606F0C5F8234B1F80234B1E70267822
:103EE0002746FEB9214BA4781B78A34201D0FF2CB2
:103EF0001BD1A4F1FF035C425C4101261C4B1B78E3
:103F0000ABB9FFF79FF9FFF7A1FF012E24D1194BA1
:103F1000787819492A1F1D68D2B22346AC46BDE8FD
:103F2000F041604700242646E8E73446E6E71348B8
:103F3000FFF77AFFE9E7013801280DD80C4B1B7811
:103F40002BB9FFF77FF9BDE8F041FFF77FBF0B48C2
:103F5000BDE8F041FFF768BFBDE8F081558F01086B
:103F6000A62A0020F22A0020F02A0020F42A0020AD
:103F7000A52A0020EC2A0020AA2A00209A8F0108F6
:103F80000A4B10B518700A4B19600A4B0A491A609F
:103F900004460A48FFF7D6F8094B00225C701A70F5
:103FA000FFF750F9BDE81040FFF750BFF42A00209A
:103FB000E82A0020EC2A0020AD3E0008793E0008E7
:103FC000C62A0020F7B5184F3C7834B1174821466F
:103FD000FFF72AFF012003B0F0BD1C2905D91448C2
:103FE0002022FFF721FF0320F5E7124D0E1DAA70D6
:103FF000F6B20A460146281D2C70EE7006F030F825
:10400000FFF720F90C4A0823CDE9003221460123AD
:1040100007220E20FEF75AFE31462846FEF73EFEE6
:1040200001233B702046D6E7A52A00206A8E0108AE
:10403000AB8E0108C62A00202021F636014BB3F9C9
:1040400000007047F22A0020014B93F900007047EE
:10405000F02A002010B5074B1C78012C05D106482A
:104060002146FFF7E1FE204610BD044B18700020EA
:10407000FAE700BFA52A0020F58E0108F42A0020E7
:104080000FB407B5064B07491B6805AAD86801920B
:104090000AF028F903B05DF804EB04B0704700BFE4
:1040A000740600200F90010837B501460D480E4AEE
:1040B000037803EB83052A44545C012C06D00B4B98
:1040C0002B445B5C0370204603B030BD084864227B
:1040D00002FB03000090074802FB01020648FFF7BD
:1040E000CFFFF0E7F52A0020FB8F0108E78F0108DA
:1040F000C8030020D40100200F900108014B18785C
:10410000704700BFF52A0020014B00221A7070474B
:10411000F52A002043692DE9F0410D46D9070446F0
:1041200028D58168334F8268334E836833483940DD
:10413000B94202EA060204BF0127A760B24203EABD
:10414000000304BF4FF48076A660834204BF4FF49F
:104150008030A0602748814205D027498A4202D09A
:10416000264A934206D1264B264A1B6852F8250060
:1041700001219847E2686369920708D09F0706D536
:104180001F4B204A1B6852F8250000219847A1695F
:10419000626963698E070AD5900508D5190406D5AA
:1041A000174B184A1B6852F8250005219847A76944
:1041B0006669626917F0040706F4806609D046B1A3
:1041C000120406D50E4B0F4A1B6852F82500072132
:1041D000984763695FB156B11B0408D5084B094A7B
:1041E0001B6852F825000221BDE8F0411847BDE8E0
:1041F000F08100BF0300000400030008000003106A
:10420000002B0020F82A002000210148FFF782BF80
:1042100000640040FFF7F8BFFFF7F6BF0121014837
:10422000FFF778BF00680040FFF7F8BFFFF7F6BF61
:1042300030B5036891FAA1F4B4FA84F491FAA1F1CB
:104240000325B1FA81F1640005FA04F4490023EA78
:10425000040302FA01F11943016030BD00B50023E7
:1042600089B007286FD8DFE800F00413202D3A4703
:1042700054610093364B37481A6B42F001021A63BF
:104280001B6B03F001030093009B09B05DF804FB76
:1042900001932F4B30481A6B42F002021A631B6BDA
:1042A00003F002030193019BEFE70293284B2B4895
:1042B0001A6B42F004021A631B6B03F004030293AF
:1042C000029BE2E70393224B25481A6B42F0080257
:1042D0001A631B6B03F008030393039BD5E7049356
:1042E0001B4B20481A6B42F010021A631B6B03F041
:1042F00010030493049BC8E70593154B1A481A6BE7
:1043000042F020021A631B6B03F020030593059B08
:10431000BBE706930E4B15481A6B42F040021A6336
:104320001B6B03F040030693069BAEE70793084B15
:104330000F481A6B42F080021A631B6B03F0800374
:104340000793079BA1E70B4804F08EFC00209CE735
:104350000038024000000240000402400008024011
:10436000000C0240001002400014024000180240FD
:10437000001C0240E4920108431C10B5044604D11D
:1043800076220649064803F0CBFE2046002100F0C5
:104390000DFE04F00F040120A04010BD059301089C
:1043A0005F93010870B504464B1C0E46218216D05F
:1043B000C1F30310FFF752FF05463046FFF7DCFF5D
:1043C000238A074A656103F00F03206052F8233007
:1043D000A36105F1100318356360A560E56070BD49
:1043E0001C960108B0F9100000F078BE0A4619B911
:1043F00081694069FFF71CBF0122F9E74C23F0B542
:104400004343224E224F1A1D324400244FF0010E26
:104410001E448C4205D10146BDE8F0401D4804F021
:1044200023BC33680EFA04F51D422BD0136B7D6953
:104430000EFA03F32B4225D0D2F818C07B61156821
:1044400005B3FA6833EA020203D1BA6833EA02021A
:1044500014D10F4A916833EA010103D1D26833EADB
:1044600002020DD1DCF81020134214BF01210221F9
:10447000094B28461B68BDE8F04018470221F7E7C2
:104480000121F5E701340432C3E700BF042B00200B
:10449000003C014099930108182D00200621084690
:1044A000FFF7ACBF05210846FFF7A8BF0121042094
:1044B000FFF7A4BF01210320FFF7A0BF01210220C5
:1044C000FFF79CBF01210846FFF798BF012100209C
:1044D000FFF794BF012910B518D11B4C838952B145
:1044E000A26803F00F0399401143A160836843F071
:1044F0000103836010BDA26803F00F03994022EA14
:104500000101A160836823F00103F2E70229F1D1E0
:104510000D4983895AB1CC6803F00F03012202FAD6
:1045200003F32343CB60836843F00203E1E7CA68E7
:1045300003F00F03012404FA03F322EA0303CB6020
:10454000836823F00203D4E7003C0140B0F90C304B
:1045500099B270B501F00F0606F00C0404F1804426
:1045600004F59C3401F00301A56889000F228A40FC
:10457000C3F3031325EA02058B402B43A3600F4BC3
:1045800001221968B240114319608468E50742BFEF
:10459000996811439960A10742BFD9680A43DA605C
:1045A00090F90030002B08DB5909012203F01F03AA
:1045B00002FA03F3024A42F8213070BD003C014088
:1045C00000E100E02DE9F04F92464A1C85B080469C
:1045D0000C4666D000220392334A344F516C41F4AA
:1045E00080415164526C02F480420392039A04F0B9
:1045F0000F090C2202FB0972C4F303105568062D43
:1046000047D8DFE805F0043A3C3E40424400284EDB
:104610000193FFF723FE0C2101FB09F17A1857F8EB
:1046200001E0244FA8F80C404C21694301247B5839
:1046300092F90820C8F8045004FA0EF44FF0000B69
:104640001C4388F80020C8F808B07C50132101FBF7
:1046500005E507EB8501019B4B60174BC861C3F86B
:1046600000A0164BC1F834909B681032404643F8C6
:104670002260FFF76BFF584610E0114EC8E7114E5D
:10468000C6E7114EC4E7114EC2E7114EC0E7114E06
:10469000BEE7114804F0E8FA4FF0FF3005B0BDE87E
:1046A000F08F0846FAE700BF00380240C4930108C3
:1046B000CD440008042B0020182D002000ED00E060
:1046C000C5440008BD440008B5440008AD440008D6
:1046D000A54400089D440008729301088389184A84
:1046E00003F00F03012110B501FA03F39468DB43D3
:1046F0001C409460D4681C40D4601468234013604C
:1047000090F90030002B0CDB5A0903F01F0301FA6B
:1047100003F320320B4941F82230BFF34F8FBFF330
:104720006F8F90F90030002B09DB5A09012103F04B
:104730001F0301FA03F36032024941F8223010BD31
:10474000003C014000E100E0838903F00F020C23EC
:104750005343104A70B54468D658FFF7BFFF4C2149
:104760000D4A6143012000FA06F55058132303FB5C
:10477000046320EA0500505002EB830000214160F1
:10478000981D0C3302EB800002EB830341605960FB
:1047900070BD00BFC4930108042B002008B503F0CE
:1047A0007DF8002008BD000008B50A4B1B684BB11E
:1047B00003F0F0F904F015F94FF47A72002311F0C8
:1047C00097F808BD03F0BEF84FF47A73B0FBF3F02E
:1047D00008BD00BF1C2D002010B588B003F0DCFE22
:1047E000052101A803F0D2F90424039B019A1A6061
:1047F000962004F081F9019B049A1B041360962013
:1048000004F07AF9013CF0D10424039B019A1A6068
:104810004FF4C87004F070F9019B049A1B041360F4
:104820004FF4C87004F068F9013CEED1DCE70000F9
:1048300070B50D46A0B0044603F0AEFE2B462246EE
:10484000802168460BF09CF9051E03DC03F0BAFEDC
:1048500020B070BD094B1B6823B903220221084810
:1048600000F090FE064E00241DF80410304601347E
:1048700001F06AF8A542F7D1E8E700BF642D0020F7
:104880000C2F00200FB407B504A951F8040B0191B7
:10489000FFF7CEFF03B05DF804EB04B070470000F3
:1048A00008B502F0A9FF01F0ADF802F095FF02F0A3
:1048B000A3FF024B01221A6008BD00BF1C2D00207F
:1048C00000207047036801221B6900211847036814
:1048D00000221B691146184703681B6918470368C3
:1048E0009B69184703689B6A184700290CBF6FF043
:1048F0001800002070470120704711207047704752
:104900006FF01C0070476FF0150070470120704772
:104910000020704770470000F8B5074E15460C465A
:104920008F18BC4205D014F8011B304601F00CF87A
:10493000F7E72846F8BD00BF0C2F002038B58DB230
:1049400015F0010405D0084800F098FD041C18BFBC
:104950000124EB0605D5044800F0A6FD08B144F09B
:104960001004204638BD00BF0C2F002010B50446AF
:1049700005F018FB204610BD10B50C462AB10448BE
:1049800000F0D0FF2070012010BD104610BD00BF08
:104990000C2F002038B51D46074B0360074B1B68E2
:1049A000044633B9064800F0EDFD2946044800F0FE
:1049B000B1FD204638BD00BF00950108642D0020E0
:1049C0000C2F0020002070470020704708B5012000
:1049D00000F036F80C4A136810B51844EFF308815C
:1049E000884205D3094B0C221A604FF0FF3010BDEE
:1049F00007490C6824B10749096821448842F1D26B
:104A00001060184610BD00BF58060020D42E0020AC
:104A1000302D0020342D0020074C08B523680546B2
:104A2000986804F07FFC2368D86804F07BFC0DB123
:104A3000FFF7D2FEFEE700BF74060020012070479A
:104A400008B5FFF7E9FF01207047002105F094BD8C
:104A500004F0A2BC7047704708B5FFF7FBFF08BD24
:104A600008B5FFF7F8FF08BD10B5037803F003039E
:104A7000012B04460CD02BB140F2A952054906483F
:104A800003F04EFB237843F002032370012010BD96
:104A9000002010BD489501089F95010810B50378C6
:104AA00003F00303022B044605D040F2B15205493E
:104AB000054803F035FB237823F0030343F001039B
:104AC000237010BD48950108C59501083F2870B5B1
:104AD00004462FDC184D55F820305A1C13D10228FB
:104AE00011DCFFF771FF034658B92046FFF76AFF54
:104AF000034630B9114E3378BFF35B8FDB0704D523
:104B00000F4B45F82430184670BD3046FFF7ACFF18
:104B10000028F5D04FF41653032202210848FFF76E
:104B200039FF3046FFF7BAFF064A07490448FFF746
:104B300085FFE5E70023E6E758050020202D00204B
:104B40002C2D0020C80100201549000838B5054665
:104B5000FFF7BCFF0B4B002443F8254030B904F0AD
:104B6000A7FA092303604FF0FF3038BD03685B6983
:104B70009847051E04DA04F09BFA6D420560F2E7DF
:104B8000204638BD58050020FFF7E0BF38B50C4679
:104B90001546FFF79BFF38B904F08AFA0923036032
:104BA0004FF0FF34204638BD03682146DB682A46B3
:104BB0009847041EF6DA04F07BFA64420460EFE7DB
:104BC00008B5131E06DA04F073FA162303604FF0DB
:104BD000FF3008BD04D0FFF7D9FF40EAE07008BD00
:104BE000184608BD38B50C461546FFF76FFF38B9B3
:104BF00004F05EFA092303604FF0FF34204638BD0D
:104C0000036821469B682A469847041EF6DA04F09A
:104C10004FFA64420460EFE7002A08B503DBBDE801
:104C20000840FFF7DFBF04F043FA162303604FF09C
:104C3000FF3008BD10B5FFF749FF044628B904F05E
:104C400037FA09230360204610BD0368DB699847E3
:104C5000041EF8DA04F02CFA644204600024F2E73F
:104C60001FB504220C4640230DEB020101900DF10B
:104C700009008DF8083005F0F3F9214602A804F088
:104C800019FD044630B10198FFF7D4FF10B120465A
:104C9000FFF7DBFE204604B010BDFFF7CBBF38B5F1
:104CA0000C461546FFF712FF38B904F001FA092344
:104CB00003604FF0FF34204638BD036821461B696E
:104CC0002A469847041EF6DA04F0F2F964420460BA
:104CD000EFE7FFF7E4BF38B50D46FFF7F7FE0446F0
:104CE00030B904F0E5F9092303604FF0FF3038BD17
:104CF0000368DB699847002814BF4FF400534FF452
:104D000000436B60236820469B6A98472861002017
:104D100038BDFFF7E0BF05F045B90000034610B508
:104D200053F8042B044602B9036022689A4204D067
:104D30005E220349034803F0F3F9206810BD00BF69
:104D400084940108E394010810B504460948FFF76C
:104D5000E5FF0023084A194652F82300A04208BF85
:104D600042F823100133402BF6D10248FFF7D6FF5B
:104D700010BD00BF242D00205805002010B50F489D
:104D8000FFF7CCFF0E4B032453F824206AB1013403
:104D9000402CF9D104F08CF9182303600748FFF781
:104DA000BDFF4FF0FF34204610BD4FF0FF320348E7
:104DB00043F82420FFF7B2FFF5E700BF242D0020C1
:104DC0005805002010B50446FFF7D8FF0028A4BFFF
:104DD000014B43F8204010BD5805002070B5064631
:104DE0000C46FFF7EFFF054690B12146FFF738FF6D
:104DF000044630B9074B53F82520964203D143F8B7
:104E00002500204670BD04F053F909230360F8E73C
:104E10000446F6E7580500200EB42DE9F04185B0B0
:104E20000546FFF7ABFF041E13DB0023294602A84B
:104E3000019303F0EDFD02A803F03CFE1B4D064676
:104E400068B904F035F91323036045F824604FF086
:104E5000FF34204605B0BDE8F04103B0704702A81A
:104E600003F016FE074602A837B103F01AFE0190C0
:104E7000019B45F82430ECE703F001FE06460028CC
:104E8000DFD0036802A8D3F8088003F0EDFD0B9B88
:104E9000024601A93046C04706460028E8D004F083
:104EA00007F97642066045F82470D0E758050020DF
:104EB00073B50E461849054605F0B6FC044620B900
:104EC000FFF704FE204602B070BD1449284605F0E5
:104ED000ABFC20B90120FFF7F9FD0124F2E71049EE
:104EE000284605F0A1FC20B90220FFF7EFFD0224BF
:104EF000E8E72B78402B07D10422691C0DEB020058
:104F000005F0AEF8019CDDE726F400412846FFF7E6
:104F100083FF0446D6E700BF0C96010813960108EC
:104F20000496010870477047074B08499A6808487B
:104F300010B5043A52F8044F41F8044F8142F9D1B8
:104F40004FF000529A6010BD00ED00E0FCFFFF1F23
:104F5000C001002008B5FFF7E7FFFFF7A1FCFFF74E
:104F6000E2FF08BD08B5FFF7DDFFBDE80840FBF72D
:104F7000A3B930B5C36891FAA1F4B4FA84F491FAF4
:104F8000A1F10325B1FA81F1640005FA04F44900A6
:104F900023EA040302FA01F11943C16030BD012A7A
:104FA00002D0022A18BF0022FFF7E3BF2DE9F0412B
:104FB0000E46411C044604D13E224449444803F0B5
:104FC000AFF804F00F08434BC4F3031053F8285014
:104FD000FFF744F906F007070446836895FAA5F140
:104FE000B1FA81F195FAA5F20320490000FA01F126
:104FF000B2FA82F223EA01035200022101FA02F21C
:105000001343A36087425AD8DFE807F05E1D021DF4
:10501000B8F1070FC6F303203BD9626A2B0A93FA53
:10502000A3F1B1FA81F193FAA3F34FF00F0EB3FAA3
:1050300083F389000EFA01F19B0022EA010200FAD3
:1050400003F3134363623B46226895FAA5F0B0FA76
:1050500080F095FAA5F14FF0030EB1FA81F140000E
:105060000EFA00F0490022EA00028B40013F134390
:10507000012F236005D8636832074CBF2B43AB4335
:105080006360C6F3011229462046BDE8F041FFF7F0
:1050900086BF226A95FAA5F3B3FA83F395FAA5F1D0
:1050A0004FF00F0EB1FA81F19B000EFA03F3890065
:1050B00022EA030200FA01F313432362C3E76722E3
:1050C0000249054803F02CF80023BDE75C9601086F
:1050D0005F9301081C960108539D0108431C70B59D
:1050E00006460D4604D188221B491C4803F018F8D7
:1050F00006F00F021A4BC6F3031053F82240FFF7D5
:10510000ADF804FB04F2016802EB42030B40B3FB71
:10511000F2F3013B012B05D8EB1E022B436809D8A3
:1051200023434360032D08D101222146BDE870408E
:10513000FFF735BF23EA04034360012DF4D0052DAA
:1051400001D0022D01D10222EFE721460022BDE865
:105150007040FFF70EBF00BF5C9601085F93010827
:105160001C96010870B5A6B03422002102A805F0F3
:105170008DF85C2200210FA805F088F82A4B1D68E5
:10518000002D4FD1294C019501261E60236C43F060
:1051900080532364236C03F080530193019B00F040
:1051A0005DFC042302A802930895049600F0C0FF5A
:1051B00010B11F4803F058FDA36823F4F813A3604F
:1051C000A36823F4F813A360236F43F48073236769
:1051D00020230F930FA84FF480731F9300F058FD06
:1051E00010B1144803F040FD134B144801221A601B
:1051F000134B036003220023826041F6FF72437762
:105200004360C26003614361836101F05EF910B1E4
:105210000C4803F029FD094801F089FA10B10A4849
:1052200003F022FD26B070BD402D00200038024062
:10523000B4960108D49601083C0E4742442D002044
:1052400000280040FD96010817970108F0B51F4B94
:105250001F491C681F4A5D688BB00C4015401E46F4
:105260000F461868084084422BD158681040854288
:1052700027D105F03F0001F051FA0490C5F3042056
:1052800001F04CFA01380590280C01F047FA44303F
:105290000690C4F3054001F041FA0390C4F30620E0
:1052A00001F03CFA029004F07F0001F037FA01228D
:1052B0000190694601A802F051FF00B100980BB0BF
:1052C000F0BD346875683C401540CAE700280040CE
:1052D0007F7F7F003FFFFF00024BD868C0F30010C4
:1052E000704700BF00280040214B224A2DE9F041C1
:1052F0001D691C689E6AC5F30E05144018461746C2
:10530000196811408C422ED1996A8E422BD1C4F378
:10531000054001F003FA0746C4F3062001F0FEF948
:10532000804604F07F0001F0F9F9134A13493C2349
:1053300013FB08004FF4616303FB07001368146854
:1053400098420B683CBF03F5A83303F5C0731B1BE1
:1053500003440B6010600868013DC00305EB90003A
:10536000801BBDE8F0810468866A3C40C8E700BF46
:10537000002800407F7F7F003C2D0020382D00203A
:1053800030B591B000211422044602A8019104F026
:105390007DFF03F001F92A4B2A4A1A6007A901226E
:1053A000204602F02BFF002848D00D9B03B90723AD
:1053B0008DF804300B9B01338DF805300A9B8DF876
:1053C00006300C9B443B8DF80730099B8DF8083064
:1053D000089B8DF809300024079B8DF80A308DF862
:1053E0000B4005940694FFF77FFF9DF809109DF888
:1053F0000A2013483C2313FB01229DF808304FF488
:10540000616101FB0323104A13600E4B224601A980
:105410009D6A01F0B3F810B10C4803F025FC00229E
:1054200002A9074801F00AF910B1094803F01CFC71
:10543000044A936A9D42FCD103F0C4F811B030BD18
:10544000442D0020002800403C2D0020309701080A
:10545000479701080FB407B5064B07491B6805AA13
:10546000D868019208F03EFF03B05DF804EB04B089
:10547000704700BF740600205E9701084368094A20
:105480009B0182B0D3581A68120706D500220192F8
:105490001A6801925A680192019A1868C0F3401084
:1054A00002B07047582F00204368034A9B01D3582D
:1054B0001868C0F3C0107047582F00204268144984
:1054C000920110B404685450531882685A60C2683C
:1054D0009A600269DA6042691A61026A9A6100227E
:1054E000DA84DA619A84DA859A85B0F91A20013271
:1054F00006D108225A6118465DF8044B01F0B1BE8E
:10550000B0F9182001320CBF04220C22F2E700BFD0
:10551000582F002010B581600C46FFF7CFFF28B14F
:1055200021460348BDE81040FFF794BF10BD00BFFF
:105530005E970108124B984217D0A3F54C4398424E
:1055400015D003F58063984213D003F58063984229
:1055500011D003F5806398420FD003F5444398427D
:105560000CBF05204FF0FF3070470020704701202E
:10557000704702207047032070470420704700BF27
:1055800000100140F0B50E4687B004465B49304636
:10559000154602F037FC5A490746284602F032FC0D
:1055A0000146384602F008FC2060013004D13D225B
:1055B0005449554802F0B4FD022E0CD0032D0AD0F8
:1055C0004E49022002F01EFC874202D14F4803F0F0
:1055D0004BFB002700E001274D4B206898424FF01D
:1055E00000031AD100934B4B5A6C42F010025A64DC
:1055F0005B6C03F010030093009B474B984229D14A
:1056000000230593434B5A6C42F020025A645B6CB2
:1056100003F020030593059B1CE0404A90420BD108
:1056200001933C4B1A6C42F400321A641B6C03F475
:1056300000330193019BE0E7394A904240D1029345
:10564000344B1A6C42F480221A641B6C03F48023DE
:105650000293029BFFF76EFF0028606004DAA42229
:105660002849304802F05CFD2449304602F080FBB6
:105670002349284602F07CFB721C03D001213046EE
:10568000FFF72CFD6B1C03D001212846FFF726FDF8
:105690004FF41653A3600023E36023616361236228
:1056A000268365832046FFF709FF3FB11E4B1F4845
:1056B00001221A6021464C2204F0D2FC07B0F0BD52
:1056C0001B4A90420BD10393124B1A6C42F40022F6
:1056D0001A641B6C03F400230393039BBAE7154A77
:1056E00090428AD104930B4B1A6C42F480121A64D4
:1056F0001B6C03F480130493049BABE76C920108CA
:10570000F491010888970108E497010800980108BE
:1057100000100140003802400014014000440040E5
:105720000048004035980108642D00200C2F00200F
:10573000004C004000500040002808DB42090123D3
:1057400000F01F0003FA00F0014B43F822007047FD
:1057500000E100E000280DDB4309012200F01F00FA
:1057600002FA00F02033044A42F82300BFF34F8FBF
:10577000BFF36F8F704700BF00E100E0F7B5FFF7A0
:10578000D9FE071E26DB144E56F8270010B3134C23
:10579000BD0163591A68120606D5DB68190603D5E0
:1057A0000F4B01211B68984763591A68920608D568
:1057B000DB68980605D50A4B56F827001B680021C0
:1057C000984763591A68110704D55A69D20744BF2C
:1057D0005B68019303B0F0BD6C2D0020582F0020B2
:1057E000682D00200148FFF7C9BF00BF0014014029
:1057F0000148FFF7C3BF00BF005000400148FFF75A
:10580000BDBF00BF004C00400148FFF7B7BF00BF5D
:10581000004800400148FFF7B1BF00BF004400400E
:105820000148FFF7ABBF00BF00100140034B1960F8
:105830004168034B43F82120704700BF682D0020CA
:105840006C2D002030B490E818002C48834233D0EF
:105850000AD8A0F50060834228D000F5806083421A
:1058600027D0002318460FE0254883420AD000F5D0
:105870008060834223D0A0F544408342F1D1214B84
:10588000352001E0204B2520204DA401FAB1C9B9F3
:105890002959CA6842F02002CA601D4A00F110016D
:1058A000926830BC42F82130FFF746BF194B2620E2
:1058B000EAE7194B2720E7E7184B3420E4E7184BB9
:1058C0004720E1E72959CA6842F08002E4E72B59F2
:1058D000DA6849B922F02002DA60DB6813F0800F41
:1058E00009D130BCFFF736BF22F08002DA60DB68F6
:1058F00013F0200FF4E730BC704700BF004C0040AD
:1059000000100140F157000821580008582F0020CE
:1059100000ED00E01558000809580008FD57000880
:10592000E557000838B5446805462846FFF7A6FD48
:105930000028FAD0A401034B1B595868C0F3080093
:1059400038BD00BF582F002070B5456806460C468C
:105950003046FFF7A9FD0028FAD0AD01024B5B5994
:10596000C4F308045C6070BD582F002008B50E4ACF
:10597000C36D934214D008D8A2F5806293420FD031
:105980000A4803F071F9002008BD094A934203D088
:1059900002F580629342F3D1BDE8084000F04AB9B5
:1059A000BDE8084000F036B9003C004047980108C7
:1059B00000300140DFF830D0002103E00B4B5B5892
:1059C000435004310A480B4B42189A42F6D30A4A14
:1059D00002E0002342F8043B084B9A42F9D301F05D
:1059E0001FFEFAF713FC70470000022074A601089E
:1059F000C80100204810002048100020203100205D
:105A0000FEE7704708B50B4B1A6842F400721A6043
:105A10001A6842F480621A601A6842F480721A604E
:105A2000032000F009F80F20FEF7B8FEFFF7E9FFAA
:105A3000002008BD003C0240074AD36823F4E0631D
:105A40001B041B0C43F0BF63000243F4003300F45B
:105A5000E0600343D360704700ED00E0014B01229A
:105A60001A60704720000E4237B500230193184B8F
:105A7000184C1A6C42F080521A641B6C03F080536D
:105A80000193019B144B01221A60FEF78DFE05461F
:105A90006368DA030BD5114B0E4C01221A60FEF736
:105AA00083FE054663689B030AD5002006E0FEF7E7
:105AB0007BFE401BB0F57A7FEAD9032003B030BDEE
:105AC000FEF772FE401BB0F57A7FEBD9F5E700BF19
:105AD000003802400070004040000E4244000E4278
