:020000040800F2
:1000000000000220E54A0008314B0008314B00088F
:10001000314B0008314B0008314B00080000000054
:10002000000000000000000000000000314B00084C
:10003000314B000800000000314B0008314B000834
:10004000314B0008314B0008314B0008314B0008A0
:10005000314B0008314B0008314B0008314B000890
:10006000314B0008314B0008314B0008314B000880
:10007000314B0008314B0008314B0008314B000870
:10008000314B0008314B0008314B00084533000864
:1000900049330008314B000839330008314B000860
:1000A000314B0008314B0008314B0008314B000840
:1000B000314B0008314B0008314B0008314B000830
:1000C000314B0008314B0008314B0008314B000820
:1000D000314B0008314B0008314B0008314B000810
:1000E000314B0008314B0008314B0008314B000800
:1000F000314B0008314B0008314B0008314B0008F0
:10010000314B0008314B0008314B0008314B0008DF
:10011000314B0008314B0008314B0008314B0008CF
:10012000314B0008314B0008314B0008314B0008BF
:10013000314B0008000000000000000059330008A7
:100140005D330008314B00084D330008314B000887
:10015000314B0008314B0008314B0008314B00088F
:10016000314B0008314B0008314B0008314B00087F
:10017000314B0008314B0008314B000800000000F3
:1001800000000000314B00080000000000000000EB
:10019000314B00080000000000000000314B000857
:1001A000000000000000000000000000314B0008CB
:1001B000314B0008314B0008314B0008314B00082F
:1001C000314B000810B5054C237833B9044B13B1FB
:1001D0000448AFF300800123237010BD48100020B5
:1001E00000000000288B010808B5034B1BB1034930
:1001F0000348AFF3008008BD000000004C10002051
:10020000288B0108A3F5803A704700BF174B002BDD
:1002100008BF134B9D46FFF7F5FF00218B460F46A5
:100220001348144A121A09F0A1F80E4B002B00D003
:1002300098470D4B002B00D0984700200021040068
:100240000D000D48002802D00C4803F094FC08F083
:1002500047FE2000290003F01DFF03F089FC00BFCA
:100260000000080000000000854000080000022097
:1002700048100020B8300020773B00080000000044
:1002800010B5094B036003F1200280330446C0F827
:10029000BC20C0F8C030BC3007F0C4FE204607F0D8
:1002A0009FF9204610BD00BFF47E0108A0F1BC00FC
:1002B000E6E7A0F1C000E3E708B51A4C1A491B486D
:1002C0001B4D07F0E7FE1B49184807F0E3FE1A49EB
:1002D0001648224607F0FBFE144807F0C9FE1749EE
:1002E0002278124807F0D6FE22781048531E022BBF
:1002F00094BF1349134907F0CDFE13490B48FF2360
:100300002B7007F0C7FE207800F0EAF8207801F0A3
:1003100029F90E49054807F0BDFE00F033F900F059
:1003200003FDFAE7CC010020685A010824110020DF
:1003300064100020B75A0108CE5A0108D15A0108AA
:10034000E55A0108035B01081D5B01083D5B0108DC
:1003500010B50446FFF794FF204603F074FD2046D5
:1003600010BDA0F1BC00F3E7A0F1C000F0E7000071
:1003700013B5094C4FF416530093032200230221B6
:10038000204606F0C3FC054A0549204602B0BDE8F8
:10039000104003F0EBBB00BF68100020C801002034
:1003A000810200080FB407B5064B04AA1B6852F877
:1003B000041BD86801920DF015F803B05DF804EB4A
:1003C00004B070477406002008B5074B1A78074B35
:1003D0001B789A4205D106481146FFF7E3FF01203A
:1003E00008BD0020FCE700BFCD010020D612002090
:1003F000545B0108024B1870062000F07BB900BF67
:100400004211002038B50546FFF7DEFF01280446FB
:1004100005D105482946FFF7C5FF204638BD034BE7
:1004200000241D70F9E700BF935B0108D61200207D
:1004300070B50D4E0D4D3378834228BF03461A46E2
:100440000B4829461C4608F07BFE3278094B121BEC
:10045000D2B21C7032702AB12919284608F070FEF9
:10046000012070BD1046FCE744110020D716002083
:1004700045110020D512002038B5054610460C461F
:10048000FFF7C0FF012808D1072000F04FF920B185
:10049000BDE83840072000F049B9192C224629460A
:1004A00009D80B4808F04CFE0A4B1C70BDE83840D8
:1004B000042000F01FB9084808F042FE074B1A203C
:1004C0001C70FFF7B5FF072000F014F9EEE700BF3E
:1004D00045110020D5120020D7160020441100201D
:1004E00010B50A4B0A4C00221A70207000F018F95F
:1004F000FFF76AFF207800F085F9064801F0ECF973
:10050000BDE81040044801F0EDB900BFD61200204C
:10051000CD01002079040008F50300082DE9FF4112
:10052000164D1F4695F80080154B144698440E460C
:1005300000F0DDF822460146404608F001FE2A7828
:10054000023A1444E4B2012F2C7003D09DF82830F5
:10055000012B10D100F096F9039000F08DF9039B68
:10056000009022460648314601F078F900202870B4
:1005700004B0BDE8F0810120FAE700BF431100207C
:10058000D712002070B53D4B3D4D1A782C78A24211
:1005900086B018BF1C701CB1012C63D006B070BDB2
:1005A000062000F0C3F878B1364B187800F046F911
:1005B000B0FA80F0400901F076F92C70062006B000
:1005C000BDE8704000F0A0B8032000F0AFF8E0B143
:1005D00000F042F9059000F045F9064600F046F9B2
:1005E000049000F055F90390304600F066F8C0B270
:1005F000DDE90332059900903046FFF78FFF0320B5
:1006000000F082F82C700320D9E7042000F08EF867
:10061000C8B11D4B07201B78039300F087F8B0FA90
:1006200080F04009039B194900902246184800F0C9
:100630004EF8184B01461A78154800F0F5F80123DA
:100640002B700420BBE7072000F070F80028A5D02D
:10065000042000F04FF81A20FFF7EAFE00289DD191
:100660000720ACE7002000F061F8002896D00026B3
:1006700020462E7001F014F93046A0E74111002009
:100680004011002042110020D51200204511002009
:100690000D120020D6120020024B1A78024B1A705D
:1006A000704700BF40110020411100200078013840
:1006B00001288CBF0020012070470078431E58425B
:1006C000584170470078B0FA80F04009704710B583
:1006D0001C469DF808304270012B18BF022303709E
:1006E0002246023008F02CFDA01CC0B210BD023022
:1006F00070470000034A012303FA00F0136818430F
:1007000010607047D81A0020044901220B6802FAD1
:1007100000F023EA00030B60704700BFD81A0020E6
:10072000014B00221A607047D81A0020012303FAF7
:1007300000F0024B1B681840704700BFD81A002019
:10074000054B1B785A1E012A02D80020FFF7D2BFA2
:100750000BB90120FAE77047DD1A0020F8B507460B
:100760000C4615461E4608F0ABFE07EE900AFAEE60
:10077000E07AF5EEC07AF1EE10FA21DD2A46214644
:10078000104808F0DDFC104B1F70104B1D7002F07C
:10079000F3FC0F4B187002F0E9FC0E4B18800E4B67
:1007A00020461E70FFF782FF20B10320BDE8F8400D
:1007B000FFF7A0BF2046FFF785FF08B10220F5E74D
:1007C000F8BD00BFE01A0020DF1A0020141B002033
:1007D000DE1A0020121B0020DC1A00200FB407B51F
:1007E000064B07491B6805AAD86801920CF0FAFD70
:1007F00003B05DF804EB04B0704700BF740600203E
:10080000B85B010810B50446002007F0F3FA08F0C1
:100810004FFE2046024A0349BDE8104002F048BCA2
:100820005D0700084107000810B5044602F062FCAD
:10083000014B22781A7010BDDD1A002010B502F0AD
:10084000A1FC044618B101460248FFF7C7FF204645
:1008500010BD00BFB85B0108014B1878704700BF9E
:10086000DF1A002000487047E01A0020014B18787A
:10087000704700BF141B0020014BB3F90000704704
:10088000121B0020014B93F900007047DE1A002074
:10089000014B1878704700BFDC1A00200368184726
:1008A0000B68036070477047C36810B504460BB10E
:1008B0009B689847204610BD38B50546064B45F85D
:1008C000283B044606F06FF92846FFF7EDFF204667
:1008D00006F034F9204638BD487E010810B50446BC
:1008E000FFF7EAFF204603F0AEFA204610BD0000F5
:1008F00010B5034B03600446FFF7DEFF204610BD32
:10090000BC7E010838B5CB6804460D460BB15B6868
:100910009847EB68E360204638BD10B50446FFF702
:10092000E7FF204603F08FFA204610BD10B50C4CAF
:10093000204606F0DBF820460A4B40F8283B102200
:10094000002108F013FD012384F83830064B2360A2
:100950002046064A0649BDE8104003F007B900BF2B
:10096000181B0020487E0108BC7E0108C801002039
:10097000F10800080021084B0A464FF6817001314A
:1009800003291A7058801A715A719A719A601A73F1
:1009900003F11003F3D170475C1B00202DE9F043F5
:1009A0008448854D9FB007F063FB2B78C1B2002BC4
:1009B0003DD0824C0D29237801D00A291CD1804ECC
:1009C0000022F25493B132467E497A4807F062FB26
:1009D000314602A800F004FF7B4B01461B6802A8C9
:1009E000FF2298477949734807F054FB00232B7086
:1009F00023701FB0BDE8F083082901D07F290AD1F8
:100A0000002BF6D0013B724923706A481FB0BDE845
:100A1000F04307F03FBB632BEBD85A1C22706548AC
:100A2000674AD1541FB0BDE8F04307F00DBB612900
:100A30007CD021DC412979D048390B29D9D80B2920
:100A4000D7D801A353F821F07F0B0008F309000861
:100A5000F3090008F3090008F30900087D0A0008FB
:100A6000F3090008F3090008F30900085D0B00080A
:100A7000F3090008910A00086839DEE755494D4836
:100A800007F008FB01232B704C4B00221A70B0E7D3
:100A9000514C52494748524E07F0FCFA22785149CE
:100AA000444807F0F7FA6378A2784F49414807F0C5
:100AB000F1FAE2784D493F4807F0ECFA32784C49B8
:100AC0003C4807F0E7FAA378BBB14A493948DFF858
:100AD0006881384F07F0DEFA00254FF00C09A27844
:100AE000EBB29A4209D909FB0343414693F83C21F2
:100AF000384607F0CFFA0135F1E73378A3B13E4924
:100B00002C48DFF834812B4F07F0C4FA00253278E7
:100B1000EBB29A4208D92344414693F8282138463B
:100B200007F0B8FA0135F2E734496EE73449214855
:100B300007F0B0FA2849CB7800934B788A78097887
:100B400002A800F042FE204B01461B6802A8FF22CB
:100B500098472C49174807F09DFA4AE72A4B2B493A
:100B60001A781448002A0CBF012200221A70284B60
:100B7000284A18BF1A4607F08DFA274945E7274942
:100B80000C4807F087FA26490A4807F083FA2549F6
:100B9000084807F07FFA2449064807F07BFA234902
:100BA000044807F077FA2249024807F073FA21490E
:100BB0002BE700BF501C0020E8220020E922002083
:100BC000EA220020345C010854230020495C01081B
:100BD000665C01086A5C0108701C0020955C0108D5
:100BE000921B0020AC5C0108BA5C0108D05C0108D3
:100BF000E95C0108055D0108225D0108695E0108E4
:100C0000415D0108615D0108D8220020765D010880
:100C1000165C0108F85B0108875D0108BE5D0108EC
:100C2000D75D0108FE5D0108195E0108345E010808
:100C30004F5E0108675E0108155D010873B50A4D36
:100C4000012602460C4628700B46009607490848C4
:100C500007F020FA074B1B6822463146284602B0AF
:100C6000BDE87040184700BFD81E00207E5E010816
:100C7000501C00205423002070B5134807F0F8F9E9
:100C800000F0DF0045281DD1104B1C78D4B9104E60
:100C90003378032B16D10F4D0F490B4807F0FAF9A3
:100CA00029780A20FFF7CAFF0C49074807F0F2F934
:100CB0000B49054807F0EEF934702C70BDE8704020
:100CC000FFF758BE70BD00BF501C00206C1C0020F8
:100CD000591B0020911B0020B75E0108CA5E010865
:100CE000DD5E01080B78F0B50024A0F10C060C279E
:100CF000E5B2AB4206D9013407FB04F5755D9542B8
:100D0000F6D1F0BD132BFCD803EB430300F82320EE
:100D10000B7803EB430300EB8300012383700B7814
:100D200001330B70EDE700002DE9F04F884B894F40
:100D300019783A78884D914218BF1A702B7897B07D
:100D400053B1864B197839B9854A864813680133FF
:100D5000834200F2BF801360082000F075FD002878
:100D600000F09380804B1A78002A00F08B8095F871
:100D70000080B8F1000F40F085807C497C4883F802
:100D800000807C4CDFF8E8B107F084F97A497848B4
:100D900007F080F979492646C146C246337B83B1C4
:100DA000B37902937379019333790093B6F90230E2
:100DB0003278584607F06EF909F101096F495FFA78
:100DC00089F90AF1010ABAF1030F06F11006E5D11B
:100DD000B9F1000F03D16A49654807F05BF9694929
:100DE0006348DFF8CCA1DFF888B107F053F9664912
:100DF0005F4807F04FF965494FF00009237B23B3A3
:100E000094F805C02279A079B4F90230ACEB020263
:100E100012F0FF0218BF03F11406C0EB403E14BFEE
:100E200036B21E46C0EB8E0E06EB4E0636B2CDE94C
:100E300002C0CDE900625846227807F02BF95645EA
:100E40005249C4BF94F80080B24609F10109B9F1D2
:100E5000030F04F11004D1D1B8F1000F52D04C4C63
:100E60004C49434884F80080424607F013F9227841
:100E700049493F4807F00EF921780220FFF7DEFECE
:100E800001233B70082000F0CDFC022000F0DCFCC8
:100E9000002800F0B28000F009FD804600F00AFD55
:100EA000824600F00DFD0446404600F069FC814694
:100EB00000F00CFDB9F10F0F06462AD12B78002B5C
:100EC00040F03A813B7823B3022017B0BDE8F04FE1
:100ED00000F0A8BC314C1160E37800936378A278ED
:100EE000217807A800F071FC6378A2782C490646A7
:100EF0001F4807F0CFF82B4BFF221B68314607A88D
:100F0000984729E728491A4807F0C4F8FFF732FD47
:100F1000B8E74A46CDE9006A244915482346A9F1B5
:100F2000020907F0B7F8B9F10E0F63D8DFE819F03E
:100F30004201620061016200D8016D026200A302F9
:100F4000A40062009B00620042000401FB0000BF9D
:100F50005A1B0020591B00206C1C0020D8220020A6
:100F60008C1B0020404B4C00581B00203B5F0108AD
:100F7000501C00205C1B0020755F01089B5F01086E
:100F8000CB5F0108E05F01080560010829600108E6
:100F9000911B0020646001088A600108701C002019
:100FA000075F010854230020A5600108CB600108F9
:100FB00018FCFFFF2B78EBB133462246AB49AC4817
:100FC00007F068F8AB49AA4807F064F8AA49CB785B
:100FD00000934B788A78097807A800F0F6FBA74BB6
:100FE000014622461B6807A89847A5492246A04803
:100FF00007F050F8022000F015FC2978002940F095
:101000004F823B78022B00F04482032B00F04B828E
:10101000002B40F045829B4A9B49136801338B4269
:10102000136040F23D82994D2C78002C40F03882BC
:1010300097498F48146007F02DF8FFF79BFC954BFC
:1010400001210E201C702970FFF7F8FD02210E20EF
:10105000FFF7F4FD03210E20FFF7F0FD17B0BDE808
:10106000F04F00F097BC2B78002BC3D1404600F026
:1010700089FB89490246BAE72B78002BBAD0874909
:101080007B48224607F006F87B4A907813460021F9
:1010900016465FFA81FC604540F2258293F83CC118
:1010A000644501F1010103F10C03F2D10021CBB23F
:1010B00098421ED992F83CC1644501F1010102F148
:1010C0000C02F4D14FF00C0CB278013A93420FDAD3
:1010D00003F1010803FB0CC3334403F5987E03F5C9
:1010E0009E7393E807005FFA88F38EE80700EBE74A
:1010F000B27073780093B37869495D48224606F070
:10110000C9FF10238DF81C3001238DF81D305B4B77
:1011100022461B68022107A89847F278002A3FF46C
:1011200069AF604963E72B78002B7FF463AF5E49BA
:101130004F4806F0AFFF5DE729783B7851EA030B93
:101140007FF458AF514B1B78002B3FF453AF404610
:1011500000F018FB90F800A090F8028090F803903F
:10116000447852494248009433465246CDE90189B9
:1011700006F090FF4E4B59461A461878504501D05C
:10118000187B88B90B0102EB011102F803A00123BF
:101190004E800C7181F8058081F806900B733D4AF2
:1011A00013780133137025E70131032903F110038C
:1011B000E3D1F4E72B78002B3FF41CAF3D492C48DA
:1011C000224606F067FF2C490B1D0093CB784A7826
:1011D000897807A800F0D8FA3749064622462448FD
:1011E00006F058FF254B1B682246314607A8984752
:1011F00000E72B78002B7FF4FDAE3B78012B7FF4CA
:10120000F9AE22462D491A4806F044FF404600F048
:10121000B9FA2B49437890F8008086780593044604
:10122000134806F037FFE21C2649114806F032FF4A
:10123000059B25490E48424606F02CFF32462349BD
:101240000B4806F027FF2249094806F023FF2149F1
:10125000074806F01FFF2049054806F01BFF1F4BFB
:1012600006201978FFF7EAFCC4E600BF1561010803
:10127000501C002051610108701C002054230020E4
:1012800078610108E022002000350C00581B002086
:10129000CD660108931B0020A0610108B761010819
:1012A000E46101080E6201084062010862620108FF
:1012B0005C1B0020A0620108D0620108F7620108EF
:1012C0002263010871670108F86101083E630108A3
:1012D000516301088363010896630108911B002094
:1012E0002B78002B3FF486AE224680498048DFF8F9
:1012F000709206F0CFFE7F497D4806F0CBFE99F84C
:1013000000107D480022D3B299421CD910F8016B1D
:10131000B442134602F10102F5D1784974482246DD
:1013200006F0B8FE0122002106A800F042FA744936
:10133000804622466E4806F0ADFE724B22461B6880
:10134000414606A853E7704E69480B4622466F494E
:1013500006F0A0FEB27873789A422AD3F07833462A
:101360000022D1B2884240F2AB8093F878118C42CF
:1013700002F1010203F10C03F3D10222002106A8BD
:1013800000F017FADFF8D091614999F80030224651
:101390008046574806F07EFEF27899F8001007A8BC
:1013A00000F00DFA574B01461B68224607A89847E4
:1013B000C3E799F80030F2184FF0010882F828418D
:1013C0000C2202FB0362B11C434482F8384082F8CD
:1013D000398006F59E70224689F80030FFF782FCBE
:1013E0004146002206A800F0E4F922464949804619
:1013F0003F4806F04FFE99F8003000937378B278BA
:1014000045493B4806F046FE97E72B78002B7FF4D2
:10141000F1AD404600F0B6F9067876B13F49344860
:1014200006F038FE3E49324806F034FE3D49304869
:1014300006F030FE03233B70DCE54478012C11D12B
:1014400039492B4806F026FE3849294806F022FE85
:101450003749274806F01EFE364B3E701E70FFF7D8
:1014600089FAC7E5022C7FF4C5AD3349204806F060
:1014700011FE3C70BEE52B78002B7FF4BBAD4046DF
:1014800000F080F92D4943780278194806F002FEF1
:10149000B0E52B4A2B4813680133834208D8136008
:1014A00017B0BDE8F08F284A284813680133F4E7E5
:1014B00011600F48264917B0BDE8F04F06F0EABDAD
:1014C0002449224601F27510FFF70CFC224A1378DA
:1014D0000133DBB21370F2780C21013A01FB026296
:1014E00082F87B3149E71D49224680E5B763010850
:1014F000501C0020EC630108981D002015640108B1
:101500004B64010854230020701C00208C640108E7
:10151000C6640108F36401082665010860650108D6
:1015200091650108B7650108D565010815660108D0
:1015300042660108911B002061660108A06601084F
:10154000E422002040420F00DC22002080841E00A4
:10155000BF770108731C0020901B0020FC66010867
:10156000921B0020F0B5441EE4B2022C574B8CBFF6
:101570000022012287B005461A70FFF7FBF9022C02
:101580006AD8534C534925700027052367802A46A3
:10159000201D6370142608F03FF904F59473013E92
:1015A00016F0FF0603F8017BF9D14B494B482A4658
:1015B00006F070FD4A4A4B49484806F06BFD6278D8
:1015C0004949464806F066FD4849444806F062FD30
:1015D0004749424806F05EFD4649404806F05AFD3C
:1015E00045493E4806F056FD44493C4806F052FD48
:1015F00043493A4806F04EFD424B03221A703146E9
:10160000102202A807F0B2FE3F4B40480293324638
:101610003F4B059302A905F0A9FF02A8FFF744F983
:10162000E37800936378A278217802A800F0CDF8DF
:1016300038490446294806F02DFD3749274806F069
:1016400029FD364BFF221B68214602A8984707B0A8
:10165000BDE8F04000F0F2B82A4631491F4806F0D4
:1016600019FD30491D4806F015FD2F491B4806F0AD
:1016700011FD0025234B2946102202A81D7007F0FA
:1016800075FE2A4B214802932A46214B059302A955
:1016900005F06CFF02A8FFF707F925490F4806F08F
:1016A000F9FC244B01241C70234B1D701B4D0E268E
:1016B000224601342B688DF80860012102A8E4B2AB
:1016C0009847042CF4D100F065F9C0E76C1C0020A9
:1016D000701C0020296701084C670108501C00207D
:1016E000741C00206B670108826701089467010879
:1016F000D75D0108FE5D0108195E0108A6670108B3
:10170000DA670108591B00209D090008941B00207E
:10171000EC5B0108EE6701081768010854230020FC
:10172000356801085068010877680108790C0008DD
:101730009C680108581B0020931B002013B50B4B1D
:101740000B4C1A780B4B1A704FF41653009303226C
:1017500000230221204605F0D9FA074A074920460E
:1017600002B0BDE8104002F001BA00BF591B0020D2
:10177000941B00205A1B0020C80100208102000891
:10178000007870470130704770B5049E044604200D
:1017900020706170A270E370304608F031FAC2B276
:1017A000054601323146201D07F0CAFC681DC0B253
:1017B00070BD0723037041708270032070470923B6
:1017C0000370417082700320704710B5C3700F24FE
:1017D0009DF808300470417082700371052010BDBF
:1017E00037B505460C2305F8013B0846019108F082
:1017F00007FAC4B2642C28BF6424621C0199D2B2D7
:10180000284607F09DFCA01CC0B203B030BD00000C
:10181000034A012303FA00F013681843106070476D
:1018200050230020044901220B6802FA00F023EA49
:1018300000030B60704700BF50230020014B0022C3
:101840001A60704750230020012303FA00F0024B76
:101850001B681840704700BF50230020F8B50C46A5
:1018600001460A48BDF918701D46164607F068FC87
:10187000074B1E70074B1D70074B1F80074B1C70DA
:10188000BDE8F8400220FFF7C3BF00BF5C23002083
:10189000602700205C2700205E27002061270020B1
:1018A0000520FFF7B5BF0620FFF7B2BF004870471D
:1018B0005C230020014B1878704700BF6027002090
:1018C000014B1878704700BF61270020014BB3F926
:1018D000000070475E270020014B1860704700BF72
:1018E00054230020014B1860704700BF582300208C
:1018F0000820FFF78DBF000010B5044605F0F6F88C
:101900002046074B40F8283B1022002107F02EFD0F
:10191000012384F83830034B2360204610BD00BFFC
:10192000487E0108BC7E0108F0B52DED028B85B024
:101930000446684608EE102AFEF7E4FFDFED147A4D
:1019400068EE277A17EE900A13F082F806460D46E5
:1019500005F094FE636B23B994F838300BB105F0B1
:1019600037FC04F128073846FEF79EFF69463846E3
:10197000FEF7C8FF32462B46204605F0FCF805F07E
:1019800093FE6846FEF790FF05B0BDEC028BF0BDFC
:10199000002474491FB510220021684607F0E6FCB8
:1019A000074B00934FF08042064B0748039369466C
:1019B000FFF7BAFF6846FEF777FF05B05DF804FB56
:1019C000F1180008EC5B01086827002010B50A4CEC
:1019D0002046FFF791FF2046084C094A094902F0CA
:1019E000C5F82046FFF788FF2046054A0549BDE8AF
:1019F000104002F0BBB800BFA827002068270020D5
:101A0000C8010020F10800080FB407B5064B04AA6E
:101A10001B6852F8041BD86801920BF0E3FC03B07A
:101A20005DF804EB04B0704774060020002000F05D
:101A30005BBF00002DE9F041BDF81C50B5F5806F8B
:101A400006460C4690461F4606D322482946FFF715
:101A5000DBFF0620BDE8F081022000F0A1FC08B108
:101A60000720F7E73146022000F0F6FC4FFA88F134
:101A7000022000F02DFD3946022000F047FD0699B6
:101A8000022000F061FD2146022000F0C7FC8EB963
:101A90000B3C012C12D80121022000F0A1FC7DB9E1
:101AA0000121022000F06EFD00F0D6FD0130D7D0FC
:101AB0000020CFE7012E01D10C2CECD00021EBE768
:101AC0000021022000F05EFD2946022000F078FD92
:101AD000EAE700BFBB6801087047000084B038B572
:101AE00004AC84E80F000220DDE9085400F058FC43
:101AF00020B10720BDE8384004B070470C2C15D940
:101B000021461148FFF780FF0C21022000F086FCDF
:101B1000A5B90B3C012C15D80121022000F060FC76
:101B200000F09AFD0130E4D00020E3E7052CEFD867
:101B300021460548FFF768FF0621E6E7012D01D1A0
:101B40000C2CE9D00021E8E74B6901080FB407B578
:101B5000064B07491B6805AAD86801920BF042FCA6
:101B600003B05DF804EB04B0704700BF74060020BA
:101B70007469010884B010B502AC84E80F009DF8C8
:101B80000D10012905D0BDE81040254804B0FFF72D
:101B9000DDBF9DF8293033205BB301F009F840F038
:101BA0004101C9B2332000F0F8FF19213B2000F0B9
:101BB000F4FF9DF827309DF82A402BB31D211120FA
:101BC00000F0EBFF402000F0F3FF00F03301402075
:101BD00000F0E3FF00210F2000F0DFFF00210D20C7
:101BE00000F0DBFFD4B10520BDE8104004B001F0E7
:101BF00017B800F0DDFF00F0BE0141F00101332015
:101C000000F0CBFF1D21D1E71F21112000F0C5FFFF
:101C1000402000F0CDFF00F03F01D8E70620E3E7C9
:101C20007469010884B02DE9F04106AC84E80F0026
:101C30000898BDF832609DF83450BDF842700B9C96
:101C4000DDF8288000F0CCFF1D2000F0B1FF9DF8EA
:101C500031309DF8301041EAC3019DF8363041EA39
:101C6000881141EA430141EA8501C9B21D2000F013
:101C700094FF1E2000F09CFFC7F3012100F00C0030
:101C800041EA04110143C9B21E2000F086FFF9B2F7
:101C90001F2000F082FF310A202000F07EFFF1B209
:101CA000212000F07AFF25B19DF83510222000F0A8
:101CB00074FF9DF837306BB14B2000F079FF60F076
:101CC0007F01C9B24B2000F068FF9DF83810242036
:101CD00000F063FF062C4FF031000FD100F068FFD9
:101CE00000F0F80141F00501312000F056FF0C2111
:101CF000BDE8F041372004B000F04FBF00F058FFBE
:101D000000F0F80141F00301312000F046FF0A2104
:101D1000EEE78021122000F040BF4021122000F0A9
:101D20003CBF07B5122000F043FF8DF807009DF877
:101D30000700C0F3401003B05DF804FB202112201F
:101D400000F02BBF08B5192000F032FF030643BF97
:101D50004042C0F38500404240F3870008BD84B094
:101D600010B502AC84E80F009DF938401A2000F04D
:101D70001FFF002CB8BF8B3C4FEA2013B8BF0019DF
:101D8000BDE81040A8BF8B38184400B204B07047BB
:101D900038B50546132000F00BFF044601462846DF
:101DA00000F016FF204638BD0FB407B5064B04AA55
:101DB0001B6852F8041BD86801920BF013FB03B0A8
:101DC0005DF804EB04B070477406002008B528B92C
:101DD0000848FFF7E9FF4FF0FF3008BD402905D95B
:101DE0000548FFF7E1FF6FF00100F6E7BDE80840A6
:101DF00000F0CEBDB3690108DF690108F8B50746F8
:101E000001200D4614461E4600F0CAFA08B107200C
:101E1000F8BD3946012000F03DFB2946012000F0C5
:101E20001BFB71B2012000F053FBBDF8181001201C
:101E300000F06CFB0799012000F086FB2146012091
:101E400000F0ECFA65B90B3C012C0DD80121012002
:101E500000F0C6FA00F0D2FB0130D8D00020D7E75E
:101E6000012D01D10C2CF1D00021F0E784B038B560
:101E700004AC84E80F000120DDE9085400F090FA7A
:101E800020B10720BDE8384004B070479DF91C0020
:101E900000F010FC50BB012000F082FA0028F0D1C5
:101EA0000C2C15D921461248FFF77EFF0C2101208A
:101EB00000F0B4FAA5B90B3C012C15D80121012082
:101EC00000F08EFA00F09AFB0130DAD00020D9E75A
:101ED000052CEFD821460648FFF766FF0621E6E706
:101EE000012D01D10C2CE9D00021E8E70120C9E740
:101EF0004B6901080FB407B5064B07491B6805AAD3
:101F0000D86801920BF06EFA03B05DF804EB04B0F0
:101F1000704700BF74060020196A010884B070B5CC
:101F200004AC84E80F0009209DF9404000F040FE19
:101F300006465A2000F03CFE9DF8103003F0FD03E9
:101F4000012B14BF00238023054606F07F001843B1
:101F5000030600F0F00127D5112CCBBF45F0070593
:101F600005F0F805EDB245F0040505F00703072B71
:101F700012D1142CA8BF1424052CB8BF0524631F4C
:101F80001943C9B2092000F008FE2946BDE8704097
:101F90005A2004B000F001BE112CA8BF1124022C5D
:101FA000B8BF0224A31EEBE70E2CA8BF0E2444EA00
:101FB000E47401342143E4E784B008B50DF1080C62
:101FC0008CE80F009DF80D10012905D0BDE80840F0
:101FD000124804B0FFF78EBF9DF827309BB1F52162
:101FE000112000F0DAFD402000F0E2FD00F03301A6
:101FF000402041F0400100F0D0FDBDE80840032042
:1020000004B000F00DBEF721112000F0C6FD402005
:1020100000F0CEFD00F03F01EAE700BF196A0108B9
:1020200084B02DE9F0418AB010AC84E80F009DF92E
:102030004C30089314AD0FCD6C46159EBDF85A7008
:10204000DDF850800FC495E80F0084E80F0010AB56
:102050000FCBFFF763FF129800F0C2FD9DF85F30D1
:102060006BB14B2000F0A4FD60F07F01C9B24B20A2
:1020700000F093FD9DF86010242000F08EFD1D20DF
:1020800000F096FD9DF859309DF8581041EAC301C3
:102090009DF85C3041EA881141EA83019DF85E3089
:1020A00041EA4301C9B21D2000F077FD1E2000F077
:1020B0007FFD00F00F0141EA0611C9B21E2000F0B9
:1020C0006CFD390A202000F068FD2120F9B200F0F3
:1020D00064FD062E4FF0310010D100F069FD00F0D4
:1020E000F80141F00501312000F057FD0C213720A7
:1020F0000AB0BDE8F04104B000F04FBD00F058FD5B
:1021000000F0F80141F00301312000F046FD0A2102
:10211000EDE70821122000F040BD08B568B133207A
:1021200000F046FD00F0BE01332000F036FD19211D
:102130003B20BDE8084000F030BD332000F038FD02
:1021400000F0BE0141F00101332000F026FD1D2109
:10215000EEE738B5044622200D4600F01EFD0021B2
:102160000E2000F01AFD00210D2000F016FD0120C8
:1021700000F01EFD30F0F80304D100F07FFD0120D7
:1021800005F02CFD29462046BDE8384000F01BBD77
:102190000FB407B5064B04AA1B6852F8041BD86895
:1021A00001920BF01FF903B05DF804EB04B0704727
:1021B0007406002010B50A4C21788142024605D0F1
:1021C0000848FFF7E5FF4FF0FF3004E0022001F080
:1021D00003F808B9207010BD0348FFF7D9FFF2E7F4
:1021E000602800204D720108A372010808B5044858
:1021F00004F0D9FC00F045FD024B01221A7108BD24
:10220000F02700203028002013B5174C2379022B2B
:1022100003D0032B19D002B010BDFFF75DFCFFF710
:10222000E5FF032000F0D8FF012808D000230F4A63
:102230000093146819461A460120A047EBE70C48A2
:1022400002B0BDE81040FFF7A3BF204600F05CFDE0
:1022500094F8280000F049FD0123237102B0BDE885
:10226000104000F0E9BF00BF3028002064280020A3
:10227000237201082DE9F041354C267988B046B12A
:1022800034483146FFF784FF4FF0FF3008B0BDE817
:10229000F081314B1860314B31481960FFF778FFFE
:1022A0004FF4807006F0E8FE2E4B186028B92E48D7
:1022B000FFF76EFF6FF00100E8E74FF4FA62626229
:1022C0000E2222730B22294B626108224FF0010873
:1022D000A360628304230522204684F820306285AF
:1022E000237084F805802677E67784F81E8084F8CA
:1022F0002160266184F81980667784F8228084F84A
:10230000288000F001FD2546014605F8100B18480D
:10231000FFF73EFF0FCD6F460FC795E80F0087E828
:102320000F0094E80F00FFF7A1FDA5F1100CBCE829
:102330000F006F460FC795E80F0087E80F0094E87D
:102340000F00FFF7CBFB84F8048030469EE700BF08
:10235000302800201A6B010868280020642800201B
:102360006B6B0108E8270020986B01082021F636E6
:10237000D26B010808B5042000F02EFF012805D11A
:102380000648FFF705FF4FF0FF3008BDFFF72EFFAF
:10239000022000F021FF0020F7E700BFE86B0108F2
:1023A00038B5054618B90A48FFF7F2FE05E0094CB2
:1023B000217829B10848FFF7EBFE4FF0FF3004E029
:1023C000084600F009FF08B9257038BD0348EBE75F
:1023D000F86F010860280020357001087870010846
:1023E00038B504460D4600F021FF0128084B06D100
:1023F0001A78A24203D1074B00201D7638BD06484B
:102400001A782146FFF7C4FE4FF0FF30F6E700BF11
:102410006028002030280020996F010838B5044654
:102420000D4600F003FF0128084B06D11A78A2429E
:1024300003D1074B00205D6138BD06481A7821465C
:10244000FFF7A6FE4FF0FF30F6E700BF6028002040
:10245000302800203A6F010838B504460D4600F0D8
:10246000E5FE0128084B06D11A78A24203D1074B9A
:1024700000201D6138BD06481A782146FFF788FE06
:102480004FF0FF30F6E700BF602800203028002022
:10249000AC70010838B504460D4600F0C7FE0128AF
:1024A000084B06D11A78A24203D1074B00201D73B6
:1024B00038BD06481A782146FFF76AFE4FF0FF3014
:1024C000F6E700BF6028002030280020BE6D01081C
:1024D00038B504460D4600F0A9FE0128084B06D188
:1024E0001A78A24203D1074B00205D7638BD06481A
:1024F0001A782146FFF74CFE4FF0FF30F6E700BF99
:102500006028002030280020DB6E010838B5044622
:102510000D4600F08BFE0128084B06D11A78A24226
:1025200003D1074B00205D8338BD06481A78214649
:10253000FFF72EFE4FF0FF30F6E700BF60280020C7
:10254000302800200571010838B504460D4600F01A
:102550006DFE0128084B06D11A78A24203D1074B21
:1025600000209D6038BD06481A782146FFF710FE0E
:102570004FF0FF30F6E700BF602800203028002031
:10258000C571010838B504460D4600F04FFE01281C
:10259000084B07D11A78A24204D1074B002083F8D8
:1025A000225038BD05481A782146FFF7F1FD4FF05B
:1025B000FF30F6E76028002030280020677101080E
:1025C00038B504460D4600F031FE0128084B06D10F
:1025D0001A78A24203D1074B00205D8538BD06481A
:1025E0001A782146FFF7D4FD4FF0FF30F6E700BF21
:1025F00060280020302800207E6E0108F0B589B0E8
:1026000000F014FE0128114B18D11F78012F15D1AD
:102610000F4E06F1100500F037FB0FCD6C460FC4CE
:1026200095E80F0084E80F0096E80F00FFF7F8FC2C
:102630003846FFF7BFFD002009B0F0BD0548197806
:10264000FFF7A6FD4FF0FF30F6E700BF602800203F
:10265000302800205A6D0108F0B589B000F0E6FD81
:102660000128114B18D11F78022F15D10F4E06F1FA
:10267000100500F009FB0FCD6C460FC495E80F0064
:1026800084E80F0096E80F00FFF7CCFA3846FFF712
:1026900091FD002009B0F0BD05481978FFF778FDDD
:1026A0004FF0FF30F6E700BF602800203028002000
:1026B000F66C0108F0B58BB0044600F0B7FD0128B8
:1026C000104B17D11F78012F14D10F4E089406F12B
:1026D00010050FCD6C460FC495E80F0084E80F007D
:1026E00096E80F00FFF71AFC3846FFF763FD00205D
:1026F0000BB0F0BD05481978FFF74AFD4FF0FF30E9
:10270000F6E700BF60280020302800201A6E01087C
:102710000E4B1B79022B13B510D1FFF7FAFAFFF716
:1027200065FD032000F058FD012809D00023084A68
:102730000093146819461A460120A04702B010BD44
:10274000044802B0BDE81040FFF722BD3028002049
:1027500064280020106C01082DE9F041454E3479C1
:10276000022C8AB067D1FFF7D8FAFFF7DAFA01280E
:1027700029D1FFF7E3FA96F82250ADB9FFF736FDFD
:10278000032000F029FD012808D03B4B00951E686E
:102790002A462B4629462046B04711E037480AB062
:1027A000BDE8F041FFF7F4BC00F040FD0328F5D18F
:1027B0000023314A0093156819461A462046A84757
:1027C0000AB0BDE8F081FFF7BDFA06F110050890E8
:1027D00007460FCD6C460FC495E80F0084E80F0044
:1027E00096E80F00FFF7BBFA254C80462068FFF7FC
:1027F000CFFA96F8226005468EB9FFF7F7FC032062
:1028000000F0EAFC012808D01B4B00971F682168E4
:1028100043462A463046B847D2E71A48BFE700F099
:1028200005FD0328F9D1144B00971E682168434623
:102830002A460020B0E7032C14D1134804F0B3F962
:10284000FFF767FCFFF7D2FC204600F0C5FC01282B
:1028500006D00E4B1B6800200AB0BDE8F0411847B7
:102860000B489CE70B4821460AB0BDE8F041FFF752
:102870008FBC00BF3028002064280020536A010864
:10288000E82700208F6A0108F02700206828002030
:10289000CA6A0108FE6A01082DE970430446994698
:1028A0000D46904604F0EAFE636B23B994F8383085
:1028B0000BB104F08DFC04F12806AE420BD030467B
:1028C000FDF7F2FF3EB1EB681BB15B68294630466D
:1028D0009847EB68636342464B46204604F04BF949
:1028E000BDE8704304F0E0BEF0B506468DB00120AF
:1028F00000F072FC012806D11E48FFF749FC4FF09A
:10290000FF300DB0F0BD1C4B1C4F18684FF48072A7
:10291000002107F1100506F029FD0FCD6C460FC40C
:1029200095E80F0084E80F0097E80F00FFF722F901
:1029300002233B71E6B11022002108A806F016FD23
:102940000F4B089330460F4B0B9311F08FFC002276
:102950000D4B11F005FD12F09BF802460B460B489B
:1029600008A9FFF799FF08A8FDF79EFF0020C8E718
:102970003046C6E73F6C0108E827002030280020D9
:1029800009220008EC5B010800408F40F02700207E
:10299000F0B5304C2379032B8FB006460D4606D197
:1029A0002D48FFF7F5FB4FF0FF300FB0F0BD0420CE
:1029B00000F012FC0128F3D0FFF718FC0A2005F004
:1029C0000DF9022000F008FC012000F005FC0128B0
:1029D00001D12248E5E763791BB1012B03D0002721
:1029E0000CE01F48DDE794F82100FFF796FB29462D
:1029F000304684F82E50FFF7ACFB676A194E0897F3
:102A00000FCE6D460FC596E80F0085E80F0094E8DD
:102A10000F00FFF7D1FA0323102200210AA8237127
:102A200006F0A4FC104B0A933846104B0D9311F09E
:102A30001DFC00220E4B11F093FC12F029F8024607
:102A40000B460C480AA9FFF727FF0AA8FDF72CFF41
:102A50000020AAE730280020666C0108966C010867
:102A6000BD6C01084028002009220008EC5B010829
:102A700000408F40F027002010B50C4C204604F099
:102A800035F820460A4B40F8283B1022002106F07A
:102A90006DFC012384F83830064B23602046064A3B
:102AA0000649BDE8104001F061B800BFF0270020E2
:102AB000487E0108BC7E0108C8010020F10800081A
:102AC00010B50446044B40F8B83BD4F8C4300BB101
:102AD0009B689847204610BDD87F01080FB407B502
:102AE000064B07491B6805AAD86801920AF07AFCD0
:102AF00003B05DF804EB04B0704700BF740600201B
:102B000006730108F8B50D4C0D4F23681646E268B0
:102B10001B040D46136040F08001094804F086FA5A
:102B2000013D2E44B54205D015F8011F384604F08A
:102B30007DFAF7E7A36822681A60F8BD282900200B
:102B400060290020F8B50E4C0E4F23681646E26847
:102B50001B040D46136000F07F010A4804F066FA7A
:102B6000013D2E44B54206D00021384604F05EFAFD
:102B700005F8010FF6E7A36822681A60F8BD00BFE8
:102B8000282900206029002010B50446FFF798FF8F
:102B9000204601F058F9204610BD07B502AB0122CE
:102BA00003F8011D1946FFF7ADFF03B05DF804FB04
:102BB00007B501220DF10701FFF7C4FF9DF80700DB
:102BC00003B05DF804FB0A4601460020FFF79ABFF8
:102BD0000A4601460020FFF7B5BF000000000000D4
:102BE00010B511F043FB0CA3D3E9002311F0E2FC74
:102BF00011F08EFE0446C0F307410620FFF7CDFF1B
:102C0000C4F307210720FFF7C8FFE1B20820BDE8A1
:102C10001040FFF7C2BF00BF0000000080844E409C
:102C2000144910B50A78044690B932B901230B70E3
:102C3000114BDA681B681B0413600120FFF7B8FF13
:102C400000F0F80121430120BDE81040FFF7A5BFC7
:102C5000094B2AB11A6800200870D96812040A606A
:102C6000032C1A6803D0DB6812041A60E5E79B683E
:102C7000FBE700BF3C2A00200C2900200120FFF7C1
:102C8000CFBF0020FFF7CCBF10B504460120FFF7EF
:102C90008FFFC0F3C010844226D0012C13D0FFF761
:102CA000F0FF0120FFF784FF00F07F010120FFF714
:102CB00074FF00214020FFF770FF30214120BDE864
:102CC0001040FFF76ABFFFF7DCFF2046FFF770FFF9
:102CD00060F07F01C9B22046FFF75FFF002140206E
:102CE000FFF75BFF0021E9E710BD10B504460120A6
:102CF000FFF7CAFF2CB134213920BDE81040FFF79F
:102D00004CBF1221F8E700002DE9FF47594C05465A
:102D100004F0B4FC0121204600F000FC04F0C4FCE7
:102D20002368E2681B041360012004F057FF04F0DD
:102D3000A5FC2046002100F0F1FB04F0B5FC0620C4
:102D400004F04CFF2E784C4C042E1CD104F096FC61
:102D50000021204600F0E2FB04F0A6FC012004F074
:102D60003DFF63681A6823681A4214BF01260026D3
:102D700004F084FC2046012100F0D0FB04F094FC18
:102D8000012004F02BFF2368E2683C483C4C1B0404
:102D900013603C4B9A681B6813600821002204F002
:102DA00023F9394804F00CFF0020FFF739FF102207
:102DB000ACBB2146684606F0D9FA69463348344C24
:102DC00004F021F86846FDF76FFD10227CBB214618
:102DD000684606F0CBFA69462E48DFF8C8802E4CCC
:102DE00004F011F86846FDF75FFD4FF0030900237A
:102DF0005F1CDBB2D8F80020B2FBF9F29A421ED970
:102E000003EB430304EB030AE05CFFF73DFF9AF892
:102E100002109AF80100FFF7C0FE3B46E8E70021E8
:102E2000684606F0A3FA1D4B00940393C5E7002102
:102E3000684606F09BFA194B00940393CBE7687938
:102E4000174CFFF721FF95F82800FFF74EFF4220AF
:102E5000FFF7AEFE38B92046FFF740FE4FF07E5038
:102E600004F0AEFEF3E7A868FFF7BAFE304604B000
:102E7000BDE8F087442900200C29002060290020AB
:102E80005927000828290020CDCCCC3D6C280020F3
:102E900011270008BC280020D3720108EC5B010850
:102EA00006730108D001002073B5224D224C234E39
:102EB0000A21284603F04CFF2846214D2246314680
:102EC00000F054FE1321284603F042FF224631460B
:102ED00028461C4D00F04AFE4FF0FF3300930622B7
:102EE00005230721284604F0D3F822461649284630
:102EF00000F03CFE154B1C2422461846002106F02B
:102F000035FA162103F0DAFE114B2246184600214D
:102F100006F02CFA002103F0BEFE0E4B22460021E3
:102F2000184606F023FA212102B0BDE8704003F0F4
:102F3000B2BE00BF6C280020C8010020A96D0008A7
:102F4000BC28002060290020C12A00082829002070
:102F5000442900200C2900200FB407B5064B04AA11
:102F60001B6852F8041BD86801920AF03BFA03B0C0
:102F70005DF804EB04B070477406002013B5084BED
:102F80000024CDE900340122082307212046FEF762
:102F900051FDFEF74BFD034B1C7002B010BD00BF8E
:102FA0002021F6363D2A002010B5044648B9FFF727
:102FB000E1F9FFF7E3FF084B1B682046BDE810402E
:102FC0001847012807D1FFF7D5F9FFF7D7FF024BC4
:102FD00002201B68F2E710BD802A00202DE9F04195
:102FE000884615461F469DF9186000283BD1202AC7
:102FF00003D92648FFF7B0FF2025254C2A46414635
:10300000204606F09DF8234B1F80234B1E70267828
:103010002746FEB9214BA4781B78A34201D0FF2C90
:103020001BD1A4F1FF035C425C4101261C4B1B78C1
:10303000ABB9FFF79FF9FFF7A1FF012E24D1194B80
:10304000787819492A1F1D68D2B22346AC46BDE8DC
:10305000F041604700242646E8E73446E6E7134897
:10306000FFF77AFFE9E7013801280DD80C4B1B78F0
:103070002BB9FFF77FF9BDE8F041FFF77FBF0B48A1
:10308000BDE8F041FFF768BFBDE8F08113740108A7
:103090003E2A00208A2A0020882A00208C2A00202C
:1030A0003D2A0020842A0020422A0020587401086A
:1030B0000A4B10B518700A4B19600A4B0A491A607E
:1030C00004460A48FFF7D6F8094B00225C701A70D4
:1030D000FFF750F9BDE81040FFF750BF8C2A0020E1
:1030E000802A0020842A0020DD2F0008A92F000854
:1030F0005E2A0020F7B5184F3C7834B117482146B6
:10310000FFF72AFF012003B0F0BD1C2905D91448A0
:103110002022FFF721FF0320F5E7124D0E1DAA70B4
:10312000F6B20A460146281D2C70EE7006F008F82B
:10313000FFF720F90C4A0823CDE90032214601238C
:1031400007220E20FEF75AFE31462846FEF73EFEC5
:1031500001233B702046D6E73D2A00202873010852
:10316000697301085E2A00202021F636014BB3F96D
:10317000000070478A2A0020014B93F90000704735
:10318000882A002010B5074B1C78012C05D1064871
:103190002146FFF7E1FE204610BD044B18700020C9
:1031A000FAE700BF3D2A0020B37301088C2A0020F3
:1031B0000FB407B5064B07491B6805AAD8680192EA
:1031C0000AF010F903B05DF804EB04B0704700BFDB
:1031D00074060020CD74010837B501460D480E4A2B
:1031E000037803EB83052A44545C012C06D00B4B77
:1031F0002B445B5C0370204603B030BD084864225A
:1032000002FB03000090074802FB01020648FFF79B
:10321000CFFFF0E78D2A0020B9740108A5740108DA
:10322000C8030020D4010020CD740108014B187898
:10323000704700BF8D2A0020014B00221A70704792
:103240008D2A002043692DE9F0410D46D907044637
:1032500028D58168334F8268334E836833483940BC
:10326000B94202EA060204BF0127A760B24203EA9C
:10327000000304BF4FF48076A660834204BF4FF47E
:103280008030A0602748814205D027498A4202D079
:10329000264A934206D1264B264A1B6852F825003F
:1032A00001219847E2686369920708D09F0706D515
:1032B0001F4B204A1B6852F8250000219847A1693E
:1032C000626963698E070AD5900508D5190406D589
:1032D000174B184A1B6852F8250005219847A76923
:1032E0006669626917F0040706F4806609D046B182
:1032F000120406D50E4B0F4A1B6852F82500072111
:10330000984763695FB156B11B0408D5084B094A59
:103310001B6852F825000221BDE8F0411847BDE8BE
:10332000F08100BF03000004000300080000031048
:10333000982A0020902A002000210148FFF782BF30
:1033400000640040FFF7F8BFFFF7F6BF0121014816
:10335000FFF778BF00680040FFF7F8BFFFF7F6BF40
:1033600030B5036891FAA1F4B4FA84F491FAA1F1AA
:103370000325B1FA81F1640005FA04F4490023EA57
:10338000040302FA01F11943016030BD00B50023C6
:1033900089B007286FD8DFE800F00413202D3A47E2
:1033A00054610093364B37481A6B42F001021A639E
:1033B0001B6B03F001030093009B09B05DF804FB55
:1033C00001932F4B30481A6B42F002021A631B6BB9
:1033D00003F002030193019BEFE70293284B2B4874
:1033E0001A6B42F004021A631B6B03F0040302938E
:1033F000029BE2E70393224B25481A6B42F0080236
:103400001A631B6B03F008030393039BD5E7049334
:103410001B4B20481A6B42F010021A631B6B03F01F
:1034200010030493049BC8E70593154B1A481A6BC5
:1034300042F020021A631B6B03F020030593059BE7
:10344000BBE706930E4B15481A6B42F040021A6315
:103450001B6B03F040030693069BAEE70793084BF4
:103460000F481A6B42F080021A631B6B03F0800353
:103470000793079BA1E70B4804F068FC00209CE73A
:1034800000380240000002400004024000080240F0
:10349000000C0240001002400014024000180240DC
:1034A000001C0240A0770108431C10B5044604D15B
:1034B00076220649064803F0CBFE2046002100F0A4
:1034C0000DFE04F00F040120A04010BDC1770108DB
:1034D0001B78010870B504464B1C0E46218216D09D
:1034E000C1F30310FFF752FF05463046FFF7DCFF3C
:1034F000238A074A656103F00F03206052F82330E6
:10350000A36105F1100318356360A560E56070BD27
:10351000D87A0108B0F9100000F078BE0A4619B94F
:1035200081694069FFF71CBF0122F9E74C23F0B520
:103530004343224E224F1A1D324400244FF0010E05
:103540001E448C4205D10146BDE8F0401D4804F000
:10355000FDBB33680EFA04F51D422BD0136B7D6959
:103560000EFA03F32B4225D0D2F818C07B61156800
:1035700005B3FA6833EA020203D1BA6833EA0202F9
:1035800014D10F4A916833EA010103D1D26833EABA
:1035900002020DD1DCF81020134214BF01210221D8
:1035A000094B28461B68BDE8F04018470221F7E7A1
:1035B0000121F5E701340432C3E700BF9C2A002053
:1035C000003C014055780108B02C00200621084637
:1035D000FFF7ACBF05210846FFF7A8BF0121042073
:1035E000FFF7A4BF01210320FFF7A0BF01210220A4
:1035F000FFF79CBF01210846FFF798BF012100207B
:10360000FFF794BF012910B518D11B4C838952B123
:10361000A26803F00F0399401143A160836843F04F
:103620000103836010BDA26803F00F03994022EAF2
:103630000101A160836823F00103F2E70229F1D1BF
:103640000D4983895AB1CC6803F00F03012202FAB5
:1036500003F32343CB60836843F00203E1E7CA68C6
:1036600003F00F03012404FA03F322EA0303CB60FF
:10367000836823F00203D4E7003C0140B0F90C302A
:1036800099B270B501F00F0606F00C0404F1804405
:1036900004F59C3401F00301A56889000F228A40DB
:1036A000C3F3031325EA02058B402B43A3600F4BA2
:1036B00001221968B240114319608468E50742BFCE
:1036C000996811439960A10742BFD9680A43DA603B
:1036D00090F90030002B08DB5909012203F01F0389
:1036E00002FA03F3024A42F8213070BD003C014067
:1036F00000E100E02DE9F04F92464A1C85B080467B
:103700000C4666D000220392334A344F516C41F488
:1037100080415164526C02F480420392039A04F097
:103720000F090C2202FB0972C4F303105568062D21
:1037300047D8DFE805F0043A3C3E40424400284EBA
:103740000193FFF723FE0C2101FB09F17A1857F8CA
:1037500001E0244FA8F80C404C21694301247B5818
:1037600092F90820C8F8045004FA0EF44FF0000B48
:103770001C4388F80020C8F808B07C50132101FBD6
:1037800005E507EB8501019B4B60174BC861C3F84A
:1037900000A0164BC1F834909B681032404643F8A5
:1037A0002260FFF76BFF584610E0114EC8E7114E3C
:1037B000C6E7114EC4E7114EC2E7114EC0E7114EE5
:1037C000BEE7114804F0C2FA4FF0FF3005B0BDE883
:1037D000F08F0846FAE700BF003802408078010801
:1037E000FD3500089C2A0020B02C002000ED00E0F0
:1037F000F5350008ED350008E5350008DD35000831
:10380000D5350008CD3500082E7801088389184A7F
:1038100003F00F03012110B501FA03F39468DB43B1
:103820001C409460D4681C40D4601468234013602A
:1038300090F90030002B0CDB5A0903F01F0301FA4A
:1038400003F320320B4941F82230BFF34F8FBFF30F
:103850006F8F90F90030002B09DB5A09012103F02A
:103860001F0301FA03F36032024941F8223010BD10
:10387000003C014000E100E0838903F00F020C23CB
:103880005343104A70B54468D658FFF7BFFF4C2128
:103890000D4A6143012000FA06F55058132303FB3B
:1038A000046320EA0500505002EB830000214160D0
:1038B000981D0C3302EB800002EB830341605960DA
:1038C00070BD00BF807801089C2A002008B503F075
:1038D0007DF8002008BD000008B50A4B1B684BB1FD
:1038E00003F0F0F904F0EFF84FF47A72002311F0CE
:1038F0007FF808BD03F0BEF84FF47A73B0FBF3F025
:1039000008BD00BFB42C002010B588B003F0B6FE8F
:10391000052101A803F0D2F90424039B019A1A603F
:10392000962004F05BF9019B049A1B041360962017
:1039300004F054F9013CF0D10424039B019A1A606D
:103940004FF4C87004F04AF9019B049A1B041360F9
:103950004FF4C87004F042F9013CEED1DCE70000FE
:1039600070B50D46A0B0044603F088FE2B462246F3
:10397000802168460BF084F9051E03DC03F094FEF9
:1039800020B070BD094B1B6823B9032202210848EF
:1039900000F090FE064E00241DF80410304601345D
:1039A00001F06AF8A542F7D1E8E700BFFC2C00203F
:1039B000A42E00200FB407B504A951F8040B0191FF
:1039C000FFF7CEFF03B05DF804EB04B070470000D2
:1039D00008B502F0A9FF01F0ADF802F095FF02F082
:1039E000A3FF024B01221A6008BD00BFB42C0020C7
:1039F00000207047036801221B69002118470368F3
:103A000000221B691146184703681B6918470368A1
:103A10009B69184703689B6A184700290CBF6FF021
:103A20001800002070470120704711207047704730
:103A30006FF01C0070476FF0150070470120704751
:103A40000020704770470000F8B5074E15460C4639
:103A50008F18BC4205D014F8011B304601F00CF859
:103A6000F7E72846F8BD00BFA42E002038B58DB278
:103A700015F0010405D0084800F098FD041C18BF9B
:103A80000124EB0605D5044800F0A6FD08B144F07A
:103A90001004204638BD00BFA42E002010B50446F7
:103AA00005F0F2FA204610BD10B50C462AB10448C4
:103AB00000F0D0FF2070012010BD104610BD00BFE7
:103AC000A42E002038B51D46074B0360074B1B682A
:103AD000044633B9064800F0EDFD2946044800F0DD
:103AE000B1FD204638BD00BFBC790108FC2C002088
:103AF000A42E0020002070470020704708B5012048
:103B000000F036F80C4A136810B51844EFF308813A
:103B1000884205D3094B0C221A604FF0FF3010BDCC
:103B200007490C6824B10749096821448842F1D249
:103B30001060184610BD00BF580600206C2E0020F3
:103B4000C82C0020CC2C0020074C08B52368054663
:103B5000986804F059FC2368D86804F055FC0DB14E
:103B6000FFF7D2FEFEE700BF740600200120704779
:103B700008B5FFF7E9FF01207047002105F06CBD93
:103B800004F07CBC7047704708B5FFF7FBFF08BD29
:103B900008B5FFF7F8FF08BD10B5037803F003037D
:103BA000012B04460CD02BB140F2A952054906481E
:103BB00003F04EFB237843F002032370012010BD75
:103BC000002010BD047A01085B7A010810B5037863
:103BD00003F00303022B044605D040F2B15205491D
:103BE000054803F035FB237823F0030343F001037A
:103BF000237010BD047A0108817A01083F2870B54E
:103C000004462FDC184D55F820305A1C13D10228D9
:103C100011DCFFF771FF034658B92046FFF76AFF32
:103C2000034630B9114E3378BFF35B8FDB0704D501
:103C30000F4B45F82430184670BD3046FFF7ACFFF7
:103C40000028F5D04FF41653032202210848FFF74D
:103C500039FF3046FFF7BAFF064A07490448FFF725
:103C600085FFE5E70023E6E758050020B82C002093
:103C7000C42C0020C8010020453A000838B505468C
:103C8000FFF7BCFF0B4B002443F8254030B904F08C
:103C900081FA092303604FF0FF3038BD03685B6988
:103CA0009847051E04DA04F075FA6D420560F2E7E4
:103CB000204638BD58050020FFF7E0BF38B50C4658
:103CC0001546FFF79BFF38B904F064FA0923036037
:103CD0004FF0FF34204638BD03682146DB682A4692
:103CE0009847041EF6DA04F055FA64420460EFE7E0
:103CF00008B5131E06DA04F04DFA162303604FF0E0
:103D0000FF3008BD04D0FFF7D9FF40EAE07008BDDE
:103D1000184608BD38B50C461546FFF76FFF38B991
:103D200004F038FA092303604FF0FF34204638BD11
:103D3000036821469B682A469847041EF6DA04F079
:103D400029FA64420460EFE7002A08B503DBBDE806
:103D50000840FFF7DFBF04F01DFA162303604FF0A1
:103D6000FF3008BD10B5FFF749FF044628B904F03D
:103D700011FA09230360204610BD0368DB699847E8
:103D8000041EF8DA04F006FA644204600024F2E744
:103D90001FB504220C4640230DEB020101900DF1EA
:103DA00009008DF8083005F0CBF9214602A804F08F
:103DB000F3FC044630B10198FFF7D4FF10B1204660
:103DC000FFF7DBFE204604B010BDFFF7CBBF38B5D0
:103DD0000C461546FFF712FF38B904F0DBF909234A
:103DE00003604FF0FF34204638BD036821461B694D
:103DF0002A469847041EF6DA04F0CCF964420460BF
:103E0000EFE7FFF7E4BF38B50D46FFF7F7FE0446CE
:103E100030B904F0BFF9092303604FF0FF3038BD1B
:103E20000368DB699847002814BF4FF400534FF430
:103E300000436B60236820469B6A984728610020F6
:103E400038BDFFF7E0BF05F01FB90000034610B50D
:103E500053F8042B044602B9036022689A4204D046
:103E60005E220349034803F0F3F9206810BD00BF48
:103E7000407901089F79010810B504460948FFF709
:103E8000E5FF0023084A194652F82300A04208BF64
:103E900042F823100133402BF6D10248FFF7D6FF3A
:103EA00010BD00BFBC2C00205805002010B50F48E5
:103EB000FFF7CCFF0E4B032453F824206AB10134E2
:103EC000402CF9D104F066F9182303600748FFF786
:103ED000BDFF4FF0FF34204610BD4FF0FF320348C6
:103EE00043F82420FFF7B2FFF5E700BFBC2C002009
:103EF0005805002010B50446FFF7D8FF0028A4BFDE
:103F0000014B43F8204010BD5805002070B506460F
:103F10000C46FFF7EFFF054690B12146FFF738FF4B
:103F2000044630B9074B53F82520964203D143F895
:103F30002500204670BD04F02DF909230360F8E741
:103F40000446F6E7580500200EB42DE9F04185B08F
:103F50000546FFF7ABFF041E13DB0023294602A82A
:103F6000019303F0C7FD02A803F016FE1B4D0646A1
:103F700068B904F00FF91323036045F824604FF08B
:103F8000FF34204605B0BDE8F04103B0704702A8F9
:103F900003F0F0FD074602A837B103F0F4FD0190ED
:103FA000019B45F82430ECE703F0DBFD06460028D2
:103FB000DFD0036802A8D3F8088003F0C7FD0B9B8D
:103FC000024601A93046C04706460028E8D004F062
:103FD000E1F87642066045F82470D0E758050020E5
:103FE00073B50E461849054605F08EFC044620B907
:103FF000FFF704FE204602B070BD1449284605F0C4
:1040000083FC20B90120FFF7F9FD0124F2E71049F4
:10401000284605F079FC20B90220FFF7EFFD0224C5
:10402000E8E72B78402B07D10422691C0DEB020036
:1040300005F086F8019CDDE726F400412846FFF7ED
:1040400083FF0446D6E700BFC87A0108CF7A01088B
:10405000C07A010870477047074B08499A680848BA
:1040600010B5043A52F8044F41F8044F8142F9D197
:104070004FF000529A6010BD00ED00E0FCFFFF1F02
:10408000C001002008B5FFF7E7FFFFF7A1FCFFF72D
:10409000E2FF08BD08B5FFF7DDFFBDE80840FCF70B
:1040A0000BB930B5C36891FAA1F4B4FA84F491FA6B
:1040B000A1F10325B1FA81F1640005FA04F4490085
:1040C00023EA040302FA01F11943C16030BD012A59
:1040D00002D0022A18BF0022FFF7E3BF2DE9F0410A
:1040E0000E46411C044604D13E224449444803F094
:1040F000AFF804F00F08434BC4F3031053F82850F3
:10410000FFF744F906F007070446836895FAA5F11E
:10411000B1FA81F195FAA5F20320490000FA01F104
:10412000B2FA82F223EA01035200022101FA02F2FA
:104130001343A36087425AD8DFE807F05E1D021DD3
:10414000B8F1070FC6F303203BD9626A2B0A93FA32
:10415000A3F1B1FA81F193FAA3F34FF00F0EB3FA82
:1041600083F389000EFA01F19B0022EA010200FAB2
:1041700003F3134363623B46226895FAA5F0B0FA55
:1041800080F095FAA5F14FF0030EB1FA81F14000ED
:104190000EFA00F0490022EA00028B40013F13436F
:1041A000012F236005D8636832074CBF2B43AB4314
:1041B0006360C6F3011229462046BDE8F041FFF7CF
:1041C00086BF226A95FAA5F3B3FA83F395FAA5F1AF
:1041D0004FF00F0EB1FA81F19B000EFA03F3890044
:1041E00022EA030200FA01F313432362C3E76722C2
:1041F0000249054803F02CF80023BDE7187B0108AD
:104200001B780108D87A01080F820108431C70B599
:1042100006460D4604D188221B491C4803F018F8B5
:1042200006F00F021A4BC6F3031053F82240FFF7B3
:10423000ADF804FB04F2016802EB42030B40B3FB50
:10424000F2F3013B012B05D8EB1E022B436809D882
:1042500023434360032D08D101222146BDE870406D
:10426000FFF735BF23EA04034360012DF4D0052D89
:1042700001D0022D01D10222EFE721460022BDE844
:104280007040FFF70EBF00BF187B01081B780108C4
:10429000D87A010870B5A6B03422002102A805F032
:1042A00065F85C2200210FA805F060F82A4B1D6814
:1042B000002D4FD1294C019501261E60236C43F03F
:1042C00080532364236C03F080530193019B00F01F
:1042D0005DFC042302A802930895049600F0C0FF39
:1042E00010B11F4803F032FDA36823F4F813A36054
:1042F000A36823F4F813A360236F43F48073236748
:1043000020230F930FA84FF480731F9300F058FDE4
:1043100010B1144803F01AFD134B144801221A601F
:10432000134B036003220023826041F6FF72437740
:104330004360C26003614361836101F05EF910B1C3
:104340000C4803F003FD094801F089FA10B10A484E
:1043500003F0FCFC26B070BDD82C002000380240D1
:10436000707B0108907B01083C0E4742DC2C00204A
:1043700000280040B97B0108D37B0108F0B51F4B32
:104380001F491C681F4A5D688BB00C4015401E46D3
:104390000F461868084084422BD158681040854267
:1043A00027D105F03F0001F051FA0490C5F3042035
:1043B00001F04CFA01380590280C01F047FA44301E
:1043C0000690C4F3054001F041FA0390C4F30620BF
:1043D00001F03CFA029004F07F0001F037FA01226C
:1043E0000190694601A802F051FF00B100980BB09E
:1043F000F0BD346875683C401540CAE700280040AD
:104400007F7F7F003FFFFF00024BD868C0F30010A2
:10441000704700BF00280040214B224A2DE9F0419F
:104420001D691C689E6AC5F30E05144018461746A0
:10443000196811408C422ED1996A8E422BD1C4F357
:10444000054001F003FA0746C4F3062001F0FEF927
:10445000804604F07F0001F0F9F9134A13493C2328
:1044600013FB08004FF4616303FB07001368146833
:1044700098420B683CBF03F5A83303F5C0731B1BC0
:1044800003440B6010600868013DC00305EB900019
:10449000801BBDE8F0810468866A3C40C8E700BF25
:1044A000002800407F7F7F00D42C0020D02C0020EB
:1044B00030B591B000211422044602A8019104F005
:1044C00055FF03F0DBF82A4B2A4A1A6007A901229C
:1044D000204602F02BFF002848D00D9B03B907238C
:1044E0008DF804300B9B01338DF805300A9B8DF855
:1044F00006300C9B443B8DF80730099B8DF8083043
:10450000089B8DF809300024079B8DF80A308DF840
:104510000B4005940694FFF77FFF9DF809109DF866
:104520000A2013483C2313FB01229DF808304FF466
:10453000616101FB0323104A13600E4B224601A95F
:104540009D6A01F0B3F810B10C4803F0FFFB0022A4
:1045500002A9074801F00AF910B1094803F0F6FB77
:10456000044A936A9D42FCD103F09EF811B030BD1D
:10457000DC2C002000280040D42C0020EC7B01081B
:10458000037C01080FB407B5064B07491B6805AA51
:10459000D868019208F026FF03B05DF804EB04B080
:1045A000704700BF740600201A7C01084368094A5E
:1045B0009B0182B0D3581A68120706D500220192D7
:1045C0001A6801925A680192019A1868C0F3401063
:1045D00002B07047F02E00204368034A9B01D35875
:1045E0001868C0F3C0107047F02E002042681449CC
:1045F000920110B404685450531882685A60C2681B
:104600009A600269DA6042691A61026A9A6100225C
:10461000DA84DA619A84DA859A85B0F91A2001324F
:1046200006D108225A6118465DF8044B01F0B1BE6C
:10463000B0F9182001320CBF04220C22F2E700BFAF
:10464000F02E002010B581600C46FFF7CFFF28B197
:1046500021460348BDE81040FFF794BF10BD00BFDE
:104660001A7C0108124B984217D0A3F54C4398428C
:1046700015D003F58063984213D003F58063984208
:1046800011D003F5806398420FD003F5444398425C
:104690000CBF05204FF0FF3070470020704701200D
:1046A000704702207047032070470420704700BF06
:1046B00000100140F0B50E4687B004465B49304615
:1046C000154602F037FC5A490746284602F032FCEC
:1046D0000146384602F008FC2060013004D13D223A
:1046E0005449554802F0B4FD022E0CD0032D0AD0D7
:1046F0004E49022002F01EFC874202D14F4803F0CF
:1047000025FB002700E001274D4B206898424FF021
:1047100000031AD100934B4B5A6C42F010025A64BA
:104720005B6C03F010030093009B474B984229D128
:1047300000230593434B5A6C42F020025A645B6C91
:1047400003F020030593059B1CE0404A90420BD1E7
:1047500001933C4B1A6C42F400321A641B6C03F454
:1047600000330193019BE0E7394A904240D1029324
:10477000344B1A6C42F480221A641B6C03F48023BD
:104780000293029BFFF76EFF0028606004DAA42208
:104790002849304802F05CFD2449304602F080FB95
:1047A0002349284602F07CFB721C03D001213046CD
:1047B000FFF72CFD6B1C03D001212846FFF726FDD7
:1047C0004FF41653A3600023E36023616361236207
:1047D000268365832046FFF709FF3FB11E4B1F4824
:1047E00001221A6021464C2204F0AAFC07B0F0BD59
:1047F0001B4A90420BD10393124B1A6C42F40022D5
:104800001A641B6C03F400230393039BBAE7154A55
:1048100090428AD104930B4B1A6C42F480121A64B2
:104820001B6C03F480130493049BABE72877010807
:10483000B0760108447C0108A07C0108BC7C01081A
:1048400000100140003802400014014000440040C4
:1048500000480040F17C0108FC2C0020A42E002020
:10486000004C004000500040002808DB42090123B2
:1048700000F01F0003FA00F0014B43F822007047DC
:1048800000E100E000280DDB4309012200F01F00D9
:1048900002FA00F02033044A42F82300BFF34F8F9E
:1048A000BFF36F8F704700BF00E100E0F7B5FFF77F
:1048B000D9FE071E26DB144E56F8270010B3134C02
:1048C000BD0163591A68120606D5DB68190603D5BF
:1048D0000F4B01211B68984763591A68920608D547
:1048E000DB68980605D50A4B56F827001B6800219F
:1048F000984763591A68110704D55A69D20744BF0B
:104900005B68019303B0F0BD042D0020F02E002061
:10491000002D00200148FFF7C9BF00BF001401406F
:104920000148FFF7C3BF00BF005000400148FFF738
:10493000BDBF00BF004C00400148FFF7B7BF00BF3C
:10494000004800400148FFF7B1BF00BF00440040ED
:104950000148FFF7ABBF00BF00100140034B1960D7
:104960004168034B43F82120704700BF002D002011
:10497000042D002030B490E818002C48834233D036
:104980000AD8A0F50060834228D000F580608342F9
:1049900027D0002318460FE0254883420AD000F5AF
:1049A0008060834223D0A0F544408342F1D1214B63
:1049B000352001E0204B2520204DA401FAB1C9B9D2
:1049C0002959CA6842F02002CA601D4A00F110014C
:1049D000926830BC42F82130FFF746BF194B2620C1
:1049E000EAE7194B2720E7E7184B3420E4E7184B98
:1049F0004720E1E72959CA6842F08002E4E72B59D1
:104A0000DA6849B922F02002DA60DB6813F0800F1F
:104A100009D130BCFFF736BF22F08002DA60DB68D4
:104A200013F0200FF4E730BC704700BF004C00408B
:104A3000001001402149000851490008F02E0020D3
:104A400000ED00E045490008394900082D490008FB
:104A50001549000838B5446805462846FFF7A6FD05
:104A60000028FAD0A401034B1B595868C0F3080072
:104A700038BD00BFF02E002070B5456806460C46D4
:104A80003046FFF7A9FD0028FAD0AD01024B5B5973
:104A9000C4F308045C6070BDF02E002008B50E4A17
:104AA000C36D934214D008D8A2F5806293420FD010
:104AB0000A4803F04BF9002008BD094A934203D08D
:104AC00002F580629342F3D1BDE8084000F04AB994
:104AD000BDE8084000F036B9003C0040037D010805
:104AE00000300140DFF830D0002103E00B4B5B5871
:104AF000435004310A480B4B42189A42F6D30A4AF3
:104B000002E0002342F8043B084B9A42F9D301F03B
:104B10001FFEFBF77BFB704700000220348B01086F
:104B2000C80100204810002048100020B8300020A4
:104B3000FEE7704708B50B4B1A6842F400721A6022
:104B40001A6842F480621A601A6842F480721A602D
:104B5000032000F009F80F20FEF7B8FEFFF7E9FF89
:104B6000002008BD003C0240074AD36823F4E063FC
:104B70001B041B0C43F0BF63000243F4003300F43A
:104B8000E0600343D360704700ED00E0014B012279
:104B90001A60704720000E4237B500230193184B6E
:104BA000184C1A6C42F080521A641B6C03F080534C
:104BB0000193019B144B01221A60FEF78DFE0546FE
:104BC0006368DA030BD5114B0E4C01221A60FEF715
:104BD00083FE054663689B030AD5002006E0FEF7C6
:104BE0007BFE401BB0F57A7FEAD9032003B030BDCD
:104BF000FEF772FE401BB0F57A7FEBD9F5E700BFF8
:104C0000003802400070004040000E4244000E4256
:104C10002DE9F0410D46044610B90120BDE8F081B0
:104C2000444B1A6802F00F028A4228D321688F078A
:104C30002DD4C80740D43F4B1A6802F00F029542AA
:104C400066D3226851076CD4130707D53A4A216905
:104C5000936823F4604343EAC103936000F0B8FA19
:104C6000354B364A9B68C3F30313D35CD840344BAF
:104C700018600F20FEF72AFE0020BDE8F081CAB2BE
:104C80001A701B6803F00F039942C6D1CEE72A4B76
:104C900011F0040F1EBF9A6842F4E0529A600E07AA
:104CA00042BF9A6842F460429A609A68A06822F013
:104CB000F00202439A60BCE762681F4B012A1DD1D3
:104CC0001B6813F4003FA8D01B4EB36823F0030306
:104CD0001343B360FEF700FE41F288380746B3681D
:104CE000626803F00C03B3EB820FA4D0FEF7F4FD6F
:104CF000C01B4045F3D90320BDE8F081911E012976
:104D00001B6802D813F0007FDDE713F0020FDAE72B
:104D1000EAB21A701B6803F00F039D427FF47DAF67
:104D20008FE70549E0688B6823F4E05303438B6009
:104D30008AE700BF003C024000380240097E0108BB
:104D40005C060020044B054A9B68C3F38223D35CB6
:104D5000034A1068D840704700380240197E0108A5
:104D60005C060020044B054A9B68C3F34233D35CC6
:104D7000034A1068D840704700380240197E010885
:104D80005C0600200F2303600B4B9A6802F00302BD
:104D900042609A6802F0F00282609A6802F4E0527F
:104DA000C2609B68DB0803F4E0530361034B1B689C
:104DB00003F00F030B60704700380240003C0240D4
:104DC00003682DE9F74313F0010604460BD0AA4906
:104DD000866BD1F88C2022F0C0623243B6FA86F698
:104DE000C1F88C2076099D070BD5A348E16BD0F85C
:104DF0008C2022F0C0520A430029C0F88C2008BF42
:104E0000012613F0040512D09B49256BD1F88C20A4
:104E1000B5F5801F22F4401242EA050218BFB5FA28
:104E200085F5C1F88C2012BF6D09002501261807F1
:104E30000FD59148616BD0F88C2022F440020A43D0
:104E4000B1F5800FC0F88C2000F00981002908BF5F
:104E50000125990633D500230193874B874F1A6CA0
:104E600042F080521A641B6C03F080530193019B43
:104E70003B6843F480733B60FEF72EFD80463B6841
:104E8000DA0540F1EE807C4F3B6F13F4407340F045
:104E9000FB80236C03F44072B2F5407F764A40F009
:104EA0001681916823F0704021F4F81120F44070CD
:104EB00001439160116FC3F30B030B431367236826
:104EC000D90642BF6E4B94F858201A6023681A0620
:104ED00008D56949E06CD1F8942022F440020243DD
:104EE000C1F894205F0608D56349A06CD1F89420DE
:104EF00022F080620243C1F89420D8050CD55E48A8
:104F0000616DD0F8942022F000620A43B1F1006F85
:104F1000C0F8942008BF0125990508D55649606C52
:104F2000D1F8942022F080520243C1F894205A050F
:104F300000F1D180012E40F0DC80524E4E4F002314
:104F40003360FEF7C9FC80463B681B0100F12581F8
:104F50002268D00701D5A36B1BB1910715D5E36B70
:104F60009BB94549D1F88430D1F8840003F440332B
:104F700000F07060034360680343A06843EA801355
:104F8000606943EA0073C1F88430530703D5236B8B
:104F9000B3F5801F05D0170720D5636BB3F5800FDD
:104FA0001CD13549D1F88430D1F8840003F4403362
:104FB00000F0E040034360680343A06843EA8013C5
:104FC000206943EA0063C1F88430D1F88C00A36AF9
:104FD00020F01F00013B0343C1F88C3050051BD566
:104FE000236DB3F1005F17D123486768D0F88410B0
:104FF000D0F8843003F0E0433B43A768C1F301419C
:10500000013143EA871343EA4163E1684908013902
:1050100043EA0143C0F88430110511D52369A26821
:105020001B0643EA821362681343626943EA027310
:10503000E2685208013A43EA02430F4AC2F8843058
:1050400001233360FEF748FC0B4E074633681A0114
:1050500053D4FEF741FCC01B0228F7D908E0012613
:10506000F7E6FEF739FCA0EB080002287FF607AF51
:10507000032003B0BDE8F083003802400070004018
:10508000E011474268004742226C02F440729342AA
:105090003FF4FFAE3B6F4B4A0121116023F4407394
:1050A000002111603B673B6FDB077FF5F2AEFEF737
:1050B00013FC41F2883980463B6F98073FF5E9AE13
:1050C000FEF70AFCA0EB08004845F5D9D0E7916847
:1050D00021F4F811EDE63C48216DD0F8942022F03F
:1050E00000520A43B1F1005FC0F894207FF422AF70
:1050F00023E7B3F5006F3FF420AF012D4BD1334DC3
:10510000314E00232B60FEF7E7FB074633689B0018
:105110004BD421684E0701D5236B1BB108071AD564
:10512000636BC3B9284AA069D2F8883003F44033CE
:105130000343E06943EA8013606A43EA0063C2F80C
:105140008830D2F88C30E06A23F4F853013843EA0F
:105150000023C2F88C30CA0514D5636DB3F1006F1B
:1051600010D11949A269D1F8883003F07063134354
:10517000E26943EA8213226A5208013A43EA02438F
:10518000C1F8883001232B60FEF7A6FB0E4C0546C4
:1051900023689B000FD500206BE7FEF79DFBA0EB7B
:1051A000080002287FF6D0AE62E7FEF795FBC01B31
:1051B0000228ABD95CE7FEF78FFB401B0228E7D93A
:1051C00056E700BF400E4742003802407000474299
:1051D000204908B58B6803F00C03082B07D00C2B73
:1051E00020D01D4A1D48042B18BF104608BD4A6830
:1051F0004B68496813F4800314BF18481648C1F37C
:10520000881118BF002302F03F02A1FB00010FF03C
:10521000EFFB104B5B68C3F3014301335B00B0FB52
:10522000F3F008BD4A684B68496813F4800314BF63
:105230000A480948C1F3881118BF002302F03F0251
:10524000A1FB00010FF0D4FB024B5B68C3F30273B8
:10525000E5E700BF003802400024F40000127A00A5
:1052600003682DE9F341DF07044610D423689E0745
:1052700067D423681A0700F1B28023685B0700F146
:10528000D080A269002A40F0398100201EE0974BAF
:105290009A6802F00C02042A10D09A6802F00C02FC
:1052A000082A02D15B685D0208D4904B9A6802F02C
:1052B0000C020C2A0DD15A6850020AD58B4B1B6880
:1052C0009903D3D56368002BD0D1012002B0BDE88B
:1052D000F0816268B2F5803F11D11A6842F48032E1
:1052E0001A60FEF7F9FA814D06462B689A03BDD481
:1052F000FEF7F2FA801B6428F7D90320E6E77B4D1E
:10530000B2F5A02F2B6807D143F480232B602B68C4
:1053100043F480332B60E4E723F480332B602B6865
:1053200023F480232B60002ADBD1FEF7D5FA064652
:105330002B689B039AD5FEF7CFFA801B6428F7D918
:10534000DBE76A4B9A6812F00C0F10D09A6802F0F3
:105350000C02082A02D15B685F0208D5634A936891
:1053600003F00C030C2B11D153685E020ED45F4B7B
:105370001A68950702D5E268012AA6D11A68216940
:1053800022F0F80242EAC1021A6072E7E268584B62
:10539000B2B101221A60FEF79FFA544D06462B68FF
:1053A000980707D52B68226923F0F80343EAC20364
:1053B0002B605EE7FEF790FA801B0228EFD99CE78E
:1053C0001A60FEF789FA494D06462B6899077FF562
:1053D00050AFFEF781FA801B0228F6D98DE762698B
:1053E000444B7AB101221A60FEF776FA3F4D064629
:1053F0006B6F9F073FF541AFFEF76EFA801B0228E7
:10540000F6D97AE71A60FEF767FA384D06466B6FF1
:1054100098077FF532AFFEF75FFA801B0228F6D9B6
:105420006BE7324B1A6C12F0805228D101921A6C41
:1054300042F080521A641B6C03F080530193019B6D
:1054400001262D4D2B68D9051BD5A368274D012BAF
:1054500027D12B6F43F001032B67FEF73DFA234D55
:10546000074641F288382B6F9B0739D5002E3FF451
:1054700008AF1E4A136C23F08053136401E7002623
:10548000DFE72B6843F480732B60FEF725FA0746AD
:105490002B68DA05D9D4FEF71FFAC01B0228F7D90A
:1054A0002BE7052B04D12B6F43F004032B67D0E7C8
:1054B0002A6F22F001022A672A6F22F004022A676B
:1054C000002BCAD1FEF708FA41F2883807462B6F45
:1054D0009807CBD5FEF700FAC01B4045F7D90CE77B
:1054E000FEF7FAF9C01B4045BDD906E70038024077
:1054F00000004742800E474200700040234DAB68D9
:1055000003F00C03082B3FF4E0AE214E0023022AE7
:1055100033602DD1FEF7E0F907462B68990121D4BD
:10552000226AE3691343626A43EA8213E26A43EA46
:105530000263226B43EA0273A26A144C5208013AD6
:1055400043EA02436B6001233360FEF7C5F9054669
:1055500023689A013FF599AEFEF7BEF9401B022879
:10556000F6D9CAE6FEF7B8F9C01B0228D5D9C4E6B9
:10557000FEF7B2F904462B689B017FF586AEFEF775
:10558000ABF9001B0228F6D9B7E600BF003802408D
:10559000600047427047026838B5D36823F0A00323
:1055A000D3600446FEF798F905462368DB689B063E
:1055B00001D5002038BDFEF78FF9401BB0F57A7F8A
:1055C000F3D9032038BD38B50368DA6852060446BB
:1055D00001D5002038BD4FF0FF32DA60FEF77CF9CC
:1055E00005462368DB685B06F3D4FEF775F9401BBC
:1055F000B0F57A7FF5D9032038BD38B50446B8B187
:10560000437F03F0FF0213B90277FFF7C3FF0223C2
:1056100063772368CA225A6253225A622046FFF7F0
:10562000D2FF2368054628B1FF225A62042363771C
:1056300001252EE09A68206922F4E00222F040025F
:105640009A60626899680243606902430A439A60FB
:10565000E2681A611A69A16842EA01421A61DA68CD
:1056600022F08002DA609B689B0605D42046FFF793
:1056700092FF08B12368D7E72368A1691A6C22F466
:1056800080221A641A6C0A431A64FF225A620123A8
:105690006377284638BD0023092803D840EA031061
:1056A000C0B270470A380133C0B2F5E7F8B5037FDE
:1056B000012B05464FF0020630D0012303774677D1
:1056C0004B78C8788E780C78002A48D1DA0603D552
:1056D00023F010030A334B70FFF7DDFF07464878CD
:1056E000FFF7D9FF02463046FFF7D5FF40EA4430C6
:1056F00040EA074040EA02242B68CA225A62532239
:105700005A622846FFF75FFF2B68064640B1FF222A
:105710005A6204236B7700232B7701263046F8BDAD
:1057200024F07F4424F0C0045C60DA6822F0800238
:10573000DA609B689B060AD42846FFF72CFF30B13D
:105740002B68FF225A6204236B772E77E5E72B68DC
:10575000FF225A6201236B7700232B77DEE71B02BF
:1057600043EA0040304340EA4434C5E7F8B5037FDC
:10577000012B06460F464FF002052FD00123037779
:105780000368457708784D788C789B6842BB13F0A6
:10579000400308BFCB70FFF77EFF01462846FFF7A6
:1057A0007AFF02462046FFF776FFFB7840EA034087
:1057B00040EA014040EA02243368CA225A62532276
:1057C0005A623046FFF7FFFE33680546A8B1FF2254
:1057D0005A62042373770023337701252846F8BDE6
:1057E00013F040034FEA052508BFCB7045EA00409F
:1057F0002043CC7840EA0444DEE704F07F3424F010
:10580000FE441C609A68386922F480229A60FA6823
:10581000996802430A439A60DA6822F08002DA60EB
:105820009B689B060AD43046FFF7B5FE30B133685B
:10583000FF225A62042373773577CEE73368FF225D
:105840005A620123737700233377C7E7030903EB19
:10585000830300F00F0000EB4300C0B27047037FEA
:10586000012B4FF002030FD043770368CA225A621C
:1058700053225A629A6842F020029A60FF225A62CA
:1058800001234377002303771846704703685A685B
:1058900022F0E0025A604268B2F5827F0AD1826843
:1058A000B2F5004F02D0B2F5806F03D11A6822F032
:1058B00040021A60826AB2F5005F09D11A6822F4C8
:1058C00000521204120C1A601A6842F400521A6054
:1058D000012380F85130002380F8503003207047B6
:1058E00070B505460C46164629688B689B0701D59E
:1058F000002070BD621CF8D024B92846BDE8704075
:10590000FFF7C4BFFDF7E8FF801B8442ECD8F4E743
:105910002DE9F041DDF8188005460F4616461C4675
:105920002B6898683840B04202D10020BDE8F08171
:10593000621CF6D024B92846BDE8F041FFF7A6BFA7
:10594000FDF7CAFFA0EB08008442E9D8F3E713B5DE
:105950000B460092802100220446FFF7D9FF20B1B8
:10596000636D43F020036365032002B010BD7047F0
:1059700038B5044600283BD090F8513003F0FF02C0
:105980001BB980F85020FFF7F2FF2168A568A06AD4
:10599000A269022384F851300B6823F040030B60A6
:1059A00063682B43E5682B4325692B4365692B43CB
:1059B000E5692B43256A2B43034302F400752B430F
:1059C0000B60120C636AB0F5005F02F0040242EA59
:1059D000030208BFE36A4A6008BF0B61CB6923F486
:1059E0000063CB6100200123606584F8513038BD2D
:1059F000012038BD2DE9F3411E4690F85030012BAF
:105A000004460D46904600F0BA80012380F85030DD
:105A1000FDF762FF074694F85100C0B2012840F03C
:105A2000AC80002D5FD0B8F1000F5CD0032384F868
:105A3000513000236365A363A4F83680A387E3870E
:105A400063642364A36822682563B3F5004F08BF2D
:105A50001368A4F8348004BF43F480431360A36A3E
:105A6000B3F5005F09D1136823F400531B041B0C2A
:105A70001360136843F40053136013685B065EBF42
:105A8000136843F040031360E368B3F5006F636885
:105A90003AD11BB1E38E9BB2012B06D135F8023B04
:105AA000D360E38E013B9BB2E386E38E9BB283B966
:105AB0003A4631462046FFF713FF98B93A46314639
:105AC0002046FFF744FF002840D0202363650120D3
:105AD00009E023689A68900703D535F8022BDA604D
