:020000040800F2
:1000000000000220CD5500081956000819560008B6
:10001000195600081956000819560008000000007B
:100020000000000000000000000000001956000859
:10003000195600080000000019560008195600085B
:1000400019560008195600081956000819560008D4
:1000500019560008195600081956000819560008C4
:1000600019560008195600081956000819560008B4
:1000700019560008195600081956000819560008A4
:100080001956000819560008195600082D3E000898
:10009000313E000819560008213E00081956000894
:1000A0001956000819560008195600081956000874
:1000B0001956000819560008195600081956000864
:1000C0001956000819560008195600081956000854
:1000D0001956000819560008195600081956000844
:1000E0001956000819560008195600081956000834
:1000F0001956000819560008195600081956000824
:100100001956000819560008195600081956000813
:100110001956000819560008195600081956000803
:1001200019560008195600081956000819560008F3
:10013000195600080000000000000000413E0008C1
:10014000453E000819560008353E000819560008BB
:1001500019560008195600081956000819560008C3
:1001600019560008195600081956000819560008B3
:10017000195600081956000819560008000000001A
:1001800000000000195600080000000000000000F8
:100190001956000800000000000000001956000871
:1001A00000000000000000000000000019560008D8
:1001B0001956000819560008195600081956000863
:1001C0001956000810B5054C237833B9044B13B108
:1001D0000448AFF300800123237010BD48100020B5
:1001E0000000000058A0010808B5034B1BB10349EB
:1001F0000348AFF3008008BD000000004C10002051
:1002000058A00108A3F5803A704700BF174B002B98
:1002100008BF134B9D46FFF7F5FF00218B460F46A5
:100220001348144A121A09F039FE0E4B002B00D065
:1002300098470D4B002B00D0984700200021040068
:100240000D000D48002802D00C4804F008FA09F00F
:10025000E1FB2000290004F091FC04F0FDF900BF4F
:1002600000000800000000006D4B000800000220A4
:1002700048100020A03000205F4600080000000069
:1002800010B5094B036003F1200280330446C0F827
:10029000BC20C0F8C030BC3008F05EFC204607F03F
:1002A00039FF204610BD00BF28940108A0F1BC0012
:1002B000E6E7A0F1C000E3E708B52848274C4FF473
:1002C000165107F043FE04F1BC05204607F052FE2C
:1002D00018B1284608F066FCF7E7214C214D642050
:1002E00008F016FA2049214808F06EFC2368986847
:1002F00008F024FE1E491D4808F066FC23681D4CCA
:10030000986808F01BFE1C491848224608F079FC42
:10031000164808F047FC19492278144808F054FCA4
:1003200022781248531E022B94BF1549154908F034
:100330004BFC15490D48FF232B7008F045FC207835
:1003400000F0EEF8207801F061FE1049074808F04F
:100350003BFC00F037F900F099FFFAE76810002045
:100360007406002064100020686501082411002034
:10037000B7650108CC010020626A0108CE6501085A
:10038000E2650108006601081A6601083A6601087C
:1003900010B50446FFF774FF204604F0C8FA204663
:1003A00010BDA0F1BC00F3E7A0F1C000F0E7000031
:1003B00013B5094C4FF41653009303220023022176
:1003C000204607F017FA054A0549204602B0BDE865
:1003D000104004F03FB900BF68100020C8010020A1
:1003E000810200080FB407B5064B04AA1B6852F837
:1003F000041BD86801920DF075FD03B05DF804EBA5
:1004000004B070477406002008B5074B1A78074BF4
:100410001B789A4205D106481146FFF7E3FF0120F9
:1004200008BD0020FCE700BFCD010020D61200204F
:1004300051660108024B1870062000F07BB900BF1E
:100440004211002038B50546FFF7DEFF01280446BB
:1004500005D105482946FFF7C5FF204638BD034BA7
:1004600000241D70F9E700BF90660108D612002035
:1004700070B50D4E0D4D3378834228BF03461A46A2
:100480000B4829461C4609F0F3FB3278094B121B36
:10049000D2B21C7032702AB12919284609F0E8FB43
:1004A000012070BD1046FCE744110020D716002043
:1004B00045110020D512002038B5054610460C46DF
:1004C000FFF7C0FF012808D1072000F04FF920B145
:1004D000BDE83840072000F049B9192C22462946CA
:1004E00009D80B4809F0C4FB0A4B1C70BDE8384022
:1004F000042000F01FB9084809F0BAFB074B1A2086
:100500001C70FFF7B5FF072000F014F9EEE700BFFD
:1005100045110020D5120020D716002044110020DC
:1005200010B50A4B0A4C00221A70207000F018F91E
:10053000FFF76AFF207800F085F9064801F042FFD6
:10054000BDE81040044801F043BF00BFD6120020B0
:10055000CD010020B9040008350400082DE9FF4151
:10056000164D1F4695F80080154B144698440E46CC
:1005700000F0DDF822460146404609F079FB2A7872
:10058000023A1444E4B2012F2C7003D09DF82830B5
:10059000012B10D100F096F9039000F08DF9039B28
:1005A000009022460648314601F0CEFE0020287019
:1005B00004B0BDE8F0810120FAE700BF431100203C
:1005C000D712002070B53D4B3D4D1A782C78A242D1
:1005D00086B018BF1C701CB1012C63D006B070BD72
:1005E000062000F0C3F878B1364B187800F046F9D1
:1005F000B0FA80F0400901F0CCFE2C70062006B065
:10060000BDE8704000F0A0B8032000F0AFF8E0B102
:1006100000F042F9059000F045F9064600F046F971
:10062000049000F055F90390304600F066F8C0B22F
:10063000DDE90332059900903046FFF78FFF032074
:1006400000F082F82C700320D9E7042000F08EF827
:10065000C8B11D4B07201B78039300F087F8B0FA50
:1006600080F04009039B194900902246184800F089
:100670004EF8184B01461A78154800F0F5F801239A
:100680002B700420BBE7072000F070F80028A5D0ED
:10069000042000F04FF81A20FFF7EAFE00289DD151
:1006A0000720ACE7002000F061F8002896D0002673
:1006B00020462E7001F06AFE3046A0E7411100206E
:1006C0004011002042110020D512002045110020C9
:1006D0000D120020D6120020024B1A78024B1A701D
:1006E000704700BF40110020411100200078013800
:1006F00001288CBF0020012070470078431E58421B
:10070000584170470078B0FA80F04009704710B542
:100710001C469DF808304270012B18BF022303705D
:100720002246023009F0A4FAA01CC0B210BD02306B
:1007300070470000034A012303FA00F013681843CE
:1007400010607047D81A0020044901220B6802FA91
:1007500000F023EA00030B60704700BFD81A0020A6
:10076000014B00221A607047D81A0020012303FAB7
:1007700000F0024B1B681840704700BFD81A0020D9
:10078000054B1B785A1E012A02D80020FFF7D2BF62
:100790000BB90120FAE77047DD1A0020F8B50746CB
:1007A0000C4615461E4609F023FC07EE900AFAEEA9
:1007B000E07AF5EEC07AF1EE10FA21DD2A46214604
:1007C000104809F055FA104B1F70104B1D7003F0C4
:1007D00047FA0F4B187003F03DFA0E4B18800E4B82
:1007E00020461E70FFF782FF20B10320BDE8F840CD
:1007F000FFF7A0BF2046FFF785FF08B10220F5E70D
:10080000F8BD00BFE01A0020DF1A0020141B0020F2
:10081000DE1A0020121B0020DC1A00200FB407B5DE
:10082000064B07491B6805AAD86801920DF05AFBD0
:1008300003B05DF804EB04B0704700BF74060020FD
:10084000B566010810B50446002008F06DF809F0FF
:10085000C7FB2046024A0349BDE8104003F09CB99B
:100860009D0700088107000810B5044603F0B6F99B
:10087000014B22781A7010BDDD1A002010B503F06C
:10088000F5F9044618B101460248FFF7C7FF2046B4
:1008900010BD00BFB5660108014B1878704700BF56
:1008A000DF1A002000487047E01A0020014B18783A
:1008B000704700BF141B0020014BB3F900007047C4
:1008C000121B0020014B93F900007047DE1A002034
:1008D000014B1878704700BFDC1A002003681847E6
:1008E0000B68036070477047C36810B504460BB1CE
:1008F0009B689847204610BD38B50546064B45F81D
:10090000283B044606F0C3FE2846FFF7EDFF2046CD
:1009100006F088FE204638BD7C93010810B50446D9
:10092000FFF7EAFF204604F002F8204610BD000061
:1009300010B5034B03600446FFF7DEFF204610BDF1
:10094000F093010838B5CB6804460D460BB15B68DF
:100950009847EB68E360204638BD10B50446FFF7C2
:10096000E7FF204603F0E3FF204610BD10B50C4C16
:10097000204606F02FFE20460A4B40F8283B102266
:10098000002109F08BFA012384F83830064B2360EC
:100990002046064A0649BDE8104003F05BBE00BF92
:1009A000181B00207C930108F0930108C801002067
:1009B000310900080021084B0A464FF681700131C9
:1009C00003291A7058801A715A719A719A601A73B1
:1009D00003F11003F3D170475C1B0020F0B51849F8
:1009E000CC78064600220F46D3B29C4226D991F815
:1009F0004801B04202F1010201F10C01F4D1013CC5
:100A00004FF00C0CA34211DA0CFB037503F1010E3D
:100A100003FB0CC33B4403F5A47393E8070005F5FF
:100A2000A47585E807005FFA8EF3EBE7FC703246A9
:100A300004490548BDE8F04008F0C6B8F0BD00BF65
:100A4000881C0020F4660108681C00202DE9F04392
:100A5000154DDFF85C90DFF85C8085B00022EB7804
:100A600093421DD90C24571C04FB02541321FEB2DF
:100A700094F848218DF80C108DF80E300321D9F828
:100A800000308DF80D6003A89847EB78009394F838
:100A9000482106483B46414608F096F83246DEE7D4
:100AA00005B0BDE8F08300BF881C0020681C002052
:100AB00040230020206701082DE9F04FB048B14FD6
:100AC0009FB008F06FF83B78C1B2002B5DD0AE4EFE
:100AD0000D29337801D00A293CD1AC4D0024EC54C7
:100AE0006BB3AB49A648DFF8BC922A4608F06CF815
:100AF000294602A801F0EBFB99F80230804623B3A7
:100B0000DFF8E8B2DFF8ECA299F80220E5B2AA42D9
:100B100011D90C2303FB05954146DBF8003095F80D
:100B20003C2102A8984795F83C219548514608F089
:100B30004BF80134E8E79749914808F045F800235D
:100B40003B7033701FB0BDE8F08F93498C4808F0BC
:100B50003BF8F4E7082901D07F290AD1002BF1D016
:100B6000013B8E49337086481FB0BDE8F04F08F056
:100B70002BB8632BE6D85A1C32708148834AD15473
:100B80001FB0BDE8F04F07F0F9BF612900F0DF802A
:100B90002ADC412900F0DB8048390F29D2D80F29FF
:100BA000D0D801A353F821F0B10E0008450B00087E
:100BB000450B0008450B0008450B0008ED0B00082D
:100BC000450B0008450B0008450B0008090E0008FE
:100BD000450B0008010C0008C70C0008450B000875
:100BE000450B00082B0E00086839D6E76C496448AD
:100BF00007F0EAFF01233B70634B00221A70A1E764
:100C0000684C69495E48694D07F0DEFF2278684903
:100C10005B4807F0D9FF6378A2786649584807F027
:100C2000D3FFE2786449564807F0CEFF2A7863493B
:100C3000534807F0C9FF62495148282207F0C4FF12
:100C4000A3783BB35F494E48DFF8ACA1DFF83081B1
:100C500007F0BAFF06F082FC00264FF00C094FF4B3
:100C60007A73B0FBF3F7A378F2B2934212D909FB7F
:100C700002424FF47A71D2F8443192F83C21FB1AC7
:100C80004046B3FBF1F35146C3F1280307F09CFF44
:100C90000136E8E72B78A3B14B493948DFF85C818E
:100CA000374F07F091FF00262A78F3B29A4208D90D
:100CB0002344414693F82821384607F085FF013642
:100CC000F2E742494FE7374F41492D4807F07CFF93
:100CD000BB78B3B306F042FCDFF82481DFF8A0A0B4
:100CE000DFF8209100254FF47A73B0FBF3F6BA7861
:100CF000EBB29A4229D90C2202FB03734146D3F886
:100D000044414FF47A72341B5046B4FBF2F493F82A
:100D10003C21C4F1280407F057FF84B12D49224635
:100D2000504607F051FF092C03D82B49504607F0D5
:100D30004BFF2A49504607F047FF0135D7E74946A0
:100D4000F4E727490E4807F03FFF26490BE72649FD
:100D50000B4807F039FF1349CB7800934B788A781A
:100D6000097802A801F0A8FA204B01461B6802A8E6
:100D7000FF2298471E49024807F026FFE2E600BF1F
:100D8000681C0020D4220020D5220020D62200207A
:100D900085670108C3670108F36701080F68010848
:100DA00013680108881C00203E680108931B00207E
:100DB00055680108636801087968010892680108AC
:100DC000AE680108CC680108026901089A69010847
:100DD0002E6901085169010866690108E269010884
:100DE0008669010898690108AF690108402300205D
:100DF000CF690108AA670108DC68010821690108B8
:100E0000476901087D690108384B39491A78394822
:100E1000002A0CBF012200221A70374B374A18BF34
:100E20001A4607F0D1FE36499DE6364E364931481E
:100E300007F0CAFEF278AAB334492E48344F2D4D3C
:100E4000DFF8048107F0C0FE0024F3785FFA84F92C
:100E50004B452BD90C2303FB096309F1010293F8DD
:100E600048313946284607F0AFFEB9F1000F13D1DB
:100E700098F8003083B106F071FB264A26491268C3
:100E80004FF47A73B0FBF3F0821A2846B2FBF3F208
:100E9000C2F10A0207F098FE2049284607F094FEA6
:100EA0000134D2E71E49134807F08EFE1D495AE669
:100EB0001D49104807F088FE1C490E4807F084FEC3
:100EC0001B490C4807F080FE1A490A4807F07CFECF
:100ED0001949084807F078FE1849064807F074FEDB
:100EE0001749044807F070FE16492BE7C02200207E
:100EF000E4690108681C0020676701084967010868
:100F0000F5690108881C00202C6A0108446A010860
:100F1000576A0108A01B0020656A0108E269010800
:100F2000846A010899690108976A0108B06A010892
:100F3000D76A0108F26A01080D6B0108286B0108E5
:100F4000456B0108616B0108A91B0020F7B51F4D17
:100F5000EB78002B33D01E4E3778002F2FD195F829
:100F600048411C491C48224607F02EFEEA781B49DE
:100F7000194807F029FE11222346194916488DF811
:100F800004208DF8057007F01FFE164B2246022143
:100F900001A81B689847144B1C7006F0DFFA4FF449
:100FA0007A73B0FBF3F0114B1149186001233370D1
:100FB00022460A23084807F007FE03B0F0BD0D499A
:100FC000054803B0BDE8F04007F0FEBD881C0020D6
:100FD000A91B0020796B0108681C0020BA6B01086E
:100FE000E26B0108402300205B1B0020A01B0020B7
:100FF000136C0108576C0108F7B5234CA37805461C
:101000009BB194F83C3183420FD106F0A7FAD4F893
:1010100044211E494FF47A73B0FBF3F0801A2A463C
:10102000B0FBF3F31A4807F0CFFDA678164A00216B
:10103000CBB29E421DD992F83C01854201F10101DB
:1010400002F10C02F4D10C27A278013A93420FDA94
:1010500003F1010C03FB0773234403F5987603F5B2
:101060009E7393E807005FFA8CF386E80700EBE7CE
:10107000A270637800930749A37805482A4607F0D1
:10108000A3FD03B0F0BD00BF881C0020836C0108E5
:10109000681C0020B86C010873B50A4D0126024691
:1010A0000C4628700B4600960749084807F08CFD4F
:1010B000074B1B6822463146284602B0BDE8704007
:1010C000184700BFC01E0020EA6C0108681C002001
:1010D00040230020F7B54A4807F064FD0446072086
:1010E00001F028F904F0DF0300283FD0454D2C78AB
:1010F000012C3BD1592B1BD14349414807F064FDDA
:10110000214601A801F0B2F8404C414B22781B68FF
:10111000022101A898473F49394807F055FD0620AC
:101120002178FFF7B9FF072001F0F2F803B0F0BD16
:101130004E2BFBD138493248344C07F045FD002195
:1011400001A801F093F8324B22781B6801A8022114
:10115000984732492A4807F037FD002307202B70B3
:10116000237001F0D5F8FFF725FCDFE7452BDDD133
:101170002B4B1C78002CD9D1224D2B78032B28D156
:10118000284F3B7883B1284E06F0E8F933682749A9
:101190004FF47A72B0FBF2F0C01AB0FBF2F21848CA
:1011A00007F012FD3C703460184C0A202178FFF7DC
:1011B00073FF1F49124807F007FD1E49104807F04A
:1011C00003FD00232B70237003B0BDE8F040FFF750
:1011D000F1BB022BAAD10D4E1749094807F0F4FCC8
:1011E00031781420FFF758FF1449054807F0ECFC4C
:1011F000134B2C701C70134B34701C70E4E700BF51
:10120000681C0020591B002052750108901B00200B
:1012100040230020236D0108DB850108446D01088F
:10122000841C0020911B0020981B00206D6D01087C
:101230009D6D0108B06D0108DA6D0108F56D0108BA
:10124000921B00209F1B00200B78F0B50024A0F11A
:101250000C060C27E5B2AB4206D9013407FB04F5B6
:10126000755D9542F6D1F0BD132BFCD803EB43031B
:1012700000F823200B7803EB430300EB83000123EA
:1012800083700B7801330B70EDE700002DE9F04F10
:101290008A4B8B4E197832788A4D914218BF1A705A
:1012A0002B7897B063B1884A8849136801338B4221
:1012B00000F234811360864B1978002900F0958183
:1012C000082001F037F8002800F09B80814B1A7845
:1012D000002A00F0938095F80080B8F1000F40F0EC
:1012E0008D807D497D4883F800807D4CDFF8ECB12E
:1012F00007F06AFC7B49794807F066FC7A49274683
:10130000C146C2463B7B83B1BB7902937B79019393
:101310003B790093B7F902303A78584607F054FC0D
:1013200009F1010970495FFA89F90AF1010ABAF174
:10133000030F07F11007E5D1B9F1000F03D16B4995
:10134000664807F041FC6A496448DFF8CCA1DFF841
:101350008CB107F039FC6749604807F035FC6649F5
:101360004FF00009237B23B394F805C02279A079BC
:10137000B4F90230ACEB020212F0FF0218BF03F125
:101380001407C0EB403E14BF3FB21F46C0EB8E0EA9
:1013900007EB4E073FB2CDE902C0CDE900725846D7
:1013A000227807F011FC57455349C4BF94F80080D8
:1013B000BA4609F10109B9F1030F04F11004D1D1C2
:1013C000B8F1000F00F031814C4C4D49434884F88E
:1013D0000080424607F0F8FB4A4922783F4807F070
:1013E000F3FB494B00221A70484B01271F7006F08F
:1013F000B5F821780220FFF74FFE3770082000F083
:1014000087FF022000F096FF002800F0438200F0E2
:10141000C3FF804600F0C4FF824600F0C7FF0446C9
:10142000404600F01FFF814600F0C6FF2B780746BC
:10143000002B00F00181B9F10F0F40F041812B78B2
:10144000002B00F03F812978337851EA030B40F0FC
:101450001E82204B1B78002B00F01982404600F0C2
:1014600003FF90F800A090F8028090F80390447871
:1014700027491A4800943B465246CDE9018907F0B6
:10148000A3FB174B59461A461878504503D0187BD2
:10149000002840F062820B0102EB011102F803A068
:1014A00001234F800C7181F8058081F806900B7341
:1014B000184A137801331370E9E100BF5A1B00206A
:1014C000591B0020841C0020A41B002040420F0058
:1014D000C0220020581B0020C76E0108681C002095
:1014E0005C1B0020016F0108276F0108576F01087E
:1014F0006C6F0108916F0108B56F0108901B002007
:10150000F06F0108167001089C1B0020A81B00202A
:10151000657401089E1B002018FCFFFF4FF00008B7
:10152000C2F8008006F01AF8AD4C4FF47A73B0FBA5
:10153000F3F0A3780BB3D4F84431C01A49F63F4313
:1015400098421AD994F83C71A649A7483A4607F040
:101550003BFB0B238DF81C30A44B8DF81D801B68C2
:101560003A46022107A898473846FFF745FD4FF451
:10157000FA7007F0CDF8FFF7E9FC9D4F3B787BB39D
:1015800005F0ECFF4FF47A73B0FBF3F0994B1B6856
:10159000C01A42F20F73984222D9DFF8AC929649F2
:1015A00099F800809048424607F00EFB00233B70FC
:1015B00089F800308DF81D308DF81E308B4B1322CA
:1015C0001B688DF81C200321424607A89847404617
:1015D000FFF704FAE3780BB1FFF738FAFFF7B6FC30
:1015E0002B78002B7FF467AE6AE6844A8448136840
:1015F0000133834201D8136062E6794C1160E378CD
:1016000000936378A278217807A800F055FE6378EC
:10161000A2787C490746744807F0D6FA734BFF223C
:101620001B68394607A898474AE677496E4807F08D
:10163000CBFAFFF7BFF9E1E6744A75496A480094AE
:10164000CDE901A74B4607F0BFFAB9F10F0F3FF400
:10165000F6AE4A46CDE9007A6E4963482346A9F1C1
:10166000020907F0B1FAB9F1120F00F2108101A3DB
:1016700053F829F0691900088F180008B1190008FB
:1016800059170008271A00081F1C00088F180008A7
:10169000A71C0008FF180008D7160008AD1700089F
:1016A0008F18000813170008471400085119000884
:1016B000611800088F180008B5180008BF17000847
:1016C000554ABAE73378002BC3D0022017B0BDE8E3
:1016D000F04F00F01DBE2C78002C40F0D8804F4910
:1016E000414807F071FA4E493F4807F06DFA4D49FD
:1016F0003D4807F069FA4C4B34701C704B4B1C7022
:101700004B4B1C60FFF756F94A49374807F05CFA23
:10171000BDE02B78002B00F0BA803B4622464649BC
:10172000314807F051FA45492F4807F04DFA2C4946
:10173000CB7800934B788A78097807A800F0BCFD35
:101740002A4B014622461B6807A898473C49224677
:10175000254807F039FA9AE02B78002B00F09780A3
:10176000404600F081FD0378012B02D13549224625
:10177000EEE7354F3B78A34215D1DFF8748098F837
:10178000003083B131491848224607F01DFA002382
:10179000204688F800303B70FFF720F9104BDB78CB
:1017A0000BB1FFF753F92A492246D1E72B78002BDA
:1017B0006DD1404600F058FD26490246C8E72B7817
:1017C000002B64D024490848224607F0FDF9204642
:1017D000FFF704F9FFF73AF9014B2049DA78B7E748
:1017E000881C00202F6E0108681C00204023002068
:1017F000A91B0020A01B0020566E01088C1B002096
:10180000404B4C00936E010831700108246E0108B2
:101810005770010888700108296E0108D27001080C
:10182000FB7001082F710108901B0020911B002004
:10183000981B00204F71010875710108B1710108F2
:10184000D8710108007201085B1B0020307201088A
:101850006472010890720108A7720108CF72010832
:101860002B78A3B93278022A22D19749974807F0FA
:10187000ABF9974995480A2207F0A6F9954993488C
:1018800007F0A2F9944B06201978FFF705FC022017
:1018900000F03EFD2B78002B40F06B823378032B59
:1018A00000F26782DFE813F0340259029102FC0271
:1018B0008A494DE72B78002BE9D13378022BE6D10A
:1018C000404600F0D1FC864B027886491A70437876
:1018D0000B7002B173B984497C4807F075F98349EC
:1018E0007A4807F071F97C4A002333701370FFF7D0
:1018F00061F8CCE77E49754807F066F9C7E72B78B1
:10190000002BC4D022467B49704807F05DF97A4B22
:1019100098780022D1B2884240F2518393F83C116A
:101920008C4202F1010203F10C03F3D12046FFF7D0
:1019300063FB10238DF81C3001238DF81D306F4B95
:1019400022461B68022107A89847FFF7FFFA9EE787
:101950002B78002B9BD16A49D7E60131032903F18B
:1019600010037FF491ADA3E52B78002B8FD0224696
:101970006449564807F028F96349544807F024F9A8
:101980005D490B1D0093CB784A78897807A800F051
:1019900072FC5E49074622464C4807F015F9574B42
:1019A000224639461B6807A8984759492246CFE680
:1019B0002F78002F7FF46BAF3378012B7FF467AF64
:1019C00022465449414807F0FFF8534B1F70534BD0
:1019D00040461F7000F048FC5149437890F8008061
:1019E000877805930446394807F0EEF8E21C4D4924
:1019F000364807F0E9F8059B4B493448424607F062
:101A0000E3F83A464949314807F0DEF828224849C8
:101A10002E4807F0D9F847492C4807F0D5F8072099
:101A200000F06CFC33E72B78002B3FF430AF2246FC
:101A300041492648DFF81C8107F0C6F83F49234892
:101A400007F0C2F898F800103D480022D3B28B424C
:101A50001DD210F8017BBC42134602F10102F5D100
:101A600038491A48224607F0AFF80122002106A89B
:101A700000F016FC344907462246144807F0A4F843
:101A80001E4B1B682246394606A89847FFE61A4FA8
:101A90000E480B4622462D4907F096F8BA787B7817
:101AA0009A4259D3F8783B460022D1B2884240F29C
:101AB000518293F848118C4202F1010203F10C03A8
:101AC000F3D12349224643E603730108681C002032
:101AD000247301084D730108901B00206B730108EB
:101AE000921B00209F1B0020B77301084E6D010858
:101AF000F073010816740108881C002040230020A0
:101B000043740108A3740108D3740108FD7401082B
:101B10002475010855750108A81B00209C1B002096
:101B2000807501087E7C0108D46C0108446A0108B4
:101B30007F6D01089C750108CE75010803760108C8
:101B4000B01D00202C76010862760108A3760108FA
:101B5000C37B0108931B0020DFF838A39AF80030FC
:101B6000A34215D1DFF8309399F8003083B1A04932
:101B7000A048224607F028F80023204689F80030C4
:101B80008AF80030FEF72AFFFB780BB1FEF75EFF04
:101B900098F80030FA18012182F828410C2202FB43
:101BA00003720B4482F83910934982F8384001F5EA
:101BB0009D70224688F80030FFF746FBBB7883B162
:101BC00097F83C31A3420CD105F0C8FC4FF47A736E
:101BD0008A49B0FBF3F02246C7F84401854806F075
:101BE000F3FF0022012106A800F05AFB8449814638
:101BF0002246804806F0E8FF82497E48282206F007
:101C0000E3FF98F8003000937B78BA787E497948F2
:101C100006F0DAFF7D4B22461B68494634E72B78F5
:101C2000002B7FF434AE404600F01EFB0778F7B17E
:101C30007749704806F0C8FF76496E4806F0C4FF41
:101C4000282275496B4806F0BFFF7449694806F0C1
:101C5000BBFF03233370724B01221A7005F07EFC28
:101C60004FF47A73B0FBF3F06E4B18600FE64478D4
:101C7000012C0FD16C495F4806F0A6FF6B495D4807
:101C800006F0A2FF6A495B4806F09EFF694B377079
:101C90001F702CE6022C7FF4FAAD6749554806F018
:101CA00093FF3470F3E52B78002B7FF4F0AD4046C2
:101CB00000F0DAFA0278437860480178914260498E
:101CC00003D10C789C423FF4E2AD5E4C5E4F027053
:101CD0000B7048485D4922703B7006F075FF3B78F9
:101CE00022785B49434806F06FFF5A49414806F0A5
:101CF0006BFF59493F4806F067FF3378012B7FF4AB
:101D0000C6AD56493B4806F05FFF02233370BEE57F
:101D1000534A5449136801338B42136029D9524DF9
:101D20002C7834BB51493348146006F04DFFFEF760
:101D300041FE4F4B01210E201C702970FFF7ACF9BA
:101D400002210E20FFF7A8F903210E20FFF7A4F9C6
:101D500017B0BDE8F04F00F093BBDFF8408198F872
:101D6000003033B1434A4449136801338B4203D8EE
:101D7000136017B0BDE8F08F404D2E4F0024146063
:101D80002A78022A0ED80132D2B23D4919482A7067
:101D9000032306F019FF3978022017B0BDE8F04F91
:101DA000FFF77AB903223749124806F00DFF2049A0
:101DB000104806F009FF34703C702C7088F8004021
:101DC00017B0BDE8F04FFEF7F5BD2F4A2F49136855
:101DD00001338B42CCD9002313601B4B194A1B786B
:101DE00012782B49034817B0BDE8F04F06F0ECBE5F
:101DF00030720108681C00208A1C0020DD76010872
:101E0000087701083B7701085F770108402300202D
:101E100099770108CA7701087F6D0108F0770108FA
:101E2000911B0020981B00201478010854780108A9
:101E30004E6D0108901B0020817801089D1B002039
:101E4000941B0020921B00209F1B0020BC780108DF
:101E500000740108DC780108197901083879010853
:101E6000C422002000350C00581B002072790108A4
:101E70009E1B0020CC220020C0C62D009C1B0020F1
:101E8000A1790108D6790108C822002040420F003C
:101E90000D7A01085B1B0020A91B0020A81B002055
:101EA000494A4A4913684A4C01338B4213601AD994
:101EB000237813B30025156005F050FB454B1B68D4
:101EC0004FF47A7249F63F41B0FBF2F0C71A8F42E5
:101ED0000ED803F51C4340331B1A3F493F48B3FB60
:101EE000F2F206F071FE2378002B7FF442AF04E09B
:101EF0003B493A4806F068FE257005F02FFB354D4A
:101F00004FF47A73B0FBF3F02B68C01A4AF6C8732B
:101F100098427FF62EAF334F3349304806F054FED7
:101F200032492E4806F050FE39780A20FFF7B4F8FF
:101F3000002333703B7023702B60FEF73BFD2C4970
:101F4000264806F041FE2B49244817B0BDE8F04F63
:101F500006F03ABE2849DFF8B080224601F245106B
:101F6000FFF772F9FA780C21531E01FB037306A8E0
:101F700083F84B210021022200F092F9D8F80030BA
:101F80000146224606A8984722461C49134806F0F7
:101F90001BFE642006F0BCFBFA7807A8114600F08F
:101FA00085F9D8F800300146224607A89847FB7803
:101FB000134900932246094806F006FE67E41149DA
:101FC0002246FFF7C5BB00BFD0220020404B4C008B
:101FD000911B0020981B00202D7A0108681C00200E
:101FE000517A0108901B0020897A0108BE7A010805
:101FF000EB7A01081E7B01088B1C00205D7B010829
:10200000917B0108097C01084023002070B5441E23
:10201000E4B2022C624B8CBF0022012286B006463D
:102020001A70FEF7C7FC022C7BD85E4C5E49267006
:102030000025012332466580201D637008F084F975
:1020400004F594712B462A4604EB830003333C2BA2
:1020500001F8012BC0F84421F6D1544954483246C6
:1020600006F0B2FD534A5449514806F0ADFD62787E
:1020700052494F4806F0A8FD282251494C4806F025
:10208000A3FD50494A4806F09FFD4F49484806F0D5
:102090009BFD4E49464806F097FD4D49444806F0E1
:1020A00093FD4C49424806F08FFD4B49404806F0ED
:1020B0008BFD4A493E4806F087FD49493C4806F0F9
:1020C00083FD484B03221A700021102202A807F05A
:1020D000E5FE454B454802930022454B059302A976
:1020E00005F0DEFF02A8FEF7FFFBE37800936378BC
:1020F000A278217802A800F0DFF83E4904462C4877
:1021000006F062FD3C492A4806F05EFD3B4BFF228B
:102110001B68214602A8984706B0BDE8704000F051
:1021200003B932463649224806F04EFD354920486B
:1021300006F04AFD34491E4806F046FD33491C4866
:10214000282206F041FD0025264B2946102202A830
:102150001D7007F0A3FE2E4B244802932A46244B01
:10216000059302A905F09CFF02A8FEF7BDFB2949D3
:102170000F4806F029FD284B01241C70274B1D70C9
:102180001E4D0E26224601342B688DF80860012171
:1021900002A8E4B29847042CF4D100F071F9BBE72F
:1021A000841C0020881C0020367C0108597C010812
:1021B000681C00208C1C0020787C01088F7C0108A2
:1021C000AE680108A17C0108B06A0108D76A01085D
:1021D000F26A0108B37C0108286B0108456B01080D
:1021E000E77C0108591B0020B90A0008AC1B00203D
:1021F000E8660108FB7C0108247D010840230020DB
:10220000427D01085D7D0108847D0108A97D0108EA
:10221000D5100008CE7D0108581B00209E1B002011
:1022200013B50B4B0B4C1A780B4B1A704FF416531B
:102230000093032200230221204605F0DBFA074A1F
:102240000749204602B0BDE8104002F003BA00BFC3
:10225000591B0020AC1B00205A1B0020C801002085
:102260008102000800787047013070470523037031
:1022700041700220704770B5049E0446042020700F
:102280006170A270E370304608F03AFAC2B20546B7
:1022900001323146201D07F0EBFC681DC0B270BD55
:1022A0000723037041708270032070470923037075
:1022B000417082700320704710B5C3700F249DF8E1
:1022C00008300470417082700371052010BD37B56D
:1022D00005460C2305F8013B0846019108F010FA69
:1022E000C4B2642C28BF6424621C0199D2B228466F
:1022F00007F0BEFCA01CC0B203B030BD034A0123EE
:1023000003FA00F013681843106070473C23002064
:10231000044901220B6802FA00F023EA00030B6073
:10232000704700BF3C230020014B00221A60704719
:102330003C230020012303FA00F0024B1B681840E5
:10234000704700BF3C230020F8B50C4601460A4800
:10235000BDF918701D46164607F08AFC074B1E7023
:10236000074B1D70074B1F80074B1C70BDE8F840E2
:102370000220FFF7C3BF00BF482300204C270020E6
:10238000482700204A2700204D2700200520FFF77E
:10239000B5BF0620FFF7B2BF0048704748230020B2
:1023A000014B1878704700BF4C270020014B18786C
:1023B000704700BF4D270020014BB3F90000704764
:1023C0004A270020014B1860704700BF40230020BF
:1023D000014B1860704700BF442300200820FFF71E
:1023E0008DBF000010B5044605F0F4F82046074BF9
:1023F00040F8283B1022002107F050FD012384F80B
:102400003830034B2360204610BD00BF7C93010889
:10241000F0930108F0B52DED028B85B004466846B7
:1024200008EE102AFEF78EFADFED147A68EE277AAE
:1024300017EE900A13F08CF806460D4605F0B8FE2C
:10244000636B23B994F838300BB105F035FC04F117
:1024500028073846FEF748FA69463846FEF772FA0A
:1024600032462B46204605F0FAF805F0B7FE6846DE
:10247000FEF73AFA05B0BDEC028BF0BD00247449BA
:102480001FB510220021684607F008FD074B009396
:102490004FF08042064B074803936946FFF7BAFFA7
:1024A0006846FEF721FA05B05DF804FBDD2300085D
:1024B000E86601085027002010B50A4C2046FFF7B7
:1024C00091FF2046084C094A094902F0C3F820460A
:1024D000FFF788FF2046054A0549BDE8104002F095
:1024E000B9B800BF9027002050270020C801002065
:1024F000310900080FB407B5064B04AA1B6852F84F
:10250000041BD86801920BF0EDFC03B05DF804EBFE
:1025100004B0704774060020002000F05BBF00008C
:102520002DE9F041BDF81C50B5F5806F06460C460C
:1025300090461F4606D322482946FFF7DBFF0620B8
:10254000BDE8F081022000F0A1FC08B10720F7E708
:102550003146022000F0F6FC4FFA88F1022000F02C
:102560002DFD3946022000F047FD0699022000F0BB
:1025700061FD2146022000F0C7FC8EB90B3C012C06
:1025800012D80121022000F0A1FC7DB90121022016
:1025900000F06EFD00F0D6FD0130D7D00020CFE76F
:1025A000012E01D10C2CECD00021EBE70021022000
:1025B00000F05EFD2946022000F078FDEAE700BF4A
:1025C000ED7D01087047000084B038B504AC84E8A4
:1025D0000F000220DDE9085400F058FC20B107206C
:1025E000BDE8384004B070470C2C15D9214611487D
:1025F000FFF780FF0C21022000F086FCA5B90B3C00
:10260000012C15D80121022000F060FC00F09AFD99
:102610000130E4D00020E3E7052CEFD8214605483F
:10262000FFF768FF0621E6E7012D01D10C2CE9D068
:102630000021E8E77D7E01080FB407B5064B074986
:102640001B6805AAD86801920BF04CFC03B05DF83A
:1026500004EB04B0704700BF74060020A67E01089A
:1026600084B010B502AC84E80F009DF80D1001296C
:1026700005D0BDE81040254804B0FFF7DDBF9DF848
:10268000293033205BB301F009F840F04101C9B2B1
:10269000332000F0F8FF19213B2000F0F4FF9DF8F3
:1026A00027309DF82A402BB31D21112000F0EBFFAD
:1026B000402000F0F3FF00F03301402000F0E3FF82
:1026C00000210F2000F0DFFF00210D2000F0DBFFD4
:1026D000D4B10520BDE8104004B001F015B800F0F9
:1026E000DDFF00F0BE0141F00101332000F0CBFF1F
:1026F0001D21D1E71F21112000F0C5FF402000F06F
:10270000CDFF00F03F01D8E70620E3E7A67E0108F1
:1027100084B02DE9F04106AC84E80F000898BDF8BC
:1027200032609DF83450BDF842700B9CDDF8288073
:1027300000F0CAFF1D2000F0B1FF9DF831309DF878
:10274000301041EAC3019DF8363041EA881141EA70
:10275000430141EA8501C9B21D2000F094FF1E200B
:1027600000F09CFFC7F3012100F00C0041EA0411C6
:102770000143C9B21E2000F086FFF9B21F2000F00D
:1027800082FF310A202000F07EFFF1B2212000F00C
:102790007AFF25B19DF83510222000F074FF9DF8D6
:1027A00037306BB14B2000F079FF60F07F01C9B288
:1027B0004B2000F068FF9DF83810242000F063FFE4
:1027C000062C4FF031000FD100F068FF00F0F80147
:1027D00041F00501312000F056FF0C21BDE8F04129
:1027E000372004B000F04FBF00F058FF00F0F801B0
:1027F00041F00301312000F046FF0A21EEE780217D
:10280000122000F040BF4021122000F03CBF07B56D
:10281000122000F043FF8DF807009DF80700C0F379
:10282000401003B05DF804FB2021122000F02BBF04
:1028300008B5192000F032FF030643BF4042C0F341
:102840008500404240F3870008BD84B010B502AC5B
:1028500084E80F009DF938401A2000F01FFF002C7B
:10286000B8BF8B3C4FEA2013B8BF0019BDE8104039
:10287000A8BF8B38184400B204B0704738B505467D
:10288000132000F00BFF04460146284600F016FF17
:10289000204638BD0FB407B5064B04AA1B6852F892
:1028A000041BD86801920BF01DFB03B05DF804EB2C
:1028B00004B070477406002008B528B90848FFF72F
:1028C000E9FF4FF0FF3008BD402905D90548FFF763
:1028D000E1FF6FF00100F6E7BDE8084000F0CEBD73
:1028E000E57E0108117F0108F8B5074601200D4675
:1028F00014461E4600F0CAFA08B10720F8BD394652
:10290000012000F03DFB2946012000F01BFB71B2C5
:10291000012000F053FBBDF81810012000F06CFB03
:102920000799012000F086FB2146012000F0ECFA17
:1029300065B90B3C012C0DD80121012000F0C6FA2D
:1029400000F0D2FB0130D8D00020D7E7012D01D113
:102950000C2CF1D00021F0E784B038B504AC84E849
:102960000F000120DDE9085400F090FA20B10720A3
:10297000BDE8384004B070479DF91C0000F010FC21
:1029800050BB012000F082FA0028F0D10C2C15D9A0
:1029900021461248FFF77EFF0C21012000F0B4FA17
:1029A000A5B90B3C012C15D80121012000F08EFAAD
:1029B00000F09AFB0130DAD00020D9E7052CEFD8DF
:1029C00021460648FFF766FF0621E6E7012D01D103
:1029D0000C2CE9D00021E8E70120C9E77D7E010841
:1029E0000FB407B5064B07491B6805AAD8680192C2
:1029F0000BF078FA03B05DF804EB04B0704700BF49
:102A0000740600204B7F010884B070B504AC84E8E4
:102A10000F0009209DF9404000F040FE06465A2074
:102A200000F03CFE9DF8103003F0FD03012B14BFB5
:102A300000238023054606F07F001843030600F0BC
:102A4000F00127D5112CCBBF45F0070505F0F8059F
:102A5000EDB245F0040505F00703072B12D1142C45
:102A6000A8BF1424052CB8BF0524631F1943C9B29D
:102A7000092000F008FE2946BDE870405A2004B045
:102A800000F001BE112CA8BF1124022CB8BF0224F3
:102A9000A31EEBE70E2CA8BF0E2444EAE474013415
:102AA0002143E4E784B008B50DF1080C8CE80F0071
:102AB0009DF80D10012905D0BDE80840124804B06A
:102AC000FFF78EBF9DF827309BB1F521112000F054
:102AD000DAFD402000F0E2FD00F03301402041F03B
:102AE000400100F0D0FDBDE80840032004B000F034
:102AF0000BBEF721112000F0C6FD402000F0CEFDF6
:102B000000F03F01EAE700BF4B7F010884B02DE9E8
:102B1000F0418AB010AC84E80F009DF94C30089366
:102B200014AD0FCD6C46159EBDF85A70DDF850807F
:102B30000FC495E80F0084E80F0010AB0FCBFFF730
:102B400063FF129800F0C0FD9DF85F306BB14B2021
:102B500000F0A4FD60F07F01C9B24B2000F093FDAE
:102B60009DF86010242000F08EFD1D2000F096FDE1
:102B70009DF859309DF8581041EAC3019DF85C302A
:102B800041EA881141EA83019DF85E3041EA430140
:102B9000C9B21D2000F077FD1E2000F07FFD00F07F
:102BA0000F0141EA0611C9B21E2000F06CFD390A7E
:102BB000202000F068FD2120F9B200F064FD062E0F
:102BC0004FF0310010D100F069FD00F0F80141F044
:102BD0000501312000F057FD0C2137200AB0BDE877
:102BE000F04104B000F04FBD00F058FD00F0F801D6
:102BF00041F00301312000F046FD0A21EDE70821F4
:102C0000122000F040BD08B568B1332000F046FD49
:102C100000F0BE01332000F036FD19213B20BDE855
:102C2000084000F030BD332000F038FD00F0BE0158
:102C300041F00101332000F026FD1D21EEE738B5FB
:102C4000044622200D4600F01EFD00210E2000F05B
:102C50001AFD00210D2000F016FD012000F01EFDE0
:102C600030F0F80304D100F07DFD012005F050FDA7
:102C700029462046BDE8384000F01BBD0FB407B51B
:102C8000064B04AA1B6852F8041BD86801920BF08B
:102C900029F903B05DF804EB04B070477406002016
:102CA00010B50A4C21788142024605D00848FFF74A
:102CB000E5FF4FF0FF3004E0022001F001F808B911
:102CC000207010BD0348FFF7D9FFF2E74828002025
:102CD0007F870108D587010808B5044804F0D7FCB0
:102CE00000F043FD024B01221A7108BDD8270020D5
:102CF0001828002013B5174C2379022B03D0032B7F
:102D000019D002B010BDFFF75DFCFFF7E5FF03200F
:102D100000F0D6FF012808D000230F4A0093146862
:102D200019461A460120A047EBE70C4802B0BDE85F
:102D30001040FFF7A3BF204600F05AFD94F828008A
:102D400000F047FD0123237102B0BDE8104000F000
:102D5000E7BF00BF182800204C2800205587010835
:102D60002DE9F041354C267988B046B134483146DA
:102D7000FFF784FF4FF0FF3008B0BDE8F081314B22
:102D80001860314B31481960FFF778FF4FF48070BD
:102D900006F00CFF2E4B186028B92E48FFF76EFF87
:102DA0006FF00100E8E74FF4FA6262620E222273CC
:102DB0000B22294B626108224FF00108A360628355
:102DC00004230522204684F820306285237084F88D
:102DD00005802677E67784F81E8084F821602661D6
:102DE00084F81980667784F8228084F8288000F0BF
:102DF000FFFC2546014605F8100B1848FFF73EFF7B
:102E00000FCD6F460FC795E80F0087E80F0094E8D5
:102E10000F00FFF7A1FDA5F1100CBCE80F006F46F5
:102E20000FC795E80F0087E80F0094E80F00FFF741
:102E3000CBFB84F8048030469EE700BF18280020B2
:102E40004C800108502800204C2800209D8001085B
:102E5000D0270020CA8001082021F636048101080D
:102E600008B5042000F02CFF012805D10648FFF723
:102E700005FF4FF0FF3008BDFFF72EFF022000F0E6
:102E80001FFF0020F7E700BF1A81010838B505468B
:102E900018B90A48FFF7F2FE05E0094C217829B17C
:102EA0000848FFF7EBFE4FF0FF3004E0084600F063
:102EB00007FF08B9257038BD0348EBE72A850108EC
:102EC0004828002067850108AA85010838B504460E
:102ED0000D4600F01FFF0128084B06D11A78A242C8
:102EE00003D1074B00201D7638BD06481A782146CD
:102EF000FFF7C4FE4FF0FF30F6E700BF4828002080
:102F000018280020CB84010838B504460D4600F08F
:102F100001FF0128084B06D11A78A24203D1074BC2
:102F200000205D6138BD06481A782146FFF7A6FEED
:102F30004FF0FF30F6E700BF482800201828002097
:102F40006C84010838B504460D4600F0E3FE012804
:102F5000084B06D11A78A24203D1074B00201D610D
:102F600038BD06481A782146FFF788FE4FF0FF303B
:102F7000F6E700BF4828002018280020DE85010859
:102F800038B504460D4600F0C5FE0128084B06D1B1
:102F90001A78A24203D1074B00201D7338BD0648A2
:102FA0001A782146FFF76AFE4FF0FF30F6E700BFC0
:102FB0004828002018280020F082010838B504466F
:102FC0000D4600F0A7FE0128084B06D11A78A24250
:102FD00003D1074B00205D7638BD06481A7821469C
:102FE000FFF74CFE4FF0FF30F6E700BF4828002007
:102FF000182800200D84010838B504460D4600F05D
:1030000089FE0128084B06D11A78A24203D1074B4A
:1030100000205D8338BD06481A782146FFF72EFE52
:103020004FF0FF30F6E700BF4828002018280020A6
:103030003786010838B504460D4600F06BFE0128BE
:10304000084B06D11A78A24203D1074B00209D609D
:1030500038BD06481A782146FFF710FE4FF0FF30C2
:10306000F6E700BF4828002018280020F78601084E
:1030700038B504460D4600F04DFE0128084B07D137
:103080001A78A24204D1074B002083F8225038BDA1
:1030900005481A782146FFF7F1FD4FF0FF30F6E7BB
:1030A00048280020182800209986010838B50446D1
:1030B0000D4600F02FFE0128084B06D11A78A242D7
:1030C00003D1074B00205D8538BD06481A7821469C
:1030D000FFF7D4FD4FF0FF30F6E700BF482800208F
:1030E00018280020B0830108F0B589B000F012FE66
:1030F0000128114B18D11F78012F15D10F4E06F161
:10310000100500F035FB0FCD6C460FC495E80F009D
:1031100084E80F0096E80F00FFF7F8FC3846FFF749
:10312000BFFD002009B0F0BD05481978FFF7A6FDE6
:103130004FF0FF30F6E700BF482800201828002095
:103140008C820108F0B589B000F0E4FD0128114B34
:1031500018D11F78022F15D10F4E06F1100500F07F
:1031600007FB0FCD6C460FC495E80F0084E80F00F5
:1031700096E80F00FFF7CCFA3846FFF791FD0020E4
:1031800009B0F0BD05481978FFF778FD4FF0FF3022
:10319000F6E700BF482800201828002028820108F0
:1031A000F0B58BB0044600F0B5FD0128104B17D1E7
:1031B0001F78012F14D10F4E089406F110050FCD82
:1031C0006C460FC495E80F0084E80F0096E80F00E6
:1031D000FFF71AFC3846FFF763FD00200BB0F0BD87
:1031E00005481978FFF74AFD4FF0FF30F6E700BFBA
:1031F00048280020182800204C8301080E4B1B791A
:10320000022B13B510D1FFF7FAFAFFF765FD032083
:1032100000F056FD012809D00023084A00931468E5
:1032200019461A460120A04702B010BD044802B05A
:10323000BDE81040FFF722BD182800204C280020D0
:10324000428101082DE9F041454E3479022C8AB0C3
:1032500067D1FFF7D8FAFFF7DAFA012829D1FFF78B
:10326000E3FA96F82250ADB9FFF736FD032000F0DF
:1032700027FD012808D03B4B00951E682A462B46A7
:1032800029462046B04711E037480AB0BDE8F04172
:10329000FFF7F4BC00F03EFD0328F5D10023314ACE
:1032A0000093156819461A462046A8470AB0BDE89B
:1032B000F081FFF7BDFA06F11005089007460FCD23
:1032C0006C460FC495E80F0084E80F0096E80F00E5
:1032D000FFF7BBFA254C80462068FFF7CFFA96F837
:1032E000226005468EB9FFF7F7FC032000F0E8FCEA
:1032F000012808D01B4B00971F68216843462A46C7
:103300003046B847D2E71A48BFE700F003FD03286C
:10331000F9D1144B00971E68216843462A460020C5
:10332000B0E7032C14D1134804F0B1F9FFF767FCA0
:10333000FFF7D2FC204600F0C3FC012806D00E4B5C
:103340001B6800200AB0BDE8F04118470B489CE715
:103350000B4821460AB0BDE8F041FFF78FBC00BF23
:10336000182800204C280020857F0108D027002045
:10337000C17F0108D827002050280020FC7F0108C9
:10338000308001082DE97043044699460D46904669
:1033900004F00EFF636B23B994F838300BB104F0DE
:1033A0008BFC04F12806AE420BD03046FDF79CFAA8
:1033B0003EB1EB681BB15B68294630469847EB6825
:1033C000636342464B46204604F049F9BDE870432A
:1033D00004F004BFF0B506468DB0012000F070FC8B
:1033E000012806D11E48FFF749FC4FF0FF300DB011
:1033F000F0BD1C4B1C4F18684FF48072002107F180
:10340000100506F04BFD0FCD6C460FC495E80F007C
:1034100084E80F0097E80F00FFF722F902233B71C1
:10342000E6B11022002108A806F038FD0F4B0893E2
:1034300030460F4B0B9311F099FC00220D4B11F00D
:103440000FFD12F0A5F802460B460B4808A9FFF73E
:1034500099FF08A8FDF748FA0020C8E73046C6E7FC
:1034600071810108D027002018280020F52C0008C1
:10347000E866010800408F40D8270020F0B5304CA6
:103480002379032B8FB006460D4606D12D48FFF752
:10349000F5FB4FF0FF300FB0F0BD042000F010FC42
:1034A0000128F3D0FFF718FC0A2005F031F90220BB
:1034B00000F006FC012000F003FC012801D12248A5
:1034C000E5E763791BB1012B03D000270CE01F480F
:1034D000DDE794F82100FFF796FB2946304684F893
:1034E0002E50FFF7ACFB676A194E08970FCE6D465A
:1034F0000FC596E80F0085E80F0094E80F00FFF76E
:10350000D1FA0323102200210AA8237106F0C6FC79
:10351000104B0A933846104B0D9311F027FC0022F4
:103520000E4B11F09DFC12F033F802460B460C488E
:103530000AA9FFF727FF0AA8FDF7D6F90020AAE796
:103540001828002098810108C8810108EF8101082E
:1035500028280020F52C0008E866010800408F406C
:10356000D827002010B50C4C204604F033F8204634
:103570000A4B40F8283B1022002106F08FFC012363
:1035800084F83830064B23602046064A0649BDE8D9
:10359000104001F05FB800BFD82700207C930108DD
:1035A000F0930108C80100203109000810B5044655
:1035B000044B40F8B83BD4F8C4300BB19B68984733
:1035C000204610BD0C9501080FB407B5064B0749FE
:1035D0001B6805AAD86801920AF084FC03B05DF864
:1035E00004EB04B0704700BF74060020388801085F
:1035F000F8B50D4C0D4F23681646E2681B040D46C6
:10360000136040F08001094804F084FA013D2E4423
:10361000B54205D015F8011F384604F07BFAF7E7EC
:10362000A36822681A60F8BD1029002048290020EC
:10363000F8B50E4C0E4F23681646E2681B040D4683
:10364000136000F07F010A4804F064FA013D2E4443
:10365000B54206D00021384604F05CFA05F8010FA7
:10366000F6E7A36822681A60F8BD00BF10290020A1
:103670004829002010B50446FFF798FF204601F0C6
:1036800056F9204610BD07B502AB012203F8011D13
:103690001946FFF7ADFF03B05DF804FB07B5012243
:1036A0000DF10701FFF7C4FF9DF8070003B05DF8B7
:1036B00004FB0A4601460020FFF79ABF0A4601466E
:1036C0000020FFF7B5BF000010B511F04FFB0CA3B1
:1036D000D3E9002311F0EEFC11F09AFE0446C0F38A
:1036E00007410620FFF7CFFFC4F307210720FFF7AC
:1036F000CAFFE1B20820BDE81040FFF7C4BF00BF19
:103700000000000080844E40144910B50A78044639
:1037100090B932B901230B70114BDA681B681B0496
:1037200013600120FFF7BAFF00F0F80121430120E8
:10373000BDE81040FFF7A7BF094B2AB11A68002067
:103740000870D96812040A60032C1A6803D0DB6879
:1037500012041A60E5E79B68FBE700BF242A0020FB
:10376000F42800200120FFF7CFBF0020FFF7CCBFD7
:1037700010B504460120FFF791FFC0F3C01084424A
:1037800026D0012C13D0FFF7F0FF0120FFF786FFB2
:1037900000F07F010120FFF776FF00214020FFF7B6
:1037A00072FF30214120BDE81040FFF76CBFFFF7EA
:1037B000DCFF2046FFF772FF60F07F01C9B22046B0
:1037C000FFF761FF00214020FFF75DFF0021E9E7DF
:1037D00010BD10B504460120FFF7CAFF2CB13421FB
:1037E0003920BDE81040FFF74EBF1221F8E7000076
:1037F0002DE9FF47594C054604F0DAFC012120462B
:1038000000F000FC04F0EAFC2368E2681B0413608B
:10381000012004F07DFF04F0CBFC2046002100F0E5
:10382000F1FB04F0DBFC062004F072FF2E784C4C18
:10383000042E1CD104F0BCFC0021204600F0E2FB69
:1038400004F0CCFC012004F063FF63681A6823686D
:103850001A4214BF0126002604F0AAFC20460121CA
:1038600000F0D0FB04F0BAFC012004F051FF236803
:10387000E2683C483C4C1B0413603C4B9A681B6854
:1038800013600821002204F023F9394804F032FFC4
:103890000020FFF739FF1022ACBB2146684606F036
:1038A000FDFA69463348344C04F021F86846FDF7C8
:1038B0001BF810227CBB2146684606F0EFFA6946E9
:1038C0002E48DFF8C8802E4C04F011F86846FDF74A
:1038D0000BF84FF0030900235F1CDBB2D8F800207F
:1038E000B2FBF9F29A421ED903EB430304EB030A3D
:1038F000E05CFFF73DFF9AF802109AF80100FFF72D
:10390000C2FE3B46E8E70021684606F0C7FA1D4BB9
:1039100000940393C5E70021684606F0BFFA194BEF
:1039200000940393CBE76879174CFFF721FF95F8D4
:103930002800FFF74EFF4220FFF7B0FE38B92046BF
:10394000FFF742FE4FF07E5004F0D4FEF3E7A86884
:10395000FFF7BAFE304604B0BDE8F0872C290020FE
:10396000F4280020482900204532000810290020B2
:10397000CDCCCC3D54280020FD310008A4280020E7
:1039800005880108E866010838880108D001002090
:1039900073B5224D224C234E0A21284603F04CFFDA
:1039A0002846214D2246314600F054FE1321284678
:1039B00003F042FF2246314628461C4D00F04AFEE5
:1039C0004FF0FF330093062205230721284604F019
:1039D000D3F822461649284600F03CFE154B1C241D
:1039E00022461846002106F059FA162103F0DAFEA5
:1039F000114B22461846002106F050FA002103F030
:103A0000BEFE0E4B22460021184606F047FA212141
:103A100002B0BDE8704003F0B2BE00BF54280020E1
:103A2000C801002091780008A4280020482900201F
:103A3000AD350008102900202C290020F428002092
:103A40000FB407B5064B04AA1B6852F8041BD868CC
:103A500001920AF047FA03B05DF804EB04B0704736
:103A60007406002013B5084B0024CDE90034012270
:103A7000082307212046FEF753FDFEF74DFD034BBB
:103A80001C7002B010BD00BF2021F636252A002090
:103A900010B5044648B9FFF7E3F9FFF7E3FF084B19
:103AA0001B682046BDE810401847012807D1FFF7E2
:103AB000D7F9FFF7D7FF024B02201B68F2E710BDD2
:103AC000682A00202DE9F041884615461F469DF9D9
:103AD000186000283BD1202A03D92648FFF7B0FF01
:103AE0002025254C2A464146204606F0C1F8234BA6
:103AF0001F80234B1E7026782746FEB9214BA478E1
:103B00001B78A34201D0FF2C1BD1A4F1FF035C4220
:103B10005C4101261C4B1B78ABB9FFF7A1F9FFF7FD
:103B2000A1FF012E24D1194B787819492A1F1D684D
:103B3000D2B22346AC46BDE8F04160470024264699
:103B4000E8E73446E6E71348FFF77AFFE9E701388C
:103B500001280DD80C4B1B782BB9FFF781F9BDE874
:103B6000F041FFF77FBF0B48BDE8F041FFF768BFAA
:103B7000BDE8F08145890108262A0020722A00202C
:103B8000702A0020742A0020252A00206C2A002098
:103B90002A2A00208A8901080A4B10B518700A4B9E
:103BA00019600A4B0A491A6004460A48FFF7D8F818
:103BB000094B00225C701A70FFF752F9BDE8104003
:103BC000FFF750BF742A0020682A00206C2A0020CA
:103BD000C53A0008913A0008462A0020F7B5184F68
:103BE0003C7834B117482146FFF72AFF012003B083
:103BF000F0BD1C2905D914482022FFF721FF03201E
:103C0000F5E7124D0E1DAA70F6B20A460146281DB0
:103C10002C70EE7006F02CF8FFF722F90C4A0823FE
:103C2000CDE900322146012307220E20FEF75CFE7B
:103C300031462846FEF740FE01233B702046D6E77A
:103C4000252A00205A8801089B880108462A00205E
:103C50002021F636014BB3F900007047722A00208C
:103C6000014B93F900007047702A002010B5074BF4
:103C70001C78012C05D106482146FFF7E1FE2046BD
:103C800010BD044B18700020FAE700BF252A002061
:103C9000E5880108742A00200FB407B5064B0749D0
:103CA0001B6805AAD86801920AF01CF903B05DF8F8
:103CB00004EB04B0704700BF74060020FF890108C0
:103CC00037B501460D480E4A037803EB83052A44B5
:103CD000545C012C06D00B4B2B445B5C03702046DC
:103CE00003B030BD0848642202FB0300009007487F
:103CF00002FB01020648FFF7CFFFF0E7752A00201C
:103D0000EB890108D7890108C8030020D4010020ED
:103D1000FF890108014B1878704700BF752A002001
:103D2000014B00221A707047752A002043692DE963
:103D3000F0410D46D907044628D58168334F826883
:103D4000334E836833483940B94202EA060204BF61
:103D50000127A760B24203EA000304BF4FF4807654
:103D6000A660834204BF4FF48030A06027488142A0
:103D700005D027498A4202D0264A934206D1264BD3
:103D8000264A1B6852F8250001219847E2686369BA
:103D9000920708D09F0706D51F4B204A1B6852F890
:103DA000250000219847A169626963698E070AD5D9
:103DB000900508D5190406D5174B184A1B6852F808
:103DC000250005219847A7696669626917F004070D
:103DD00006F4806609D046B1120406D50E4B0F4A90
:103DE0001B6852F825000721984763695FB156B1F7
:103DF0001B0408D5084B094A1B6852F8250002210C
:103E0000BDE8F0411847BDE8F08100BF03000004A1
:103E10000003000800000310802A0020782A0020F8
:103E200000210148FFF782BF00640040FFF7F8BFA0
:103E3000FFF7F6BF01210148FFF778BF0068004097
:103E4000FFF7F8BFFFF7F6BF30B5036891FAA1F4AA
:103E5000B4FA84F491FAA1F10325B1FA81F1640076
:103E600005FA04F4490023EA040302FA01F11943B4
:103E7000016030BD00B5002389B007286FD8DFE8A6
:103E800000F00413202D3A4754610093364B374815
:103E90001A6B42F001021A631B6B03F001030093DB
:103EA000009B09B05DF804FB01932F4B30481A6B5F
:103EB00042F002021A631B6B03F002030193019BA1
:103EC000EFE70293284B2B481A6B42F004021A6367
:103ED0001B6B03F004030293029BE2E70393224B64
:103EE00025481A6B42F008021A631B6B03F00803A3
:103EF0000393039BD5E704931B4B20481A6B42F0B6
:103F000010021A631B6B03F010030493049BC8E7B1
:103F10000593154B1A481A6B42F020021A631B6B6B
:103F200003F020030593059BBBE706930E4B154852
:103F30001A6B42F040021A631B6B03F040030693B6
:103F4000069BAEE70793084B0F481A6B42F08002BE
:103F50001A631B6B03F080030793079BA1E70B48D1
:103F600004F08EFC00209CE7003802400000024074
:103F70000004024000080240000C02400010024011
:103F80000014024000180240001C0240D48C0108BA
:103F9000431C10B5044604D176220649064803F0B6
:103FA000CBFE2046002100F00DFE04F00F0401209E
:103FB000A04010BDF58C01084F8D010870B5044676
:103FC0004B1C0E46218216D0C1F30310FFF752FF9F
:103FD00005463046FFF7DCFF238A074A656103F098
:103FE0000F03206052F82330A36105F11003183548
:103FF0006360A560E56070BD0C900108B0F9100029
:1040000000F078BE0A4619B981694069FFF71CBF04
:104010000122F9E74C23F0B54343224E224F1A1DEB
:10402000324400244FF0010E1E448C4205D101465B
:10403000BDE8F0401D4804F023BC33680EFA04F5D7
:104040001D422BD0136B7D690EFA03F32B4225D052
:10405000D2F818C07B61156805B3FA6833EA02022A
:1040600003D1BA6833EA020214D10F4A916833EAE5
:10407000010103D1D26833EA02020DD1DCF810202D
:10408000134214BF01210221094B28461B68BDE8D9
:10409000F04018470221F7E70121F5E70134043227
:1040A000C3E700BF842A0020003C0140898D01083D
:1040B000982C002006210846FFF7ACBF05210846D2
:1040C000FFF7A8BF01210420FFF7A4BF01210320AF
:1040D000FFF7A0BF01210220FFF79CBF0121084686
:1040E000FFF798BF01210020FFF794BF012910B509
:1040F00018D11B4C838952B1A26803F00F03994079
:104100001143A160836843F00103836010BDA2687E
:1041100003F00F03994022EA0101A160836823F0B4
:104120000103F2E70229F1D10D4983895AB1CC6824
:1041300003F00F03012202FA03F32343CB608368E9
:1041400043F00203E1E7CA6803F00F03012404FA15
:1041500003F322EA0303CB60836823F00203D4E76E
:10416000003C0140B0F90C3099B270B501F00F0677
:1041700006F00C0404F1804404F59C3401F00301C2
:10418000A56889000F228A40C3F3031325EA0205BC
:104190008B402B43A3600F4B01221968B24011439F
:1041A00019608468E50742BF996811439960A107C7
:1041B00042BFD9680A43DA6090F90030002B08DB6F
:1041C0005909012203F01F0302FA03F3024A42F8DD
:1041D000213070BD003C014000E100E02DE9F04FCE
:1041E00092464A1C85B080460C4666D00022039257
:1041F000334A344F516C41F480415164526C02F4A3
:1042000080420392039A04F00F090C2202FB097208
:10421000C4F303105568062D47D8DFE805F0043ACB
:104220003C3E40424400284E0193FFF723FE0C2100
:1042300001FB09F17A1857F801E0244FA8F80C4067
:104240004C21694301247B5892F90820C8F8045096
:1042500004FA0EF44FF0000B1C4388F80020C8F855
:1042600008B07C50132101FB05E507EB8501019B9C
:104270004B60174BC861C3F800A0164BC1F83490CF
:104280009B681032404643F82260FFF76BFF5846A8
:1042900010E0114EC8E7114EC6E7114EC4E7114EAB
:1042A000C2E7114EC0E7114EBEE7114804F0E8FA2C
:1042B0004FF0FF3005B0BDE8F08F0846FAE700BFC9
:1042C00000380240B48D0108E5400008842A00202F
:1042D000982C002000ED00E0DD400008D5400008EB
:1042E000CD400008C5400008BD400008B5400008AA
:1042F000628D01088389184A03F00F03012110B56C
:1043000001FA03F39468DB431C409460D4681C40BA
:10431000D46014682340136090F90030002B0CDB4C
:104320005A0903F01F0301FA03F320320B4941F845
:104330002230BFF34F8FBFF36F8F90F90030002B07
:1043400009DB5A09012103F01F0301FA03F360326C
:10435000024941F8223010BD003C014000E100E07C
:10436000838903F00F020C235343104A70B544684D
:10437000D658FFF7BFFF4C210D4A6143012000FAD8
:1043800006F55058132303FB046320EA0500505040
:1043900002EB830000214160981D0C3302EB80008A
:1043A00002EB83034160596070BD00BFB48D01080A
:1043B000842A002008B503F07DF8002008BD000025
:1043C00008B50A4B1B684BB103F0F0F904F015F97E
:1043D0004FF47A72002311F08BF808BD03F0BEF899
:1043E0004FF47A73B0FBF3F008BD00BF9C2C0020A3
:1043F00010B588B003F0DCFE052101A803F0D2F966
:104400000424039B019A1A60962004F081F9019B11
:10441000049A1B041360962004F07AF9013CF0D151
:104420000424039B019A1A604FF4C87004F070F9D9
:10443000019B049A1B0413604FF4C87004F068F9E0
:10444000013CEED1DCE7000070B50D46A0B004469B
:1044500003F0AEFE2B462246802168460BF090F911
:10446000051E03DC03F0BAFE20B070BD094B1B68CB
:1044700023B903220221084800F090FE064E0024D2
:104480001DF804103046013401F06AF8A542F7D156
:10449000E8E700BFE42C00208C2E00200FB407B505
:1044A00004A951F8040B0191FFF7CEFF03B05DF8AA
:1044B00004EB04B07047000008B502F0A9FF01F05A
:1044C000ADF802F095FF02F0A3FF024B01221A6043
:1044D00008BD00BF9C2C002000207047036801220B
:1044E0001B6900211847036800221B691146184701
:1044F00003681B69184703689B69184703689B6A30
:10450000184700290CBF6FF01800002070470120E9
:1045100070471120704770476FF01C0070476FF0B4
:104520001500704701207047002070477047000059
:10453000F8B5074E15460C468F18BC4205D014F846
:10454000011B304601F00CF8F7E72846F8BD00BF24
:104550008C2E002038B58DB215F0010405D0084826
:1045600000F098FD041C18BF0124EB0605D5044893
:1045700000F0A6FD08B144F01004204638BD00BF8D
:104580008C2E002010B5044605F018FB204610BD07
:1045900010B50C462AB1044800F0D0FF207001206D
:1045A00010BD104610BD00BF8C2E002038B51D4632
:1045B000074B0360074B1B68044633B9064800F0FD
:1045C000EDFD2946044800F0B1FD204638BD00BF8E
:1045D000F08E0108E42C00208C2E00200020704773
:1045E0000020704708B5012000F036F80C4A136827
:1045F00010B51844EFF30881884205D3094B0C220B
:104600001A604FF0FF3010BD07490C6824B107490C
:10461000096821448842F1D21060184610BD00BFDD
:1046200058060020542E0020B02C0020B42C00206E
:10463000074C08B523680546986804F07FFC23689A
:10464000D86804F07BFC0DB1FFF7D2FEFEE700BF97
:10465000740600200120704708B5FFF7E9FF01202C
:104660007047002105F090BD04F0A2BC7047704770
:1046700008B5FFF7FBFF08BD08B5FFF7F8FF08BD59
:1046800010B5037803F00303012B04460CD02BB1C3
:1046900040F2A9520549064803F04EFB237843F047
:1046A00002032370012010BD002010BD388F0108C7
:1046B0008F8F010810B5037803F00303022B044623
:1046C00005D040F2B1520549054803F035FB237887
:1046D00023F0030343F00103237010BD388F01085A
:1046E000B58F01083F2870B504462FDC184D55F8EA
:1046F00020305A1C13D1022811DCFFF771FF03464A
:1047000058B92046FFF76AFF034630B9114E337897
:10471000BFF35B8FDB0704D50F4B45F824301846F9
:1047200070BD3046FFF7ACFF0028F5D04FF41653AC
:10473000032202210848FFF739FF3046FFF7BAFF8E
:10474000064A07490448FFF785FFE5E70023E6E747
:1047500058050020A02C0020AC2C0020C80100200F
:104760002D45000838B50546FFF7BCFF0B4B00246C
:1047700043F8254030B904F0A7FA092303604FF04D
:10478000FF3038BD03685B699847051E04DA04F002
:104790009BFA6D420560F2E7204638BD58050020BF
:1047A000FFF7E0BF38B50C461546FFF79BFF38B959
:1047B00004F08AFA092303604FF0FF34204638BD25
:1047C00003682146DB682A469847041EF6DA04F09F
:1047D0007BFA64420460EFE708B5131E06DA04F0C2
:1047E00073FA162303604FF0FF3008BD04D0FFF7C3
:1047F000D9FF40EAE07008BD184608BD38B50C4640
:104800001546FFF76FFF38B904F05EFA092303601D
:104810004FF0FF34204638BD036821469B682A4686
:104820009847041EF6DA04F04FFA64420460EFE79A
:10483000002A08B503DBBDE80840FFF7DFBF04F03E
:1048400043FA162303604FF0FF3008BD10B5FFF7A1
:1048500049FF044628B904F037FA092303602046CB
:1048600010BD0368DB699847041EF8DA04F02CFADF
:10487000644204600024F2E71FB504220C46402382
:104880000DEB020101900DF109008DF8083005F0E3
:10489000EFF9214602A804F019FD044630B1019851
:1048A000FFF7D4FF10B12046FFF7DBFE204604B02F
:1048B00010BDFFF7CBBF38B50C461546FFF712FF0A
:1048C00038B904F001FA092303604FF0FF342046A1
:1048D00038BD036821461B692A469847041EF6DA4C
:1048E00004F0F2F964420460EFE7FFF7E4BF38B583
:1048F0000D46FFF7F7FE044630B904F0E5F9092349
:1049000003604FF0FF3038BD0368DB69984700282B
:1049100014BF4FF400534FF400436B6023682046EC
:104920009B6A98472861002038BDFFF7E0BF05F07B
:1049300045B90000034610B553F8042B044602B9EC
:10494000036022689A4204D05E220349034803F0C0
:10495000F3F9206810BD00BF748E0108D38E0108E2
:1049600010B504460948FFF7E5FF0023084A194639
:1049700052F82300A04208BF42F823100133402B15
:10498000F6D10248FFF7D6FF10BD00BFA42C0020CF
:104990005805002010B50F48FFF7CCFF0E4B03243D
:1049A00053F824206AB10134402CF9D104F08CF979
:1049B000182303600748FFF7BDFF4FF0FF34204680
:1049C00010BD4FF0FF32034843F82420FFF7B2FF39
:1049D000F5E700BFA42C00205805002010B50446C0
:1049E000FFF7D8FF0028A4BF014B43F8204010BDBB
:1049F0005805002070B506460C46FFF7EFFF054648
:104A000090B12146FFF738FF044630B9074B53F801
:104A10002520964203D143F82500204670BD04F0BE
:104A200053F909230360F8E70446F6E75805002028
:104A30000EB42DE9F04185B00546FFF7ABFF041E2B
:104A400013DB0023294602A8019303F0EDFD02A821
:104A500003F03CFE1B4D064668B904F035F91323FC
:104A6000036045F824604FF0FF34204605B0BDE8F0
:104A7000F04103B0704702A803F016FE074602A8F3
:104A800037B103F01AFE0190019B45F82430ECE7A2
:104A900003F001FE06460028DFD0036802A8D3F821
:104AA000088003F0EDFD0B9B024601A93046C0478C
:104AB00006460028E8D004F007F97642066045F87B
:104AC0002470D0E75805002073B50E4618490546F6
:104AD00005F0AAFC044620B9FFF704FE204602B008
:104AE00070BD1449284605F09FFC20B90120FFF74E
:104AF000F9FD0124F2E71049284605F095FC20B99C
:104B00000220FFF7EFFD0224E8E72B78402B07D1C6
:104B10000422691C0DEB020005F0AAF8019CDDE7F8
:104B200026F400412846FFF783FF0446D6E700BF7E
:104B3000FC8F010803900108F48F0108704770474B
:104B4000074B08499A68084810B5043A52F8044FD0
:104B500041F8044F8142F9D14FF000529A6010BDE4
:104B600000ED00E0FCFFFF1FC001002008B5FFF7CB
:104B7000E7FFFFF7A1FCFFF7E2FF08BD08B5FFF76D
:104B8000DDFFBDE80840FBF797BB30B5C36891FA7D
:104B9000A1F4B4FA84F491FAA1F10325B1FA81F1F8
:104BA000640005FA04F4490023EA040302FA01F15F
:104BB0001943C16030BD012A02D0022A18BF002269
:104BC000FFF7E3BF2DE9F0410E46411C044604D136
:104BD0003E224449444803F0AFF804F00F08434B29
:104BE000C4F3031053F82850FFF744F906F0070701
:104BF0000446836895FAA5F1B1FA81F195FAA5F218
:104C00000320490000FA01F1B2FA82F223EA01031B
:104C10005200022101FA02F21343A36087425AD8DC
:104C2000DFE807F05E1D021DB8F1070FC6F3032091
:104C30003BD9626A2B0A93FAA3F1B1FA81F193FA94
:104C4000A3F34FF00F0EB3FA83F389000EFA01F1CC
:104C50009B0022EA010200FA03F3134363623B461E
:104C6000226895FAA5F0B0FA80F095FAA5F14FF018
:104C7000030EB1FA81F140000EFA00F0490022EA79
:104C800000028B40013F1343012F236005D8636866
:104C900032074CBF2B43AB436360C6F30112294676
:104CA0002046BDE8F041FFF786BF226A95FAA5F3DA
:104CB000B3FA83F395FAA5F14FF00F0EB1FA81F133
:104CC0009B000EFA03F3890022EA030200FA01F3C3
:104CD00013432362C3E767220249054803F02CF817
:104CE0000023BDE74C9001084F8D01080C9001088E
:104CF00043970108431C70B506460D4604D188222F
:104D00001B491C4803F018F806F00F021A4BC6F3B3
:104D1000031053F82240FFF7ADF804FB04F20168DA
:104D200002EB42030B40B3FBF2F3013B012B05D82E
:104D3000EB1E022B436809D823434360032D08D19F
:104D400001222146BDE87040FFF735BF23EA040386
:104D50004360012DF4D0052D01D0022D01D1022296
:104D6000EFE721460022BDE87040FFF70EBF00BF0D
:104D70004C9001084F8D01080C90010870B5A6B049
:104D80003422002102A805F089F85C2200210FA836
:104D900005F084F82A4B1D68002D4FD1294C019550
:104DA00001261E60236C43F080532364236C03F0C0
:104DB00080530193019B00F05DFC042302A8029341
:104DC0000895049600F0C0FF10B11F4803F058FD8D
:104DD000A36823F4F813A360A36823F4F813A36073
:104DE000236F43F48073236720230F930FA84FF49E
:104DF00080731F9300F058FD10B1144803F040FD7C
:104E0000134B144801221A60134B03600322002342
:104E1000826041F6FF7243774360C2600361436181
:104E2000836101F05EF910B10C4803F029FD0948D7
:104E300001F089FA10B10A4803F022FD26B070BDD6
:104E4000C02C002000380240A4900108C490010842
:104E50003C0E4742C42C002000280040ED90010881
:104E600007910108F0B51F4B1F491C681F4A5D6878
:104E70008BB00C4015401E460F461868084084420F
:104E80002BD158681040854227D105F03F0001F032
:104E900051FA0490C5F3042001F04CFA0138059052
:104EA000280C01F047FA44300690C4F3054001F0A5
:104EB00041FA0390C4F3062001F03CFA029004F09A
:104EC0007F0001F037FA01220190694601A802F043
:104ED00051FF00B100980BB0F0BD346875683C40DC
:104EE0001540CAE7002800407F7F7F003FFFFF009A
:104EF000024BD868C0F30010704700BF0028004084
:104F0000214B224A2DE9F0411D691C689E6AC5F3B8
:104F10000E05144018461746196811408C422ED1D0
:104F2000996A8E422BD1C4F3054001F003FA07467B
:104F3000C4F3062001F0FEF9804604F07F0001F082
:104F4000F9F9134A13493C2313FB08004FF461633A
:104F500003FB07001368146898420B683CBF03F515
:104F6000A83303F5C0731B1B03440B601060086873
:104F7000013DC00305EB9000801BBDE8F081046893
:104F8000866A3C40C8E700BF002800407F7F7F0062
:104F9000BC2C0020B82C002030B591B00021142288
:104FA000044602A8019104F079FF03F001F92A4BAD
:104FB0002A4A1A6007A90122204602F02BFF002886
:104FC00048D00D9B03B907238DF804300B9B0133A8
:104FD0008DF805300A9B8DF806300C9B443B8DF80C
:104FE0000730099B8DF80830089B8DF809300024A4
:104FF000079B8DF80A308DF80B4005940694FFF757
:105000007FFF9DF809109DF80A2013483C2313FBED
:1050100001229DF808304FF4616101FB0323104A1F
:1050200013600E4B224601A99D6A01F0B3F810B13E
:105030000C4803F025FC002202A9074801F00AF9F8
:1050400010B1094803F01CFC044A936A9D42FCD14C
:1050500003F0C4F811B030BDC42C0020002800407B
:10506000BC2C002020910108379101080FB407B52E
:10507000064B07491B6805AAD868019208F032FF61
:1050800003B05DF804EB04B0704700BF7406002065
:105090004E9101084368094A9B0182B0D3581A68AF
:1050A000120706D5002201921A6801925A680192ED
:1050B000019A1868C0F3401002B07047D82E002043
:1050C0004368034A9B01D3581868C0F3C010704767
:1050D000D82E002042681449920110B4046854503C
:1050E000531882685A60C2689A600269DA6042693D
:1050F0001A61026A9A610022DA84DA619A84DA8596
:105100009A85B0F91A20013206D108225A61184650
:105110005DF8044B01F0B1BEB0F9182001320CBFAC
:1051200004220C22F2E700BFD82E002010B58160C7
:105130000C46FFF7CFFF28B121460348BDE81040D9
:10514000FFF794BF10BD00BF4E910108124B98426B
:1051500017D0A3F54C43984215D003F580639842CD
:1051600013D003F58063984211D003F58063984211
:105170000FD003F5444398420CBF05204FF0FF3099
:1051800070470020704701207047022070470320BD
:1051900070470420704700BF00100140F0B50E4674
:1051A00087B004465B493046154602F037FC5A4941
:1051B0000746284602F032FC0146384602F008FC59
:1051C0002060013004D13D225449554802F0B4FD1D
:1051D000022E0CD0032D0AD04E49022002F01EFCF4
:1051E000874202D14F4803F04BFB002700E0012724
:1051F0004D4B206898424FF000031AD100934B4B5F
:105200005A6C42F010025A645B6C03F01003009376
:10521000009B474B984229D100230593434B5A6C7E
:1052200042F020025A645B6C03F020030593059B57
:105230001CE0404A90420BD101933C4B1A6C42F463
:1052400000321A641B6C03F400330193019BE0E706
:10525000394A904240D10293344B1A6C42F4802276
:105260001A641B6C03F480230293029BFFF76EFF0A
:105270000028606004DAA4222849304802F05CFD6E
:105280002449304602F080FB2349284602F07CFB8B
:10529000721C03D001213046FFF72CFD6B1C03D09C
:1052A00001212846FFF726FD4FF41653A360002383
:1052B000E360236163612362268365832046FFF7F1
:1052C00009FF3FB11E4B1F4801221A6021464C22A4
:1052D00004F0CEFC07B0F0BD1B4A90420BD1039303
:1052E000124B1A6C42F400221A641B6C03F4002364
:1052F0000393039BBAE7154A90428AD104930B4B60
:105300001A6C42F480121A641B6C03F48013049329
:10531000049BABE75C8C0108E48B010878910108E1
:10532000D4910108F09101080010014000380240BA
:10533000001401400044004000480040259201084C
:10534000E42C00208C2E0020004C00400050004037
:10535000002808DB4209012300F01F0003FA00F0D7
:10536000014B43F82200704700E100E000280DDB0C
:105370004309012200F01F0002FA00F02033044A22
:1053800042F82300BFF34F8FBFF36F8F704700BF0A
:1053900000E100E0F7B5FFF7D9FE071E26DB144E4B
:1053A00056F8270010B3134CBD0163591A68120652
:1053B00006D5DB68190603D50F4B01211B689847FA
:1053C00063591A68920608D5DB68980605D50A4B1A
:1053D00056F827001B680021984763591A6811077F
:1053E00004D55A69D20744BF5B68019303B0F0BD8E
:1053F000EC2C0020D82E0020E82C00200148FFF7DC
:10540000C9BF00BF001401400148FFF7C3BF00BF80
:10541000005000400148FFF7BDBF00BF004C0040F6
:105420000148FFF7B7BF00BF004800400148FFF741
:10543000B1BF00BF004400400148FFF7ABBF00BF51
:1054400000100140034B19604168034B43F82120D1
:10545000704700BFE82C0020EC2C002030B490E80E
:1054600018002C48834233D00AD8A0F5006083424C
:1054700028D000F58060834227D0002318460FE033
:10548000254883420AD000F58060834223D0A0F5EE
:1054900044408342F1D1214B352001E0204B2520AF
:1054A000204DA401FAB1C9B92959CA6842F02002B5
:1054B000CA601D4A00F11001926830BC42F82130E8
:1054C000FFF746BF194B2620EAE7194B2720E7E7ED
:1054D000184B3420E4E7184B4720E1E72959CA6804
:1054E00042F08002E4E72B59DA6849B922F0200241
:1054F000DA60DB6813F0800F09D130BCFFF736BFEC
:1055000022F08002DA60DB6813F0200FF4E730BC91
:10551000704700BF004C00400010014009540008D3
:1055200039540008D82E002000ED00E02D5400086A
:105530002154000815540008FD53000838B544688C
:1055400005462846FFF7A6FD0028FAD0A401034B24
:105550001B595868C0F3080038BD00BFD82E002082
:1055600070B5456806460C463046FFF7A9FD002891
:10557000FAD0AD01024B5B59C4F308045C6070BD06
:10558000D82E002008B50E4AC36D934214D008D817
:10559000A2F5806293420FD00A4803F071F900200F
:1055A00008BD094A934203D002F580629342F3D1C9
:1055B000BDE8084000F04AB9BDE8084000F036B93F
:1055C000003C00403792010800300140DFF830D045
:1055D000002103E00B4B5B58435004310A480B4B4E
:1055E00042189A42F6D30A4A02E0002342F8043BEA
:1055F000084B9A42F9D301F01FFEFAF707FE7047F5
:105600000000022064A00108C8010020481000200A
:1056100048100020A0300020FEE7704708B50B4B73
:105620001A6842F400721A601A6842F480621A60C2
:105630001A6842F480721A60032000F009F80F2003
:10564000FEF7B8FEFFF7E9FF002008BD003C02406E
:10565000074AD36823F4E0631B041B0C43F0BF63C9
:10566000000243F4003300F4E0600343D36070476A
:1056700000ED00E0014B01221A60704720000E424D
:1056800037B500230193184B184C1A6C42F0805226
:105690001A641B6C03F080530193019B144B01228D
:1056A0001A60FEF78DFE05466368DA030BD5114BD1
:1056B0000E4C01221A60FEF783FE054663689B03C9
:1056C0000AD5002006E0FEF77BFE401BB0F57A7F8E
:1056D000EAD9032003B030BDFEF772FE401BB0F5DF
:1056E0007A7FEBD9F5E700BF003802400070004038
:1056F00040000E4244000E422DE9F0410D460446A2
:1057000010B90120BDE8F081444B1A6802F00F0285
:105710008A4228D321688F072DD4C80740D43F4B35
:105720001A6802F00F02954266D3226851076CD4C2
:10573000130707D53A4A2169936823F4604343EA83
:10574000C103936000F0B8FA354B364A9B68C3F347
:105750000313D35CD840344B18600F20FEF72AFEA9
:105760000020BDE8F081CAB21A701B6803F00F0375
:105770009942C6D1CEE72A4B11F0040F1EBF9A689A
:1057800042F4E0529A600E0742BF9A6842F46042C7
:105790009A609A68A06822F0F00202439A60BCE71F
:1057A00062681F4B012A1DD11B6813F4003FA8D06B
:1057B0001B4EB36823F003031343B360FEF700FEF0
:1057C00041F288380746B368626803F00C03B3EB14
:1057D000820FA4D0FEF7F4FDC01B4045F3D903208F
:1057E000BDE8F081911E01291B6802D813F0007FEB
:1057F000DDE713F0020FDAE7EAB21A701B6803F074
:105800000F039D427FF47DAF8FE70549E0688B6809
:1058100023F4E05303438B608AE700BF003C02405F
:10582000003802403D9301085C060020044B054A05
:105830009B68C3F38223D35C034A1068D840704747
:10584000003802404D9301085C060020044B054AD5
:105850009B68C3F34233D35C034A1068D840704757
:10586000003802404D9301085C0600200F230360BE
:105870000B4B9A6802F0030242609A6802F0F00251
:1058800082609A6802F4E052C2609B68DB0803F40D
:10589000E0530361034B1B6803F00F030B60704779
:1058A00000380240003C024003682DE9F74313F042
:1058B000010604460BD0AA49866BD1F88C2022F051
:1058C000C0623243B6FA86F6C1F88C2076099D078D
:1058D0000BD5A348E16BD0F88C2022F0C0520A43CC
:1058E0000029C0F88C2008BF012613F0040512D04F
:1058F0009B49256BD1F88C20B5F5801F22F440120E
:1059000042EA050218BFB5FA85F5C1F88C2012BF2E
:105910006D090025012618070FD59148616BD0F855
:105920008C2022F440020A43B1F5800FC0F88C208D
:1059300000F00981002908BF0125990633D500230D
:105940000193874B874F1A6C42F080521A641B6C8C
:1059500003F080530193019B3B6843F480733B60E9
:10596000FEF72EFD80463B68DA0540F1EE807C4F65
:105970003B6F13F4407340F0FB80236C03F44072E0
:10598000B2F5407F764A40F01681916823F070406E
:1059900021F4F81120F4407001439160116FC3F3BA
:1059A0000B030B4313672368D90642BF6E4B94F871
:1059B00058201A6023681A0608D56949E06CD1F8A6
:1059C000942022F440020243C1F894205F0608D5D7
:1059D0006349A06CD1F8942022F080620243C1F8A0
:1059E0009420D8050CD55E48616DD0F8942022F043
:1059F00000620A43B1F1006FC0F8942008BF01258E
:105A0000990508D55649606CD1F8942022F080524F
:105A10000243C1F894205A0500F1D180012E40F0D4
:105A2000DC80524E4E4F00233360FEF7C9FC8046A7
:105A30003B681B0100F125812268D00701D5A36BCB
:105A40001BB1910715D5E36B9BB94549D1F884305B
:105A5000D1F8840003F4403300F0706003436068C1
:105A60000343A06843EA8013606943EA0073C1F806
:105A70008430530703D5236BB3F5801F05D0170778
:105A800020D5636BB3F5800F1CD13549D1F8843034
:105A9000D1F8840003F4403300F0E0400343606831
:105AA0000343A06843EA8013206943EA0063C1F816
:105AB0008430D1F88C00A36A20F01F00013B03431F
:105AC000C1F88C3050051BD5236DB3F1005F17D1A1
:105AD00023486768D0F88410D0F8843003F0E0439E
