:020000040800F2
:10000000000002209D590008E9590008E95900083C
:10001000E9590008E9590008E95900080000000002
:10002000000000000000000000000000E959000886
:10003000E959000800000000E9590008E9590008E2
:10004000E9590008E9590008E9590008E959000888
:10005000E9590008E9590008E9590008E959000878
:10006000E9590008E9590008E9590008E959000868
:10007000E9590008E9590008E9590008E959000858
:10008000E9590008E9590008E9590008FD4100084C
:1000900001420008E9590008F1410008E959000847
:1000A000E9590008E9590008E9590008E959000828
:1000B000E9590008E9590008E9590008E959000818
:1000C000E9590008E9590008E9590008E959000808
:1000D000E9590008E9590008E9590008E9590008F8
:1000E000E9590008E9590008E9590008E9590008E8
:1000F000E9590008E9590008E9590008E9590008D8
:10010000E9590008E9590008E9590008E9590008C7
:10011000E9590008E9590008E9590008E9590008B7
:10012000E9590008E9590008E9590008E9590008A7
:10013000E95900080000000000000000114200081A
:1001400015420008E959000805420008E95900086D
:10015000E9590008E9590008E9590008E959000877
:10016000E9590008E9590008E9590008E959000867
:10017000E9590008E9590008E959000800000000A1
:1001800000000000E9590008000000000000000025
:10019000E95900080000000000000000E9590008CB
:1001A000000000000000000000000000E959000805
:1001B000E9590008E9590008E9590008E959000817
:1001C000E959000810B5054C237833B9044B13B135
:1001D0000448AFF300800123237010BD48100020B5
:1001E00000000000DCA6010808B5034B1BB1034961
:1001F0000348AFF3008008BD000000004C10002051
:10020000DCA60108A3F5803A704700BF174B002B0E
:1002100008BF134B9D46FFF7F5FF00218B460F46A5
:100220001348144A121A0AF021F80E4B002B00D082
:1002300098470D4B002B00D0984700200021040068
:100240000D000D48002802D00C4804F0F0FB09F026
:10025000C9FD2000290004F079FE04F0E5FB00BF91
:1002600000000800000000003D4F000800000220D0
:1002700048100020103100202F4A00080000000024
:1002800010B5094B036003F1200280330446C0F827
:10029000BC20C0F8C030BC3008F046FE204608F054
:1002A00021F9204610BD00BF3C9A0108A0F1BC0016
:1002B000E6E7A0F1C000E3E708B52848274C4FF473
:1002C000165108F02BF804F1BC05204608F03AF866
:1002D00018B1284608F04EFEF7E7214C214D642066
:1002E00008F0FEFB2049214808F056FE2368986874
:1002F00009F00CF81E491D4808F04EFE23681D4CFD
:10030000986809F003F81C491848224608F061FE75
:10031000164808F02FFE19492278144808F03CFED0
:1003200022781248531E022B94BF1549154908F034
:1003300033FE15490D48FF232B7008F02DFE207861
:1003400000F0EEF8207802F00BF81049074808F0AA
:1003500023FE00F037F901F055F8FAE768100020A5
:100360007406002064100020686901082411002030
:10037000B7690108CC010020A76E0108CE69010809
:10038000E2690108006A01081A6A01083A6A01086C
:1003900010B50446FFF774FF204604F0B0FC204679
:1003A00010BDA0F1BC00F3E7A0F1C000F0E7000031
:1003B00013B5094C4FF41653009303220023022176
:1003C000204607F0FFFB054A0549204602B0BDE87C
:1003D000104004F027BB00BF68100020C8010020B7
:1003E000810200080FB407B5064B04AA1B6852F837
:1003F000041BD86801920DF075FF03B05DF804EBA3
:1004000004B070477406002008B5074B1A78074BF4
:100410001B789A4205D106481146FFF7E3FF0120F9
:1004200008BD0020FCE700BFCD010020D61200204F
:10043000516A0108024B1870062000F07BB900BF1A
:100440004211002038B50546FFF7DEFF01280446BB
:1004500005D105482946FFF7C5FF204638BD034BA7
:1004600000241D70F9E700BF906A0108D612002031
:1004700070B50D4E0D4D3378834228BF03461A46A2
:100480000B4829461C4609F0DBFD3278094B121B4C
:10049000D2B21C7032702AB12919284609F0D0FD59
:1004A000012070BD1046FCE744110020D716002043
:1004B00045110020D512002038B5054610460C46DF
:1004C000FFF7C0FF012808D1072000F04FF920B145
:1004D000BDE83840072000F049B9192C22462946CA
:1004E00009D80B4809F0ACFD0A4B1C70BDE8384038
:1004F000042000F01FB9084809F0A2FD074B1A209C
:100500001C70FFF7B5FF072000F014F9EEE700BFFD
:1005100045110020D5120020D716002044110020DC
:1005200010B50A4B0A4C00221A70207000F018F91E
:10053000FFF76AFF207800F085F9064802F026F9F7
:10054000BDE81040044802F027B900BFD6120020D1
:10055000CD010020B9040008350400082DE9FF4151
:10056000164D1F4695F80080154B144698440E46CC
:1005700000F0DDF822460146404609F061FD2A7888
:10058000023A1444E4B2012F2C7003D09DF82830B5
:10059000012B10D100F096F9039000F08DF9039B28
:1005A000009022460648314602F0B2F8002028703A
:1005B00004B0BDE8F0810120FAE700BF431100203C
:1005C000D712002070B53D4B3D4D1A782C78A242D1
:1005D00086B018BF1C701CB1012C63D006B070BD72
:1005E000062000F0C3F878B1364B187800F046F9D1
:1005F000B0FA80F0400902F0B0F82C70062006B086
:10060000BDE8704000F0A0B8032000F0AFF8E0B102
:1006100000F042F9059000F045F9064600F046F971
:10062000049000F055F90390304600F066F8C0B22F
:10063000DDE90332059900903046FFF78FFF032074
:1006400000F082F82C700320D9E7042000F08EF827
:10065000C8B11D4B07201B78039300F087F8B0FA50
:1006600080F04009039B194900902246184800F089
:100670004EF8184B01461A78154800F0F5F801239A
:100680002B700420BBE7072000F070F80028A5D0ED
:10069000042000F04FF81A20FFF7EAFE00289DD151
:1006A0000720ACE7002000F061F8002896D0002673
:1006B00020462E7002F04EF83046A0E7411100208F
:1006C0004011002042110020D512002045110020C9
:1006D0000D120020D6120020024B1A78024B1A701D
:1006E000704700BF40110020411100200078013800
:1006F00001288CBF0020012070470078431E58421B
:10070000584170470078B0FA80F04009704710B542
:100710001C469DF808304270012B18BF022303705D
:100720002246023009F08CFCA01CC0B210BD023081
:1007300070470000034A012303FA00F013681843CE
:1007400010607047D81A0020044901220B6802FA91
:1007500000F023EA00030B60704700BFD81A0020A6
:10076000014B00221A607047D81A0020012303FAB7
:1007700000F0024B1B681840704700BFD81A0020D9
:10078000054B1B785A1E012A02D80020FFF7D2BF62
:100790000BB90120FAE77047DD1A0020F8B50746CB
:1007A0000C4615461E4609F00BFE07EE900AFAEEBF
:1007B000E07AF5EEC07AF1EE10FA21DD2A46214604
:1007C000104809F03DFC104B1F70104B1D7003F0DA
:1007D0002FFC0F4B187003F025FC0E4B18800E4BAE
:1007E00020461E70FFF782FF20B10320BDE8F840CD
:1007F000FFF7A0BF2046FFF785FF08B10220F5E70D
:10080000F8BD00BFE01A0020DF1A0020141B0020F2
:10081000DE1A0020121B0020DC1A00200FB407B5DE
:10082000064B07491B6805AAD86801920DF05AFDCE
:1008300003B05DF804EB04B0704700BF74060020FD
:10084000B56A010810B50446002008F055FA09F011
:10085000AFFD2046024A0349BDE8104003F084BBC7
:100860009D0700088107000810B5044603F09EFBB1
:10087000014B22781A7010BDDD1A002010B503F06C
:10088000DDFB044618B101460248FFF7C7FF2046CA
:1008900010BD00BFB56A0108014B1878704700BF52
:1008A000DF1A002000487047E01A0020014B18783A
:1008B000704700BF141B0020014BB3F900007047C4
:1008C000121B0020014B93F900007047DE1A002034
:1008D000014B1878704700BFDC1A002003681847E6
:1008E0000B68036070477047C36810B504460BB1CE
:1008F0009B689847204610BD38B50546064B45F81D
:10090000283B044607F0ABF82846FFF7EDFF2046EA
:1009100007F070F8204638BD9099010810B50446DC
:10092000FFF7EAFF204604F0EAF9204610BD000078
:1009300010B5034B03600446FFF7DEFF204610BDF1
:10094000049A010838B5CB6804460D460BB15B68C4
:100950009847EB68E360204638BD10B50446FFF7C2
:10096000E7FF204604F0CBF9204610BD10B50C4C33
:10097000204607F017F820460A4B40F8283B102283
:10098000002109F073FC012384F83830064B236002
:100990002046064A0649BDE8104004F043B800BFAF
:1009A000181B002090990108049A0108C801002032
:1009B000310900080021084B0A464FF681700131C9
:1009C00003291A7058801A715A719A719A601A73B1
:1009D00003F11003F3D17047C41B00202DE9F0414F
:1009E000274CE3788646224600252746AB4244DD65
:1009F00092F84811714502F10C0210D10C2606FB49
:100A00000576013BAB4206F10C060ADD06F5A47241
:100A100007CA06F59E7C8CE807000135F2E7013530
:100A2000E4E7174AFB7000218B4202F10C0203DD60
:100A3000013182F83F11F7E7724612491248DFF898
:100A40005480114E08F0A8FAFA7810490E4808F0C0
:100A5000A3FA0025FB78AB4204F10C0407DD94F8FF
:100A60003C214146304608F097FA0135F2E7BDE8EF
:100A7000F0410749044808F08FBABDE8F08100BF93
:100A8000F01C0020F46A0108D01C0020376B01081C
:100A9000276E0108686B01082DE9F043154DDFF85A
:100AA0005C90DFF85C8085B00022EB7893421DD922
:100AB0000C24571C04FB02541321FEB294F8482165
:100AC0008DF80C108DF80E300321D9F800308DF818
:100AD0000D6003A89847EB78009394F848210648E6
:100AE0003B46414608F058FA3246DEE705B0BDE81D
:100AF000F08300BFF01C0020D01C0020AC2300209D
:100B00006C6B01082DE9F04FB048B14F9FB008F071
:100B100031FA3B78C1B2002B5DD0AE4E0D2933784F
:100B200001D00A293CD1AC4D0024EC546BB3AB4945
:100B3000A648DFF8BC922A4608F02EFA294602A8F9
:100B400001F079FD99F80230804623B3DFF8E8B26E
:100B5000DFF8ECA299F80220E5B2AA4211D90C23E1
:100B600003FB05954146DBF8003095F83C2102A8CF
:100B7000984795F83C219548514608F00DFA013404
:100B8000E8E79749914808F007FA00233B70337073
:100B90001FB0BDE8F08F93498C4808F0FDF9F4E7E9
:100BA000082901D07F290AD1002BF1D0013B8E49C1
:100BB000337086481FB0BDE8F04F08F0EDB9632BE5
:100BC000E6D85A1C32708148834AD1541FB0BDE820
:100BD000F04F08F0BBB9612900F0DF802ADC412921
:100BE00000F0DB8048390F29D2D80F29D0D801A3D3
:100BF00053F821F0FD0E0008910B0008910B00083E
:100C0000910B0008910B0008390C0008910B0008AB
:100C1000910B0008910B0008550E0008910B00087D
:100C20004D0C0008130D0008910B0008910B0008F3
:100C3000770E00086839D6E76C49644808F0ACF9CB
:100C400001233B70634B00221A70A1E7684C69498D
:100C50005E48694D08F0A0F9227868495B4808F0C1
:100C60009BF96378A2786649584808F095F9E278CC
:100C70006449564808F090F92A786349534808F0C7
:100C80008BF962495148782208F086F9A3783BB382
:100C90005F494E48DFF8ACA1DFF8308108F07CF9FD
:100CA00006F044FE00264FF00C094FF47A73B0FBB7
:100CB000F3F7A378F2B2934212D909FB02424FF440
:100CC0007A71D2F8443192F83C21FB1A4046B3FBCA
:100CD000F1F35146C3F1780308F05EF90136E8E715
:100CE0002B78A3B14B493948DFF85C81374F08F0C6
:100CF00053F900262A78F3B29A4208D92344414690
:100D000093F82821384608F047F90136F2E74249BE
:100D10004FE7374F41492D4808F03EF9BB78B3B350
:100D200006F004FEDFF82481DFF8A0A0DFF82091B0
:100D300000254FF47A73B0FBF3F6BA78EBB29A421F
:100D400029D90C2202FB03734146D3F844414FF4E6
:100D50007A72341B5046B4FBF2F493F83C21C4F190
:100D6000780408F019F984B12D492246504608F05C
:100D700013F9092C03D82B49504608F00DF92A49DC
:100D8000504608F009F90135D7E74946F4E7274905
:100D90000E4808F001F926490BE726490B4808F0F0
:100DA000FBF81349CB7800934B788A78097802A82E
:100DB00001F036FC204B01461B6802A8FF22984731
:100DC0001E49024808F0E8F8E2E600BFD01C002007
:100DD000402300204123002042230020D16B010842
:100DE0000F6C01083F6C01085B6C01085F6C010827
:100DF000F01C00208A6C0108FB1B0020A16C01087C
:100E0000AF6C0108C56C0108DE6C0108FA6C0108C2
:100E1000186D01084E6D0108DF6D01087A6D01083B
:100E20009D6D0108B26D0108276E0108CB6D0108A8
:100E3000DD6D0108F46D0108AC230020146E01087B
:100E4000F66B0108286D01086D6D0108936D0108AE
:100E5000C26D0108384B39491A783948002A0CBF4D
:100E6000012200221A70374B374A18BF1A4608F081
:100E700093F836499DE6364E3649314808F08CF8ED
:100E8000F278AAB334492E48344F2D4DDFF804814F
:100E900008F082F80024F3785FFA84F94B452BD9E7
:100EA0000C2303FB096309F1010293F84831394629
:100EB000284608F071F8B9F1000F13D198F8003006
:100EC00083B106F033FD264A264912684FF47A733F
:100ED000B0FBF3F0821A2846B2FBF3F2C2F10A0229
:100EE00008F05AF82049284608F056F80134D2E7AD
:100EF0001E49134808F050F81D495AE61D4910488C
:100F000008F04AF81C490E4808F046F81B490C48FE
:100F100008F042F81A490A4808F03EF8194908480A
:100F200008F03AF81849064808F036F81749044816
:100F300008F032F816492BE729230020296E010812
:100F4000D01C0020B36B0108956B01083A6E0108B4
:100F5000F01C0020716E0108896E01089C6E01086A
:100F6000081C0020AA6E0108276E0108C96E01083E
:100F7000DE6D0108DC6E0108F56E01081C6F0108CA
:100F8000376F0108526F01086D6F01088A6F010801
:100F9000A66F0108111C0020F7B52A4CE378002B3E
:100FA00049D0294F3E78002E45D194F84851274921
:100FB00027482A4607F0F0FFE2782649244807F040
:100FC000EBFF1122244922488DF804202B468DF88E
:100FD000056007F0E1FF214B2A461B68022101A8AA
:100FE000984723464FF0010CE278624503F10C0369
:100FF0000BDD03F5A47207CA03F59E7686E80700A9
:1010000083F83FC10CF1010CEEE7154B013AE27099
:101010001D7006F08BFC4FF47A73B0FBF3F0114BAC
:101020001149186001233B702A460A23084807F03B
:10103000B3FF03B0F0BD0D49054803B0BDE8F04073
:1010400007F0AABFF01C0020111C0020BE6F010891
:10105000D01C0020FF6F010827700108AC2300207E
:10106000C11B0020081C0020587001089C7001085A
:10107000F7B5234CA37805469BB194F83C318342E5
:101080000FD106F053FCD4F844211E494FF47A7373
:10109000B0FBF3F0801A2A46B0FBF3F31A4807F0CE
:1010A0007BFFA678164A0021CBB29E421DD992F84A
:1010B0003C01854201F1010102F10C02F4D10C273F
:1010C000A278013A93420FDA03F1010C03FB077394
:1010D000234403F5987603F59E7393E807005FFABF
:1010E0008CF386E80700EBE7A2706378009307496A
:1010F000A37805482A4607F04FFF03B0F0BD00BFB4
:10110000F01C0020C8700108D01C0020FD700108F0
:101110000A460549054B10B40C68187001211846A1
:1011200023465DF8044B1847AC230020281F0020FD
:101130002DE9F0417F48804E9CB007F01BFF3578C9
:10114000C4B2002D48D00D2C7C4D01D00A2C1ED1EC
:101150002B787B4C7B4977480022E2545BB307F045
:101160001BFF2146684601F07DFA774B774A1B68E2
:10117000127801466846984775496E48224607F03E
:101180000BFF002333702B701CB0BDE8F081082CDE
:1011900001D07F2C0BD12B78002BF5D06D49654801
:1011A000013B2B701CB0BDE8F04107F0F5BE1B2CD5
:1011B00004D169495F4807F0EFFEE2E72B78632B23
:1011C000E2D85A1C2A705B485D4A2146D4541CB0B0
:1011D000BDE8F04107F0BABE072001F08FFA04F035
:1011E000DF03002844D0DFF8888198F80070012FD1
:1011F0003ED1592B1ED159494E48544C07F0CCFED4
:101200003946684601F0E6F94F4B22781B6868467C
:10121000022198475249474807F0BEFE2178062030
:10122000FFF776FF4F4B1F7006F080FB072001F0A1
:1012300053FAA9E74E2BA7D14B493E48434C07F040
:10124000ABFE2946684601F0C5F93F4B22781B6882
:101250006846022198474549364807F09DFE072019
:1012600088F80050257001F037FAFFF7A3FB8BE7F1
:10127000432B0ED13E4B1B78032B0CD1357855B93F
:101280003C492C4807F088FE012333702B4B1D701E
:101290007AE7652C02D0452C7FF476AF364B347854
:1012A0001B781C437FF470AF314E3378032B21D170
:1012B000324E337883B1324D06F038FB2B6831491A
:1012C0004FF47A72B0FBF2F0C01AB0FBF2F2194898
:1012D00007F062FE34702C601C4B0A201978FFF76F
:1012E00017FF2949134807F057FE1CB0BDE8F0412D
:1012F000FFF760BB022B7FF447AF144D23490D4825
:1013000007F04AFE29781420FFF702FF642007F057
:10131000E7FB1F49074807F03FFE2A781D490548AB
:10132000347007F039FE1C4B2C701C701B4B1C706A
:10133000DBE700BFD01C0020C01B002028230020BA
:10134000581B0020276E0108AC230020F81B00204A
:101350002F7101085B6C01083F710108EF790108EA
:1013600052710108121C0020F08B010873710108F2
:10137000BE1B00209C710108ED1C0020F91B002001
:10138000001C0020D17101080172010831720108AE
:101390004C7201087B720108FA1B0020071C002018
:1013A000032AF0B50DD90B780024A0F10C060C2708
:1013B000E5B29D4206D2013407FB04F5755D954206
:1013C000F6D1F0BD132BFCD803EB430300F8232028
:1013D0000B7803EB430300EB8300012383700B784E
:1013E00001330B70EDE730B503460C250020884231
:1013F00006DA05FB00F401301C5D9442F7D130BDE4
:101400000020FCE72DE9F04FB54BB64D19782A784E
:10141000B54E914218BF1A703378A5B063B1B34A84
:10142000B349136801338B4200F2D3801360B14B90
:101430001978002900F03381082001F05FF90028B5
:1014400000F09B80AC4B1A78002A00F0938096F84D
:101450000080B8F1000F40F08D80A849A84883F8BB
:101460000080A84CDFF898B207F096FDA649A44882
:1014700007F092FDA5492746C146C2463B7B83B192
:10148000BB7902937B7901933B790093B7F90230E2
:101490003A78584607F080FD09F101099B495FFA47
:1014A00089F90AF1010ABAF1030F07F11007E5D132
:1014B000B9F1000F03D19649914807F06DFD9549A8
:1014C0008F48DFF89CA2DFF838B207F065FD92493B
:1014D0008B4807F061FD91494FF00009237B23B34E
:1014E00094F805C02279A079B4F90230ACEB02027D
:1014F00012F0FF0218BF03F11407C0EB403E14BF07
:101500003FB21F46C0EB8E0E07EB4E073FB2CDE950
:1015100002C0CDE900725846227807F03DFD5745DC
:101520007E49C4BF94F80080BA4609F10109B9F1B7
:10153000030F04F11004D1D1B8F1000F00F0C880FE
:10154000774C78496E4884F80080424607F024FDC5
:10155000754922786A4807F01FFD744B00221A7003
:10156000734B01271F7006F0E1F921780220FFF785
:10157000CFFD2F70082001F0AFF8022001F0BEF877
:10158000002800F0C78101F0EBF8804601F0ECF88C
:1015900001F0F0F80446404601F018F8824601F0E8
:1015A000EFF8644981465246554807F0F5FCBAF118
:1015B0000F0F377840F0D880002F40F0A8812C78AA
:1015C000002C00F05C86022025B0BDE8F04F01F051
:1015D00083B84FF00008C2F8008006F0A7F9564C17
:1015E0004FF47A73B0FBF3F0A37803B3D4F844312B
:1015F000C01A524B98421AD994F83C71504940484D
:101600003A4607F0C9FC0B238DF820304D4B8DF87E
:1016100021801B683A46022108A898473846FFF700
:1016200027FD4FF4FA7007F05BFAFFF7B5FC464F61
:101630003B787BB306F07AF94FF47A73B0FBF3F0A2
:10164000424B1B68C01A42F20F73984222D9DFF84E
:1016500014913F4999F800802948424607F09CFCC4
:1016600000233B7089F800308DF821308DF822304E
:10167000344B13221B688DF820200321424608A812
:1016800098474046FFF7AAF9E3780BB1FFF704FA51
:10169000FFF782FC3378002B7FF4C9AECCE62D4AED
:1016A0002D4813680133834201D81360C4E61160EA
:1016B0002149CB7800934B788A78097808A800F004
:1016C000AFFF204B01461B68FF2208A89847B3E6EE
:1016D00022490B4807F060FCFFF76CF94AE700BFAE
:1016E000BF1B0020BE1B0020ED1C00200C1C002096
:1016F00040420F0029230020BD1B00200773010872
:10170000D01C0020C41B002041730108677301082E
:1017100097730108AC730108D1730108F5730108D0
:10172000F81B00203074010856740108041C0020C6
:10173000101C002097740108F01C0020BFD4010089
:10174000A3720108AC230020111C0020081C0020FB
:10175000CA720108F41B0020404B4C007174010850
:1017600018FCFFFFC11B0020AAF1020ABAF1120FF8
:1017700000F2CD80DFE81AF0FD01CB002102DC0091
:101780005B027F03CB00C603B80190000E0113007B
:10179000AC00CB00E4012601CB0040011601002F74
:1017A0003CD12B78032B40F0B280404600F010FF74
:1017B0000278DFF82083131FDBB2FA2B98F8003091
:1017C00007469CBF013714461BB19D499D4807F051
:1017D000E3FB9D4B1B78A34205D09C4999483B46AF
:1017E000224607F0D9FB98F80030002B00F08F80DC
:1017F00097499448DFF8E092DFF8E082914F07F0D4
:10180000CBFB002499F80020E3B29A427FD918F864
:101810000310384607F09AFB0134F3E7404600F026
:10182000D7FE8C49034607462246864807F0B4FB9C
:101830008949887800238946DAB2904240F21B85B4
:1018400091F83C21944203F1010301F10C01F3D121
:101850003A46214608A800F01CFFDFF824B2DFF862
:1018600080A28046002799F80220FBB29A424ED906
:101870000C2202FB039393F83C2194420AD0414688
:1018800008A8DBF8003005929847059A6D48514644
:1018900007F082FB0137E6E7002F38D16F4969482E
:1018A00007F07AFB6E49674807F076FB6D4965489B
:1018B00007F072FB6C4B2F701F706C4B1F706C4BE2
:1018C0001F60FFF777F86B495E4807F065FB1EE085
:1018D000EFB14B46224668495A4807F05DFB67491D
:1018E000584807F059FB5C49CB7800934B788A78CD
:1018F000097808A800F094FE614B014622461B6857
:1019000008A898475F4922464E4807F045FB022049
:1019100000F0E2FE3378002B40F0A4832B78032BF9
:1019200000F2A083DFE813F01F0345030004140452
:10193000002FECD0404600F04BFE534A0778534B43
:1019400053494048012F08BF1346224607F024FBA5
:10195000012F02D14F492246D6E74F4F3B78A34291
:1019600015D1DFF8808198F8003083B14B493548B4
:10197000224607F011FB0023204688F800303B7018
:10198000FFF72CF8344BDB780BB1FFF785F84449AF
:101990002246B9E7002FBAD1404600F019FE41496E
:1019A0000246B1E7002FB2D03F492648224607F051
:1019B000F3FA2046FFF712F8FFF76EF8264B3B4983
:1019C000DA78A1E7002FA2D12A78022A12D1384969
:1019D0001C4807F0E1FA0A2236491A4807F0DCFAF7
:1019E0003549184807F0D8FA1F4B06201978FFF739
:1019F0008FFB8CE7314987E7002F88D12B78022BAA
:101A000085D1404600F0E4FD2D4B02782D491A7037
:101A100043780B7002B173B92B490A4807F0BCFA3E
:101A20002A49084807F0B8FA0F4A00232B701370B0
:101A3000FEF7C0FF6BE72649024807F0ADFA66E7FC
:101A4000276E0108D01C0020EC1C0020CA7401087D
:101A5000B7740108C9740108F01C00200175010861
:101A60002A7501085E750108F81B0020F91B00208B
:101A7000001C00207E750108A4750108E0750108AE
:101A8000AC230020077601089C720108A0720108AF
:101A90002F76010861760108C11B002090760108AD
:101AA000C4760108F0760108077701082F7701084E
:101AB0006377010884770108AD770108CB770108C7
:101AC000FA1B0020071C0020177801087D7101080F
:101AD00050780108C01B002028230020581B00203C
:101AE000DE740108111C0020002F3FF410AF2246C5
:101AF0009049914807F050FA904B98780022D1B263
:101B0000884240F2B48393F83C118C4202F1010206
:101B100003F10C03F3D12046FFF7AAFA10238DF846
:101B2000203001238DF82130854B22461B6802218D
:101B300008A89847322006F0D3FFFFF72DFAE6E613
:101B4000002F7FF4E4AE404600F042FD03783BB145
:101B50007C49794807F020FA7B4B2F701F7067E7AC
:101B60007A49B1E60131032903F1100340F0A28361
:101B7000B5E3002F3FF4CBAE224675496E4807F01F
:101B80000BFA74496C4807F007FA6C490B1D009377
:101B9000CB784A78897808A800F021FD6E4907467D
:101BA0002246654807F0F8F9654B224639461B681E
:101BB00008A8984769492246A6E6002F7FF4A7AEF9
:101BC0002B78012B7FF4A3AE224665495A4807F0D3
:101BD000E3F9644B1F70644B40461F7000F0F8FC43
:101BE0006249437890F8008087780593044652480C
:101BF00007F0D2F9E21C5E494F4807F0CDF9059B8A
:101C00005C494D48424607F0C7F93A465A494A48A6
:101C100007F0C2F978225949474807F0BDF95849F9
:101C2000454807F0B9F9072000F04CFD6FE6002F9A
:101C30003FF46DAE224653493F48DFF8708107F00C
:101C4000ABF951493C4807F0A7F998F800104F4804
:101C50000022D3B28B421DD210F8017BBC42134646
:101C600002F10102F5D14A493348224607F094F9BE
:101C70000122002107A800F0C7FC4649074622467A
:101C80002D4807F089F92E4B1B682246394607A8D4
:101C900098473CE6294F28480B4622463E4907F024
:101CA0007BF9BA787B789A42C0F08280F8783B461C
:101CB0000022D1B2884240F2A38293F848118C42AC
:101CC00002F1010203F10C03F3D134491A48224610
:101CD00007F062F9F97832482246FFF784FBB0F149
:101CE000000801DC2F490FE60222002108A800F0BD
:101CF0008BFCDFF84C900146D9F80030224608A84A
:101D00009847642006F0ECFEFA785FFA88F107A89D
:101D100000F080FCD9F800300146224607A8984719
:101D2000FB782149009322464346034807F034F9E3
:101D3000EDE500BF76780108D01C0020F01C0020E3
:101D4000AC230020A3780108F81B0020D6780108F6
:101D500040790108707901089A790108C179010870
:101D6000F2790108101C0020041C00201D7A0108D3
:101D70006E82010819710108896E0108E37101087A
:101D8000397A01086B7A0108A07A0108181E002030
:101D9000C97A0108FF7A0108407B01087E810108A9
:101DA000381E0020B07B01087A7B0108FB1B002055
:101DB000DFF86C9399F80030A34215D1DFF864A3E3
:101DC0009AF8003083B1A949A948224607F0E4F8FF
:101DD000002320468AF8003089F80030FEF7FEFD27
:101DE000FB780BB1FEF758FE98F80030FA18012185
:101DF00082F828410C2202FB03720B4482F839104E
:101E00009C4982F8384001F59D70224688F80030E0
:101E1000FFF7C6FABB7883B197F83C31A3420CD1E7
:101E200005F084FD4FF47A739349B0FBF3F022463A
:101E3000C7F844018E4807F0AFF80022012107A837
:101E400000F0E2FB8D4981462246894807F0A4F85C
:101E50008B498748782207F09FF898F80030009364
:101E60007B78BA788749824807F096F8864B2246F5
:101E70001B6849460BE7002F7FF449AD83497C4836
:101E800007F08AF8824B40461F7000F0A1FB0378F0
:101E900013B38049764807F07FF87F49744807F00C
:101EA0007BF878227D49724807F076F87C497048C3
:101EB00007F072F87B496E4807F06EF803232B7029
:101EC000794B01221A7005F031FD4FF47A73B0FBA3
:101ED000F3F0764B18601AE54478012C09D1744967
:101EE000634807F059F87349614807F055F872499B
:101EF0002FE6022C7FF40BAD70495D4807F04CF8DB
:101F00002C7004E5002F7FF402AD404600F060FB2A
:101F1000027843786A48017891426A4903D10C7883
:101F20009C423FF4F4AC684F684C02700B703B70FD
:101F300067494F48227002232B7007F02DF83B7839
:101F4000227864494A4807F027F86349484807F06F
:101F500023F86249464807F01FF86149444807F0F2
:101F60001BF86049B0E4604A6049136801338B4252
:101F7000136077D95E4D2C78002C73D15D493C48B5
:101F8000146007F009F8FEF715FD5B4B01210E20E8
:101F90001C702970FFF7BCF802210E20FFF7B8F87B
:101FA00003210E20FFF7B4F825B0BDE8F04F00F094
:101FB0004BBC524F3B7833B1514A524913680133FD
:101FC0008B420CD81360324B1B78002B4AD04E4A00
:101FD0004C49136801338B4228D8136042E04B4EC2
:101FE000DFF83881002414603278022A0DD80132DB
:101FF000D2B247491E483270032306F0CDFF98F84D
:1020000000100220FFF784F8DDE703224149184859
:1020100006F0C2FF2849164806F0BEFF2C7088F86B
:10202000004034703C70FEF7C5FCCCE70023136021
:1020300039490F48394C0323012206F0ADFF012135
:1020400008A800F0C7FA104B22781B68022108A8E4
:102050009847642006F044FD21780620FFF758F8E1
:1020600005F064FC25B0BDE8F08F00BF9076010854
:10207000D01C0020F21C0020EF7B01081A7C010814
:102080004D7C0108717C0108AC230020AB7C010869
:10209000121C0020CF7C0108007D0108E3710108BB
:1020A000267D01084A7D0108F91B0020001C002044
:1020B0007C7D0108BC7D01087D710108E97D010876
:1020C000051C0020FC1B0020071C0020FA1B002020
:1020D000247E010860780108447E0108817E0108A1
:1020E000BC7E0108DB7E01082C23002000350C009B
:1020F000BD1B0020157F0108061C0020101C0020BD
:1021000034230020C0C62D003C230020041C0020E6
:10211000447F0108797F0108B07F0108F81B002087
:10212000C11B0020111C0020704A71491368013343
:102130008B427FF652AF002313606E4B6E4A1B78C2
:1021400012786E496E4825B0BDE8F04F06F024BF06
:102150006C4A6D4913686D4C01338B4213601DD975
:1021600023782BB30026166005F0E0FB684B694925
:102170001B684FF47A72B0FBF2F0C71A8F4212D884
:1021800003F5EA33C0331B1A63495D48B3FBF2F22F
:1021900006F002FF61495A4806F0FEFE2378002B44
:1021A0007FF460AF04E05E49554806F0F5FE267006
:1021B00005F0BCFB564E4FF47A73B0FBF3F0336876
:1021C000C01A584B98427FF64DAF574F57494C486D
:1021D00006F0E2FE56494A4806F0DEFE39780A204B
:1021E000FEF796FF00232B703B7023703360FEF7E1
:1021F000E1FB5049424825B0BDE8F04F06F0CCBEA7
:102200004D49DFF8589101F245102246FFF7C8F812
:10221000FB784FF00C085A1E08FB0272002182F86E
:102220004B3107A8022200F0EFF9D9F8003001463F
:10223000224607A8984741493148224606F0ACFE9D
:10224000642006F04DFCFA78531E08FB037308A8BF
:1022500093F84B1100F0DEF9D9F800300146224620
:1022600008A89847FB783649009322465DE5354932
:102270002246FFF749BB34492246FFF745BB334BA3
:102280001B78002B3FF443AB404600F0A1F990F8D7
:1022900000B090F8028090F803A047782C491848C5
:1022A00000974B465A46CDE9018A06F075FE294B48
:1022B00021461A461878584503D0187B00287FF429
:1022C00051AC0B0102EB011102F803B00123A1F89C
:1022D00002900F7181F8058081F806A00B731E4AE9
:1022E000137801331370FFF712BB00BF30230020B7
:1022F000404B4C00071C0020FA1B0020E77F010820
:10230000D01C00203823002000879303F91B0020F5
:10231000001C0020BFD40100078001082B800108A9
:102320004B80010848E80100F81B00208380010869
:10233000B8800108E5800108F31C0020188101081D
:102340004C810108BD810108EA810108BD1B002004
:1023500002790108C41B0020061C0020AC230020C9
:1023600070B5674B441EE4B2022C1870654B8CBFED
:102370000022012286B005461A70FEF71BFB022CD4
:102380007BD8614C61492570002601232A4666806E
:10239000201D637008F0C0F904F59471334632468D
:1023A00004EB830003333C2B01F8012BC0F84421DC
:1023B000F6D1574957482A4606F0EEFD564A574986
:1023C000544806F0E9FD62785549524806F0E4FDAC
:1023D000782254494F4806F0DFFD53494D4806F036
:1023E000DBFD52494B4806F0D7FD5149494806F0FC
:1023F000D3FD5049474806F0CFFD4F49454806F008
:10240000CBFD4E49434806F0C7FD4D49414806F013
:10241000C3FD4C493F4806F0BFFD4B4B03221A70E9
:102420000021102202A807F021FF484B48480293E0
:102430000022484B059302A906F01AF802A8FEF7FD
:1024400053FAE37800936378A278217802A800F029
:10245000E7F8414904462F4806F09EFD3F492D48C4
:1024600006F09AFD3E4BFF221B68214602A89847C2
:1024700006B0BDE8704000F03BB92A46394925480E
:1024800006F08AFD3849234806F086FD3749214881
:1024900006F082FD36491F4806F07EFD35491D488D
:1024A000782206F079FD0025274B2946102202A844
:1024B0001D7007F0DBFE304B254802932A46254B62
:1024C000059302A905F0D4FF02A8FEF70DFA2B49E7
:1024D000104806F061FD2A4B01241C70294B1D7029
:1024E0001F4D0E26224601342B688DF8086001210D
:1024F00002A8E4B29847042CF4D100F0A5F9B7E79C
:10250000EC1C0020ED1C0020F01C0020268201089D
:1025100049820108D01C0020F41C002068820108B8
:102520007F820108FA6C010891820108F56E0108AA
:102530001C6F0108376F0108A38201086D6F010845
:102540008A6F0108D7820108BE1B0020050B000816
:10255000141C0020E86A0108EB82010814830108BA
:10256000AC230020328301084D83010874830108E5
:1025700099830108BE83010831110008E383010833
:10258000BD1B0020061C002013B50B4B0B4C1A780A
:102590000B4B1A704FF416530093032200230221B1
:1025A000204605F00FFB074A0749204602B0BDE868
:1025B000104002F037BA00BFBE1B0020141C0020E0
:1025C000BF1B0020C801002081020008007870476E
:1025D000013070470523037041700220704770B5C9
:1025E000049E0446042020706170A270E37030469F
:1025F00008F086FAC2B2054601323146201D07F0C6
:102600001FFD681DC0B270BD07230370417082704A
:1026100003207047092303704170827003207047C4
:1026200010B5C3700F249DF808300470417082709B
:102630000371052010BD37B505460C2305F8013B95
:102640000846019108F05CFAC4B2642C28BF6424E7
:10265000621C0199D2B2284607F0F2FCA01CC0B25D
:1026600003B030BD37B505460D2305F8013B0846DC
:10267000019108F045FAC4B2642C28BF6424621C9E
:102680000199D2B2284607F0DBFCA01CC0B203B00F
:1026900030BD37B50B4611460D224370054602701A
:1026A0000846019108F02CFAC4B2632C28BF6324B9
:1026B000621C0199D2B2A81C07F0C2FCE01CC0B297
:1026C00003B030BD034A012303FA00F01368184336
:1026D00010607047A8230020044901220B6802FA09
:1026E00000F023EA00030B60704700BFA82300201E
:1026F000014B00221A607047A8230020012303FA2F
:1027000000F0024B1B681840704700BFA823002050
:10271000F8B50C4601460A48BDF918701D46164624
:1027200007F08EFC074B1E70074B1D70074B1F8078
:10273000074B1C70BDE8F8400220FFF7C3BF00BF85
:10274000B4230020B8270020B4270020B62700209B
:10275000B92700200520FFF7B5BF0620FFF7B2BF5D
:1027600000487047B4230020014B1878704700BF21
:10277000B8270020014B1878704700BFB927002008
:10278000014BB3F900007047B6270020014B1860D9
:10279000704700BFAC230020014B1860704700BF9A
:1027A000B02300200820FFF78DBF000010B50446BD
:1027B00005F0F8F82046074B40F8283B102200218E
:1027C00007F054FD012384F83830034B2360204682
:1027D00010BD00BF90990108049A0108F0B52DEDD5
:1027E000028B85B00446684608EE102AFEF7AAF868
:1027F000DFED147A68EE277A17EE900A13F0A8F846
:1028000006460D4605F0BCFE636B23B994F83830DC
:102810000BB105F039FC04F128073846FEF764F8DF
:1028200069463846FEF78EF832462B46204605F0BC
:10283000FEF805F0BBFE6846FEF756F805B0BDECA5
:10284000028BF0BD002474491FB510220021684698
:1028500007F00CFD074B084A00936946074B0848F0
:102860000393FFF7BBFF6846FEF73EF805B05DF83F
:1028700004FB00BFA527000800002041E86A01080A
:10288000C027002010B50A4C2046FFF78FFF2046D6
:10289000084C094A094902F0C5F82046FFF786FFAF
:1028A0002046054A0549BDE8104002F0BBB800BF0C
:1028B00000280020C0270020C8010020310900089E
:1028C0000FB407B5064B04AA1B6852F8041BD8685E
:1028D00001920BF007FD03B05DF804EB04B0704704
:1028E00074060020002000F05BBF00002DE9F041DD
:1028F000BDF81C50B5F5806F06460C4690461F4645
:1029000006D322482946FFF7DBFF0620BDE8F08109
:10291000022000F0A1FC08B10720F7E731460220B1
:1029200000F0F6FC4FFA88F1022000F02DFD394648
:10293000022000F047FD0699022000F061FD2146CB
:10294000022000F0C7FC8EB90B3C012C12D80121EB
:10295000022000F0A1FC7DB90121022000F06EFDF3
:1029600000F0D6FD0130D7D00020CFE7012E01D1F5
:102970000C2CECD00021EBE70021022000F05EFDE2
:102980002946022000F078FDEAE700BF0284010832
:102990007047000084B038B504AC84E80F00022012
:1029A000DDE9085400F058FC20B10720BDE83840AC
:1029B00004B070470C2C15D921461148FFF780FF51
:1029C0000C21022000F086FCA5B90B3C012C15D887
:1029D0000121022000F060FC00F09AFD0130E4D0FB
:1029E0000020E3E7052CEFD821460548FFF768FFF4
:1029F0000621E6E7012D01D10C2CE9D00021E8E702
:102A0000928401080FB407B5064B07491B6805AA55
:102A1000D86801920BF066FC03B05DF804EB04B0DB
:102A2000704700BF74060020BB84010884B010B555
:102A300002AC84E80F009DF80D10012905D0BDE817
:102A40001040254804B0FFF7DDBF9DF82930332042
:102A50005BB301F009F840F04101C9B2332000F046
:102A6000F8FF19213B2000F0F4FF9DF827309DF876
:102A70002A402BB31D21112000F0EBFF402000F075
:102A8000F3FF00F03301402000F0E3FF00210F20AE
:102A900000F0DFFF00210D2000F0DBFFD4B10520A6
:102AA000BDE8104004B001F017B800F0DDFF00F001
:102AB000BE0141F00101332000F0CBFF1D21D1E721
:102AC0001F21112000F0C5FF402000F0CDFF00F0D5
:102AD0003F01D8E70620E3E7BB84010884B02DE975
:102AE000F04106AC84E80F000898BDF832609DF80C
:102AF0003450BDF842700B9CDDF8288000F0CCFF0C
:102B00001D2000F0B1FF9DF831309DF8301041EAF2
:102B1000C3019DF8363041EA881141EA430141EA98
:102B20008501C9B21D2000F094FF1E2000F09CFF1B
:102B3000C7F3012100F00C0041EA04110143C9B2BE
:102B40001E2000F086FFF9B21F2000F082FF310A3C
:102B5000202000F07EFFF1B2212000F07AFF25B1A5
:102B60009DF83510222000F074FF9DF837306BB1CE
:102B70004B2000F079FF60F07F01C9B24B2000F0DC
:102B800068FF9DF83810242000F063FF062C4FF0FA
:102B900031000FD100F068FF00F0F80141F00501AD
:102BA000312000F056FF0C21BDE8F041372004B081
:102BB00000F04FBF00F058FF00F0F80141F00301B2
:102BC000312000F046FF0A21EEE78021122000F0BC
:102BD00040BF4021122000F03CBF07B5122000F09A
:102BE00043FF8DF807009DF80700C0F3401003B0C5
:102BF0005DF804FB2021122000F02BBF08B519203E
:102C000000F032FF030643BF4042C0F3850040425C
:102C100040F3870008BD84B010B502AC84E80F0013
:102C20009DF938401A2000F01FFF002CB8BF8B3CE4
:102C30004FEA2013B8BF0019BDE81040A8BF8B3879
:102C4000184400B204B0704738B50546132000F0B0
:102C50000BFF04460146284600F016FF204638BD0B
:102C60000FB407B5064B04AA1B6852F8041BD868BA
:102C700001920BF037FB03B05DF804EB04B0704732
:102C80007406002008B528B90848FFF7E9FF4FF09F
:102C9000FF3008BD402905D90548FFF7E1FF6FF077
:102CA0000100F6E7BDE8084000F0CEBDFA84010857
:102CB00026850108F8B5074601200D4614461E4634
:102CC00000F0CAFA08B10720F8BD3946012000F02B
:102CD0003DFB2946012000F01BFB71B2012000F0F2
:102CE00053FBBDF81810012000F06CFB0799012080
:102CF00000F086FB2146012000F0ECFA65B90B3CA0
:102D0000012C0DD80121012000F0C6FA00F0D2FB01
:102D10000130D8D00020D7E7012D01D10C2CF1D003
:102D20000021F0E784B038B504AC84E80F0001203E
:102D3000DDE9085400F090FA20B10720BDE83840E2
:102D400004B070479DF91C0000F010FC50BB01203E
:102D500000F082FA0028F0D10C2C15D92146124837
:102D6000FFF77EFF0C21012000F0B4FAA5B90B3C5F
:102D7000012C15D80121012000F08EFA00F09AFBF9
:102D80000130DAD00020D9E7052CEFD821460648DB
:102D9000FFF766FF0621E6E7012D01D10C2CE9D0F3
:102DA0000021E8E70120C9E7928401080FB407B5C4
:102DB000064B07491B6805AAD86801920BF092FAE6
:102DC00003B05DF804EB04B0704700BF7406002048
:102DD0006085010884B070B504AC84E80F00092058
:102DE0009DF9404000F040FE06465A2000F03CFEAF
:102DF0009DF8103003F0FD03012B14BF0023802346
:102E0000054606F07F001843030600F0F00127D5C1
:102E1000112CCBBF45F0070505F0F805EDB245F0E4
:102E2000040505F00703072B12D1142CA8BF1424A6
:102E3000052CB8BF0524631F1943C9B2092000F04F
:102E400008FE2946BDE870405A2004B000F001BEDB
:102E5000112CA8BF1124022CB8BF0224A31EEBE73B
:102E60000E2CA8BF0E2444EAE47401342143E4E7A5
:102E700084B008B50DF1080C8CE80F009DF80D101A
:102E8000012905D0BDE80840124804B0FFF78EBF05
:102E90009DF827309BB1F521112000F0DAFD40208C
:102EA00000F0E2FD00F03301402041F0400100F06D
:102EB000D0FDBDE80840032004B000F00DBEF721AE
:102EC000112000F0C6FD402000F0CEFD00F03F01D3
:102ED000EAE700BF6085010884B02DE9F0418AB0BF
:102EE00010AC84E80F009DF94C30089314AD0FCD61
:102EF0006C46159EBDF85A70DDF850800FC495E8F9
:102F00000F0084E80F0010AB0FCBFFF763FF1298A0
:102F100000F0C2FD9DF85F306BB14B2000F0A4FDC6
:102F200060F07F01C9B24B2000F093FD9DF8601066
:102F3000242000F08EFD1D2000F096FD9DF85930F4
:102F40009DF8581041EAC3019DF85C3041EA8811B0
:102F500041EA83019DF85E3041EA4301C9B21D2078
:102F600000F077FD1E2000F07FFD00F00F0141EA28
:102F70000611C9B21E2000F06CFD390A202000F0B5
:102F800068FD2120F9B200F064FD062E4FF03100FB
:102F900010D100F069FD00F0F80141F00501312089
:102FA00000F057FD0C2137200AB0BDE8F04104B015
:102FB00000F04FBD00F058FD00F0F80141F00301B2
:102FC000312000F046FD0A21EDE70821122000F033
:102FD00040BD08B568B1332000F046FD00F0BE01E9
:102FE000332000F036FD19213B20BDE8084000F0F9
:102FF00030BD332000F038FD00F0BE0141F001018A
:10300000332000F026FD1D21EEE738B504462220CE
:103010000D4600F01EFD00210E2000F01AFD0021DB
:103020000D2000F016FD012000F01EFD30F0F80329
:1030300004D100F07FFD012005F052FD2946204615
:10304000BDE8384000F01BBD0FB407B5064B04AA1D
:103050001B6852F8041BD86801920BF043F903B0C7
:103060005DF804EB04B070477406002010B50A4CFC
:1030700021788142024605D00848FFF7E5FF4FF06E
:10308000FF3004E0022001F003F808B9207010BD01
:103090000348FFF7D9FFF2E7B8280020948D010814
:1030A000EA8D010808B5044804F0D9FC00F045FD9C
:1030B000024B01221A7108BD4828002088280020F0
:1030C00013B5174C2379022B03D0032B19D002B070
:1030D00010BDFFF75DFCFFF7E5FF032000F0D8FF10
:1030E000012808D000230F4A0093146819461A4695
:1030F0000120A047EBE70C4802B0BDE81040FFF705
:10310000A3BF204600F05CFD94F8280000F049FDC4
:103110000123237102B0BDE8104000F0E9BF00BFF9
:1031200088280020BC2800206A8D01082DE9F04184
:10313000354C267988B046B134483146FFF784FFD4
:103140004FF0FF3008B0BDE8F081314B1860314BD3
:1031500031481960FFF778FF4FF4807006F00EFFDA
:103160002E4B186028B92E48FFF76EFF6FF0010054
:10317000E8E74FF4FA6262620E2222730B22294BB7
:10318000626108224FF00108A360628304230522D4
:10319000204684F820306285237084F805802677E5
:1031A000E67784F81E8084F82160266184F819800F
:1031B000667784F8228084F8288000F001FD254697
:1031C000014605F8100B1848FFF73EFF0FCD6F467C
:1031D0000FC795E80F0087E80F0094E80F00FFF78E
:1031E000A1FDA5F1100CBCE80F006F460FC795E8D4
:1031F0000F0087E80F0094E80F00FFF7CBFB84F87F
:10320000048030469EE700BF8828002061860108C0
:10321000C0280020BC280020B286010840280020D9
:10322000DF8601082021F6361987010808B5042039
:1032300000F02EFF012805D10648FFF705FF4FF0EB
:10324000FF3008BDFFF72EFF022000F021FF002015
:10325000F7E700BF2F87010838B5054618B90A48B7
:10326000FFF7F2FE05E0094C217829B10848FFF785
:10327000EBFE4FF0FF3004E0084600F009FF08B90C
:10328000257038BD0348EBE73F8B0108B8280020C4
:103290007C8B0108BF8B010838B504460D4600F051
:1032A00021FF0128084B06D11A78A24203D1074B0F
:1032B00000201D7638BD06481A782146FFF7C4FE67
:1032C0004FF0FF30F6E700BFB82800208828002024
:1032D000E08A010838B504460D4600F003FF0128D6
:1032E000084B06D11A78A24203D1074B00205D613A
:1032F00038BD06481A782146FFF7A6FE4FF0FF308A
:10330000F6E700BFB828002088280020818A01083D
:1033100038B504460D4600F0E5FE0128084B06D1FD
:103320001A78A24203D1074B00201D6138BD064820
:103330001A782146FFF788FE4FF0FF30F6E700BF0E
:10334000B828002088280020F38B010838B50446EF
:103350000D4600F0C7FE0128084B06D11A78A2429C
:1033600003D1074B00201D7338BD06481A7821464B
:10337000FFF76AFE4FF0FF30F6E700BFB8280020E5
:10338000882800200589010838B504460D4600F05C
:10339000A9FE0128084B06D11A78A24203D1074B97
:1033A00000205D7638BD06481A782146FFF74CFEAE
:1033B0004FF0FF30F6E700BFB82800208828002033
:1033C000228A010838B504460D4600F08BFE01281C
:1033D000084B06D11A78A24203D1074B00205D8327
:1033E00038BD06481A782146FFF72EFE4FF0FF3011
:1033F000F6E700BFB8280020882800204C8C010880
:1034000038B504460D4600F06DFE0128084B06D184
:103410001A78A24203D1074B00209D6038BD0648B0
:103420001A782146FFF710FE4FF0FF30F6E700BF95
:10343000B8280020882800200C8D010838B50446E3
:103440000D4600F04FFE0128084B07D11A78A24222
:1034500004D1074B002083F8225038BD05481A7864
:103460002146FFF7F1FD4FF0FF30F6E7B8280020C6
:1034700088280020AE8C010838B504460D4600F0BF
:1034800031FE0128084B06D11A78A24203D1074B1E
:1034900000205D8538BD06481A782146FFF7D4FD27
:1034A0004FF0FF30F6E700BFB82800208828002042
:1034B000C5890108F0B589B000F014FE0128114B50
:1034C00018D11F78012F15D10F4E06F1100500F00D
:1034D00037FB0FCD6C460FC495E80F0084E80F0052
:1034E00096E80F00FFF7F8FC3846FFF7BFFD002015
:1034F00009B0F0BD05481978FFF7A6FD4FF0FF3081
:10350000F6E700BFB828002088280020A18801081D
:10351000F0B589B000F0E6FD0128114B18D11F78F5
:10352000022F15D10F4E06F1100500F009FB0FCD4B
:103530006C460FC495E80F0084E80F0096E80F0072
:10354000FFF7CCFA3846FFF791FD002009B0F0BD37
:1035500005481978FFF778FD4FF0FF30F6E700BF18
:10356000B8280020882800203D880108F0B58BB0DD
:10357000044600F0B7FD0128104B17D11F78012F2A
:1035800014D10F4E089406F110050FCD6C460FC4F0
:1035900095E80F0084E80F0096E80F00FFF71AFC8B
:1035A0003846FFF763FD00200BB0F0BD05481978E1
:1035B000FFF74AFD4FF0FF30F6E700BFB8280020C4
:1035C00088280020618901080E4B1B79022B13B556
:1035D00010D1FFF7FAFAFFF765FD032000F058FD60
:1035E000012809D00023084A0093146819461A4696
:1035F0000120A04702B010BD044802B0BDE8104051
:10360000FFF722BD88280020BC280020578701082A
:103610002DE9F041454E3479022C8AB067D1FFF78D
:10362000D8FAFFF7DAFA012829D1FFF7E3FA96F87A
:103630002250ADB9FFF736FD032000F029FD012827
:1036400008D03B4B00951E682A462B46294620464B
:10365000B04711E037480AB0BDE8F041FFF7F4BCCD
:1036600000F040FD0328F5D10023314A009315688E
:1036700019461A462046A8470AB0BDE8F081FFF770
:10368000BDFA06F11005089007460FCD6C460FC431
:1036900095E80F0084E80F0096E80F00FFF7BBFAEB
:1036A000254C80462068FFF7CFFA96F82260054641
:1036B0008EB9FFF7F7FC032000F0EAFC012808D0E0
:1036C0001B4B00971F68216843462A463046B8477F
:1036D000D2E71A48BFE700F005FD0328F9D1144BE3
:1036E00000971E68216843462A460020B0E7032C55
:1036F00014D1134804F0B3F9FFF767FCFFF7D2FCCD
:10370000204600F0C5FC012806D00E4B1B680020A7
:103710000AB0BDE8F04118470B489CE70B4821462A
:103720000AB0BDE8F041FFF78FBC00BF8828002039
:10373000BC2800209A85010840280020D685010871
:1037400048280020C028002011860108458601086D
:103750002DE97043044699460D46904604F010FF4B
:10376000636B23B994F838300BB104F08DFC04F18D
:103770002806AE420BD03046FDF7B6F83EB1EB68F6
:103780001BB15B68294630469847EB686363424645
:103790004B46204604F04BF9BDE8704304F006BFE9
:1037A000F0B506468DB0012000F072FC012806D16C
:1037B0001E48FFF749FC4FF0FF300DB0F0BD1C4B29
:1037C0001C4F18684FF48072002107F1100506F0B5
:1037D0004DFD0FCD6C460FC495E80F0084E80F0037
:1037E00097E80F00FFF722F902233B71E6B11022A0
:1037F000002108A806F03AFD0F4B089330460F4B06
:103800000B9311F0B3FC00220D4B11F029FD12F0C7
:10381000BFF802460B460B4808A9FFF799FF08A816
:10382000FDF762F80020C8E73046C6E78687010842
:103830004028002088280020C1300008E86A0108DC
:1038400000408F4048280020F0B5304C2379032BEE
:103850008FB006460D4606D12D48FFF7F5FB4FF019
:10386000FF300FB0F0BD042000F012FC0128F3D0AF
:10387000FFF718FC0A2005F033F9022000F008FCDD
:10388000012000F005FC012801D12248E5E7637919
:103890001BB1012B03D000270CE01F48DDE794F893
:1038A0002100FFF796FB2946304684F82E50FFF79B
:1038B000ACFB676A194E08970FCE6D460FC596E8A8
:1038C0000F0085E80F0094E80F00FFF7D1FA0323FB
:1038D000102200210AA8237106F0C8FC104B0A939D
:1038E0003846104B0D9311F041FC00220E4B11F0A5
:1038F000B7FC12F04DF802460B460C480AA9FFF738
:1039000027FF0AA8FCF7F0FF0020AAE7882800207C
:10391000AD870108DD870108048801089828002088
:10392000C1300008E86A010800408F4048280020A4
:1039300010B50C4C204604F035F820460A4B40F8F0
:10394000283B1022002106F091FC012384F8383036
:10395000064B23602046064A0649BDE8104001F0A8
:1039600061B800BF4828002090990108049A010816
:10397000C80100203109000810B50446044B40F886
:10398000B83BD4F8C4300BB19B689847204610BDB3
:10399000209B01080FB407B5064B07491B6805AA11
:1039A000D86801920AF09EFC03B05DF804EB04B005
:1039B000704700BF740600204D8E0108F8B50D4C0D
:1039C0000D4F23681646E2681B040D46136040F055
:1039D0008001094804F086FA013D2E44B54205D025
:1039E00015F8011F384604F07DFAF7E7A36822684E
:1039F0001A60F8BD80290020B8290020F8B50E4CC7
:103A00000E4F23681646E2681B040D46136000F053
:103A10007F010A4804F066FA013D2E44B54206D003
:103A20000021384604F05EFA05F8010FF6E7A368B6
:103A300022681A60F8BD00BF80290020B829002044
:103A400010B50446FFF798FF204601F058F92046CC
:103A500010BD07B502AB012203F8011D1946FFF79F
:103A6000ADFF03B05DF804FB07B501220DF10701BE
:103A7000FFF7C4FF9DF8070003B05DF804FB0A469A
:103A800001460020FFF79ABF0A4601460020FFF7D3
:103A9000B5BF00000000000010B511F067FB0CA3DB
:103AA000D3E9002311F006FD11F0B2FE0446C0F385
:103AB00007410620FFF7CDFFC4F307210720FFF7DA
:103AC000C8FFE1B20820BDE81040FFF7C2BF00BF49
:103AD0000000000080844E40144910B50A78044666
:103AE00090B932B901230B70114BDA681B681B04C3
:103AF00013600120FFF7B8FF00F0F8012143012017
:103B0000BDE81040FFF7A5BF094B2AB11A68002095
:103B10000870D96812040A60032C1A6803D0DB68A5
:103B200012041A60E5E79B68FBE700BF942A0020B7
:103B3000642900200120FFF7CFBF0020FFF7CCBF92
:103B400010B504460120FFF78FFFC0F3C010844278
:103B500026D0012C13D0FFF7F0FF0120FFF784FFE0
:103B600000F07F010120FFF774FF00214020FFF7E4
:103B700070FF30214120BDE81040FFF76ABFFFF71A
:103B8000DCFF2046FFF770FF60F07F01C9B22046DE
:103B9000FFF75FFF00214020FFF75BFF0021E9E70F
:103BA00010BD10B504460120FFF7CAFF2CB1342127
:103BB0003920BDE81040FFF74CBF1221F8E70000A4
:103BC0002DE9FF47594C054604F0DAFC0121204657
:103BD00000F000FC04F0EAFC2368E2681B041360B8
:103BE000012004F07DFF04F0CBFC2046002100F012
:103BF000F1FB04F0DBFC062004F072FF2E784C4C45
:103C0000042E1CD104F0BCFC0021204600F0E2FB95
:103C100004F0CCFC012004F063FF63681A68236899
:103C20001A4214BF0126002604F0AAFC20460121F6
:103C300000F0D0FB04F0BAFC012004F051FF23682F
:103C4000E2683C483C4C1B0413603C4B9A681B6880
:103C500013600821002204F023F9394804F032FFF0
:103C60000020FFF739FF1022ACBB2146684606F062
:103C7000FDFA69463348344C04F021F86846FCF7F5
:103C800033FE10227CBB2146684606F0EFFA6946F7
:103C90002E48DFF8C8802E4C04F011F86846FCF777
:103CA00023FE4FF0030900235F1CDBB2D8F800208D
:103CB000B2FBF9F29A421ED903EB430304EB030A69
:103CC000E05CFFF73DFF9AF802109AF80100FFF759
:103CD000C0FE3B46E8E70021684606F0C7FA1D4BE8
:103CE00000940393C5E70021684606F0BFFA194B1C
:103CF00000940393CBE76879174CFFF721FF95F801
:103D00002800FFF74EFF4220FFF7AEFE38B92046ED
:103D1000FFF740FE4FF07E5004F0D4FEF3E7A868B2
:103D2000FFF7BAFE304604B0BDE8F0879C290020BA
:103D300064290020B82900201136000880290020BD
:103D4000CDCCCC3DC4280020C93500081429002062
:103D50001A8E0108E86A01084D8E0108D001002082
:103D600073B5224D224C234E0A21284603F04CFF06
:103D70002846214D2246314600F054FE13212846A4
:103D800003F042FF2246314628461C4D00F04AFE11
:103D90004FF0FF330093062205230721284604F045
:103DA000D3F822461649284600F03CFE154B1C2449
:103DB00022461846002106F059FA162103F0DAFED1
:103DC000114B22461846002106F050FA002103F05C
:103DD000BEFE0E4B22460021184606F047FA21216E
:103DE00002B0BDE8704003F0B2BE00BFC42800209E
:103DF000C8010020617C000814290020B829002097
:103E000079390008802900209C290020642900209D
:103E10000FB407B5064B04AA1B6852F8041BD868F8
:103E200001920AF05FFA03B05DF804EB04B070474A
:103E30007406002013B5084B0024CDE9003401229C
:103E4000082307212046FEF751FDFEF74BFD034BEB
:103E50001C7002B010BD00BF2021F636952A00204C
:103E600010B5044648B9FFF7E1F9FFF7E3FF084B47
:103E70001B682046BDE810401847012807D1FFF70E
:103E8000D5F9FFF7D7FF024B02201B68F2E710BD00
:103E9000D82A00202DE9F041884615461F469DF995
:103EA000186000283BD1202A03D92648FFF7B0FF2D
:103EB0002025254C2A464146204606F0C1F8234BD2
:103EC0001F80234B1E7026782746FEB9214BA4780D
:103ED0001B78A34201D0FF2C1BD1A4F1FF035C424D
:103EE0005C4101261C4B1B78ABB9FFF79FF9FFF72C
:103EF000A1FF012E24D1194B787819492A1F1D687A
:103F0000D2B22346AC46BDE8F041604700242646C5
:103F1000E8E73446E6E71348FFF77AFFE9E70138B8
:103F200001280DD80C4B1B782BB9FFF77FF9BDE8A2
:103F3000F041FFF77FBF0B48BDE8F041FFF768BFD6
:103F4000BDE8F0815A8F0108962A0020E22A00205D
:103F5000E02A0020E42A0020952A0020DC2A002004
:103F60009A2A00209F8F01080A4B10B518700A4B3F
:103F700019600A4B0A491A6004460A48FFF7D6F846
:103F8000094B00225C701A70FFF750F9BDE8104031
:103F9000FFF750BFE42A0020D82A0020DC2A0020A6
:103FA000953E0008613E0008B62A0020F7B5184F7C
:103FB0003C7834B117482146FFF72AFF012003B0AF
:103FC000F0BD1C2905D914482022FFF721FF03204A
:103FD000F5E7124D0E1DAA70F6B20A460146281DDD
:103FE0002C70EE7006F02CF8FFF720F90C4A08232D
:103FF000CDE900322146012307220E20FEF75AFEAA
:1040000031462846FEF73EFE01233B702046D6E7A8
:10401000952A00206F8E0108B08E0108B62A002074
:104020002021F636014BB3F900007047E22A002048
:10403000014B93F900007047E02A002010B5074BB0
:104040001C78012C05D106482146FFF7E1FE2046E9
:1040500010BD044B18700020FAE700BF952A00201D
:10406000FA8E0108E42A00200FB407B5064B074971
:104070001B6805AAD86801920AF034F903B05DF80C
:1040800004EB04B0704700BF7406002014900108D0
:1040900037B501460D480E4A037803EB83052A44E1
:1040A000545C012C06D00B4B2B445B5C0370204608
:1040B00003B030BD0848642202FB030000900748AB
:1040C00002FB01020648FFF7CFFFF0E7E52A0020D8
:1040D00000900108EC8F0108C8030020D4010020E3
:1040E00014900108014B1878704700BFE52A0020A2
:1040F000014B00221A707047E52A002043692DE920
:10410000F0410D46D907044628D58168334F8268AF
:10411000334E836833483940B94202EA060204BF8D
:104120000127A760B24203EA000304BF4FF4807680
:10413000A660834204BF4FF48030A06027488142CC
:1041400005D027498A4202D0264A934206D1264BFF
:10415000264A1B6852F8250001219847E2686369E6
:10416000920708D09F0706D51F4B204A1B6852F8BC
:10417000250000219847A169626963698E070AD505
:10418000900508D5190406D5174B184A1B6852F834
:10419000250005219847A7696669626917F0040739
:1041A00006F4806609D046B1120406D50E4B0F4ABC
:1041B0001B6852F825000721984763695FB156B123
:1041C0001B0408D5084B094A1B6852F82500022138
:1041D000BDE8F0411847BDE8F08100BF03000004CE
:1041E0000003000800000310F02A0020E82A002045
:1041F00000210148FFF782BF00640040FFF7F8BFCD
:10420000FFF7F6BF01210148FFF778BF00680040C3
:10421000FFF7F8BFFFF7F6BF30B5036891FAA1F4D6
:10422000B4FA84F491FAA1F10325B1FA81F16400A2
:1042300005FA04F4490023EA040302FA01F11943E0
:10424000016030BD00B5002389B007286FD8DFE8D2
:1042500000F00413202D3A4754610093364B374841
:104260001A6B42F001021A631B6B03F00103009307
:10427000009B09B05DF804FB01932F4B30481A6B8B
:1042800042F002021A631B6B03F002030193019BCD
:10429000EFE70293284B2B481A6B42F004021A6393
:1042A0001B6B03F004030293029BE2E70393224B90
:1042B00025481A6B42F008021A631B6B03F00803CF
:1042C0000393039BD5E704931B4B20481A6B42F0E2
:1042D00010021A631B6B03F010030493049BC8E7DE
:1042E0000593154B1A481A6B42F020021A631B6B98
:1042F00003F020030593059BBBE706930E4B15487F
:104300001A6B42F040021A631B6B03F040030693E2
:10431000069BAEE70793084B0F481A6B42F08002EA
:104320001A631B6B03F080030793079BA1E70B48FD
:1043300004F08EFC00209CE70038024000000240A0
:104340000004024000080240000C0240001002403D
:104350000014024000180240001C0240E8920108CC
:10436000431C10B5044604D176220649064803F0E2
:10437000CBFE2046002100F00DFE04F00F040120CA
:10438000A04010BD099301086393010870B504466D
:104390004B1C0E46218216D0C1F30310FFF752FFCB
:1043A00005463046FFF7DCFF238A074A656103F0C4
:1043B0000F03206052F82330A36105F11003183574
:1043C0006360A560E56070BD20960108B0F910003B
:1043D00000F078BE0A4619B981694069FFF71CBF31
:1043E0000122F9E74C23F0B54343224E224F1A1D18
:1043F000324400244FF0010E1E448C4205D1014688
:10440000BDE8F0401D4804F023BC33680EFA04F503
:104410001D422BD0136B7D690EFA03F32B4225D07E
:10442000D2F818C07B61156805B3FA6833EA020256
:1044300003D1BA6833EA020214D10F4A916833EA11
:10444000010103D1D26833EA02020DD1DCF8102059
:10445000134214BF01210221094B28461B68BDE805
:10446000F04018470221F7E70121F5E70134043253
:10447000C3E700BFF42A0020003C01409D930108DF
:10448000082D002006210846FFF7ACBF052108468D
:10449000FFF7A8BF01210420FFF7A4BF01210320DB
:1044A000FFF7A0BF01210220FFF79CBF01210846B2
:1044B000FFF798BF01210020FFF794BF012910B535
:1044C00018D11B4C838952B1A26803F00F039940A5
:1044D0001143A160836843F00103836010BDA268AB
:1044E00003F00F03994022EA0101A160836823F0E1
:1044F0000103F2E70229F1D10D4983895AB1CC6851
:1045000003F00F03012202FA03F32343CB60836815
:1045100043F00203E1E7CA6803F00F03012404FA41
:1045200003F322EA0303CB60836823F00203D4E79A
:10453000003C0140B0F90C3099B270B501F00F06A3
:1045400006F00C0404F1804404F59C3401F00301EE
:10455000A56889000F228A40C3F3031325EA0205E8
:104560008B402B43A3600F4B01221968B2401143CB
:1045700019608468E50742BF996811439960A107F3
:1045800042BFD9680A43DA6090F90030002B08DB9B
:104590005909012203F01F0302FA03F3024A42F809
:1045A000213070BD003C014000E100E02DE9F04FFA
:1045B00092464A1C85B080460C4666D00022039283
:1045C000334A344F516C41F480415164526C02F4CF
:1045D00080420392039A04F00F090C2202FB097235
:1045E000C4F303105568062D47D8DFE805F0043AF8
:1045F0003C3E40424400284E0193FFF723FE0C212D
:1046000001FB09F17A1857F801E0244FA8F80C4093
:104610004C21694301247B5892F90820C8F80450C2
:1046200004FA0EF44FF0000B1C4388F80020C8F881
:1046300008B07C50132101FB05E507EB8501019BC8
:104640004B60174BC861C3F800A0164BC1F83490FB
:104650009B681032404643F82260FFF76BFF5846D4
:1046600010E0114EC8E7114EC6E7114EC4E7114ED7
:10467000C2E7114EC0E7114EBEE7114804F0E8FA58
:104680004FF0FF3005B0BDE8F08F0846FAE700BFF5
:1046900000380240C8930108B5440008F42A0020FD
:1046A000082D002000ED00E0AD440008A5440008FE
:1046B0009D440008954400088D4400088544000886
:1046C000769301088389184A03F00F03012110B57E
:1046D00001FA03F39468DB431C409460D4681C40E7
:1046E000D46014682340136090F90030002B0CDB79
:1046F0005A0903F01F0301FA03F320320B4941F872
:104700002230BFF34F8FBFF36F8F90F90030002B33
:1047100009DB5A09012103F01F0301FA03F3603298
:10472000024941F8223010BD003C014000E100E0A8
:10473000838903F00F020C235343104A70B5446879
:10474000D658FFF7BFFF4C210D4A6143012000FA04
:1047500006F55058132303FB046320EA050050506C
:1047600002EB830000214160981D0C3302EB8000B6
:1047700002EB83034160596070BD00BFC89301081C
:10478000F42A002008B503F07DF8002008BD0000E1
:1047900008B50A4B1B684BB103F0F0F904F015F9AA
:1047A0004FF47A72002311F0A3F808BD03F0BEF8AD
:1047B0004FF47A73B0FBF3F008BD00BF0C2D00205E
:1047C00010B588B003F0DCFE052101A803F0D2F992
:1047D0000424039B019A1A60962004F081F9019B3E
:1047E000049A1B041360962004F07AF9013CF0D17E
:1047F0000424039B019A1A604FF4C87004F070F906
:10480000019B049A1B0413604FF4C87004F068F90C
:10481000013CEED1DCE7000070B50D46A0B00446C7
:1048200003F0AEFE2B462246802168460BF0A8F925
:10483000051E03DC03F0BAFE20B070BD094B1B68F7
:1048400023B903220221084800F090FE064E0024FE
:104850001DF804103046013401F06AF8A542F7D182
:10486000E8E700BF542D0020FC2E00200FB407B550
:1048700004A951F8040B0191FFF7CEFF03B05DF8D6
:1048800004EB04B07047000008B502F0A9FF01F086
:10489000ADF802F095FF02F0A3FF024B01221A606F
:1048A00008BD00BF0C2D00200020704703680122C6
:1048B0001B6900211847036800221B69114618472D
:1048C00003681B69184703689B69184703689B6A5C
:1048D000184700290CBF6FF0180000207047012016
:1048E00070471120704770476FF01C0070476FF0E1
:1048F0001500704701207047002070477047000086
:10490000F8B5074E15460C468F18BC4205D014F872
:10491000011B304601F00CF8F7E72846F8BD00BF50
:10492000FC2E002038B58DB215F0010405D00848E2
:1049300000F098FD041C18BF0124EB0605D50448BF
:1049400000F0A6FD08B144F01004204638BD00BFB9
:10495000FC2E002010B5044605F018FB204610BDC3
:1049600010B50C462AB1044800F0D0FF2070012099
:1049700010BD104610BD00BFFC2E002038B51D46EE
:10498000074B0360074B1B68044633B9064800F029
:10499000EDFD2946044800F0B1FD204638BD00BFBA
:1049A00004950108542D0020FC2E002000207047A3
:1049B0000020704708B5012000F036F80C4A136853
:1049C00010B51844EFF30881884205D3094B0C2237
:1049D0001A604FF0FF3010BD07490C6824B1074939
:1049E000096821448842F1D21060184610BD00BF0A
:1049F00058060020C42E0020202D0020242D002049
:104A0000074C08B523680546986804F07FFC2368C6
:104A1000D86804F07BFC0DB1FFF7D2FEFEE700BFC3
:104A2000740600200120704708B5FFF7E9FF012058
:104A30007047002105F090BD04F0A2BC704770479C
:104A400008B5FFF7FBFF08BD08B5FFF7F8FF08BD85
:104A500010B5037803F00303012B04460CD02BB1EF
:104A600040F2A9520549064803F04EFB237843F073
:104A700002032370012010BD002010BD4C950108D9
:104A8000A395010810B5037803F00303022B044635
:104A900005D040F2B1520549054803F035FB2378B3
:104AA00023F0030343F00103237010BD4C9501086C
:104AB000C99501083F2870B504462FDC184D55F8FC
:104AC00020305A1C13D1022811DCFFF771FF034676
:104AD00058B92046FFF76AFF034630B9114E3378C4
:104AE000BFF35B8FDB0704D50F4B45F82430184626
:104AF00070BD3046FFF7ACFF0028F5D04FF41653D9
:104B0000032202210848FFF739FF3046FFF7BAFFBA
:104B1000064A07490448FFF785FFE5E70023E6E773
:104B200058050020102D00201C2D0020C801002059
:104B3000FD48000838B50546FFF7BCFF0B4B0024C5
:104B400043F8254030B904F0A7FA092303604FF079
:104B5000FF3038BD03685B699847051E04DA04F02E
:104B60009BFA6D420560F2E7204638BD58050020EB
:104B7000FFF7E0BF38B50C461546FFF79BFF38B985
:104B800004F08AFA092303604FF0FF34204638BD51
:104B900003682146DB682A469847041EF6DA04F0CB
:104BA0007BFA64420460EFE708B5131E06DA04F0EE
:104BB00073FA162303604FF0FF3008BD04D0FFF7EF
:104BC000D9FF40EAE07008BD184608BD38B50C466C
:104BD0001546FFF76FFF38B904F05EFA092303604A
:104BE0004FF0FF34204638BD036821469B682A46B3
:104BF0009847041EF6DA04F04FFA64420460EFE7C7
:104C0000002A08B503DBBDE80840FFF7DFBF04F06A
:104C100043FA162303604FF0FF3008BD10B5FFF7CD
:104C200049FF044628B904F037FA092303602046F7
:104C300010BD0368DB699847041EF8DA04F02CFA0B
:104C4000644204600024F2E71FB504220C464023AE
:104C50000DEB020101900DF109008DF8083005F00F
:104C6000EFF9214602A804F019FD044630B101987D
:104C7000FFF7D4FF10B12046FFF7DBFE204604B05B
:104C800010BDFFF7CBBF38B50C461546FFF712FF36
:104C900038B904F001FA092303604FF0FF342046CD
:104CA00038BD036821461B692A469847041EF6DA78
:104CB00004F0F2F964420460EFE7FFF7E4BF38B5AF
:104CC0000D46FFF7F7FE044630B904F0E5F9092375
:104CD00003604FF0FF3038BD0368DB699847002858
:104CE00014BF4FF400534FF400436B602368204619
:104CF0009B6A98472861002038BDFFF7E0BF05F0A8
:104D000045B90000034610B553F8042B044602B918
:104D1000036022689A4204D05E220349034803F0EC
:104D2000F3F9206810BD00BF88940108E7940108DA
:104D300010B504460948FFF7E5FF0023084A194665
:104D400052F82300A04208BF42F823100133402B41
:104D5000F6D10248FFF7D6FF10BD00BF142D00208A
:104D60005805002010B50F48FFF7CCFF0E4B032469
:104D700053F824206AB10134402CF9D104F08CF9A5
:104D8000182303600748FFF7BDFF4FF0FF342046AC
:104D900010BD4FF0FF32034843F82420FFF7B2FF65
:104DA000F5E700BF142D00205805002010B504467B
:104DB000FFF7D8FF0028A4BF014B43F8204010BDE7
:104DC0005805002070B506460C46FFF7EFFF054674
:104DD00090B12146FFF738FF044630B9074B53F82E
:104DE0002520964203D143F82500204670BD04F0EB
:104DF00053F909230360F8E70446F6E75805002055
:104E00000EB42DE9F04185B00546FFF7ABFF041E57
:104E100013DB0023294602A8019303F0EDFD02A84D
:104E200003F03CFE1B4D064668B904F035F9132328
:104E3000036045F824604FF0FF34204605B0BDE81C
:104E4000F04103B0704702A803F016FE074602A81F
:104E500037B103F01AFE0190019B45F82430ECE7CE
:104E600003F001FE06460028DFD0036802A8D3F84D
:104E7000088003F0EDFD0B9B024601A93046C047B8
:104E800006460028E8D004F007F97642066045F8A7
:104E90002470D0E75805002073B50E461849054622
:104EA00005F0B2FC044620B9FFF704FE204602B02C
:104EB00070BD1449284605F0A7FC20B90120FFF772
:104EC000F9FD0124F2E71049284605F09DFC20B9C0
:104ED0000220FFF7EFFD0224E8E72B78402B07D1F3
:104EE0000422691C0DEB020005F0AAF8019CDDE725
:104EF00026F400412846FFF783FF0446D6E700BFAB
:104F00001096010817960108089601087047704727
:104F1000074B08499A68084810B5043A52F8044FFC
:104F200041F8044F8142F9D14FF000529A6010BD10
:104F300000ED00E0FCFFFF1FC001002008B5FFF7F7
:104F4000E7FFFFF7A1FCFFF7E2FF08BD08B5FFF799
:104F5000DDFFBDE80840FBF7AFB930B5C36891FA93
:104F6000A1F4B4FA84F491FAA1F10325B1FA81F124
:104F7000640005FA04F4490023EA040302FA01F18B
:104F80001943C16030BD012A02D0022A18BF002295
:104F9000FFF7E3BF2DE9F0410E46411C044604D162
:104FA0003E224449444803F0AFF804F00F08434B55
:104FB000C4F3031053F82850FFF744F906F007072D
:104FC0000446836895FAA5F1B1FA81F195FAA5F244
:104FD0000320490000FA01F1B2FA82F223EA010348
:104FE0005200022101FA02F21343A36087425AD809
:104FF000DFE807F05E1D021DB8F1070FC6F30320BE
:105000003BD9626A2B0A93FAA3F1B1FA81F193FAC0
:10501000A3F34FF00F0EB3FA83F389000EFA01F1F8
:105020009B0022EA010200FA03F3134363623B464A
:10503000226895FAA5F0B0FA80F095FAA5F14FF044
:10504000030EB1FA81F140000EFA00F0490022EAA5
:1050500000028B40013F1343012F236005D8636892
:1050600032074CBF2B43AB436360C6F301122946A2
:105070002046BDE8F041FFF786BF226A95FAA5F306
:10508000B3FA83F395FAA5F14FF00F0EB1FA81F15F
:105090009B000EFA03F3890022EA030200FA01F3EF
:1050A00013432362C3E767220249054803F02CF843
:1050B0000023BDE76096010863930108209601086C
:1050C000579D0108431C70B506460D4604D1882241
:1050D0001B491C4803F018F806F00F021A4BC6F3E0
:1050E000031053F82240FFF7ADF804FB04F2016807
:1050F00002EB42030B40B3FBF2F3013B012B05D85B
:10510000EB1E022B436809D823434360032D08D1CB
:1051100001222146BDE87040FFF735BF23EA0403B2
:105120004360012DF4D0052D01D0022D01D10222C2
:10513000EFE721460022BDE87040FFF70EBF00BF39
:1051400060960108639301082096010870B5A6B027
:105150003422002102A805F089F85C2200210FA862
:1051600005F084F82A4B1D68002D4FD1294C01957C
:1051700001261E60236C43F080532364236C03F0EC
:1051800080530193019B00F05DFC042302A802936D
:105190000895049600F0C0FF10B11F4803F058FDB9
:1051A000A36823F4F813A360A36823F4F813A3609F
:1051B000236F43F48073236720230F930FA84FF4CA
:1051C00080731F9300F058FD10B1144803F040FDA8
:1051D000134B144801221A60134B0360032200236F
:1051E000826041F6FF7243774360C26003614361AE
:1051F000836101F05EF910B10C4803F029FD094804
:1052000001F089FA10B10A4803F022FD26B070BD02
:10521000302D002000380240B8960108D8960108C9
:105220003C0E4742342D0020002800400197010821
:105230001B970108F0B51F4B1F491C681F4A5D688A
:105240008BB00C4015401E460F461868084084423B
:105250002BD158681040854227D105F03F0001F05E
:1052600051FA0490C5F3042001F04CFA013805907E
:10527000280C01F047FA44300690C4F3054001F0D1
:1052800041FA0390C4F3062001F03CFA029004F0C6
:105290007F0001F037FA01220190694601A802F06F
:1052A00051FF00B100980BB0F0BD346875683C4008
:1052B0001540CAE7002800407F7F7F003FFFFF00C6
:1052C000024BD868C0F30010704700BF00280040B0
:1052D000214B224A2DE9F0411D691C689E6AC5F3E5
:1052E0000E05144018461746196811408C422ED1FD
:1052F000996A8E422BD1C4F3054001F003FA0746A8
:10530000C4F3062001F0FEF9804604F07F0001F0AE
:10531000F9F9134A13493C2313FB08004FF4616366
:1053200003FB07001368146898420B683CBF03F541
:10533000A83303F5C0731B1B03440B60106008689F
:10534000013DC00305EB9000801BBDE8F0810468BF
:10535000866A3C40C8E700BF002800407F7F7F008E
:105360002C2D0020282D002030B591B000211422D2
:10537000044602A8019104F079FF03F001F92A4BD9
:105380002A4A1A6007A90122204602F02BFF0028B2
:1053900048D00D9B03B907238DF804300B9B0133D4
:1053A0008DF805300A9B8DF806300C9B443B8DF838
:1053B0000730099B8DF80830089B8DF809300024D0
:1053C000079B8DF80A308DF80B4005940694FFF783
:1053D0007FFF9DF809109DF80A2013483C2313FB1A
:1053E00001229DF808304FF4616101FB0323104A4C
:1053F00013600E4B224601A99D6A01F0B3F810B16B
:105400000C4803F025FC002202A9074801F00AF924
:1054100010B1094803F01CFC044A936A9D42FCD178
:1054200003F0C4F811B030BD342D00200028004036
:105430002C2D0020349701084B9701080FB407B5B5
:10544000064B07491B6805AAD868019208F04AFF75
:1054500003B05DF804EB04B0704700BF7406002091
:10546000629701084368094A9B0182B0D3581A68C1
:10547000120706D5002201921A6801925A68019219
:10548000019A1868C0F3401002B07047482F0020FE
:105490004368034A9B01D3581868C0F3C010704793
:1054A000482F002042681449920110B404685450F7
:1054B000531882685A60C2689A600269DA60426969
:1054C0001A61026A9A610022DA84DA619A84DA85C2
:1054D0009A85B0F91A20013206D108225A6118467D
:1054E0005DF8044B01F0B1BEB0F9182001320CBFD9
:1054F00004220C22F2E700BF482F002010B5816083
:105500000C46FFF7CFFF28B121460348BDE8104005
:10551000FFF794BF10BD00BF62970108124B98427D
:1055200017D0A3F54C43984215D003F580639842F9
:1055300013D003F58063984211D003F5806398423D
:105540000FD003F5444398420CBF05204FF0FF30C5
:1055500070470020704701207047022070470320E9
:1055600070470420704700BF00100140F0B50E46A0
:1055700087B004465B493046154602F037FC5A496D
:105580000746284602F032FC0146384602F008FC85
:105590002060013004D13D225449554802F0B4FD49
:1055A000022E0CD0032D0AD04E49022002F01EFC20
:1055B000874202D14F4803F04BFB002700E0012750
:1055C0004D4B206898424FF000031AD100934B4B8B
:1055D0005A6C42F010025A645B6C03F010030093A3
:1055E000009B474B984229D100230593434B5A6CAB
:1055F00042F020025A645B6C03F020030593059B84
:105600001CE0404A90420BD101933C4B1A6C42F48F
:1056100000321A641B6C03F400330193019BE0E732
:10562000394A904240D10293344B1A6C42F48022A2
:105630001A641B6C03F480230293029BFFF76EFF36
:105640000028606004DAA4222849304802F05CFD9A
:105650002449304602F080FB2349284602F07CFBB7
:10566000721C03D001213046FFF72CFD6B1C03D0C8
:1056700001212846FFF726FD4FF41653A3600023AF
:10568000E360236163612362268365832046FFF71D
:1056900009FF3FB11E4B1F4801221A6021464C22D0
:1056A00004F0CEFC07B0F0BD1B4A90420BD103932F
:1056B000124B1A6C42F400221A641B6C03F4002390
:1056C0000393039BBAE7154A90428AD104930B4B8C
:1056D0001A6C42F480121A641B6C03F48013049356
:1056E000049BABE770920108F89101088C970108C0
:1056F000E8970108049801080010014000380240B2
:10570000001401400044004000480040399801085E
:10571000542D0020FC2E0020004C00400050004082
:10572000002808DB4209012300F01F0003FA00F003
:10573000014B43F82200704700E100E000280DDB38
:105740004309012200F01F0002FA00F02033044A4E
:1057500042F82300BFF34F8FBFF36F8F704700BF36
:1057600000E100E0F7B5FFF7D9FE071E26DB144E77
:1057700056F8270010B3134CBD0163591A6812067E
:1057800006D5DB68190603D50F4B01211B68984726
:1057900063591A68920608D5DB68980605D50A4B46
:1057A00056F827001B680021984763591A681107AB
:1057B00004D55A69D20744BF5B68019303B0F0BDBA
:1057C0005C2D0020482F0020582D00200148FFF7B5
:1057D000C9BF00BF001401400148FFF7C3BF00BFAD
:1057E000005000400148FFF7BDBF00BF004C004023
:1057F0000148FFF7B7BF00BF004800400148FFF76E
:10580000B1BF00BF004400400148FFF7ABBF00BF7D
:1058100000100140034B19604168034B43F82120FD
:10582000704700BF582D00205C2D002030B490E858
:1058300018002C48834233D00AD8A0F50060834278
:1058400028D000F58060834227D0002318460FE05F
:10585000254883420AD000F58060834223D0A0F51A
:1058600044408342F1D1214B352001E0204B2520DB
:10587000204DA401FAB1C9B92959CA6842F02002E1
:10588000CA601D4A00F11001926830BC42F8213014
:10589000FFF746BF194B2620EAE7194B2720E7E719
:1058A000184B3420E4E7184B4720E1E72959CA6830
:1058B00042F08002E4E72B59DA6849B922F020026D
:1058C000DA60DB6813F0800F09D130BCFFF736BF18
:1058D00022F08002DA60DB6813F0200FF4E730BCBE
:1058E000704700BF004C004000100140D95700082D
:1058F00009580008482F002000ED00E0FD5700087F
:10590000F1570008E5570008CD57000838B544683E
:1059100005462846FFF7A6FD0028FAD0A401034B50
:105920001B595868C0F3080038BD00BF482F00203D
:1059300070B5456806460C463046FFF7A9FD0028BD
:10594000FAD0AD01024B5B59C4F308045C6070BD32
:10595000482F002008B50E4AC36D934214D008D8D2
:10596000A2F5806293420FD00A4803F071F900203B
:1059700008BD094A934203D002F580629342F3D1F5
:10598000BDE8084000F04AB9BDE8084000F036B96B
:10599000003C00404B98010800300140DFF830D057
:1059A000002103E00B4B5B58435004310A480B4B7A
:1059B00042189A42F6D30A4A02E0002342F8043B16
:1059C000084B9A42F9D301F01FFEFAF71FFC70470B
:1059D00000000220E8A60108C801002048100020AD
:1059E0004810002010310020FEE7704708B50B4B2F
:1059F0001A6842F400721A601A6842F480621A60EF
:105A00001A6842F480721A60032000F009F80F202F
:105A1000FEF7B8FEFFF7E9FF002008BD003C02409A
:105A2000074AD36823F4E0631B041B0C43F0BF63F5
:105A3000000243F4003300F4E0600343D360704796
:105A400000ED00E0014B01221A60704720000E4279
:105A500037B500230193184B184C1A6C42F0805252
:105A60001A641B6C03F080530193019B144B0122B9
:105A70001A60FEF78DFE05466368DA030BD5114BFD
:105A80000E4C01221A60FEF783FE054663689B03F5
:105A90000AD5002006E0FEF77BFE401BB0F57A7FBA
:105AA000EAD9032003B030BDFEF772FE401BB0F50B
:105AB0007A7FEBD9F5E700BF003802400070004064
:105AC00040000E4244000E422DE9F0410D460446CE
:105AD00010B90120BDE8F081444B1A6802F00F02B2
