:020000040800F2
:10000000000002200D4F0008594F0008594F00080A
:10001000594F0008594F0008594F000800000000D0
:10002000000000000000000000000000594F000820
:10003000594F000800000000594F0008594F0008B0
:10004000594F0008594F0008594F0008594F0008F0
:10005000594F0008594F0008594F0008594F0008E0
:10006000594F0008594F0008594F0008594F0008D0
:10007000594F0008594F0008594F0008594F0008C0
:10008000594F0008594F0008594F00086D370008B4
:1000900071370008594F000861370008594F0008B0
:1000A000594F0008594F0008594F0008594F000890
:1000B000594F0008594F0008594F0008594F000880
:1000C000594F0008594F0008594F0008594F000870
:1000D000594F0008594F0008594F0008594F000860
:1000E000594F0008594F0008594F0008594F000850
:1000F000594F0008594F0008594F0008594F000840
:10010000594F0008594F0008594F0008594F00082F
:10011000594F0008594F0008594F0008594F00081F
:10012000594F0008594F0008594F0008594F00080F
:10013000594F00080000000000000000813700084F
:1001400085370008594F000875370008594F0008D7
:10015000594F0008594F0008594F0008594F0008DF
:10016000594F0008594F0008594F0008594F0008CF
:10017000594F0008594F0008594F0008000000006F
:1001800000000000594F00080000000000000000BF
:10019000594F00080000000000000000594F0008FF
:1001A000000000000000000000000000594F00089F
:1001B000594F0008594F0008594F0008594F00087F
:1001C000594F000810B5054C237833B9044B13B1CF
:1001D0000448AFF300800123237010BD48100020B5
:1001E000000000009092010808B5034B1BB10349C1
:1001F0000348AFF3008008BD000000004C10002051
:1002000090920108A3F5803A704700BF174B002B6E
:1002100008BF134B9D46FFF7F5FF00218B460F46A5
:100220001348144A121A09F0B1FA0E4B002B00D0F1
:1002300098470D4B002B00D0984700200021040068
:100240000D000D48002802D00C4803F0A8FE09F06C
:100250005BF82000290004F031F903F09DFE00BF97
:100260000000080000000000AD440008000002206B
:1002700048100020C03000209F3F00080000000010
:1002800010B5094B036003F1200280330446C0F827
:10029000BC20C0F8C030BC3008F0D8F8204607F0C9
:1002A000B3FB204610BD00BF60860108A0F1BC0072
:1002B000E6E7A0F1C000E3E708B51A4C1A491B486D
:1002C0001B4D08F0FBF81B49184808F0F7F81A49CD
:1002D0001648224608F00FF9144808F0DDF81749CF
:1002E0002278124808F0EAF822781048531E022BB0
:1002F00094BF1349134908F0E1F813490B48FF2351
:100300002B7008F0DBF8207800F0EAF8207801F094
:1003100023FB0E49054808F0D1F800F033F900F04E
:1003200055FEFAE7CC010020685E01082411002088
:1003300064100020B75E0108CE5E0108D15E01089E
:10034000E55E0108035F01081D5F01083D5F0108CC
:1003500010B50446FFF794FF204603F088FF2046BF
:1003600010BDA0F1BC00F3E7A0F1C000F0E7000071
:1003700013B5094C4FF416530093032200230221B6
:10038000204606F0D7FE054A0549204602B0BDE8E2
:10039000104003F0FFBD00BF68100020C80100201E
:1003A000810200080FB407B5064B04AA1B6852F877
:1003B000041BD86801920DF015FA03B05DF804EB48
:1003C00004B070477406002008B5074B1A78074B35
:1003D0001B789A4205D106481146FFF7E3FF01203A
:1003E00008BD0020FCE700BFCD010020D612002090
:1003F000545F0108024B1870062000F07BB900BF63
:100400004211002038B50546FFF7DEFF01280446FB
:1004100005D105482946FFF7C5FF204638BD034BE7
:1004200000241D70F9E700BF935F0108D612002079
:1004300070B50D4E0D4D3378834228BF03461A46E2
:100440000B4829461C4609F08BF83278094B121BE1
:10045000D2B21C7032702AB12919284609F080F8EE
:10046000012070BD1046FCE744110020D716002083
:1004700045110020D512002038B5054610460C461F
:10048000FFF7C0FF012808D1072000F04FF920B185
:10049000BDE83840072000F049B9192C224629460A
:1004A00009D80B4809F05CF80A4B1C70BDE83840CD
:1004B000042000F01FB9084809F052F8074B1A2031
:1004C0001C70FFF7B5FF072000F014F9EEE700BF3E
:1004D00045110020D5120020D7160020441100201D
:1004E00010B50A4B0A4C00221A70207000F018F95F
:1004F000FFF76AFF207800F085F9064801F002FC5A
:10050000BDE81040044801F003BC00BFD612002033
:10051000CD01002079040008F50300082DE9FF4112
:10052000164D1F4695F80080154B144698440E460C
:1005300000F0DDF822460146404609F011F82A781D
:10054000023A1444E4B2012F2C7003D09DF82830F5
:10055000012B10D100F096F9039000F08DF9039B68
:10056000009022460648314601F08EFB002028709C
:1005700004B0BDE8F0810120FAE700BF431100207C
:10058000D712002070B53D4B3D4D1A782C78A24211
:1005900086B018BF1C701CB1012C63D006B070BDB2
:1005A000062000F0C3F878B1364B187800F046F911
:1005B000B0FA80F0400901F08CFB2C70062006B0E8
:1005C000BDE8704000F0A0B8032000F0AFF8E0B143
:1005D00000F042F9059000F045F9064600F046F9B2
:1005E000049000F055F90390304600F066F8C0B270
:1005F000DDE90332059900903046FFF78FFF0320B5
:1006000000F082F82C700320D9E7042000F08EF867
:10061000C8B11D4B07201B78039300F087F8B0FA90
:1006200080F04009039B194900902246184800F0C9
:100630004EF8184B01461A78154800F0F5F80123DA
:100640002B700420BBE7072000F070F80028A5D02D
:10065000042000F04FF81A20FFF7EAFE00289DD191
:100660000720ACE7002000F061F8002896D00026B3
:1006700020462E7001F02AFB3046A0E741110020F1
:100680004011002042110020D51200204511002009
:100690000D120020D6120020024B1A78024B1A705D
:1006A000704700BF40110020411100200078013840
:1006B00001288CBF0020012070470078431E58425B
:1006C000584170470078B0FA80F04009704710B583
:1006D0001C469DF808304270012B18BF022303709E
:1006E0002246023008F03CFFA01CC0B210BD023010
:1006F00070470000034A012303FA00F0136818430F
:1007000010607047D81A0020044901220B6802FAD1
:1007100000F023EA00030B60704700BFD81A0020E6
:10072000014B00221A607047D81A0020012303FAF7
:1007300000F0024B1B681840704700BFD81A002019
:10074000054B1B785A1E012A02D80020FFF7D2BFA2
:100750000BB90120FAE77047DD1A0020F8B507460B
:100760000C4615461E4609F0BBF807EE900AFAEE55
:10077000E07AF5EEC07AF1EE10FA21DD2A46214644
:10078000104808F0EDFE104B1F70104B1D7002F06A
:1007900007FF0F4B187002F0FDFE0E4B18800E4B3A
:1007A00020461E70FFF782FF20B10320BDE8F8400D
:1007B000FFF7A0BF2046FFF785FF08B10220F5E74D
:1007C000F8BD00BFE01A0020DF1A0020141B002033
:1007D000DE1A0020121B0020DC1A00200FB407B51F
:1007E000064B07491B6805AAD86801920CF0FAFF6E
:1007F00003B05DF804EB04B0704700BF740600203E
:10080000B85F010810B50446002007F007FD09F0A5
:100810005FF82046024A0349BDE8104002F05CBE82
:100820005D0700084107000810B5044602F076FE97
:10083000014B22781A7010BDDD1A002010B502F0AD
:10084000B5FE044618B101460248FFF7C7FF20462F
:1008500010BD00BFB85F0108014B1878704700BF9A
:10086000DF1A002000487047E01A0020014B18787A
:10087000704700BF141B0020014BB3F90000704704
:10088000121B0020014B93F900007047DE1A002074
:10089000014B1878704700BFDC1A00200368184726
:1008A0000B68036070477047C36810B504460BB10E
:1008B0009B689847204610BD38B50546064B45F85D
:1008C000283B044606F083FB2846FFF7EDFF204651
:1008D00006F048FB204638BDB485010810B5044633
:1008E000FFF7EAFF204603F0C2FC204610BD0000DF
:1008F00010B5034B03600446FFF7DEFF204610BD32
:100900002886010838B5CB6804460D460BB15B68F4
:100910009847EB68E360204638BD10B50446FFF702
:10092000E7FF204603F0A3FC204610BD10B50C4C99
:10093000204606F0EFFA20460A4B40F8283B1022EA
:10094000002108F023FF012384F83830064B236090
:100950002046064A0649BDE8104003F01BBB00BF15
:10096000181B0020B485010828860108C801002052
:10097000F10800080021084B0A464FF6817001314A
:1009800003291A7058801A715A719A719A601A73F1
:1009900003F11003F3D170475C1B002008B5094B2D
:1009A000DA786AB10849094807F088FD084907481C
:1009B00007F084FDBDE808400649044807F07EBD05
:1009C00008BD00BF7C1C0020F85F01085C1C0020F3
:1009D0002E600108646001082DE9F047A548A64D86
:1009E0009EB007F059FD2B78C1B2002B3DD0A34C2F
:1009F0000D29237801D00A291CD1A14E0022F254DE
:100A000093B132469F499B4807F058FD314602A8F2
:100A100001F0FDF89C4B01461B6802A8FF22984795
:100A20009A49944807F04AFD00232B7023701EB0AA
:100A3000BDE8F087082901D07F290AD1002BF6D024
:100A4000013B934923708B481EB0BDE8F04707F087
:100A500035BD632BEBD85A1C22708648884AD15486
:100A60001EB0BDE8F04707F003BD612900F0D98052
:100A700024DC412900F0D58048390C29D7D80C292D
:100A8000D5D801A353F821F0090D00082F0A00085A
:100A90002F0A00082F0A00082F0A0008C10A0008C0
:100AA0002F0A00082F0A00082F0A0008530C00081C
:100AB0002F0A0008D50A00089B0B00086839DCE7FC
:100AC00074496C4807F0FAFC01232B706B4B002231
:100AD0001A70ACE7704C71496648714D07F0EEFC36
:100AE00022787049634807F0E9FC6378A2786E4980
:100AF000604807F0E3FCE2786C495E4807F0DEFCF2
:100B00002A786B495B4807F0D9FC6A495948142296
:100B100007F0D4FCA3783BB367495648DFF8D8A167
:100B2000DFF8508107F0CAFC06F0B8F900264FF054
:100B30000C094FF47A73B0FBF3F7A378F2B2934247
:100B400012D909FB02424FF47A71D2F8443192F87B
:100B50003C21FB1A4046B3FBF1F35146C3F11403A9
:100B600007F0ACFC0136E8E72B78A3B153494148C4
:100B7000DFF888813F4F07F0A1FC00262A78F3B206
:100B80009A4208D92344414693F82821384607F071
:100B900095FC0136F2E74A4955E73F4F4949354848
:100BA00007F08CFCBB78B3B306F078F9DFF850811E
:100BB000DFF8C0A0DFF84C9100254FF47A73B0FB4A
:100BC000F3F6BA78EBB29A4229D90C2202FB0373EE
:100BD0004146D3F844414FF47A72341B5046B4FB7B
:100BE000F2F493F83C21C4F1140407F067FC84B1DB
:100BF00035492246504607F061FC092C03D8334999
:100C0000504607F05BFC3249504607F057FC01356F
:100C1000D7E74946F4E72F49164807F04FFC2E491D
:100C200011E72E49134807F049FC1B49CB78009384
:100C30004B788A78097802A800F0DEFF124B014653
:100C40001B6802A8FF22984725490A4807F036FC8E
:100C5000EDE6244B24491A780648002A0CBF0122ED
:100C600000221A70214B224A18BF1A4607F026FCB0
:100C70002049E8E65C1C0020F4220020F522002038
:100C8000F6220020E460010860230020F9600108DA
:100C9000166101081A6101087C1C002045610108E9
:100CA000931B00205C6101086A61010880610108F2
:100CB00099610108B5610108D36101080962010861
:100CC000A162010835620108586201086D620108DD
:100CD000146101088D6201089F620108B662010873
:100CE000D6620108E4220020EB620108C660010818
:100CF000A8600108FC620108E3610108286201089C
:100D00004E620108846201080C490D4807F0D6FBC9
:100D10000C490B4807F0D2FB0B49094807F0CEFB02
:100D20000A49074807F0CAFB0949054807F0C6FB0E
:100D30000849034807F0C2FB07496DE73363010820
:100D40005C1C00204C630108736301088E6301087A
:100D5000A9630108C4630108E1630108F7B5294CE0
:100D60000646A078224600232546D9B288421BD9E0
:100D700092F83C11B1421F4602F10C0203F101034B
:100D8000F3D106F08BF80C2202FB07574FF47A736D
:100D9000D7F84421B0FBF3F01B49801A3246B0FB70
:100DA000F3F31A4807F08AFBA8780022D3B29842DE
:100DB0001DD994F83C118E4202F1010204F10C0499
:100DC000F4D10C27AA78013A93420FDA03F1010C0F
:100DD00003FB07732B4403F5987403F59E7393E8A4
:100DE00007005FFA8CF384E80700EBE7AA706B78E2
:100DF0000093AB7806490548324607F05FFB03B025
:100E0000F0BD00BF7C1C0020F96301085C1C0020C1
:100E10002E64010873B50A4D012602460C4628705F
:100E20000B4600960749084807F048FB074B1B682C
:100E300022463146284602B0BDE87040184700BF40
:100E4000E41E0020606401085C1C00206023002078
:100E500073B53F4807F020FBC4B2072000F00AFF3B
:100E600024F02003002840D03A4D2C78012C3CD1AE
:100E7000592BDAB21BD13849354807F01FFB214600
:100E800001A800F093FE354C354B22781B680221F7
:100E900001A8984733492E4807F010FB0620217817
:100EA000FFF7B8FF072000F0D3FE02B070BD4E2A56
:100EB000FBD12D492648294C07F000FB002101A851
:100EC00000F074FE264B22781B6801A80221984787
:100ED00026491F4807F0F2FA002307202B702370E1
:100EE00000F0B6FEFFF746FDDFE7452BDDD1204BD6
:100EF0001E78002ED9D1174D2B78032BD5D11D4C40
:100F000023787BB105F0CAFF1B4B1C491B684FF4CB
:100F10007A72B0FBF2F0C01AB0FBF2F20C4807F0A4
:100F2000CDFA26700D4C0A202178FFF773FF144983
:100F3000074807F0C3FA1349054807F0BFFA002332
:100F40002B70237002B0BDE87040FFF713BD00BFE7
:100F50005C1C0020591B002099640108911B002093
:100F6000602300209C64010812780108BD64010818
:100F7000781C0020921B0020941B0020E6640108CE
:100F800016650108296501080B78F0B50024A0F169
:100F90000C060C27E5B2AB4206D9013407FB04F579
:100FA000755D9542F6D1F0BD132BFCD803EB4303DE
:100FB00000F823200B7803EB430300EB83000123AD
:100FC00083700B7801330B70EDE700002DE9F04FD3
:100FD000AC4BAD4F19783A78AC4D914218BF1A70AE
:100FE0002B7897B063B1AA4AAA49136801338B42A0
:100FF00000F2C6801360A84B1978002900F0FC802D
:10100000082000F037FE002800F09480A34B1A78E7
:10101000002A00F08C8095F80080B8F1000F40F0B5
:1010200086809F499F4883F800809F4CDFF874B208
:1010300007F044FA9D499B4807F040FA9C49264630
:10104000C146C246337B83B1B3790293737901936E
:1010500033790093B6F902303278584607F02EFA09
:1010600009F1010992495FFA89F90AF1010ABAF115
:10107000030F06F11006E5D1B9F1000F03D18D4938
:10108000884807F01BFA8C498648DFF864A2DFF82D
:1010900014B207F013FA8949824807F00FFA884919
:1010A0004FF00009237B23B394F805C02279A0797F
:1010B000B4F90230ACEB020212F0FF0218BF03F1E8
:1010C0001406C0EB403E14BF36B21E46C0EB8E0E77
:1010D00006EB4E0636B2CDE902C0CDE900625846B5
:1010E000227807F0EBF956457549C4BF94F80080A3
:1010F000B24609F10109B9F1030F04F11004D1D18D
:10110000B8F1000F00F098806E4C6F49654884F884
:101110000080424607F0D2F922786C49614807F016
:10112000CDF921780220FFF775FE01233B700820DE
:1011300000F08EFD022000F09DFD002800F01A81D5
:1011400000F0CAFD804600F0CBFD824600F0CEFDE7
:101150000446404600F026FD814600F0CDFDB9F181
:101160000F0F06466FD12B78002B40F07D813B7826
:10117000002B68D0022017B0BDE8F04F00F068BD2A
:101180000024146005F08AFE4FF47A73B0FBF3F08C
:101190004F4B93F802E02246194644F61F6CD4B236
:1011A000A64524D9D3F84441041B6445164603F1EF
:1011B0000C0302F10102F2D90C2303FB0613394898
:1011C00093F83C414349224607F078F90B238DF808
:1011D0001C3000238DF81D303F4B22461B68022136
:1011E00007A898472046FFF7B9FDFFF7D7FB2B78F4
:1011F000002B7FF400AF03E7384A39481368013306
:10120000834201D81360FBE6314C1160E378009310
:101210006378A278217807A800F0EEFC6378A278C2
:10122000304906461F4807F049F92B4BFF221B683F
:10123000314607A89847E3E62B491A4807F03EF9DC
:10124000FFF798FB73E74A46CDE9006A274915483E
:101250002346A9F1020907F031F9B9F10E0F00F2A6
:101260008680DFE819F03F0184005E01BD00D901EE
:1012700091028400D702D3004700CA0084006400B2
:101280000101FC005A1B0020591B0020781C002083
:101290009C1B002040420F00E4220020581B00202D
:1012A000B26501085C1C00205C1B0020EC65010895
:1012B0001266010842660108576601087C6601084B
:1012C000A0660108911B0020DB6601080167010888
:1012D0007C1C002053650108602300208C1B00202B
:1012E000404B4C007E6501081C67010842670108FD
:1012F00018FCFFFF2C78002C39D1A549A54807F030
:10130000DDF8A549A34807F0D9F8A449A14807F09A
:10131000D5F8A34B3C701C70A24B1C70A24B1C60F8
:10132000FFF728FBA1499B4807F0C8F81FE02B787E
:10133000EBB1334622469E49964807F0BFF89D49D7
:10134000944807F0BBF89C49CB7800934B788A7897
:10135000097807A800F050FC984B014622461B680C
:1013600007A89847964922468A4807F0A7F802201E
:1013700000F06EFC2978002940F061823B78022B56
:1013800000F05682032B00F06582002B40F057825C
:101390008C4A8D49136801338B42136040F24F82AF
:1013A0008A4D2C78002C40F04A8289497948146093
:1013B00007F084F8FFF7DEFA864B01210E201C703F
:1013C0002970FFF727FD02210E20FFF723FD0321DF
:1013D0000E20FFF71FFD17B0BDE8F04F00F0F0BC86
:1013E0002B78002BC3D0404600F0DEFB0378012BA6
:1013F0000CBF794979492246B6E72B78002BB6D144
:10140000404600F0D1FB76490246ADE72B78002B31
:10141000ADD0224673495F4807F050F8664B987884
:101420000022D1B2884240F24B8293F83C118C42A8
:1014300002F1010203F10C03F3D12046FFF78EFC09
:1014400010238DF81C3001238DF81D305B4B224694
:101450001B68022107A89847FFF7A0FA87E72B78B7
:10146000002B84D160495EE729783B7851EA030B71
:101470007FF47DAF554B1B78002B3FF478AF40468F
:1014800000F092FB90F800A090F8028090F8039092
:10149000447856493F48009433465246CDE9018985
:1014A00007F00CF8524B59461A461878504501D0AF
:1014B000187B88B90B0102EB011102F803A001238C
:1014C0004E800C7181F8058081F806900B73414ABB
:1014D0001378013313704AE70131032903F1100334
:1014E000E3D1F4E72B78002B3FF441AF4149294881
:1014F000224606F0E3FF30490B1D0093CB784A7873
:10150000897807A800F057FB3B4906462246214848
:1015100006F0D4FF294B1B682246314607A898479E
:1015200025E72B78002B7FF422AF3B78012B7FF44B
:101530001EAF22463149174806F0C0FF404600F072
:1015400033FB2F49437890F8008086780593044652
:10155000104806F0B3FFE21C2A490E4806F0AEFF21
:10156000059B29490B48424606F0A8FF3246274909
:10157000084806F0A3FF14222549064806F09EFFFE
:101580002449044806F09AFF072000F057FBEEE6D6
:101590008C6701085C1C0020B9670108ED67010831
:1015A000911B0020921B0020941B00200D68010855
:1015B000336801086F6801087C1C0020602300204C
:1015C00096680108E822002000350C00581B002016
:1015D000ED6D0108981B0020BE680108EE68010847
:1015E0001A690108316901085E690108806901080A
:1015F0005C1B0020BE690108EE690108156A01083C
:10160000406A0108B56E01084A6401085C6A010875
:10161000F86401086F6A01082B78002B3FF4A7AE2D
:101620002246A949A948DFF82C9306F047FFA849AC
:10163000A64806F043FF99F80010A6480022D3B24E
:1016400099421CD910F8016BB442134602F1010211
:10165000F5D1A1499D48224606F030FF0122002124
:1016600006A800F0BDFA9D4980462246974806F03C
:1016700025FF9B4B22461B68414606A84FE7994E23
:1016800092480B462246984906F018FFB2787378C4
:101690009A422AD3F07833460022D1B2884240F2EF
:1016A000FC8093F878118C4202F1010203F10C03E3
:1016B000F3D10222002106A800F092FADFF88C9202
:1016C0008A4999F8003022468046804806F0F6FEA6
:1016D000F27899F8001007A800F088FA804B0146CC
:1016E0001B68224607A89847C3E799F80030F2180C
:1016F000012182F828410C2202FB036206F59E704C
:101700000B4482F8391082F83840B11C224689F81F
:101710000030FFF739FCB07832460023D9B2884256
:1017200018D992F83C118C42984602F10C0203F150
:101730000103F3D105F0B2FB0C2303FB08686C49ED
:101740004FF47A732246B0FBF3F0C8F844015F48C7
:1017500006F0B4FE0022012106A800F041FA22465C
:1017600064498046594806F0A9FE63495748142247
:1017700006F0A4FE99F8003000937378B2785F49C0
:10178000524806F09BFE74E72B78002B7FF4EFADF8
:10179000404600F009FA0678F6B159494B4806F080
:1017A0008DFE5849494806F089FE1422564947489B
:1017B00006F084FE5549454806F080FE03233B7041
:1017C000534B01221A7005F069FB4FF47A73B0FB9A
:1017D000F3F0504B1860CAE54478012C11D14E4902
:1017E0003A4806F06BFE4D49384806F067FE4C4912
:1017F000364806F063FE4B4B3E701E70FFF7BAF89A
:10180000B5E5022C7FF4B3AD4749304806F056FEEB
:101810003C70ACE52B78002B7FF4A9AD404600F07E
:10182000C3F9424943780278284806F047FE9EE50E
:101830003F4A404813680133834203D8136017B00E
:10184000BDE8F08F116021483B4917B0BDE8F04F6B
:1018500006F034BE394A3A481368013383421360B4
:10186000EDD92B4B1B78002BE9D0116005F016FB4E
:10187000284B1B6803F59C4320334FF47A72B0FB6E
:10188000F2F01B1A9342DAD3B3FBF2F22D490F4860
:1018900017B0BDE8F04F06F011BE2B49224601F209
:1018A0007510FFF771FB294A13780133DBB213700F
:1018B000F2780C21013A01FB026282F87B31F8E6F2
:1018C0002349224650E500BFA16A01085C1C0020A4
:1018D000D66A0108A41D0020FF6A0108356B0108C3
:1018E000602300207C1C0020766B0108B06B01088F
:1018F000DD6B0108086C01083B6C01085F6C010896
:10190000996C0108CA6C0108F8640108F06C0108C0
:10191000921B0020941B0020146D0108546D0108D7
:10192000C7640108911B0020816D0108C06D01088A
:10193000EC22002040420F002B7F0108F022002003
:10194000404B4C001C6E01087F1C0020901B0020A7
:10195000406E0108931B002070B5441EE4B2022CB7
:10196000604B8CBF0022012286B006461A70FFF73A
:1019700001F8022C77D85C4C5C49267000250523C1
:1019800032466580201D637008F056F904F59471A5
:101990002B462A4604EB830003333C2B01F8012B32
:1019A000C0F84421F6D152495248324606F086FD2D
:1019B000514A52494F4806F081FD627850494D48DE
:1019C00006F07CFD14224F494A4806F077FD4E4947
:1019D000484806F073FD4D49464806F06FFD4C49F6
:1019E000444806F06BFD4B49424806F067FD4A4902
:1019F000404806F063FD49493E4806F05FFD48490E
:101A00003C4806F05BFD474B03221A700021102270
:101A100002A807F0BBFE444B444802930022444B0B
:101A2000059302A905F0B6FF02A8FEF73DFFE37893
:101A300000936378A278217802A800F0DDF83D4990
:101A400004462C4806F03AFD3B492A4806F036FD8C
:101A50003A4BFF221B68214602A8984706B0BDE812
:101A6000704000F001B932463549224806F026FDA3
:101A70003449204806F022FD33491E4806F01EFD79
:101A800032491C48142206F019FD0025254B294631
:101A9000102202A81D7007F079FE2D4B23480293F7
:101AA0002A46234B059302A905F074FF02A8FEF70E
:101AB000FBFE28490F4806F001FD274B01241C704E
:101AC000264B1D701D4D0E26224601342B688DF8C5
:101AD0000860012102A8E4B29847042CF4D100F078
:101AE0006FF9BBE7781C00207C1C00206D6E01089C
:101AF000906E01085C1C0020801C0020AF6E010865
:101B0000C66E0108B5610108D86E01084C63010872
:101B1000736301088E630108EA6E0108C46301085B
:101B20001E6F0108591B0020D9090008A01B0020C6
:101B3000EC5F0108326F01085B6F01086023002031
:101B4000796F0108946F0108BB6F0108E06F01080D
:101B5000510E000805700108581B0020981B00203A
:101B600013B50B4B0B4C1A780B4B1A704FF41653E2
:101B70000093032200230221204605F0DBFA074AE6
:101B80000749204602B0BDE8104002F003BA00BF8A
:101B9000591B0020A01B00205A1B0020C801002058
:101BA00081020008007870470130704705230370F8
:101BB00041700220704770B5049E044604202070D6
:101BC0006170A270E370304608F01AFAC2B205469E
:101BD00001323146201D07F0C3FC681DC0B270BD44
:101BE000072303704170827003207047092303703C
:101BF000417082700320704710B5C3700F249DF8A8
:101C000008300470417082700371052010BD37B533
:101C100005460C2305F8013B0846019108F0F0F950
:101C2000C4B2642C28BF6424621C0199D2B2284635
:101C300007F096FCA01CC0B203B030BD034A0123DC
:101C400003FA00F013681843106070475C2300200B
:101C5000044901220B6802FA00F023EA00030B603A
:101C6000704700BF5C230020014B00221A607047C0
:101C70005C230020012303FA00F0024B1B6818408C
:101C8000704700BF5C230020F8B50C4601460A48A7
:101C9000BDF918701D46164607F062FC074B1E7012
:101CA000074B1D70074B1F80074B1C70BDE8F840A9
:101CB0000220FFF7C3BF00BF682300206C2700206D
:101CC000682700206A2700206D2700200520FFF7E5
:101CD000B5BF0620FFF7B2BF004870476823002059
:101CE000014B1878704700BF6C270020014B187813
:101CF000704700BF6D270020014BB3F9000070470B
:101D00006A270020014B1860704700BF6023002045
:101D1000014B1860704700BF642300200820FFF7C4
:101D20008DBF000010B5044605F0F4F82046074BBF
:101D300040F8283B1022002107F028FD012384F8F9
:101D40003830034B2360204610BD00BFB485010826
:101D500028860108F0B52DED028B85B00446684653
:101D600008EE102AFEF7CEFDDFED147A68EE277A32
:101D700017EE900A13F06CF806460D4605F092FE39
:101D8000636B23B994F838300BB105F035FC04F1DE
:101D900028073846FEF788FD69463846FEF7B2FD4B
:101DA00032462B46204605F0FAF805F091FE6846CB
:101DB000FEF77AFD05B0BDEC028BF0BD002474493E
:101DC0001FB510220021684607F0E0FC074B009386
:101DD0004FF08042064B074803936946FFF7BAFF6E
:101DE0006846FEF761FD05B05DF804FB1D1D0008A7
:101DF000EC5F01087027002010B50A4C2046FFF761
:101E000091FF2046084C094A094902F0C3F82046D0
:101E1000FFF788FF2046054A0549BDE8104002F05B
:101E2000B9B800BFB027002070270020C8010020EB
:101E3000F10800080FB407B5064B04AA1B6852F856
:101E4000041BD86801920BF0CDFC03B05DF804EBE5
:101E500004B0704774060020002000F05BBF000053
:101E60002DE9F041BDF81C50B5F5806F06460C46D3
:101E700090461F4606D322482946FFF7DBFF06207F
:101E8000BDE8F081022000F0A1FC08B10720F7E7CF
:101E90003146022000F0F6FC4FFA88F1022000F0F3
:101EA0002DFD3946022000F047FD0699022000F082
:101EB00061FD2146022000F0C7FC8EB90B3C012CCD
:101EC00012D80121022000F0A1FC7DB901210220DD
:101ED00000F06EFD00F0D6FD0130D7D00020CFE736
:101EE000012E01D10C2CECD00021EBE700210220C7
:101EF00000F05EFD2946022000F078FDEAE700BF11
:101F0000247001087047000084B038B504AC84E840
:101F10000F000220DDE9085400F058FC20B1072032
:101F2000BDE8384004B070470C2C15D92146114843
:101F3000FFF780FF0C21022000F086FCA5B90B3CC6
:101F4000012C15D80121022000F060FC00F09AFD60
:101F50000130E4D00020E3E7052CEFD82146054806
:101F6000FFF768FF0621E6E7012D01D10C2CE9D02F
:101F70000021E8E7B47001080FB407B5064B074924
:101F80001B6805AAD86801920BF02CFC03B05DF821
:101F900004EB04B0704700BF74060020DD70010838
:101FA00084B010B502AC84E80F009DF80D10012933
:101FB00005D0BDE81040254804B0FFF7DDBF9DF80F
:101FC000293033205BB301F009F840F04101C9B278
:101FD000332000F0F8FF19213B2000F0F4FF9DF8BA
:101FE00027309DF82A402BB31D21112000F0EBFF74
:101FF000402000F0F3FF00F03301402000F0E3FF49
:1020000000210F2000F0DFFF00210D2000F0DBFF9A
:10201000D4B10520BDE8104004B001F015B800F0BF
:10202000DDFF00F0BE0141F00101332000F0CBFFE5
:102030001D21D1E71F21112000F0C5FF402000F035
:10204000CDFF00F03F01D8E70620E3E7DD7001088F
:1020500084B02DE9F04106AC84E80F000898BDF883
:1020600032609DF83450BDF842700B9CDDF828803A
:1020700000F0CAFF1D2000F0B1FF9DF831309DF83F
:10208000301041EAC3019DF8363041EA881141EA37
:10209000430141EA8501C9B21D2000F094FF1E20D2
:1020A00000F09CFFC7F3012100F00C0041EA04118D
:1020B0000143C9B21E2000F086FFF9B21F2000F0D4
:1020C00082FF310A202000F07EFFF1B2212000F0D3
:1020D0007AFF25B19DF83510222000F074FF9DF89D
:1020E00037306BB14B2000F079FF60F07F01C9B24F
:1020F0004B2000F068FF9DF83810242000F063FFAB
:10210000062C4FF031000FD100F068FF00F0F8010D
:1021100041F00501312000F056FF0C21BDE8F041EF
:10212000372004B000F04FBF00F058FF00F0F80176
:1021300041F00301312000F046FF0A21EEE7802143
:10214000122000F040BF4021122000F03CBF07B534
:10215000122000F043FF8DF807009DF80700C0F340
:10216000401003B05DF804FB2021122000F02BBFCB
:1021700008B5192000F032FF030643BF4042C0F308
:102180008500404240F3870008BD84B010B502AC22
:1021900084E80F009DF938401A2000F01FFF002C42
:1021A000B8BF8B3C4FEA2013B8BF0019BDE8104000
:1021B000A8BF8B38184400B204B0704738B5054644
:1021C000132000F00BFF04460146284600F016FFDE
:1021D000204638BD0FB407B5064B04AA1B6852F859
:1021E000041BD86801920BF0FDFA03B05DF804EB14
:1021F00004B070477406002008B528B90848FFF7F6
:10220000E9FF4FF0FF3008BD402905D90548FFF729
:10221000E1FF6FF00100F6E7BDE8084000F0CEBD39
:102220001C71010848710108F8B5074601200D46E8
:1022300014461E4600F0CAFA08B10720F8BD394618
:10224000012000F03DFB2946012000F01BFB71B28C
:10225000012000F053FBBDF81810012000F06CFBCA
:102260000799012000F086FB2146012000F0ECFADE
:1022700065B90B3C012C0DD80121012000F0C6FAF4
:1022800000F0D2FB0130D8D00020D7E7012D01D1DA
:102290000C2CF1D00021F0E784B038B504AC84E810
:1022A0000F000120DDE9085400F090FA20B107206A
:1022B000BDE8384004B070479DF91C0000F010FCE8
:1022C00050BB012000F082FA0028F0D10C2C15D967
:1022D00021461248FFF77EFF0C21012000F0B4FADE
:1022E000A5B90B3C012C15D80121012000F08EFA74
:1022F00000F09AFB0130DAD00020D9E7052CEFD8A6
:1023000021460648FFF766FF0621E6E7012D01D1C9
:102310000C2CE9D00021E8E70120C9E7B4700108DE
:102320000FB407B5064B07491B6805AAD868019288
:102330000BF058FA03B05DF804EB04B0704700BF2F
:10234000740600208271010884B070B504AC84E882
:102350000F0009209DF9404000F040FE06465A203B
:1023600000F03CFE9DF8103003F0FD03012B14BF7C
:1023700000238023054606F07F001843030600F083
:10238000F00127D5112CCBBF45F0070505F0F80566
:10239000EDB245F0040505F00703072B12D1142C0C
:1023A000A8BF1424052CB8BF0524631F1943C9B264
:1023B000092000F008FE2946BDE870405A2004B00C
:1023C00000F001BE112CA8BF1124022CB8BF0224BA
:1023D000A31EEBE70E2CA8BF0E2444EAE4740134DC
:1023E0002143E4E784B008B50DF1080C8CE80F0038
:1023F0009DF80D10012905D0BDE80840124804B031
:10240000FFF78EBF9DF827309BB1F521112000F01A
:10241000DAFD402000F0E2FD00F03301402041F001
:10242000400100F0D0FDBDE80840032004B000F0FA
:102430000BBEF721112000F0C6FD402000F0CEFDBC
:1024400000F03F01EAE700BF8271010884B02DE986
:10245000F0418AB010AC84E80F009DF94C3008932D
:1024600014AD0FCD6C46159EBDF85A70DDF8508046
:102470000FC495E80F0084E80F0010AB0FCBFFF7F7
:1024800063FF129800F0C0FD9DF85F306BB14B20E8
:1024900000F0A4FD60F07F01C9B24B2000F093FD75
:1024A0009DF86010242000F08EFD1D2000F096FDA8
:1024B0009DF859309DF8581041EAC3019DF85C30F1
:1024C00041EA881141EA83019DF85E3041EA430107
:1024D000C9B21D2000F077FD1E2000F07FFD00F046
:1024E0000F0141EA0611C9B21E2000F06CFD390A45
:1024F000202000F068FD2120F9B200F064FD062ED6
:102500004FF0310010D100F069FD00F0F80141F00A
:102510000501312000F057FD0C2137200AB0BDE83D
:10252000F04104B000F04FBD00F058FD00F0F8019C
:1025300041F00301312000F046FD0A21EDE70821BA
:10254000122000F040BD08B568B1332000F046FD10
:1025500000F0BE01332000F036FD19213B20BDE81C
:10256000084000F030BD332000F038FD00F0BE011F
:1025700041F00101332000F026FD1D21EEE738B5C2
:10258000044622200D4600F01EFD00210E2000F022
:102590001AFD00210D2000F016FD012000F01EFDA7
:1025A00030F0F80304D100F07DFD012005F02AFD94
:1025B00029462046BDE8384000F01BBD0FB407B5E2
:1025C000064B04AA1B6852F8041BD86801920BF052
:1025D00009F903B05DF804EB04B0704774060020FD
:1025E00010B50A4C21788142024605D00848FFF711
:1025F000E5FF4FF0FF3004E0022001F001F808B9D8
:10260000207010BD0348FFF7D9FFF2E768280020CB
:10261000B67901080C7A010808B5044804F0D7FC23
:1026200000F043FD024B01221A7108BDF82700207B
:102630003828002013B5174C2379022B03D0032B25
:1026400019D002B010BDFFF75DFCFFF7E5FF0320D6
:1026500000F0D6FF012808D000230F4A0093146829
:1026600019461A460120A047EBE70C4802B0BDE826
:102670001040FFF7A3BF204600F05AFD94F8280051
:1026800000F047FD0123237102B0BDE8104000F0C7
:10269000E7BF00BF382800206C2800208C79010893
:1026A0002DE9F041354C267988B046B134483146A1
:1026B000FFF784FF4FF0FF3008B0BDE8F081314BE9
:1026C0001860314B31481960FFF778FF4FF4807084
:1026D00006F0E6FE2E4B186028B92E48FFF76EFF75
:1026E0006FF00100E8E74FF4FA6262620E22227393
:1026F0000B22294B626108224FF00108A36062831C
:1027000004230522204684F820306285237084F853
:1027100005802677E67784F81E8084F8216026619C
:1027200084F81980667784F8228084F8288000F085
:10273000FFFC2546014605F8100B1848FFF73EFF41
:102740000FCD6F460FC795E80F0087E80F0094E89C
:102750000F00FFF7A1FDA5F1100CBCE80F006F46BC
:102760000FC795E80F0087E80F0094E80F00FFF708
:10277000CBFB84F8048030469EE700BF3828002059
:1027800083720108702800206C280020D472010890
:10279000F0270020017301082021F6363B73010861
:1027A00008B5042000F02CFF012805D10648FFF7EA
:1027B00005FF4FF0FF3008BDFFF72EFF022000F0AD
:1027C0001FFF0020F7E700BF5173010838B5054629
:1027D00018B90A48FFF7F2FE05E0094C217829B143
:1027E0000848FFF7EBFE4FF0FF3004E0084600F02A
:1027F00007FF08B9257038BD0348EBE7617701088A
:10280000682800209E770108E177010838B5044662
:102810000D4600F01FFF0128084B06D11A78A2428E
:1028200003D1074B00201D7638BD06481A78214693
:10283000FFF7C4FE4FF0FF30F6E700BF6828002026
:10284000382800200277010838B504460D4600F00C
:1028500001FF0128084B06D11A78A24203D1074B89
:1028600000205D6138BD06481A782146FFF7A6FEB4
:102870004FF0FF30F6E700BF68280020382800201E
:10288000A376010838B504460D4600F0E3FE0128A2
:10289000084B06D11A78A24203D1074B00201D61D4
:1028A00038BD06481A782146FFF788FE4FF0FF3002
:1028B000F6E700BF682800203828002015780108B6
:1028C00038B504460D4600F0C5FE0128084B06D178
:1028D0001A78A24203D1074B00201D7338BD064869
:1028E0001A782146FFF76AFE4FF0FF30F6E700BF87
:1028F00068280020382800202775010838B50446CC
:102900000D4600F0A7FE0128084B06D11A78A24216
:1029100003D1074B00205D7638BD06481A78214662
:10292000FFF74CFE4FF0FF30F6E700BF68280020AD
:10293000382800204476010838B504460D4600F0DA
:1029400089FE0128084B06D11A78A24203D1074B11
:1029500000205D8338BD06481A782146FFF72EFE19
:102960004FF0FF30F6E700BF68280020382800202D
:102970006E78010838B504460D4600F06BFE01285C
:10298000084B06D11A78A24203D1074B00209D6064
:1029900038BD06481A782146FFF710FE4FF0FF3089
:1029A000F6E700BF68280020382800202E790108AB
:1029B00038B504460D4600F04DFE0128084B07D1FE
:1029C0001A78A24204D1074B002083F8225038BD68
:1029D00005481A782146FFF7F1FD4FF0FF30F6E782
:1029E0006828002038280020D078010838B504462F
:1029F0000D4600F02FFE0128084B06D11A78A2429E
:102A000003D1074B00205D8538BD06481A78214662
:102A1000FFF7D4FD4FF0FF30F6E700BF6828002035
:102A200038280020E7750108F0B589B000F012FEE3
:102A30000128114B18D11F78012F15D10F4E06F127
:102A4000100500F035FB0FCD6C460FC495E80F0064
:102A500084E80F0096E80F00FFF7F8FC3846FFF710
:102A6000BFFD002009B0F0BD05481978FFF7A6FDAD
:102A70004FF0FF30F6E700BF68280020382800201C
:102A8000C3740108F0B589B000F0E4FD0128114BD2
:102A900018D11F78022F15D10F4E06F1100500F046
:102AA00007FB0FCD6C460FC495E80F0084E80F00BC
:102AB00096E80F00FFF7CCFA3846FFF791FD0020AB
:102AC00009B0F0BD05481978FFF778FD4FF0FF30E9
:102AD000F6E700BF68280020382800205F7401084E
:102AE000F0B58BB0044600F0B5FD0128104B17D1AE
:102AF0001F78012F14D10F4E089406F110050FCD49
:102B00006C460FC495E80F0084E80F0096E80F00AC
:102B1000FFF71AFC3846FFF763FD00200BB0F0BD4D
:102B200005481978FFF74AFD4FF0FF30F6E700BF80
:102B30006828002038280020837501080E4B1B7977
:102B4000022B13B510D1FFF7FAFAFFF765FD03204A
:102B500000F056FD012809D00023084A00931468AC
:102B600019461A460120A04702B010BD044802B021
:102B7000BDE81040FFF722BD382800206C28002057
:102B8000797301082DE9F041454E3479022C8AB061
:102B900067D1FFF7D8FAFFF7DAFA012829D1FFF752
:102BA000E3FA96F82250ADB9FFF736FD032000F0A6
:102BB00027FD012808D03B4B00951E682A462B466E
:102BC00029462046B04711E037480AB0BDE8F04139
:102BD000FFF7F4BC00F03EFD0328F5D10023314A95
:102BE0000093156819461A462046A8470AB0BDE862
:102BF000F081FFF7BDFA06F11005089007460FCDEA
:102C00006C460FC495E80F0084E80F0096E80F00AB
:102C1000FFF7BBFA254C80462068FFF7CFFA96F8FD
:102C2000226005468EB9FFF7F7FC032000F0E8FCB0
:102C3000012808D01B4B00971F68216843462A468D
:102C40003046B847D2E71A48BFE700F003FD032833
:102C5000F9D1144B00971E68216843462A4600208C
:102C6000B0E7032C14D1134804F0B1F9FFF767FC67
:102C7000FFF7D2FC204600F0C3FC012806D00E4B23
:102C80001B6800200AB0BDE8F04118470B489CE7DC
:102C90000B4821460AB0BDE8F041FFF78FBC00BFEA
:102CA000382800206C280020BC710108F027002083
:102CB000F8710108F82700207028002033720108FD
:102CC000677201082DE97043044699460D46904607
:102CD00004F0E8FE636B23B994F838300BB104F0CC
:102CE0008BFC04F12806AE420BD03046FDF7DCFD2C
:102CF0003EB1EB681BB15B68294630469847EB68EC
:102D0000636342464B46204604F049F9BDE87043F0
:102D100004F0DEBEF0B506468DB0012000F070FC78
:102D2000012806D11E48FFF749FC4FF0FF300DB0D7
:102D3000F0BD1C4B1C4F18684FF48072002107F146
:102D4000100506F023FD0FCD6C460FC495E80F006B
:102D500084E80F0097E80F00FFF722F902233B7188
:102D6000E6B11022002108A806F010FD0F4B0893D1
:102D700030460F4B0B9311F079FC00220D4B11F0F4
:102D8000EFFC12F085F802460B460B4808A9FFF746
:102D900099FF08A8FDF788FD0020C8E73046C6E780
:102DA000A8730108F02700203828002035260008E5
:102DB000EC5F010800408F40F8270020F0B5304C50
:102DC0002379032B8FB006460D4606D12D48FFF719
:102DD000F5FB4FF0FF300FB0F0BD042000F010FC09
:102DE0000128F3D0FFF718FC0A2005F00BF90220A8
:102DF00000F006FC012000F003FC012801D122486C
:102E0000E5E763791BB1012B03D000270CE01F48D5
:102E1000DDE794F82100FFF796FB2946304684F859
:102E20002E50FFF7ACFB676A194E08970FCE6D4620
:102E30000FC596E80F0085E80F0094E80F00FFF734
:102E4000D1FA0323102200210AA8237106F09EFC68
:102E5000104B0A933846104B0D9311F007FC0022DB
:102E60000E4B11F07DFC12F013F802460B460C4895
:102E70000AA9FFF727FF0AA8FDF716FD0020AAE719
:102E800038280020CF730108FF7301082674010859
:102E90004828002035260008EC5F010800408F40DC
:102EA000F827002010B50C4C204604F033F82046DB
:102EB0000A4B40F8283B1022002106F067FC012352
:102EC00084F83830064B23602046064A0649BDE8A0
:102ED000104001F05FB800BFF8270020B48501085A
:102EE00028860108C8010020F108000810B5044632
:102EF000044B40F8B83BD4F8C4300BB19B689847FA
:102F0000204610BD448701080FB407B5064B07499A
:102F10001B6805AAD86801920AF064FC03B05DF84A
:102F200004EB04B0704700BF740600206F7A0108FC
:102F3000F8B50D4C0D4F23681646E2681B040D468C
:102F4000136040F08001094804F084FA013D2E44EA
:102F5000B54205D015F8011F384604F07BFAF7E7B3
:102F6000A36822681A60F8BD302900206829002073
:102F7000F8B50E4C0E4F23681646E2681B040D464A
:102F8000136000F07F010A4804F064FA013D2E440A
:102F9000B54206D00021384604F05CFA05F8010F6E
:102FA000F6E7A36822681A60F8BD00BF3029002048
:102FB0006829002010B50446FFF798FF204601F06D
:102FC00056F9204610BD07B502AB012203F8011DDA
:102FD0001946FFF7ADFF03B05DF804FB07B501220A
:102FE0000DF10701FFF7C4FF9DF8070003B05DF87E
:102FF00004FB0A4601460020FFF79ABF0A46014635
:103000000020FFF7B5BF000010B511F02FFB0CA397
:10301000D3E9002311F0CEFC11F07AFE0446C0F390
:1030200007410620FFF7CFFFC4F307210720FFF772
:10303000CAFFE1B20820BDE81040FFF7C4BF00BFDF
:103040000000000080844E40144910B50A78044600
:1030500090B932B901230B70114BDA681B681B045D
:1030600013600120FFF7BAFF00F0F80121430120AF
:10307000BDE81040FFF7A7BF094B2AB11A6800202E
:103080000870D96812040A60032C1A6803D0DB6840
:1030900012041A60E5E79B68FBE700BF442A0020A2
:1030A000142900200120FFF7CFBF0020FFF7CCBF7D
:1030B00010B504460120FFF791FFC0F3C010844211
:1030C00026D0012C13D0FFF7F0FF0120FFF786FF79
:1030D00000F07F010120FFF776FF00214020FFF77D
:1030E00072FF30214120BDE81040FFF76CBFFFF7B1
:1030F000DCFF2046FFF772FF60F07F01C9B2204677
:10310000FFF761FF00214020FFF75DFF0021E9E7A5
:1031100010BD10B504460120FFF7CAFF2CB13421C1
:103120003920BDE81040FFF74EBF1221F8E700003C
:103130002DE9FF47594C054604F0B4FC0121204617
:1031400000F000FC04F0C4FC2368E2681B04136078
:10315000012004F057FF04F0A5FC2046002100F0F8
:10316000F1FB04F0B5FC062004F04CFF2E784C4C2B
:10317000042E1CD104F096FC0021204600F0E2FB56
:1031800004F0A6FC012004F03DFF63681A68236880
:103190001A4214BF0126002604F084FC20460121B7
:1031A00000F0D0FB04F094FC012004F02BFF236816
:1031B000E2683C483C4C1B0413603C4B9A681B681B
:1031C00013600821002204F023F9394804F00CFFB1
:1031D0000020FFF739FF1022ACBB2146684606F0FD
:1031E000D5FA69463348344C04F021F86846FDF7B7
:1031F0005BFB10227CBB2146684606F0C7FA694695
:103200002E48DFF8C8802E4C04F011F86846FDF710
:103210004BFB4FF0030900235F1CDBB2D8F8002002
:10322000B2FBF9F29A421ED903EB430304EB030A03
:10323000E05CFFF73DFF9AF802109AF80100FFF7F3
:10324000C2FE3B46E8E70021684606F09FFA1D4BA8
:1032500000940393C5E70021684606F097FA194BDE
:1032600000940393CBE76879174CFFF721FF95F89B
:103270002800FFF74EFF4220FFF7B0FE38B9204686
:10328000FFF742FE4FF07E5004F0AEFEF3E7A86871
:10329000FFF7BAFE304604B0BDE8F0874C290020A5
:1032A0001429002068290020852B000830290020DF
:1032B000CDCCCC3D742800203D2B0008C428002034
:1032C0003C7A0108EC5F01086F7A0108D001002008
:1032D00073B5224D224C234E0A21284603F04CFFA1
:1032E0002846214D2246314600F054FE132128463F
:1032F00003F042FF2246314628461C4D00F04AFEAC
:103300004FF0FF330093062205230721284604F0DF
:10331000D3F822461649284600F03CFE154B1C24E3
:1033200022461846002106F031FA162103F0DAFE93
:10333000114B22461846002106F028FA002103F01E
:10334000BEFE0E4B22460021184606F01FFA212130
:1033500002B0BDE8704003F0B2BE00BF7428002088
:10336000C8010020D1710008C4280020682900206D
:10337000ED2E0008302900204C29002014290020BF
:103380000FB407B5064B04AA1B6852F8041BD86893
:1033900001920AF027FA03B05DF804EB04B070471D
:1033A0007406002013B5084B0024CDE90034012237
:1033B000082307212046FEF753FDFEF74DFD034B82
:1033C0001C7002B010BD00BF2021F636452A002037
:1033D00010B5044648B9FFF7E3F9FFF7E3FF084BE0
:1033E0001B682046BDE810401847012807D1FFF7A9
:1033F000D7F9FFF7D7FF024B02201B68F2E710BD99
:10340000882A00202DE9F041884615461F469DF97F
:10341000186000283BD1202A03D92648FFF7B0FFC7
:103420002025254C2A464146204606F099F8234B94
:103430001F80234B1E7026782746FEB9214BA478A7
:103440001B78A34201D0FF2C1BD1A4F1FF035C42E7
:103450005C4101261C4B1B78ABB9FFF7A1F9FFF7C4
:10346000A1FF012E24D1194B787819492A1F1D6814
:10347000D2B22346AC46BDE8F04160470024264660
:10348000E8E73446E6E71348FFF77AFFE9E7013853
:1034900001280DD80C4B1B782BB9FFF781F9BDE83B
:1034A000F041FFF77FBF0B48BDE8F041FFF768BF71
:1034B000BDE8F0817C7B0108462A0020922A00208A
:1034C000902A0020942A0020452A00208C2A0020DF
:1034D0004A2A0020C17B01080A4B10B518700A4B1C
:1034E00019600A4B0A491A6004460A48FFF7D8F8DF
:1034F000094B00225C701A70FFF752F9BDE81040CA
:10350000FFF750BF942A0020882A00208C2A002030
:1035100005340008D1330008662A0020F7B5184F9B
:103520003C7834B117482146FFF72AFF012003B049
:10353000F0BD1C2905D914482022FFF721FF0320E4
:10354000F5E7124D0E1DAA70F6B20A460146281D77
:103550002C70EE7006F004F8FFF722F90C4A0823ED
:10356000CDE900322146012307220E20FEF75CFE42
:1035700031462846FEF740FE01233B702046D6E741
:10358000452A0020917A0108D27A0108662A002093
:103590002021F636014BB3F900007047922A002033
:1035A000014B93F900007047902A002010B5074B9B
:1035B0001C78012C05D106482146FFF7E1FE204684
:1035C00010BD044B18700020FAE700BF452A002008
:1035D0001C7B0108942A00200FB407B5064B07494D
:1035E0001B6805AAD86801920AF0FCF803B05DF8E0
:1035F00004EB04B0704700BF74060020367C01085D
:1036000037B501460D480E4A037803EB83052A447B
:10361000545C012C06D00B4B2B445B5C03702046A2
:1036200003B030BD0848642202FB03000090074845
:1036300002FB01020648FFF7CFFFF0E7952A0020C2
:10364000227C01080E7C0108C8030020D401002060
:10365000367C0108014B1878704700BF952A00207E
:10366000014B00221A707047952A002043692DE90A
:10367000F0410D46D907044628D58168334F82684A
:10368000334E836833483940B94202EA060204BF28
:103690000127A760B24203EA000304BF4FF480761B
:1036A000A660834204BF4FF48030A0602748814267
:1036B00005D027498A4202D0264A934206D1264B9A
:1036C000264A1B6852F8250001219847E268636981
:1036D000920708D09F0706D51F4B204A1B6852F857
:1036E000250000219847A169626963698E070AD5A0
:1036F000900508D5190406D5174B184A1B6852F8CF
:10370000250005219847A7696669626917F00407D3
:1037100006F4806609D046B1120406D50E4B0F4A56
:103720001B6852F825000721984763695FB156B1BD
:103730001B0408D5084B094A1B6852F825000221D2
:10374000BDE8F0411847BDE8F08100BF0300000468
:103750000003000800000310A02A0020982A00207F
:1037600000210148FFF782BF00640040FFF7F8BF67
:10377000FFF7F6BF01210148FFF778BF006800405E
:10378000FFF7F8BFFFF7F6BF30B5036891FAA1F471
:10379000B4FA84F491FAA1F10325B1FA81F164003D
:1037A00005FA04F4490023EA040302FA01F119437B
:1037B000016030BD00B5002389B007286FD8DFE86D
:1037C00000F00413202D3A4754610093364B3748DC
:1037D0001A6B42F001021A631B6B03F001030093A2
:1037E000009B09B05DF804FB01932F4B30481A6B26
:1037F00042F002021A631B6B03F002030193019B68
:10380000EFE70293284B2B481A6B42F004021A632D
:103810001B6B03F004030293029BE2E70393224B2A
:1038200025481A6B42F008021A631B6B03F0080369
:103830000393039BD5E704931B4B20481A6B42F07C
:1038400010021A631B6B03F010030493049BC8E778
:103850000593154B1A481A6B42F020021A631B6B32
:1038600003F020030593059BBBE706930E4B154819
:103870001A6B42F040021A631B6B03F0400306937D
:10388000069BAEE70793084B0F481A6B42F0800285
:103890001A631B6B03F080030793079BA1E70B4898
:1038A00004F068FC00209CE7003802400000024061
:1038B0000004024000080240000C024000100240D8
:1038C0000014024000180240001C02400C7F010856
:1038D000431C10B5044604D176220649064803F07D
:1038E000CBFE2046002100F00DFE04F00F04012065
:1038F000A04010BD2D7F0108877F010870B50446E8
:103900004B1C0E46218216D0C1F30310FFF752FF65
:1039100005463046FFF7DCFF238A074A656103F05E
:103920000F03206052F82330A36105F1100318350E
:103930006360A560E56070BD44820108B0F91000C5
:1039400000F078BE0A4619B981694069FFF71CBFCB
:103950000122F9E74C23F0B54343224E224F1A1DB2
:10396000324400244FF0010E1E448C4205D1014622
:10397000BDE8F0401D4804F0FDBB33680EFA04F5C5
:103980001D422BD0136B7D690EFA03F32B4225D019
:10399000D2F818C07B61156805B3FA6833EA0202F1
:1039A00003D1BA6833EA020214D10F4A916833EAAC
:1039B000010103D1D26833EA02020DD1DCF81020F4
:1039C000134214BF01210221094B28461B68BDE8A0
:1039D000F04018470221F7E70121F5E701340432EE
:1039E000C3E700BFA42A0020003C0140C17F0108BA
:1039F000B82C002006210846FFF7ACBF0521084679
:103A0000FFF7A8BF01210420FFF7A4BF0121032075
:103A1000FFF7A0BF01210220FFF79CBF012108464C
:103A2000FFF798BF01210020FFF794BF012910B5CF
:103A300018D11B4C838952B1A26803F00F0399403F
:103A40001143A160836843F00103836010BDA26845
:103A500003F00F03994022EA0101A160836823F07B
:103A60000103F2E70229F1D10D4983895AB1CC68EB
:103A700003F00F03012202FA03F32343CB608368B0
:103A800043F00203E1E7CA6803F00F03012404FADC
:103A900003F322EA0303CB60836823F00203D4E735
:103AA000003C0140B0F90C3099B270B501F00F063E
:103AB00006F00C0404F1804404F59C3401F0030189
:103AC000A56889000F228A40C3F3031325EA020583
:103AD0008B402B43A3600F4B01221968B240114366
:103AE00019608468E50742BF996811439960A1078E
:103AF00042BFD9680A43DA6090F90030002B08DB36
:103B00005909012203F01F0302FA03F3024A42F8A3
:103B1000213070BD003C014000E100E02DE9F04F94
:103B200092464A1C85B080460C4666D0002203921D
:103B3000334A344F516C41F480415164526C02F469
:103B400080420392039A04F00F090C2202FB0972CF
:103B5000C4F303105568062D47D8DFE805F0043A92
:103B60003C3E40424400284E0193FFF723FE0C21C7
:103B700001FB09F17A1857F801E0244FA8F80C402E
:103B80004C21694301247B5892F90820C8F804505D
:103B900004FA0EF44FF0000B1C4388F80020C8F81C
:103BA00008B07C50132101FB05E507EB8501019B63
:103BB0004B60174BC861C3F800A0164BC1F8349096
:103BC0009B681032404643F82260FFF76BFF58466F
:103BD00010E0114EC8E7114EC6E7114EC4E7114E72
:103BE000C2E7114EC0E7114EBEE7114804F0C2FA19
:103BF0004FF0FF3005B0BDE8F08F0846FAE700BF90
:103C000000380240EC7F0108253A0008A42A002071
:103C1000B82C002000ED00E01D3A0008153A00081D
:103C20000D3A0008053A0008FD390008F53900088A
:103C30009A7F01088389184A03F00F03012110B508
:103C400001FA03F39468DB431C409460D4681C4081
:103C5000D46014682340136090F90030002B0CDB13
:103C60005A0903F01F0301FA03F320320B4941F80C
:103C70002230BFF34F8FBFF36F8F90F90030002BCE
:103C800009DB5A09012103F01F0301FA03F3603233
:103C9000024941F8223010BD003C014000E100E043
:103CA000838903F00F020C235343104A70B5446814
:103CB000D658FFF7BFFF4C210D4A6143012000FA9F
:103CC00006F55058132303FB046320EA0500505007
:103CD00002EB830000214160981D0C3302EB800051
:103CE00002EB83034160596070BD00BFEC7F0108A7
:103CF000A42A002008B503F07DF8002008BD0000CC
:103D000008B50A4B1B684BB103F0F0F904F0EFF86B
:103D10004FF47A72002311F06BF808BD03F0BEF87F
:103D20004FF47A73B0FBF3F008BD00BFBC2C002049
:103D300010B588B003F0B6FE052101A803F0D2F952
:103D40000424039B019A1A60962004F05BF9019BFE
:103D5000049A1B041360962004F054F9013CF0D13E
:103D60000424039B019A1A604FF4C87004F04AF9C6
:103D7000019B049A1B0413604FF4C87004F042F9CD
:103D8000013CEED1DCE7000070B50D46A0B0044662
:103D900003F088FE2B462246802168460BF070F91E
:103DA000051E03DC03F094FE20B070BD094B1B68B8
:103DB00023B903220221084800F090FE064E002499
:103DC0001DF804103046013401F06AF8A542F7D11D
:103DD000E8E700BF042D0020AC2E00200FB407B58B
:103DE00004A951F8040B0191FFF7CEFF03B05DF871
:103DF00004EB04B07047000008B502F0A9FF01F021
:103E0000ADF802F095FF02F0A3FF024B01221A6009
:103E100008BD00BFBC2C00200020704703680122B1
:103E20001B6900211847036800221B6911461847C7
:103E300003681B69184703689B69184703689B6AF6
:103E4000184700290CBF6FF01800002070470120B0
:103E500070471120704770476FF01C0070476FF07B
:103E60001500704701207047002070477047000020
:103E7000F8B5074E15460C468F18BC4205D014F80D
:103E8000011B304601F00CF8F7E72846F8BD00BFEB
:103E9000AC2E002038B58DB215F0010405D00848CD
:103EA00000F098FD041C18BF0124EB0605D504485A
:103EB00000F0A6FD08B144F01004204638BD00BF54
:103EC000AC2E002010B5044605F0F2FA204610BDD5
:103ED00010B50C462AB1044800F0D0FF2070012034
:103EE00010BD104610BD00BFAC2E002038B51D46D9
:103EF000074B0360074B1B68044633B9064800F0C4
:103F0000EDFD2946044800F0B1FD204638BD00BF54
:103F100028810108042D0020AC2E002000207047CD
:103F20000020704708B5012000F036F80C4A1368ED
:103F300010B51844EFF30881884205D3094B0C22D1
:103F40001A604FF0FF3010BD07490C6824B10749D3
:103F5000096821448842F1D21060184610BD00BFA4
:103F600058060020742E0020D02C0020D42C0020D5
:103F7000074C08B523680546986804F059FC236887
:103F8000D86804F055FC0DB1FFF7D2FEFEE700BF84
:103F9000740600200120704708B5FFF7E9FF0120F3
:103FA0007047002105F068BD04F07CBC7047704785
:103FB00008B5FFF7FBFF08BD08B5FFF7F8FF08BD20
:103FC00010B5037803F00303012B04460CD02BB18A
:103FD00040F2A9520549064803F04EFB237843F00E
:103FE00002032370012010BD002010BD7081010864
:103FF000C781010810B5037803F00303022B0446C0
:1040000005D040F2B1520549054803F035FB23784D
:1040100023F0030343F00103237010BD70810108F6
:10402000ED8101083F2870B504462FDC184D55F886
:1040300020305A1C13D1022811DCFFF771FF034610
:1040400058B92046FFF76AFF034630B9114E33785E
:10405000BFF35B8FDB0704D50F4B45F824301846C0
:1040600070BD3046FFF7ACFF0028F5D04FF4165373
:10407000032202210848FFF739FF3046FFF7BAFF55
:10408000064A07490448FFF785FFE5E70023E6E70E
:1040900058050020C02C0020CC2C0020C801002096
:1040A0006D3E000838B50546FFF7BCFF0B4B0024FA
:1040B00043F8254030B904F081FA092303604FF03A
:1040C000FF3038BD03685B699847051E04DA04F0C9
:1040D00075FA6D420560F2E7204638BD58050020AC
:1040E000FFF7E0BF38B50C461546FFF79BFF38B920
:1040F00004F064FA092303604FF0FF34204638BD12
:1041000003682146DB682A469847041EF6DA04F065
:1041100055FA64420460EFE708B5131E06DA04F0AE
:104120004DFA162303604FF0FF3008BD04D0FFF7AF
:10413000D9FF40EAE07008BD184608BD38B50C4606
:104140001546FFF76FFF38B904F038FA092303600A
:104150004FF0FF34204638BD036821469B682A464D
:104160009847041EF6DA04F029FA64420460EFE787
:10417000002A08B503DBBDE80840FFF7DFBF04F005
:104180001DFA162303604FF0FF3008BD10B5FFF78E
:1041900049FF044628B904F011FA092303602046B8
:1041A00010BD0368DB699847041EF8DA04F006FACC
:1041B000644204600024F2E71FB504220C46402349
:1041C0000DEB020101900DF109008DF8083005F0AA
:1041D000C7F9214602A804F0F3FC044630B1019867
:1041E000FFF7D4FF10B12046FFF7DBFE204604B0F6
:1041F00010BDFFF7CBBF38B50C461546FFF712FFD1
:1042000038B904F0DBF9092303604FF0FF3420468E
:1042100038BD036821461B692A469847041EF6DA12
:1042200004F0CCF964420460EFE7FFF7E4BF38B56F
:104230000D46FFF7F7FE044630B904F0BFF9092335
:1042400003604FF0FF3038BD0368DB6998470028F2
:1042500014BF4FF400534FF400436B6023682046B3
:104260009B6A98472861002038BDFFF7E0BF05F042
:104270001FB90000034610B553F8042B044602B9D9
:10428000036022689A4204D05E220349034803F087
:10429000F3F9206810BD00BFAC8001080B81010854
:1042A00010B504460948FFF7E5FF0023084A194600
:1042B00052F82300A04208BF42F823100133402BDC
:1042C000F6D10248FFF7D6FF10BD00BFC42C002076
:1042D0005805002010B50F48FFF7CCFF0E4B032404
:1042E00053F824206AB10134402CF9D104F066F966
:1042F000182303600748FFF7BDFF4FF0FF34204647
:1043000010BD4FF0FF32034843F82420FFF7B2FFFF
:10431000F5E700BFC42C00205805002010B5044666
:10432000FFF7D8FF0028A4BF014B43F8204010BD81
:104330005805002070B506460C46FFF7EFFF05460E
:1043400090B12146FFF738FF044630B9074B53F8C8
:104350002520964203D143F82500204670BD04F085
:104360002DF909230360F8E70446F6E75805002015
:104370000EB42DE9F04185B00546FFF7ABFF041EF2
:1043800013DB0023294602A8019303F0C7FD02A80E
:1043900003F016FE1B4D064668B904F00FF913230F
:1043A000036045F824604FF0FF34204605B0BDE8B7
:1043B000F04103B0704702A803F0F0FD074602A8E1
:1043C00037B103F0F4FD0190019B45F82430ECE790
:1043D00003F0DBFD06460028DFD0036802A8D3F80F
:1043E000088003F0C7FD0B9B024601A93046C04779
:1043F00006460028E8D004F0E1F87642066045F869
:104400002470D0E75805002073B50E4618490546BC
:1044100005F08AFC044620B9FFF704FE204602B0EE
:1044200070BD1449284605F07FFC20B90120FFF734
:10443000F9FD0124F2E71049284605F075FC20B982
:104440000220FFF7EFFD0224E8E72B78402B07D18D
:104450000422691C0DEB020005F082F8019CDDE7E7
:1044600026F400412846FFF783FF0446D6E700BF45
:10447000348201083B8201082C8201087047704792
:10448000074B08499A68084810B5043A52F8044F97
:1044900041F8044F8142F9D14FF000529A6010BDAB
:1044A00000ED00E0FCFFFF1FC001002008B5FFF792
:1044B000E7FFFFF7A1FCFFF7E2FF08BD08B5FFF734
:1044C000DDFFBDE80840FBF7F7BE30B5C36891FAE1
:1044D000A1F4B4FA84F491FAA1F10325B1FA81F1BF
:1044E000640005FA04F4490023EA040302FA01F126
:1044F0001943C16030BD012A02D0022A18BF002230
:10450000FFF7E3BF2DE9F0410E46411C044604D1FC
:104510003E224449444803F0AFF804F00F08434BEF
:10452000C4F3031053F82850FFF744F906F00707C7
:104530000446836895FAA5F1B1FA81F195FAA5F2DE
:104540000320490000FA01F1B2FA82F223EA0103E2
:104550005200022101FA02F21343A36087425AD8A3
:10456000DFE807F05E1D021DB8F1070FC6F3032058
:104570003BD9626A2B0A93FAA3F1B1FA81F193FA5B
:10458000A3F34FF00F0EB3FA83F389000EFA01F193
:104590009B0022EA010200FA03F3134363623B46E5
:1045A000226895FAA5F0B0FA80F095FAA5F14FF0DF
:1045B000030EB1FA81F140000EFA00F0490022EA40
:1045C00000028B40013F1343012F236005D863682D
:1045D00032074CBF2B43AB436360C6F3011229463D
:1045E0002046BDE8F041FFF786BF226A95FAA5F3A1
:1045F000B3FA83F395FAA5F14FF00F0EB1FA81F1FA
:104600009B000EFA03F3890022EA030200FA01F389
:1046100013432362C3E767220249054803F02CF8DD
:104620000023BDE784820108877F010844820108D6
:104630007B890108431C70B506460D4604D18822CB
:104640001B491C4803F018F806F00F021A4BC6F37A
:10465000031053F82240FFF7ADF804FB04F20168A1
:1046600002EB42030B40B3FBF2F3013B012B05D8F5
:10467000EB1E022B436809D823434360032D08D166
:1046800001222146BDE87040FFF735BF23EA04034D
:104690004360012DF4D0052D01D0022D01D102225D
:1046A000EFE721460022BDE87040FFF70EBF00BFD4
:1046B00084820108877F01084482010870B5A6B092
:1046C0003422002102A805F061F85C2200210FA825
:1046D00005F05CF82A4B1D68002D4FD1294C01953F
:1046E00001261E60236C43F080532364236C03F087
:1046F00080530193019B00F05DFC042302A8029308
:104700000895049600F0C0FF10B11F4803F032FD79
:10471000A36823F4F813A360A36823F4F813A36039
:10472000236F43F48073236720230F930FA84FF464
:1047300080731F9300F058FD10B1144803F01AFD68
:10474000134B144801221A60134B03600322002309
:10475000826041F6FF7243774360C2600361436148
:10476000836101F05EF910B10C4803F003FD0948C4
:1047700001F089FA10B10A4803F0FCFC26B070BDC4
:10478000E02C002000380240DC820108FC82010895
:104790003C0E4742E42C00200028004025830108FD
:1047A0003F830108F0B51F4B1F491C681F4A5D6815
:1047B0008BB00C4015401E460F46186808408442D6
:1047C0002BD158681040854227D105F03F0001F0F9
:1047D00051FA0490C5F3042001F04CFA0138059019
:1047E000280C01F047FA44300690C4F3054001F06C
:1047F00041FA0390C4F3062001F03CFA029004F061
:104800007F0001F037FA01220190694601A802F009
:1048100051FF00B100980BB0F0BD346875683C40A2
:104820001540CAE7002800407F7F7F003FFFFF0060
:10483000024BD868C0F30010704700BF002800404A
:10484000214B224A2DE9F0411D691C689E6AC5F37F
:104850000E05144018461746196811408C422ED197
:10486000996A8E422BD1C4F3054001F003FA074642
:10487000C4F3062001F0FEF9804604F07F0001F049
:10488000F9F9134A13493C2313FB08004FF4616301
:1048900003FB07001368146898420B683CBF03F5DC
:1048A000A83303F5C0731B1B03440B60106008683A
:1048B000013DC00305EB9000801BBDE8F08104685A
:1048C000866A3C40C8E700BF002800407F7F7F0029
:1048D000DC2C0020D82C002030B591B0002114220F
:1048E000044602A8019104F051FF03F0DBF82A4BC3
:1048F0002A4A1A6007A90122204602F02BFF00284D
:1049000048D00D9B03B907238DF804300B9B01336E
:104910008DF805300A9B8DF806300C9B443B8DF8D2
:104920000730099B8DF80830089B8DF8093000246A
:10493000079B8DF80A308DF80B4005940694FFF71D
:104940007FFF9DF809109DF80A2013483C2313FBB4
:1049500001229DF808304FF4616101FB0323104AE6
:1049600013600E4B224601A99D6A01F0B3F810B105
:104970000C4803F0FFFB002202A9074801F00AF9E6
:1049800010B1094803F0F6FB044A936A9D42FCD13A
:1049900003F09EF811B030BDE42C00200028004048
:1049A000DC2C0020588301086F8301080FB407B581
:1049B000064B07491B6805AAD868019208F012FF48
:1049C00003B05DF804EB04B0704700BF740600202C
:1049D000868301084368094A9B0182B0D3581A684C
:1049E000120706D5002201921A6801925A680192B4
:1049F000019A1868C0F3401002B07047F82E0020EA
:104A00004368034A9B01D3581868C0F3C01070472D
:104A1000F82E002042681449920110B404685450E2
:104A2000531882685A60C2689A600269DA60426903
:104A30001A61026A9A610022DA84DA619A84DA855C
:104A40009A85B0F91A20013206D108225A61184617
:104A50005DF8044B01F0B1BEB0F9182001320CBF73
:104A600004220C22F2E700BFF82E002010B581606E
:104A70000C46FFF7CFFF28B121460348BDE81040A0
:104A8000FFF794BF10BD00BF86830108124B984208
:104A900017D0A3F54C43984215D003F58063984294
:104AA00013D003F58063984211D003F580639842D8
:104AB0000FD003F5444398420CBF05204FF0FF3060
:104AC0007047002070470120704702207047032084
:104AD00070470420704700BF00100140F0B50E463B
:104AE00087B004465B493046154602F037FC5A4908
:104AF0000746284602F032FC0146384602F008FC20
:104B00002060013004D13D225449554802F0B4FDE3
:104B1000022E0CD0032D0AD04E49022002F01EFCBA
:104B2000874202D14F4803F025FB002700E0012710
:104B30004D4B206898424FF000031AD100934B4B25
:104B40005A6C42F010025A645B6C03F0100300933D
:104B5000009B474B984229D100230593434B5A6C45
:104B600042F020025A645B6C03F020030593059B1E
:104B70001CE0404A90420BD101933C4B1A6C42F42A
:104B800000321A641B6C03F400330193019BE0E7CD
:104B9000394A904240D10293344B1A6C42F480223D
:104BA0001A641B6C03F480230293029BFFF76EFFD1
:104BB0000028606004DAA4222849304802F05CFD35
:104BC0002449304602F080FB2349284602F07CFB52
:104BD000721C03D001213046FFF72CFD6B1C03D063
:104BE00001212846FFF726FD4FF41653A36000234A
:104BF000E360236163612362268365832046FFF7B8
:104C000009FF3FB11E4B1F4801221A6021464C226A
:104C100004F0A6FC07B0F0BD1B4A90420BD10393F1
:104C2000124B1A6C42F400221A641B6C03F400232A
:104C30000393039BBAE7154A90428AD104930B4B26
:104C40001A6C42F480121A641B6C03F480130493F0
:104C5000049BABE7947E01081C7E0108B083010829
:104C60000C8401082884010800100140003802402B
:104C70000014014000440040004800405D840108E9
:104C8000042D0020AC2E0020004C004000500040BD
:104C9000002808DB4209012300F01F0003FA00F09E
:104CA000014B43F82200704700E100E000280DDBD3
:104CB0004309012200F01F0002FA00F02033044AE9
:104CC00042F82300BFF34F8FBFF36F8F704700BFD1
:104CD00000E100E0F7B5FFF7D9FE071E26DB144E12
:104CE00056F8270010B3134CBD0163591A68120619
:104CF00006D5DB68190603D50F4B01211B689847C1
:104D000063591A68920608D5DB68980605D50A4BE0
:104D100056F827001B680021984763591A68110745
:104D200004D55A69D20744BF5B68019303B0F0BD54
:104D30000C2D0020F82E0020082D00200148FFF740
:104D4000C9BF00BF001401400148FFF7C3BF00BF47
:104D5000005000400148FFF7BDBF00BF004C0040BD
:104D60000148FFF7B7BF00BF004800400148FFF708
:104D7000B1BF00BF004400400148FFF7ABBF00BF18
:104D800000100140034B19604168034B43F8212098
:104D9000704700BF082D00200C2D002030B490E893
:104DA00018002C48834233D00AD8A0F50060834213
:104DB00028D000F58060834227D0002318460FE0FA
:104DC000254883420AD000F58060834223D0A0F5B5
:104DD00044408342F1D1214B352001E0204B252076
:104DE000204DA401FAB1C9B92959CA6842F020027C
:104DF000CA601D4A00F11001926830BC42F82130AF
:104E0000FFF746BF194B2620EAE7194B2720E7E7B3
:104E1000184B3420E4E7184B4720E1E72959CA68CA
:104E200042F08002E4E72B59DA6849B922F0200207
:104E3000DA60DB6813F0800F09D130BCFFF736BFB2
:104E400022F08002DA60DB6813F0200FF4E730BC58
:104E5000704700BF004C004000100140494D000861
:104E6000794D0008F82E002000ED00E06D4D00089F
:104E7000614D0008554D00083D4D000838B54468A7
:104E800005462846FFF7A6FD0028FAD0A401034BEB
:104E90001B595868C0F3080038BD00BFF82E002029
:104EA00070B5456806460C463046FFF7A9FD002858
:104EB000FAD0AD01024B5B59C4F308045C6070BDCD
:104EC000F82E002008B50E4AC36D934214D008D8BE
:104ED000A2F5806293420FD00A4803F04BF90020FC
:104EE00008BD094A934203D002F580629342F3D190
:104EF000BDE8084000F04AB9BDE8084000F036B906
:104F0000003C00406F84010800300140DFF830D0E1
:104F1000002103E00B4B5B58435004310A480B4B14
:104F200042189A42F6D30A4A02E0002342F8043BB0
:104F3000084B9A42F9D301F01FFEFBF767F970475F
:104F4000000002209C920108C801002048100020A7
:104F500048100020C0300020FEE7704708B50B4B1A
:104F60001A6842F400721A601A6842F480621A6089
:104F70001A6842F480721A60032000F009F80F20CA
:104F8000FEF7B8FEFFF7E9FF002008BD003C024035
:104F9000074AD36823F4E0631B041B0C43F0BF6390
:104FA000000243F4003300F4E0600343D360704731
:104FB00000ED00E0014B01221A60704720000E4214
:104FC00037B500230193184B184C1A6C42F08052ED
:104FD0001A641B6C03F080530193019B144B012254
:104FE0001A60FEF78DFE05466368DA030BD5114B98
:104FF0000E4C01221A60FEF783FE054663689B0390
:105000000AD5002006E0FEF77BFE401BB0F57A7F54
:10501000EAD9032003B030BDFEF772FE401BB0F5A5
:105020007A7FEBD9F5E700BF0038024000700040FE
:1050300040000E4244000E422DE9F0410D46044668
:1050400010B90120BDE8F081444B1A6802F00F024C
:105050008A4228D321688F072DD4C80740D43F4BFC
:105060001A6802F00F02954266D3226851076CD489
:10507000130707D53A4A2169936823F4604343EA4A
:10508000C103936000F0B8FA354B364A9B68C3F30E
:105090000313D35CD840344B18600F20FEF72AFE70
:1050A0000020BDE8F081CAB21A701B6803F00F033C
:1050B0009942C6D1CEE72A4B11F0040F1EBF9A6861
:1050C00042F4E0529A600E0742BF9A6842F460428E
:1050D0009A609A68A06822F0F00202439A60BCE7E6
:1050E00062681F4B012A1DD11B6813F4003FA8D032
:1050F0001B4EB36823F003031343B360FEF700FEB7
:1051000041F288380746B368626803F00C03B3EBDA
:10511000820FA4D0FEF7F4FDC01B4045F3D9032055
:10512000BDE8F081911E01291B6802D813F0007FB1
:10513000DDE713F0020FDAE7EAB21A701B6803F03A
:105140000F039D427FF47DAF8FE70549E0688B68D0
:1051500023F4E05303438B608AE700BF003C024026
:1051600000380240758501085C060020044B054AA2
:105170009B68C3F38223D35C034A1068D84070470E
:1051800000380240858501085C060020044B054A72
:105190009B68C3F34233D35C034A1068D84070471E
:1051A00000380240858501085C0600200F2303605B
:1051B0000B4B9A6802F0030242609A6802F0F00218
:1051C00082609A6802F4E052C2609B68DB0803F4D4
:1051D000E0530361034B1B6803F00F030B60704740
:1051E00000380240003C024003682DE9F74313F009
:1051F000010604460BD0AA49866BD1F88C2022F018
:10520000C0623243B6FA86F6C1F88C2076099D0753
:105210000BD5A348E16BD0F88C2022F0C0520A4392
:105220000029C0F88C2008BF012613F0040512D015
:105230009B49256BD1F88C20B5F5801F22F44012D4
:1052400042EA050218BFB5FA85F5C1F88C2012BFF5
:105250006D090025012618070FD59148616BD0F81C
:105260008C2022F440020A43B1F5800FC0F88C2054
:1052700000F00981002908BF0125990633D50023D4
:105280000193874B874F1A6C42F080521A641B6C53
:1052900003F080530193019B3B6843F480733B60B0
:1052A000FEF72EFD80463B68DA0540F1EE807C4F2C
:1052B0003B6F13F4407340F0FB80236C03F44072A7
:1052C000B2F5407F764A40F01681916823F0704035
:1052D00021F4F81120F4407001439160116FC3F381
:1052E0000B030B4313672368D90642BF6E4B94F838
:1052F00058201A6023681A0608D56949E06CD1F86D
:10530000942022F440020243C1F894205F0608D59D
:105310006349A06CD1F8942022F080620243C1F866
:105320009420D8050CD55E48616DD0F8942022F009
:1053300000620A43B1F1006FC0F8942008BF012554
:10534000990508D55649606CD1F8942022F0805216
:105350000243C1F894205A0500F1D180012E40F09B
:10536000DC80524E4E4F00233360FEF7C9FC80466E
:105370003B681B0100F125812268D00701D5A36B92
:105380001BB1910715D5E36B9BB94549D1F8843022
:10539000D1F8840003F4403300F070600343606888
:1053A0000343A06843EA8013606943EA0073C1F8CD
:1053B0008430530703D5236BB3F5801F05D017073F
:1053C00020D5636BB3F5800F1CD13549D1F88430FB
:1053D000D1F8840003F4403300F0E04003436068F8
:1053E0000343A06843EA8013206943EA0063C1F8DD
:1053F0008430D1F88C00A36A20F01F00013B0343E6
:10540000C1F88C3050051BD5236DB3F1005F17D167
:1054100023486768D0F88410D0F8843003F0E04364
:105420003B43A768C1F30141013143EA871343EAD3
:105430004163E1684908013943EA0143C0F8843017
:10544000110511D52369A2681B0643EA821362681D
:105450001343626943EA0273E2685208013A43EA7D
:1054600002430F4AC2F8843001233360FEF748FC40
:105470000B4E074633681A0153D4FEF741FCC01B9C
:105480000228F7D908E00126F7E6FEF739FCA0EB81
:10549000080002287FF607AF032003B0BDE8F083C1
:1054A0000038024000700040E01147426800474267
:1054B000226C02F4407293423FF4FFAE3B6F4B4AC2
:1054C0000121116023F44073002111603B673B6FA1
:1054D000DB077FF5F2AEFEF713FC41F28839804618
:1054E0003B6F98073FF5E9AEFEF70AFCA0EB08001A
:1054F0004845F5D9D0E7916821F4F811EDE63C482C
:10550000216DD0F8942022F000520A43B1F1005FDF
:10551000C0F894207FF422AF23E7B3F5006F3FF487
:1055200020AF012D4BD1334D314E00232B60FEF7C0
:10553000E7FB074633689B004BD421684E0701D533
:10554000236B1BB108071AD5636BC3B9284AA0693E
:10555000D2F8883003F440330343E06943EA801310
:10556000606A43EA0063C2F88830D2F88C30E06A9F
:1055700023F4F853013843EA0023C2F88C30CA05FB
:1055800014D5636DB3F1006F10D11949A269D1F838
:10559000883003F070631343E26943EA8213226A9E
:1055A0005208013A43EA0243C1F8883001232B60D4
:1055B000FEF7A6FB0E4C054623689B000FD5002086
:1055C0006BE7FEF79DFBA0EB080002287FF6D0AE4C
:1055D00062E7FEF795FBC01B0228ABD95CE7FEF73C
:1055E0008FFB401B0228E7D956E700BF400E474219
:1055F0000038024070004742204908B58B6803F02C
:105600000C03082B07D00C2B20D01D4A1D48042B5F
:1056100018BF104608BD4A684B68496813F48003F8
:1056200014BF18481648C1F3881118BF002302F0B0
:105630003F02A1FB00010FF0DBFB104B5B68C3F3E3
:10564000014301335B00B0FBF3F008BD4A684B68CF
:10565000496813F4800314BF0A480948C1F388114C
:1056600018BF002302F03F02A1FB00010FF0C0FBB6
:10567000024B5B68C3F30273E5E700BF00380240EA
:105680000024F40000127A0003682DE9F341DF07DB
:10569000044610D423689E0767D423681A0700F1D4
:1056A000B28023685B0700F1D080A269002A40F035
:1056B000398100201EE0974B9A6802F00C02042A00
:1056C00010D09A6802F00C02082A02D15B685D02D1
:1056D00008D4904B9A6802F00C020C2A0DD15A683B
:1056E00050020AD58B4B1B689903D3D56368002BF6
:1056F000D0D1012002B0BDE8F0816268B2F5803FF0
:1057000011D11A6842F480321A60FEF7F9FA814D1D
:1057100006462B689A03BDD4FEF7F2FA801B642874
:10572000F7D90320E6E77B4DB2F5A02F2B6807D110
:1057300043F480232B602B6843F480332B60E4E731
:1057400023F480332B602B6823F480232B60002A02
:10575000DBD1FEF7D5FA06462B689B039AD5FEF7F8
:10576000CFFA801B6428F7D9DBE76A4B9A6812F0FE
:105770000C0F10D09A6802F00C02082A02D15B6864
:105780005F0208D5634A936803F00C030C2B11D118
:1057900053685E020ED45F4B1A68950702D5E26823
:1057A000012AA6D11A68216922F0F80242EAC10250
:1057B0001A6072E7E268584BB2B101221A60FEF734
:1057C0009FFA544D06462B68980707D52B68226927
:1057D00023F0F80343EAC2032B605EE7FEF790FA7A
:1057E000801B0228EFD99CE71A60FEF789FA494D21
:1057F00006462B6899077FF550AFFEF781FA801BAC
:105800000228F6D98DE76269444B7AB101221A6009
:10581000FEF776FA3F4D06466B6F9F073FF541AFA7
:10582000FEF76EFA801B0228F6D97AE71A60FEF7B7
:1058300067FA384D06466B6F98077FF532AFFEF773
:105840005FFA801B0228F6D96BE7324B1A6C12F014
:10585000805228D101921A6C42F080521A641B6C5B
:1058600003F080530193019B01262D4D2B68D90530
:105870001BD5A368274D012B27D12B6F43F00103C4
:105880002B67FEF73DFA234D074641F288382B6F10
:105890009B0739D5002E3FF408AF1E4A136C23F046
:1058A0008053136401E70026DFE72B6843F480731D
:1058B0002B60FEF725FA07462B68DA05D9D4FEF7E8
:1058C0001FFAC01B0228F7D92BE7052B04D12B6F39
:1058D00043F004032B67D0E72A6F22F001022A6706
:1058E0002A6F22F004022A67002BCAD1FEF708FAB9
:1058F00041F2883807462B6F9807CBD5FEF700FAA0
:10590000C01B4045F7D90CE7FEF7FAF9C01B40452C
:10591000BDD906E70038024000004742800E4742EA
:1059200000700040234DAB6803F00C03082B3FF4DC
:10593000E0AE214E0023022A33602DD1FEF7E0F9BC
:1059400007462B68990121D4226AE3691343626AEE
:1059500043EA8213E26A43EA0263226B43EA027378
:10596000A26A144C5208013A43EA02436B600123D5
:105970003360FEF7C5F9054623689A013FF599AEF5
:10598000FEF7BEF9401B0228F6D9CAE6FEF7B8F9C1
:10599000C01B0228D5D9C4E6FEF7B2F904462B682D
:1059A0009B017FF586AEFEF7ABF9001B0228F6D906
:1059B000B7E600BF00380240600047427047026807
:1059C00038B5D36823F0A003D3600446FEF798F9F6
:1059D00005462368DB689B0601D5002038BDFEF72D
:1059E0008FF9401BB0F57A7FF3D9032038BD38B565
:1059F0000368DA685206044601D5002038BD4FF02E
:105A0000FF32DA60FEF77CF905462368DB685B0647
:105A1000F3D4FEF775F9401BB0F57A7FF5D9032072
:105A200038BD38B50446B8B1437F03F0FF0213B95F
:105A30000277FFF7C3FF022363772368CA225A6203
:105A400053225A622046FFF7D2FF2368054628B149
:105A5000FF225A620423637701252EE09A682069A9
:105A600022F4E00222F040029A60626899680243E0
:105A7000606902430A439A60E2681A611A69A16880
:105A800042EA01421A61DA6822F08002DA609B6819
:105A90009B0605D42046FFF792FF08B12368D7E79D
:105AA0002368A1691A6C22F480221A641A6C0A43D2
:105AB0001A64FF225A6201236377284638BD002307
:105AC000092803D840EA0310C0B270470A380133EE
:105AD000C0B2F5E7F8B5037F012B05464FF002068B
